{
  "contractName": "MoCState",
  "abi": [
    {
      "constant": true,
      "inputs": [],
      "name": "getReservePrecision",
      "outputs": [
        {
          "name": "",
          "type": "uint256"
        }
      ],
      "payable": false,
      "stateMutability": "view",
      "type": "function"
    },
    {
      "constant": true,
      "inputs": [],
      "name": "governor",
      "outputs": [
        {
          "name": "",
          "type": "address"
        }
      ],
      "payable": false,
      "stateMutability": "view",
      "type": "function"
    },
    {
      "constant": true,
      "inputs": [],
      "name": "smoothingFactor",
      "outputs": [
        {
          "name": "",
          "type": "uint256"
        }
      ],
      "payable": false,
      "stateMutability": "view",
      "type": "function"
    },
    {
      "constant": true,
      "inputs": [],
      "name": "getGovernorAddress",
      "outputs": [
        {
          "name": "",
          "type": "address"
        }
      ],
      "payable": false,
      "stateMutability": "view",
      "type": "function"
    },
    {
      "constant": true,
      "inputs": [],
      "name": "peg",
      "outputs": [
        {
          "name": "",
          "type": "uint256"
        }
      ],
      "payable": false,
      "stateMutability": "view",
      "type": "function"
    },
    {
      "constant": false,
      "inputs": [
        {
          "name": "blockSpan",
          "type": "uint256"
        }
      ],
      "name": "setEmaCalculationBlockSpan",
      "outputs": [],
      "payable": false,
      "stateMutability": "nonpayable",
      "type": "function"
    },
    {
      "constant": true,
      "inputs": [],
      "name": "BUCKET_X2",
      "outputs": [
        {
          "name": "",
          "type": "bytes32"
        }
      ],
      "payable": false,
      "stateMutability": "view",
      "type": "function"
    },
    {
      "constant": true,
      "inputs": [],
      "name": "getEmaCalculationBlockSpan",
      "outputs": [
        {
          "name": "",
          "type": "uint256"
        }
      ],
      "payable": false,
      "stateMutability": "view",
      "type": "function"
    },
    {
      "constant": true,
      "inputs": [],
      "name": "bproMaxDiscountRate",
      "outputs": [
        {
          "name": "",
          "type": "uint256"
        }
      ],
      "payable": false,
      "stateMutability": "view",
      "type": "function"
    },
    {
      "constant": true,
      "inputs": [],
      "name": "dayBlockSpan",
      "outputs": [
        {
          "name": "",
          "type": "uint256"
        }
      ],
      "payable": false,
      "stateMutability": "view",
      "type": "function"
    },
    {
      "constant": true,
      "inputs": [],
      "name": "emaCalculationBlockSpan",
      "outputs": [
        {
          "name": "",
          "type": "uint256"
        }
      ],
      "payable": false,
      "stateMutability": "view",
      "type": "function"
    },
    {
      "constant": true,
      "inputs": [],
      "name": "connector",
      "outputs": [
        {
          "name": "",
          "type": "address"
        }
      ],
      "payable": false,
      "stateMutability": "view",
      "type": "function"
    },
    {
      "constant": true,
      "inputs": [],
      "name": "rbtcInSystem",
      "outputs": [
        {
          "name": "",
          "type": "uint256"
        }
      ],
      "payable": false,
      "stateMutability": "view",
      "type": "function"
    },
    {
      "constant": true,
      "inputs": [],
      "name": "PRICE_PRECISION",
      "outputs": [
        {
          "name": "",
          "type": "uint256"
        }
      ],
      "payable": false,
      "stateMutability": "view",
      "type": "function"
    },
    {
      "constant": true,
      "inputs": [],
      "name": "getLastEmaCalculation",
      "outputs": [
        {
          "name": "",
          "type": "uint256"
        }
      ],
      "payable": false,
      "stateMutability": "view",
      "type": "function"
    },
    {
      "constant": true,
      "inputs": [],
      "name": "lastEmaCalculation",
      "outputs": [
        {
          "name": "",
          "type": "uint256"
        }
      ],
      "payable": false,
      "stateMutability": "view",
      "type": "function"
    },
    {
      "constant": true,
      "inputs": [],
      "name": "FACTOR_PRECISION",
      "outputs": [
        {
          "name": "",
          "type": "uint256"
        }
      ],
      "payable": false,
      "stateMutability": "view",
      "type": "function"
    },
    {
      "constant": true,
      "inputs": [],
      "name": "shouldCalculateEma",
      "outputs": [
        {
          "name": "",
          "type": "bool"
        }
      ],
      "payable": false,
      "stateMutability": "view",
      "type": "function"
    },
    {
      "constant": false,
      "inputs": [
        {
          "name": "factor",
          "type": "uint256"
        }
      ],
      "name": "setSmoothingFactor",
      "outputs": [],
      "payable": false,
      "stateMutability": "nonpayable",
      "type": "function"
    },
    {
      "constant": false,
      "inputs": [
        {
          "name": "newIGovernor",
          "type": "address"
        }
      ],
      "name": "changeIGovernor",
      "outputs": [],
      "payable": false,
      "stateMutability": "nonpayable",
      "type": "function"
    },
    {
      "constant": true,
      "inputs": [],
      "name": "liquidationPrice",
      "outputs": [
        {
          "name": "",
          "type": "uint256"
        }
      ],
      "payable": false,
      "stateMutability": "view",
      "type": "function"
    },
    {
      "constant": true,
      "inputs": [],
      "name": "state",
      "outputs": [
        {
          "name": "",
          "type": "uint8"
        }
      ],
      "payable": false,
      "stateMutability": "view",
      "type": "function"
    },
    {
      "constant": true,
      "inputs": [],
      "name": "getSmoothingFactor",
      "outputs": [
        {
          "name": "",
          "type": "uint256"
        }
      ],
      "payable": false,
      "stateMutability": "view",
      "type": "function"
    },
    {
      "constant": true,
      "inputs": [],
      "name": "BUCKET_C0",
      "outputs": [
        {
          "name": "",
          "type": "bytes32"
        }
      ],
      "payable": false,
      "stateMutability": "view",
      "type": "function"
    },
    {
      "constant": true,
      "inputs": [],
      "name": "getDayPrecision",
      "outputs": [
        {
          "name": "",
          "type": "uint256"
        }
      ],
      "payable": false,
      "stateMutability": "view",
      "type": "function"
    },
    {
      "constant": true,
      "inputs": [],
      "name": "utpdu",
      "outputs": [
        {
          "name": "",
          "type": "uint256"
        }
      ],
      "payable": false,
      "stateMutability": "view",
      "type": "function"
    },
    {
      "constant": true,
      "inputs": [],
      "name": "getMocPrecision",
      "outputs": [
        {
          "name": "",
          "type": "uint256"
        }
      ],
      "payable": false,
      "stateMutability": "view",
      "type": "function"
    },
    {
      "constant": true,
      "inputs": [],
      "name": "liq",
      "outputs": [
        {
          "name": "",
          "type": "uint256"
        }
      ],
      "payable": false,
      "stateMutability": "view",
      "type": "function"
    },
    {
      "constant": true,
      "inputs": [],
      "name": "getBitcoinMovingAverage",
      "outputs": [
        {
          "name": "",
          "type": "uint256"
        }
      ],
      "payable": false,
      "stateMutability": "view",
      "type": "function"
    },
    {
      "anonymous": false,
      "inputs": [
        {
          "indexed": false,
          "name": "newState",
          "type": "uint8"
        }
      ],
      "name": "StateTransition",
      "type": "event"
    },
    {
      "anonymous": false,
      "inputs": [
        {
          "indexed": false,
          "name": "oldAddress",
          "type": "address"
        },
        {
          "indexed": false,
          "name": "newAddress",
          "type": "address"
        }
      ],
      "name": "PriceProviderUpdated",
      "type": "event"
    },
    {
      "anonymous": false,
      "inputs": [
        {
          "indexed": false,
          "name": "price",
          "type": "uint256"
        },
        {
          "indexed": false,
          "name": "movingAverage",
          "type": "uint256"
        }
      ],
      "name": "MovingAverageCalculation",
      "type": "event"
    },
    {
      "constant": false,
      "inputs": [
        {
          "name": "_governor",
          "type": "address"
        }
      ],
      "name": "initialize",
      "outputs": [],
      "payable": false,
      "stateMutability": "nonpayable",
      "type": "function"
    },
    {
      "constant": false,
      "inputs": [
        {
          "name": "connectorAddress",
          "type": "address"
        },
        {
          "name": "_governor",
          "type": "address"
        },
        {
          "name": "_btcPriceProvider",
          "type": "address"
        },
        {
          "name": "_liq",
          "type": "uint256"
        },
        {
          "name": "_utpdu",
          "type": "uint256"
        },
        {
          "name": "_maxDiscRate",
          "type": "uint256"
        },
        {
          "name": "_dayBlockSpan",
          "type": "uint256"
        },
        {
          "name": "_ema",
          "type": "uint256"
        },
        {
          "name": "_smoothFactor",
          "type": "uint256"
        },
        {
          "name": "_emaBlockSpan",
          "type": "uint256"
        }
      ],
      "name": "initialize",
      "outputs": [],
      "payable": false,
      "stateMutability": "nonpayable",
      "type": "function"
    },
    {
      "constant": false,
      "inputs": [
        {
          "name": "rate",
          "type": "uint256"
        }
      ],
      "name": "setMaxDiscountRate",
      "outputs": [],
      "payable": false,
      "stateMutability": "nonpayable",
      "type": "function"
    },
    {
      "constant": true,
      "inputs": [],
      "name": "getMaxDiscountRate",
      "outputs": [
        {
          "name": "",
          "type": "uint256"
        }
      ],
      "payable": false,
      "stateMutability": "view",
      "type": "function"
    },
    {
      "constant": false,
      "inputs": [
        {
          "name": "blockSpan",
          "type": "uint256"
        }
      ],
      "name": "setDayBlockSpan",
      "outputs": [],
      "payable": false,
      "stateMutability": "nonpayable",
      "type": "function"
    },
    {
      "constant": false,
      "inputs": [
        {
          "name": "btcProviderAddress",
          "type": "address"
        }
      ],
      "name": "setBtcPriceProvider",
      "outputs": [],
      "payable": false,
      "stateMutability": "nonpayable",
      "type": "function"
    },
    {
      "constant": true,
      "inputs": [],
      "name": "getBtcPriceProvider",
      "outputs": [
        {
          "name": "",
          "type": "address"
        }
      ],
      "payable": false,
      "stateMutability": "view",
      "type": "function"
    },
    {
      "constant": true,
      "inputs": [],
      "name": "getDayBlockSpan",
      "outputs": [
        {
          "name": "",
          "type": "uint256"
        }
      ],
      "payable": false,
      "stateMutability": "view",
      "type": "function"
    },
    {
      "constant": false,
      "inputs": [
        {
          "name": "btcAmount",
          "type": "uint256"
        }
      ],
      "name": "subtractRbtcFromSystem",
      "outputs": [],
      "payable": false,
      "stateMutability": "nonpayable",
      "type": "function"
    },
    {
      "constant": false,
      "inputs": [
        {
          "name": "btcAmount",
          "type": "uint256"
        }
      ],
      "name": "addToRbtcInSystem",
      "outputs": [],
      "payable": false,
      "stateMutability": "nonpayable",
      "type": "function"
    },
    {
      "constant": true,
      "inputs": [],
      "name": "bproTotalSupply",
      "outputs": [
        {
          "name": "",
          "type": "uint256"
        }
      ],
      "payable": false,
      "stateMutability": "view",
      "type": "function"
    },
    {
      "constant": true,
      "inputs": [],
      "name": "docTotalSupply",
      "outputs": [
        {
          "name": "",
          "type": "uint256"
        }
      ],
      "payable": false,
      "stateMutability": "view",
      "type": "function"
    },
    {
      "constant": true,
      "inputs": [],
      "name": "cobj",
      "outputs": [
        {
          "name": "",
          "type": "uint256"
        }
      ],
      "payable": false,
      "stateMutability": "view",
      "type": "function"
    },
    {
      "constant": true,
      "inputs": [],
      "name": "collateralRbtcInSystem",
      "outputs": [
        {
          "name": "",
          "type": "uint256"
        }
      ],
      "payable": false,
      "stateMutability": "view",
      "type": "function"
    },
    {
      "constant": true,
      "inputs": [],
      "name": "globalCoverage",
      "outputs": [
        {
          "name": "",
          "type": "uint256"
        }
      ],
      "payable": false,
      "stateMutability": "view",
      "type": "function"
    },
    {
      "constant": true,
      "inputs": [
        {
          "name": "bucket",
          "type": "bytes32"
        }
      ],
      "name": "lockedBitcoin",
      "outputs": [
        {
          "name": "",
          "type": "uint256"
        }
      ],
      "payable": false,
      "stateMutability": "view",
      "type": "function"
    },
    {
      "constant": true,
      "inputs": [
        {
          "name": "bucket",
          "type": "bytes32"
        }
      ],
      "name": "getRbtcInBitPro",
      "outputs": [
        {
          "name": "",
          "type": "uint256"
        }
      ],
      "payable": false,
      "stateMutability": "view",
      "type": "function"
    },
    {
      "constant": true,
      "inputs": [],
      "name": "getRbtcRemainder",
      "outputs": [
        {
          "name": "",
          "type": "uint256"
        }
      ],
      "payable": false,
      "stateMutability": "view",
      "type": "function"
    },
    {
      "constant": true,
      "inputs": [
        {
          "name": "bucket",
          "type": "bytes32"
        }
      ],
      "name": "coverage",
      "outputs": [
        {
          "name": "",
          "type": "uint256"
        }
      ],
      "payable": false,
      "stateMutability": "view",
      "type": "function"
    },
    {
      "constant": true,
      "inputs": [
        {
          "name": "doc0",
          "type": "uint256"
        }
      ],
      "name": "abundanceRatio",
      "outputs": [
        {
          "name": "",
          "type": "uint256"
        }
      ],
      "payable": false,
      "stateMutability": "view",
      "type": "function"
    },
    {
      "constant": true,
      "inputs": [],
      "name": "currentAbundanceRatio",
      "outputs": [
        {
          "name": "",
          "type": "uint256"
        }
      ],
      "payable": false,
      "stateMutability": "view",
      "type": "function"
    },
    {
      "constant": true,
      "inputs": [
        {
          "name": "bucket",
          "type": "bytes32"
        }
      ],
      "name": "leverage",
      "outputs": [
        {
          "name": "",
          "type": "uint256"
        }
      ],
      "payable": false,
      "stateMutability": "view",
      "type": "function"
    },
    {
      "constant": true,
      "inputs": [],
      "name": "globalMaxDoc",
      "outputs": [
        {
          "name": "",
          "type": "uint256"
        }
      ],
      "payable": false,
      "stateMutability": "view",
      "type": "function"
    },
    {
      "constant": true,
      "inputs": [],
      "name": "freeDoc",
      "outputs": [
        {
          "name": "",
          "type": "uint256"
        }
      ],
      "payable": false,
      "stateMutability": "view",
      "type": "function"
    },
    {
      "constant": true,
      "inputs": [
        {
          "name": "bucket",
          "type": "bytes32"
        }
      ],
      "name": "maxDoc",
      "outputs": [
        {
          "name": "",
          "type": "uint256"
        }
      ],
      "payable": false,
      "stateMutability": "view",
      "type": "function"
    },
    {
      "constant": true,
      "inputs": [],
      "name": "globalMaxBPro",
      "outputs": [
        {
          "name": "",
          "type": "uint256"
        }
      ],
      "payable": false,
      "stateMutability": "view",
      "type": "function"
    },
    {
      "constant": true,
      "inputs": [],
      "name": "absoluteMaxDoc",
      "outputs": [
        {
          "name": "",
          "type": "uint256"
        }
      ],
      "payable": false,
      "stateMutability": "view",
      "type": "function"
    },
    {
      "constant": true,
      "inputs": [
        {
          "name": "bucket",
          "type": "bytes32"
        }
      ],
      "name": "maxBPro",
      "outputs": [
        {
          "name": "",
          "type": "uint256"
        }
      ],
      "payable": false,
      "stateMutability": "view",
      "type": "function"
    },
    {
      "constant": true,
      "inputs": [
        {
          "name": "bucket",
          "type": "bytes32"
        }
      ],
      "name": "maxBProx",
      "outputs": [
        {
          "name": "",
          "type": "uint256"
        }
      ],
      "payable": false,
      "stateMutability": "view",
      "type": "function"
    },
    {
      "constant": true,
      "inputs": [
        {
          "name": "bucket",
          "type": "bytes32"
        }
      ],
      "name": "maxBProxBtcValue",
      "outputs": [
        {
          "name": "",
          "type": "uint256"
        }
      ],
      "payable": false,
      "stateMutability": "view",
      "type": "function"
    },
    {
      "constant": true,
      "inputs": [],
      "name": "absoluteMaxBPro",
      "outputs": [
        {
          "name": "",
          "type": "uint256"
        }
      ],
      "payable": false,
      "stateMutability": "view",
      "type": "function"
    },
    {
      "constant": true,
      "inputs": [],
      "name": "maxBProWithDiscount",
      "outputs": [
        {
          "name": "",
          "type": "uint256"
        }
      ],
      "payable": false,
      "stateMutability": "view",
      "type": "function"
    },
    {
      "constant": true,
      "inputs": [],
      "name": "globalLockedBitcoin",
      "outputs": [
        {
          "name": "",
          "type": "uint256"
        }
      ],
      "payable": false,
      "stateMutability": "view",
      "type": "function"
    },
    {
      "constant": true,
      "inputs": [],
      "name": "bproTecPrice",
      "outputs": [
        {
          "name": "",
          "type": "uint256"
        }
      ],
      "payable": false,
      "stateMutability": "view",
      "type": "function"
    },
    {
      "constant": true,
      "inputs": [
        {
          "name": "bucket",
          "type": "bytes32"
        }
      ],
      "name": "bucketBProTecPrice",
      "outputs": [
        {
          "name": "",
          "type": "uint256"
        }
      ],
      "payable": false,
      "stateMutability": "view",
      "type": "function"
    },
    {
      "constant": true,
      "inputs": [],
      "name": "bproDiscountPrice",
      "outputs": [
        {
          "name": "",
          "type": "uint256"
        }
      ],
      "payable": false,
      "stateMutability": "view",
      "type": "function"
    },
    {
      "constant": true,
      "inputs": [],
      "name": "bproUsdPrice",
      "outputs": [
        {
          "name": "",
          "type": "uint256"
        }
      ],
      "payable": false,
      "stateMutability": "view",
      "type": "function"
    },
    {
      "constant": true,
      "inputs": [
        {
          "name": "bucket",
          "type": "bytes32"
        }
      ],
      "name": "maxBProxBProValue",
      "outputs": [
        {
          "name": "",
          "type": "uint256"
        }
      ],
      "payable": false,
      "stateMutability": "view",
      "type": "function"
    },
    {
      "constant": true,
      "inputs": [
        {
          "name": "bucket",
          "type": "bytes32"
        }
      ],
      "name": "bproxBProPrice",
      "outputs": [
        {
          "name": "",
          "type": "uint256"
        }
      ],
      "payable": false,
      "stateMutability": "view",
      "type": "function"
    },
    {
      "constant": true,
      "inputs": [],
      "name": "bproSpotDiscountRate",
      "outputs": [
        {
          "name": "",
          "type": "uint256"
        }
      ],
      "payable": false,
      "stateMutability": "view",
      "type": "function"
    },
    {
      "constant": true,
      "inputs": [],
      "name": "daysToSettlement",
      "outputs": [
        {
          "name": "",
          "type": "uint256"
        }
      ],
      "payable": false,
      "stateMutability": "view",
      "type": "function"
    },
    {
      "constant": true,
      "inputs": [],
      "name": "blocksToSettlement",
      "outputs": [
        {
          "name": "",
          "type": "uint256"
        }
      ],
      "payable": false,
      "stateMutability": "view",
      "type": "function"
    },
    {
      "constant": true,
      "inputs": [],
      "name": "isLiquidationReached",
      "outputs": [
        {
          "name": "",
          "type": "bool"
        }
      ],
      "payable": false,
      "stateMutability": "view",
      "type": "function"
    },
    {
      "constant": true,
      "inputs": [],
      "name": "getLiquidationPrice",
      "outputs": [
        {
          "name": "",
          "type": "uint256"
        }
      ],
      "payable": false,
      "stateMutability": "view",
      "type": "function"
    },
    {
      "constant": true,
      "inputs": [
        {
          "name": "bucket",
          "type": "bytes32"
        }
      ],
      "name": "getBucketNBTC",
      "outputs": [
        {
          "name": "",
          "type": "uint256"
        }
      ],
      "payable": false,
      "stateMutability": "view",
      "type": "function"
    },
    {
      "constant": true,
      "inputs": [
        {
          "name": "bucket",
          "type": "bytes32"
        }
      ],
      "name": "getBucketNBPro",
      "outputs": [
        {
          "name": "",
          "type": "uint256"
        }
      ],
      "payable": false,
      "stateMutability": "view",
      "type": "function"
    },
    {
      "constant": true,
      "inputs": [
        {
          "name": "bucket",
          "type": "bytes32"
        }
      ],
      "name": "getBucketNDoc",
      "outputs": [
        {
          "name": "",
          "type": "uint256"
        }
      ],
      "payable": false,
      "stateMutability": "view",
      "type": "function"
    },
    {
      "constant": true,
      "inputs": [
        {
          "name": "bucket",
          "type": "bytes32"
        }
      ],
      "name": "getBucketCobj",
      "outputs": [
        {
          "name": "",
          "type": "uint256"
        }
      ],
      "payable": false,
      "stateMutability": "view",
      "type": "function"
    },
    {
      "constant": true,
      "inputs": [
        {
          "name": "bucket",
          "type": "bytes32"
        }
      ],
      "name": "getInrateBag",
      "outputs": [
        {
          "name": "",
          "type": "uint256"
        }
      ],
      "payable": false,
      "stateMutability": "view",
      "type": "function"
    },
    {
      "constant": true,
      "inputs": [],
      "name": "getBcons",
      "outputs": [
        {
          "name": "",
          "type": "uint256"
        }
      ],
      "payable": false,
      "stateMutability": "view",
      "type": "function"
    },
    {
      "constant": true,
      "inputs": [],
      "name": "getBitcoinPrice",
      "outputs": [
        {
          "name": "",
          "type": "uint256"
        }
      ],
      "payable": false,
      "stateMutability": "view",
      "type": "function"
    },
    {
      "constant": false,
      "inputs": [],
      "name": "calculateBitcoinMovingAverage",
      "outputs": [],
      "payable": false,
      "stateMutability": "nonpayable",
      "type": "function"
    },
    {
      "constant": true,
      "inputs": [],
      "name": "getLiq",
      "outputs": [
        {
          "name": "",
          "type": "uint256"
        }
      ],
      "payable": false,
      "stateMutability": "view",
      "type": "function"
    },
    {
      "constant": false,
      "inputs": [
        {
          "name": "_liq",
          "type": "uint256"
        }
      ],
      "name": "setLiq",
      "outputs": [],
      "payable": false,
      "stateMutability": "nonpayable",
      "type": "function"
    },
    {
      "constant": true,
      "inputs": [],
      "name": "getUtpdu",
      "outputs": [
        {
          "name": "",
          "type": "uint256"
        }
      ],
      "payable": false,
      "stateMutability": "view",
      "type": "function"
    },
    {
      "constant": false,
      "inputs": [
        {
          "name": "_utpdu",
          "type": "uint256"
        }
      ],
      "name": "setUtpdu",
      "outputs": [],
      "payable": false,
      "stateMutability": "nonpayable",
      "type": "function"
    },
    {
      "constant": true,
      "inputs": [],
      "name": "getPeg",
      "outputs": [
        {
          "name": "",
          "type": "uint256"
        }
      ],
      "payable": false,
      "stateMutability": "view",
      "type": "function"
    },
    {
      "constant": false,
      "inputs": [
        {
          "name": "_peg",
          "type": "uint256"
        }
      ],
      "name": "setPeg",
      "outputs": [],
      "payable": false,
      "stateMutability": "nonpayable",
      "type": "function"
    },
    {
      "constant": false,
      "inputs": [],
      "name": "nextState",
      "outputs": [],
      "payable": false,
      "stateMutability": "nonpayable",
      "type": "function"
    }
  ],
  "bytecode": "0x608060405234801561001057600080fd5b50613d3e806100206000396000f3fe608060405234801561001057600080fd5b50600436106103eb5760e060020a600035046304bda17f81146103f057806306bdce8c1461041f5780630891f6ea1461042757806308c36d9e146104445780630c340a241461044c5780630d9c71aa14610470578063118fe7521461047857806311a2e50b14610480578063133374bd1461048857806314007c6d14610490578063157d5cfb1461049a5780631cd2b37c146104a25780631f1cb62b146104aa5780632439725a146104b257806336eef862146104cf5780633a8115a6146104ec5780633bc4ac0a146104f457806346558d1b14610511578063484ec046146105195780634aa50e401461052157806351ffe1931461052957806352bfb6311461053157806357a13a16146105395780635a0763b8146105415780635e73f4841461055e5780636325f96814610566578063640f0fea1461056e5780636663a85e1461057657806367c8bcf91461057e5780637119a4901461059b5780637144e9a2146105c1578063717c01c0146105c9578063747a5663146105d15780637a727fe8146105d95780637c536216146105e15780637f19c56f146105fe57806380c14b8d146106065780638300df491461062357806383f3084f1461062b5780638781f68b146106335780638847256214610650578063889d9b64146106585780638bd11355146106755780638c3e05021461067d5780638ec668531461069a5780639214fa4d146106b757806395082d25146106bf57806396e4a037146106c757806398b762a1146106cf5780639aa59d44146106ec5780639ad6659d146106f4578063a181c39714610710578063a42c69a9146106bf578063a6e9b15914610718578063a84ab5f214610735578063a8ba1d1814610752578063a8e9ac301461075a578063b398eb2114610762578063b488ea411461077f578063b6e083301461079c578063b6fc2d5f146107c2578063b8104773146107ca578063bc2ae972146107d2578063c19d93fb146107ef578063c4a7c94b1461081b578063c4d66de814610838578063c4ee19ea1461085e578063c94750a814610866578063c9c950361461086e578063cb93e65d1461088b578063cdb5077114610893578063d298d9c9146108b0578063d337b9fe146108b8578063d45fc1a9146108c0578063d81bc97c14610923578063df3d90b314610940578063e22155f614610948578063e2414a7314610950578063e2ea7e7f14610958578063e6d4a0ee14610960578063e890675714610968578063eb4edb8514610970578063eb892a621461098d578063f715e293146109aa578063f74326f9146109b2578063fa8ba490146109cf578063faba8c3b146109d7578063fb8a8b27146109df575b600080fd5b61040d6004803603602081101561040657600080fd5b50356109e7565b60408051918252519081900360200190f35b61040d610a6b565b61040d6004803603602081101561043d57600080fd5b5035610a72565b61040d610cc9565b610454610ce1565b60408051600160a060020a039092168252519081900360200190f35b61040d610cf0565b61040d610cf6565b61040d610da4565b61040d610dd6565b610498610df9565b005b610454610f46565b61040d610f55565b61040d610f5c565b610498600480360360208110156104c857600080fd5b5035610f63565b61040d600480360360208110156104e557600080fd5b5035611092565b61040d61113d565b6104986004803603602081101561050a57600080fd5b503561123b565b61040d61132c565b61040d611333565b61040d61133a565b61040d61134f565b61040d611356565b61040d611446565b61040d6004803603602081101561055757600080fd5b5035611452565b61040d611527565b61040d611643565b61040d611649565b61040d6116d4565b61040d6004803603602081101561059457600080fd5b50356116db565b610498600480360360208110156105b157600080fd5b5035600160a060020a031661172b565b61040d611887565b61040d6118f2565b61040d6118f9565b61040d611931565b610498600480360360208110156105f757600080fd5b5035611937565b61040d611a29565b6104986004803603602081101561061c57600080fd5b5035611a30565b61040d611b22565b610454611c0b565b61040d6004803603602081101561064957600080fd5b5035611c1a565b61040d611cd4565b61040d6004803603602081101561066e57600080fd5b5035611d7e565b61040d611dce565b61040d6004803603602081101561069357600080fd5b5035611dd5565b61040d600480360360208110156106b057600080fd5b503561204e565b61040d612146565b61040d61214d565b61040d612159565b610498600480360360208110156106e557600080fd5b5035612316565b61040d612461565b6106fc612467565b604080519115158252519081900360200190f35b61040d6124b0565b61040d6004803603602081101561072e57600080fd5b50356124b6565b61040d6004803603602081101561074b57600080fd5b50356125cc565b61040d612600565b6106fc612657565b61040d6004803603602081101561077857600080fd5b5035612678565b6104986004803603602081101561079557600080fd5b50356126c8565b610498600480360360208110156107b257600080fd5b5035600160a060020a03166127c0565b61040d6128ce565b61040d6128d5565b610498600480360360208110156107e857600080fd5b50356128f0565b6107f76129e2565b6040518082600381111561080757fe5b60ff16815260200191505060405180910390f35b61040d6004803603602081101561083157600080fd5b50356129ec565b6104986004803603602081101561084e57600080fd5b5035600160a060020a0316612c58565b61040d612d18565b61040d612d8f565b6104986004803603602081101561088457600080fd5b5035612dca565b61040d612ea4565b61040d600480360360208110156108a957600080fd5b5035612eaa565b610454612efa565b61040d612f0f565b61049860048036036101408110156108d757600080fd5b50600160a060020a03813581169160208101358216916040820135169060608101359060808101359060a08101359060c08101359060e081013590610100810135906101200135612f58565b61040d6004803603602081101561093957600080fd5b5035613039565b61040d6131b7565b61040d613200565b61040d61320c565b61040d613212565b6104986132c3565b61040d6132d3565b6104986004803603602081101561098657600080fd5b50356132da565b61040d600480360360208110156109a357600080fd5b50356133ac565b61040d613417565b61040d600480360360208110156109c857600080fd5b503561341d565b61040d61349c565b61040d6134ba565b61040d6134c1565b610109546040805160e060020a6304bda17f028152600481018490529051600092600160a060020a0316916304bda17f916024808301926020929190829003018186803b158015610a3757600080fd5b505afa158015610a4b573d6000803e3d6000fd5b505050506040513d6020811015610a6157600080fd5b505190505b919050565b6000545b90565b610109546040805160e060020a63cdb507710281526004810184905290516000928392600160a060020a039091169163cdb5077191602480820192602092909190829003018186803b158015610ac757600080fd5b505afa158015610adb573d6000803e3d6000fd5b505050506040513d6020811015610af157600080fd5b5051610109546040805160e060020a6367c8bcf9028152600481018790529051929350600092600160a060020a03909216916367c8bcf991602480820192602092909190829003018186803b158015610b4957600080fd5b505afa158015610b5d573d6000803e3d6000fd5b505050506040513d6020811015610b7357600080fd5b5051610109546040805160e060020a63b398eb21028152600481018890529051929350600092600160a060020a039092169163b398eb2191602480820192602092909190829003018186803b158015610bcb57600080fd5b505afa158015610bdf573d6000803e3d6000fd5b505050506040513d6020811015610bf557600080fd5b505161010b5490915073__MoCHelperLib__________________________9063bc85889e90600090869085908790610c2b611b22565b610c3361133a565b6040518863ffffffff1660e060020a0281526004018088815260200187815260200186815260200185815260200184815260200183815260200182815260200197505050505050505060206040518083038186803b158015610c9457600080fd5b505af4158015610ca8573d6000803e3d6000fd5b505050506040513d6020811015610cbe57600080fd5b505195945050505050565b6000610cdc60f460020a61043302613039565b905090565b609b54600160a060020a031681565b60cf5481565b600073__MoCHelperLib__________________________6350b0c2b082610d1b611b22565b610d236131b7565b61010b546040518563ffffffff1660e060020a0281526004018085815260200184815260200183815260200182815260200194505050505060206040518083038186803b158015610d7357600080fd5b505af4158015610d87573d6000803e3d6000fd5b505050506040513d6020811015610d9d57600080fd5b5051905090565b6000610cdc61010a54610dca600060010154610dbe611527565b9063ffffffff6134c716565b9063ffffffff61352c16565b6000610cdc610de3611cd4565b610df460f460020a61043302610a72565b613599565b60006101045460ff166003811115610e0d57fe5b1415610e1857610f44565b6101045460ff16610e276132c3565b6000610e31612d18565b905061010d548111610e6057610e456135af565b61010480546000919060ff19166001835b0217905550610ed0565b61010d5481118015610e75575061010e548111155b15610e8e5761010480546001919060ff19168280610e56565b61010e5481118015610ea75750610ea3611887565b8111155b15610ec15761010480546002919060ff1916600183610e56565b610104805460ff191660031790555b6101045460ff166003811115610ee257fe5b826003811115610eee57fe5b14610f4157610104546040517fb9eb8a309bf89f3159b39681f485b6430fec1035b2b457edbcdadcdece888c0b9160ff169080826003811115610f2d57fe5b60ff16815260200191505060405180910390a15b50505b565b609b54600160a060020a031690565b61010e5490565b61010b5481565b609b546040805160e060020a63d994d6d50281523360048201529051600160a060020a039092169163d994d6d591602480820192602092909190829003018186803b158015610fb157600080fd5b505afa158015610fc5573d6000803e3d6000fd5b505050506040513d6020811015610fdb57600080fd5b50516040805180820190915260168152600080516020613cf383398151915260208201529061108b5760405160e560020a62461bcd0281526004018080602001828103825283818151815260200191508051906020019080838360005b83811015611050578181015183820152602001611038565b50505050905090810190601f16801561107d5780820380516001836020036101000a031916815260200191505b509250505060405180910390fd5b5061010b55565b60008061109e836124b6565b905073__MoCHelperLib__________________________6366a4c7186000836110c5610cc9565b6040518463ffffffff1660e060020a02815260040180848152602001838152602001828152602001935050505060206040518083038186803b15801561110a57600080fd5b505af415801561111e573d6000803e3d6000fd5b505050506040513d602081101561113457600080fd5b50519392505050565b6000806111486131b7565b90506000611154611649565b905060006111606118f9565b9050600061116c611b22565b905073__MoCHelperLib__________________________6393d1df9b6000611192612159565b8761010e5461010b5487898b6040518963ffffffff1660e060020a028152600401808981526020018881526020018781526020018681526020018581526020018481526020018381526020018281526020019850505050505050505060206040518083038186803b15801561120657600080fd5b505af415801561121a573d6000803e3d6000fd5b505050506040513d602081101561123057600080fd5b505194505050505090565b609b546040805160e060020a63d994d6d50281523360048201529051600160a060020a039092169163d994d6d591602480820192602092909190829003018186803b15801561128957600080fd5b505afa15801561129d573d6000803e3d6000fd5b505050506040513d60208110156112b357600080fd5b50516040805180820190915260168152600080516020613cf38339815191526020820152906113265760405160e560020a62461bcd028152602060048201818152835160248401528351909283926044909101919085019080838360008315611050578181015183820152602001611038565b5060d155565b6101105490565b61010a5490565b6000610cdc611347611b22565b610df46134c1565b61010c5490565b6000806113616118f9565b905073__MoCHelperLib__________________________63a2f275716000611387612159565b61138f611887565b6113976131b7565b61010b546113a3611b22565b6113ab61133a565b896040518963ffffffff1660e060020a028152600401808981526020018881526020018781526020018681526020018581526020018481526020018381526020018281526020019850505050505050505060206040518083038186803b15801561141457600080fd5b505af4158015611428573d6000803e3d6000fd5b505050506040513d602081101561143e57600080fd5b505191505090565b60f160020a612c190281565b6000806101045460ff16600381111561146757fe5b141561147557506000610a66565b600061148083613039565b9050600061148c610cc9565b6040805160e060020a6305721b51028152600060048201526024810185905260448101839052905191925073__MoCHelperLib__________________________916305721b5191606480820192602092909190829003018186803b1580156114f357600080fd5b505af4158015611507573d6000803e3d6000fd5b505050506040513d602081101561151d57600080fd5b5051949350505050565b60004361010560009054906101000a9004600160a060020a0316600160a060020a0316637bac9c7c6040518163ffffffff1660e060020a02815260040160206040518083038186803b15801561157c57600080fd5b505afa158015611590573d6000803e3d6000fd5b505050506040513d60208110156115a657600080fd5b5051116115b557506000610a6f565b610cdc4361010560009054906101000a9004600160a060020a0316600160a060020a0316637bac9c7c6040518163ffffffff1660e060020a02815260040160206040518083038186803b15801561160b57600080fd5b505afa15801561161f573d6000803e3d6000fd5b505050506040513d602081101561163557600080fd5b50519063ffffffff61366416565b60d15490565b600080611654612d18565b61010c5461010d5461010e546040805160e060020a637ed1d54102815260006004820152602481019490945260448401929092526064830152608482018390525191925073__MoCHelperLib__________________________91637ed1d5419160a480820192602092909190829003018186803b15801561141457600080fd5b61010c5481565b610109546040805160e060020a6367c8bcf9028152600481018490529051600092600160a060020a0316916367c8bcf9916024808301926020929190829003018186803b158015610a3757600080fd5b609b546040805160e060020a63d994d6d50281523360048201529051600160a060020a039092169163d994d6d591602480820192602092909190829003018186803b15801561177957600080fd5b505afa15801561178d573d6000803e3d6000fd5b505050506040513d60208110156117a357600080fd5b50516040805180820190915260168152600080516020613cf38339815191526020820152906118165760405160e560020a62461bcd028152602060048201818152835160248401528351909283926044909101919085019080838360008315611050578181015183820152602001611038565b506101048054600160a060020a0383811661010090810261010060a860020a03198416179384905560408051938290048316808552919094049091166020830152825190927ff01c4ba47ffa16ddc86be088e27d891895d6944b4f1b88a7d30fedb0296de55c928290030190a15050565b610109546040805160e060020a63b398eb2102815260f460020a6104330260048201529051600092600160a060020a03169163b398eb21916024808301926020929190829003018186803b1580156118de57600080fd5b505afa158015610d87573d6000803e3d6000fd5b61010a5481565b600080611904610cc9565b90506000611910611b22565b60005490915061192a90610dca838563ffffffff6134c716565b9250505090565b60d15481565b609b546040805160e060020a63d994d6d50281523360048201529051600160a060020a039092169163d994d6d591602480820192602092909190829003018186803b15801561198557600080fd5b505afa158015611999573d6000803e3d6000fd5b505050506040513d60208110156119af57600080fd5b50516040805180820190915260168152600080516020613cf3833981519152602082015290611a225760405160e560020a62461bcd028152602060048201818152835160248401528351909283926044909101919085019080838360008315611050578181015183820152602001611038565b5061010e55565b61010d5490565b609b546040805160e060020a63d994d6d50281523360048201529051600160a060020a039092169163d994d6d591602480820192602092909190829003018186803b158015611a7e57600080fd5b505afa158015611a92573d6000803e3d6000fd5b505050506040513d6020811015611aa857600080fd5b50516040805180820190915260168152600080516020613cf3833981519152602082015290611b1b5760405160e560020a62461bcd028152602060048201818152835160248401528351909283926044909101919085019080838360008315611050578181015183820152602001611038565b5061010d55565b600080600061010460019054906101000a9004600160a060020a0316600160a060020a03166359e02dd76040518163ffffffff1660e060020a028152600401604080518083038186803b158015611b7857600080fd5b505afa158015611b8c573d6000803e3d6000fd5b505050506040513d6040811015611ba257600080fd5b508051602090910151909250905080611c05576040805160e560020a62461bcd02815260206004820152601c60248201527f4f7261636c652068617665206e6f20426974636f696e20507269636500000000604482015290519081900360640190fd5b50905090565b606854600160a060020a031681565b610109546040805160e060020a63cdb507710281526004810184905290516000928392600160a060020a039091169163cdb5077191602480820192602092909190829003018186803b158015611c6f57600080fd5b505afa158015611c83573d6000803e3d6000fd5b505050506040513d6020811015611c9957600080fd5b505190506000611ca88461204e565b9050818110611cbc57600092505050610a66565b611ccc828263ffffffff61366416565b949350505050565b600073__MoCHelperLib__________________________63bc85889e82611cf9612159565b611d01611887565b611d096131b7565b61010b54611d15611b22565b611d1d61133a565b6040518863ffffffff1660e060020a0281526004018088815260200187815260200186815260200185815260200184815260200183815260200182815260200197505050505050505060206040518083038186803b158015610d7357600080fd5b610109546040805160e260020a63222766d9028152600481018490529051600092600160a060020a03169163889d9b64916024808301926020929190829003018186803b158015610a3757600080fd5b61010f5481565b610109546040805160e360020a630c677451028152600481018490529051600092600160a060020a03169163633ba288916024808301926020929190829003018186803b158015611e2557600080fd5b505afa158015611e39573d6000803e3d6000fd5b505050506040513d6020811015611e4f57600080fd5b5051158015611ed65750610109546040805160e060020a63a9e61b4f028152600481018590529051600160a060020a039092169163a9e61b4f91602480820192602092909190829003018186803b158015611ea957600080fd5b505afa158015611ebd573d6000803e3d6000fd5b505050506040513d6020811015611ed357600080fd5b50515b15611f5e57610109546040805160e060020a63b398eb21028152600481018590529051600160a060020a039092169163b398eb2191602480820192602092909190829003018186803b158015611f2b57600080fd5b505afa158015611f3f573d6000803e3d6000fd5b505050506040513d6020811015611f5557600080fd5b50519050610a66565b610109546040805160e060020a63cdb50771028152600481018590529051600092600160a060020a03169163cdb50771916024808301926020929190829003018186803b158015611fae57600080fd5b505afa158015611fc2573d6000803e3d6000fd5b505050506040513d6020811015611fd857600080fd5b505190506000611fe78461204e565b6040805160e260020a63386c0d21028152600060048201526024810185905260448101839052905191925073__MoCHelperLib__________________________9163e1b0348491606480820192602092909190829003018186803b1580156114f357600080fd5b610109546040805160e060020a6367c8bcf90281526004810184905290516000928392600160a060020a03909116916367c8bcf991602480820192602092909190829003018186803b1580156120a357600080fd5b505afa1580156120b7573d6000803e3d6000fd5b505050506040513d60208110156120cd57600080fd5b5051905073__MoCHelperLib__________________________6350b0c2b060006120f5611b22565b8461010b546040518563ffffffff1660e060020a0281526004018085815260200184815260200183815260200182815260200194505050505060206040518083038186803b15801561110a57600080fd5b61010b5490565b670de0b6b3a764000081565b61010654610109546040805160e060020a6304bda17f02815260f160020a612c1902600482015290516000938493600160a060020a039182169363dcbfd36c9391909216916304bda17f916024808301926020929190829003018186803b1580156121c357600080fd5b505afa1580156121d7573d6000803e3d6000fd5b505050506040513d60208110156121ed57600080fd5b50516040805160e060020a63ffffffff8516028152600481019290925260f160020a612c19026024830152516044808301926020929190829003018186803b15801561223857600080fd5b505afa15801561224c573d6000803e3d6000fd5b505050506040513d602081101561226257600080fd5b5051610109546040805160e260020a63222766d902815260f460020a6104330260048201529051929350600092600160a060020a039092169163889d9b6491602480820192602092909190829003018186803b1580156122c157600080fd5b505afa1580156122d5573d6000803e3d6000fd5b505050506040513d60208110156122eb57600080fd5b505161010f5490915061192a90829061230a908563ffffffff61366416565b9063ffffffff61366416565b609b546040805160e060020a63d994d6d50281523360048201529051600160a060020a039092169163d994d6d591602480820192602092909190829003018186803b15801561236457600080fd5b505afa158015612378573d6000803e3d6000fd5b505050506040513d602081101561238e57600080fd5b50516040805180820190915260168152600080516020613cf38339815191526020820152906124015760405160e560020a62461bcd028152602060048201818152835160248401528351909283926044909101919085019080838360008315611050578181015183820152602001611038565b50600254811061245b576040805160e560020a62461bcd02815260206004820152601f60248201527f72617465206973206c6f776572207468616e206d6f63507265636973696f6e00604482015290519081900360640190fd5b61010c55565b60d05490565b600080612472612d18565b905060006101045460ff16600381111561248857fe5b14158015612499575061010d548111155b156124a8576001915050610a6f565b600091505090565b60d05481565b610109546040805160e060020a6367c8bcf902815260f460020a61043302600482015290516000928392600160a060020a03909116916367c8bcf991602480820192602092909190829003018186803b15801561251257600080fd5b505afa158015612526573d6000803e3d6000fd5b505050506040513d602081101561253c57600080fd5b50519050600061254b846133ac565b9050600073__MoCHelperLib__________________________631cd89f6190918461010b54612578611b22565b866040518663ffffffff1660e060020a028152600401808681526020018581526020018481526020018381526020018281526020019550505050505060206040518083038186803b1580156114f357600080fd5b6000806125d8836124b6565b905073__MoCHelperLib__________________________6366a4c7186000836110c587613039565b610109546040805160e060020a6367c8bcf902815260f460020a6104330260048201529051600092600160a060020a0316916367c8bcf9916024808301926020929190829003018186803b1580156118de57600080fd5b600061267060d15460d0546136c490919063ffffffff16565b431015905090565b610109546040805160e060020a63b398eb21028152600481018490529051600092600160a060020a03169163b398eb21916024808301926020929190829003018186803b158015610a3757600080fd5b609b546040805160e060020a63d994d6d50281523360048201529051600160a060020a039092169163d994d6d591602480820192602092909190829003018186803b15801561271657600080fd5b505afa15801561272a573d6000803e3d6000fd5b505050506040513d602081101561274057600080fd5b50516040805180820190915260168152600080516020613cf38339815191526020820152906127b35760405160e560020a62461bcd028152602060048201818152835160248401528351909283926044909101919085019080838360008315611050578181015183820152602001611038565b506127bd81613721565b50565b609b546040805160e060020a63d994d6d50281523360048201529051600160a060020a039092169163d994d6d591602480820192602092909190829003018186803b15801561280e57600080fd5b505afa158015612822573d6000803e3d6000fd5b505050506040513d602081101561283857600080fd5b50516040805180820190915260168152600080516020613cf38339815191526020820152906128ab5760405160e560020a62461bcd028152602060048201818152835160248401528351909283926044909101919085019080838360008315611050578181015183820152602001611038565b50609b8054600160a060020a031916600160a060020a0392909216919091179055565b6101105481565b6000610cdc6128eb60f460020a610433026116db565b61341d565b609b546040805160e060020a63d994d6d50281523360048201529051600160a060020a039092169163d994d6d591602480820192602092909190829003018186803b15801561293e57600080fd5b505afa158015612952573d6000803e3d6000fd5b505050506040513d602081101561296857600080fd5b50516040805180820190915260168152600080516020613cf38339815191526020820152906129db5760405160e560020a62461bcd028152602060048201818152835160248401528351909283926044909101919085019080838360008315611050578181015183820152602001611038565b5061010a55565b6101045460ff1681565b610109546040805160e060020a63cdb507710281526004810184905290516000928392600160a060020a039091169163cdb5077191602480820192602092909190829003018186803b158015612a4157600080fd5b505afa158015612a55573d6000803e3d6000fd5b505050506040513d6020811015612a6b57600080fd5b5051610109546040805160e060020a6367c8bcf9028152600481018790529051929350600092600160a060020a03909216916367c8bcf991602480820192602092909190829003018186803b158015612ac357600080fd5b505afa158015612ad7573d6000803e3d6000fd5b505050506040513d6020811015612aed57600080fd5b505190506000612afb6118f9565b610109546040805160e060020a63b398eb21028152600481018990529051929350600092600160a060020a039092169163b398eb2191602480820192602092909190829003018186803b158015612b5157600080fd5b505afa158015612b65573d6000803e3d6000fd5b505050506040513d6020811015612b7b57600080fd5b505161010b5490915073__MoCHelperLib__________________________9063a2f2757190600090879085908890612bb1611b22565b612bb961133a565b8a6040518963ffffffff1660e060020a028152600401808981526020018881526020018781526020018681526020018581526020018481526020018381526020018281526020019850505050505050505060206040518083038186803b158015612c2257600080fd5b505af4158015612c36573d6000803e3d6000fd5b505050506040513d6020811015612c4c57600080fd5b50519695505050505050565b603554610100900460ff1680612c715750612c71613784565b80612c7f575060355460ff16155b612cbd5760405160e560020a62461bcd02815260040180806020018281038252602e815260200180613cc5602e913960400191505060405180910390fd5b603554610100900460ff16158015612ce8576035805460ff1961ff0019909116610100171660011790555b609b8054600160a060020a031916600160a060020a0384161790558015610f41576035805461ff00191690555050565b600080612d23610cf6565b905073__MoCHelperLib__________________________63e1b034846000612d49612159565b846040518463ffffffff1660e060020a02815260040180848152602001838152602001828152602001935050505060206040518083038186803b15801561141457600080fd5b600080612d9a610cf6565b905061010f548110612db0576000915050610a6f565b61010f54612dc4908263ffffffff61366416565b91505090565b6068546040805160e060020a633af32abf028152336004820181905291519192600160a060020a031691633af32abf91602480820192602092909190829003018186803b158015612e1a57600080fd5b505afa158015612e2e573d6000803e3d6000fd5b505050506040513d6020811015612e4457600080fd5b5051612e88576040805160e560020a62461bcd02815260206004820152601a6024820152600080516020613ca5833981519152604482015290519081900360640190fd5b61010f54612e9c908363ffffffff61366416565b61010f555050565b60cf5490565b610109546040805160e060020a63cdb50771028152600481018490529051600092600160a060020a03169163cdb50771916024808301926020929190829003018186803b158015610a3757600080fd5b610104546101009004600160a060020a031690565b610108546040805160e060020a6318160ddd0281529051600092600160a060020a0316916318160ddd916004808301926020929190829003018186803b1580156118de57600080fd5b603554610100900460ff1680612f715750612f71613784565b80612f7f575060355460ff16155b612fbd5760405160e560020a62461bcd02815260040180806020018281038252602e815260200180613cc5602e913960400191505060405180910390fd5b603554610100900460ff16158015612fe8576035805460ff1961ff0019909116610100171660011790555b612ff061378a565b612ff98b6137bc565b61300161387c565b61300f8a8a8a8a8a8a613b3f565b61301a848484613ba1565b801561302c576035805461ff00191690555b5050505050505050505050565b610109546040805160e060020a6304bda17f0281526004810184905290516000928392600160a060020a03909116916304bda17f91602480820192602092909190829003018186803b15801561308e57600080fd5b505afa1580156130a2573d6000803e3d6000fd5b505050506040513d60208110156130b857600080fd5b5051905060006130c78461204e565b610109546040805160e060020a63cdb50771028152600481018890529051929350600092600160a060020a039092169163cdb5077191602480820192602092909190829003018186803b15801561311d57600080fd5b505afa158015613131573d6000803e3d6000fd5b505050506040513d602081101561314757600080fd5b50516040805160e060020a63027c48a102815260006004820152602481018390526044810185905260648101869052905191925073__MoCHelperLib__________________________9163027c48a191608480820192602092909190829003018186803b158015610c9457600080fd5b610107546040805160e060020a6318160ddd0281529051600092600160a060020a0316916318160ddd916004808301926020929190829003018186803b1580156118de57600080fd5b60f460020a6104330281565b60015490565b60008061321d610cc9565b90506000613229611649565b6040805160e260020a632d4f109b028152600060048201526024810185905260448101839052905191925073__MoCHelperLib__________________________9163b53c426c91606480820192602092909190829003018186803b15801561329057600080fd5b505af41580156132a4573d6000803e3d6000fd5b505050506040513d60208110156132ba57600080fd5b50519250505090565b610f446132ce611b22565b613bba565b61010e5481565b6068546040805160e060020a633af32abf028152336004820181905291519192600160a060020a031691633af32abf91602480820192602092909190829003018186803b15801561332a57600080fd5b505afa15801561333e573d6000803e3d6000fd5b505050506040513d602081101561335457600080fd5b5051613398576040805160e560020a62461bcd02815260206004820152601a6024820152600080516020613ca5833981519152604482015290519081900360640190fd5b61010f54612e9c908363ffffffff6136c416565b6000806133b883611dd5565b9050600073__MoCHelperLib__________________________63df3992079091836040518363ffffffff1660e060020a028152600401808381526020018281526020019250505060206040518083038186803b15801561110a57600080fd5b60025490565b600073__MoCHelperLib__________________________637b5c24eb82846134436131b7565b6040518463ffffffff1660e060020a02815260040180848152602001838152602001828152602001935050505060206040518083038186803b15801561348857600080fd5b505af4158015610a4b573d6000803e3d6000fd5b6000610cdc6134a9611356565b610df460f460020a610433026129ec565b61010d5481565b60ce5490565b6000826134d657506000613526565b828202828482816134e357fe5b04146135235760405160e560020a62461bcd028152600401808060200182810382526021815260200180613c846021913960400191505060405180910390fd5b90505b92915050565b6000808211613585576040805160e560020a62461bcd02815260206004820152601a60248201527f536166654d6174683a206469766973696f6e206279207a65726f000000000000604482015290519081900360640190fd5b600082848161359057fe5b04949350505050565b60008183106135a85781613523565b5090919050565b60006135c56135bc610cf6565b61010f54613599565b905073__MoCHelperLib__________________________630a4be8236000836135ec6131b7565b6040518463ffffffff1660e060020a02815260040180848152602001838152602001828152602001935050505060206040518083038186803b15801561363157600080fd5b505af4158015613645573d6000803e3d6000fd5b505050506040513d602081101561365b57600080fd5b50516101105550565b6000828211156136be576040805160e560020a62461bcd02815260206004820152601e60248201527f536166654d6174683a207375627472616374696f6e206f766572666c6f770000604482015290519081900360640190fd5b50900390565b600082820183811015613523576040805160e560020a62461bcd02815260206004820152601b60248201527f536166654d6174683a206164646974696f6e206f766572666c6f770000000000604482015290519081900360640190fd5b670de0b6b3a764000081111561377f576040805160e560020a62461bcd0281526020600482015260186024820152604160020a7724b73b30b634b21039b6b7b7ba3434b733903330b1ba37b902604482015290519081900360640190fd5b60cf55565b303b1590565b60408051606081018252670de0b6b3a76400008082526001602083018190529190920182905260008290558055600255565b603554610100900460ff16806137d557506137d5613784565b806137e3575060355460ff16155b6138215760405160e560020a62461bcd02815260040180806020018281038252602e815260200180613cc5602e913960400191505060405180910390fd5b603554610100900460ff1615801561384c576035805460ff1961ff0019909116610100171660011790555b60688054600160a060020a031916600160a060020a0384161790558015610f41576035805461ff00191690555050565b606860009054906101000a9004600160a060020a0316600160a060020a031663b29ead6c6040518163ffffffff1660e060020a02815260040160206040518083038186803b1580156138cd57600080fd5b505afa1580156138e1573d6000803e3d6000fd5b505050506040513d60208110156138f757600080fd5b50516101058054600160a060020a031916600160a060020a039283161790556068546040805160e060020a6399c6fe73028152905191909216916399c6fe73916004808301926020929190829003018186803b15801561395657600080fd5b505afa15801561396a573d6000803e3d6000fd5b505050506040513d602081101561398057600080fd5b50516101078054600160a060020a031916600160a060020a039283161790556068546040805160e060020a63d31cc8310281529051919092169163d31cc831916004808301926020929190829003018186803b1580156139df57600080fd5b505afa1580156139f3573d6000803e3d6000fd5b505050506040513d6020811015613a0957600080fd5b50516101088054600160a060020a031916600160a060020a039283161790556068546040805160e160020a634aadab850281529051919092169163955b570a916004808301926020929190829003018186803b158015613a6857600080fd5b505afa158015613a7c573d6000803e3d6000fd5b505050506040513d6020811015613a9257600080fd5b50516101098054600160a060020a031916600160a060020a039283161790556068546040805160e160020a63679ab6ed0281529051919092169163cf356dda916004808301926020929190829003018186803b158015613af157600080fd5b505afa158015613b05573d6000803e3d6000fd5b505050506040513d6020811015613b1b57600080fd5b50516101068054600160a060020a031916600160a060020a03909216919091179055565b61010d9390935561010e9190915561010c5561010a55609b8054600160a060020a031916600160a060020a03938416179055610104805461010060a860020a03191661010092909316919091029190911760ff19166003179055600161010b55565b613baa82613721565b4360d05560ce929092555060d155565b613bc2612657565b156127bd576000613bde60cf54836134c790919063ffffffff16565b90506000613c18670de0b6b3a7640000610dca84613c0c613bfd613c64565b60ce549063ffffffff6134c716565b9063ffffffff6136c416565b4360d05560ce819055604080518581526020810183905281519293507f8cf60c7db6ef7d88fad2695a615a151ecebf27045d4887b69fdf5ce5b46fc619929081900390910190a1505050565b6000610cdc60cf54670de0b6b3a764000061366490919063ffffffff1656fe536166654d6174683a206d756c7469706c69636174696f6e206f766572666c6f7741646472657373206973206e6f742077686974656c6973746564000000000000436f6e747261637420696e7374616e63652068617320616c7265616479206265656e20696e697469616c697a65646e6f745f617574686f72697a65645f6368616e67657200000000000000000000a165627a7a72305820857935306e5d139cd2ca79e666595d6cbaa17204199bc17bb7ea93767b2c63f00029",
  "source": "pragma solidity 0.5.8;\n\nimport \"openzeppelin-solidity/contracts/math/Math.sol\";\nimport \"./interface/BtcPriceProvider.sol\";\nimport \"./MoCEMACalculator.sol\";\nimport \"./base/MoCBase.sol\";\nimport \"./MoCLibConnection.sol\";\nimport \"./MoCBProxManager.sol\";\nimport \"./token/DocToken.sol\";\nimport \"./token/BProToken.sol\";\nimport \"./MoCSettlement.sol\";\nimport \"moc-governance/contracts/Governance/Governed.sol\";\nimport \"moc-governance/contracts/Governance/IGovernor.sol\";\n\ncontract MoCState is MoCLibConnection, MoCBase, MoCEMACalculator {\n  using Math for uint256;\n  using SafeMath for uint256;\n\n  // This is the current state.\n  States public state;\n\n  event StateTransition(States newState);\n  event PriceProviderUpdated(address oldAddress, address newAddress);\n  // Contracts\n  BtcPriceProvider internal btcPriceProvider;\n  MoCSettlement internal mocSettlement;\n  MoCConverter internal mocConverter;\n  DocToken internal docToken;\n  BProToken internal bproToken;\n  MoCBProxManager internal bproxManager;\n\n  // One Day based on 15 seconds blocks\n  uint256 public dayBlockSpan;\n  // Relation between DOC and dollar\n  uint256 public peg;\n  // BPro max discount rate\n  // Reflects the discount spot rate at Liquidation level\n  uint256 public bproMaxDiscountRate;\n  // Liquidation limit\n  // [using mocPrecision]\n  uint256 public liq;\n  // BPro with discount limit\n  // [using mocPrecision]\n  uint256 public utpdu;\n  // Complete amount of Bitcoin in the system\n  // this represents basically MoC Balance\n  uint256 public rbtcInSystem;\n  // Price to use at doc redemption at\n  // liquidation event\n  uint256 public liquidationPrice;\n\n  function initialize(\n    address connectorAddress,\n    address _governor,\n    address _btcPriceProvider,\n    uint256 _liq,\n    uint256 _utpdu,\n    uint256 _maxDiscRate,\n    uint256 _dayBlockSpan,\n    uint256 _ema,\n    uint256 _smoothFactor,\n    uint256 _emaBlockSpan\n  ) public initializer {\n    initializePrecisions();\n    initializeBase(connectorAddress);\n    initializeContracts();\n    initializeValues(_governor, _btcPriceProvider,_liq, _utpdu, _maxDiscRate, _dayBlockSpan);\n    initializeMovingAverage(_ema, _smoothFactor, _emaBlockSpan);\n  }\n\n  /**\n  * @param rate Discount rate at liquidation level [using mocPrecision]\n  **/\n  function setMaxDiscountRate(uint256 rate) public onlyAuthorizedChanger() {\n    require(rate < mocLibConfig.mocPrecision, \"rate is lower than mocPrecision\");\n\n    bproMaxDiscountRate = rate;\n  }\n\n    /**\n   * @dev return the value of the BPro max discount rate configuration param\n   * @return bproMaxDiscountRate BPro max discount rate\n   */\n  function getMaxDiscountRate() public view returns(uint256) {\n    return bproMaxDiscountRate;\n  }\n\n  /**\n  * @dev Defines how many blocks there are in a day\n  * @param blockSpan blocks there are in a day\n  **/\n  function setDayBlockSpan(uint256 blockSpan) public onlyAuthorizedChanger() {\n    dayBlockSpan = blockSpan;\n  }\n\n  /**\n  * @dev Sets a new BTCProvider contract\n  * @param btcProviderAddress blocks there are in a day\n  **/\n  function setBtcPriceProvider(address btcProviderAddress) public onlyAuthorizedChanger() {\n    address oldBtcPriceProviderAddress = address(btcPriceProvider);\n    btcPriceProvider = BtcPriceProvider(btcProviderAddress);\n    emit PriceProviderUpdated(oldBtcPriceProviderAddress, address(btcPriceProvider));\n  }\n\n  /**\n  * @dev Gets the BTCPriceProviderAddress\n  * @return btcPriceProvider blocks there are in a day\n  **/\n  function getBtcPriceProvider() public view returns(address) {\n    return address(btcPriceProvider);\n  }\n  /**\n   * @dev Gets how many blocks there are in a day\n   * @return blocks there are in a day\n   */\n  function getDayBlockSpan() public view returns(uint256) {\n    return dayBlockSpan;\n  }\n  /******STATE MACHINE*********/\n\n  enum States {\n    // State 0\n    Liquidated,\n    // State 1\n    BProDiscount,\n    // State 2\n    BelowCobj,\n    // State 3\n    AboveCobj\n  }\n\n/**\n  * @dev Subtract the btc amount passed by parameter to the total Bitcoin Amount\n  * @param btcAmount Amount that will be subtract to rbtcInSystem\n  */\n  function subtractRbtcFromSystem(uint256 btcAmount) public onlyWhitelisted(msg.sender) {\n    rbtcInSystem = rbtcInSystem.sub(btcAmount);\n  }\n\n  /**\n  * @dev btcAmount Add the btc amount passed by parameter to the total Bitcoin Amount\n  * @param btcAmount Amount that will be added to rbtcInSystem\n  */\n  function addToRbtcInSystem(uint256 btcAmount) public onlyWhitelisted(msg.sender) {\n    rbtcInSystem = rbtcInSystem.add(btcAmount);\n  }\n\n  /**\n    @dev All BPros in circulation\n   */\n  function bproTotalSupply() public view returns(uint256) {\n    return bproToken.totalSupply();\n  }\n\n  /**\n    @dev All docs in circulation\n   */\n  function docTotalSupply() public view returns(uint256) {\n    return docToken.totalSupply();\n  }\n\n  /**\n    @dev Target coverage for complete system\n   */\n  function cobj() public view returns(uint256) {\n    return bproxManager.getBucketCobj(BUCKET_C0);\n  }\n\n  /**\n    * @dev Amount of Bitcoins in the system excluding\n    * BTCx values and interests holdings\n    */\n  function collateralRbtcInSystem() public view returns(uint256) {\n    uint256 rbtcInBtcx = mocConverter.bproxToBtc(bproxManager.getBucketNBPro(BUCKET_X2),BUCKET_X2);\n    uint256 rbtcInBag = bproxManager.getInrateBag(BUCKET_C0);\n\n    return rbtcInSystem.sub(rbtcInBtcx).sub(rbtcInBag);\n  }\n\n  /** @dev GLOBAL Coverage\n    * @return coverage [using mocPrecision]\n    */\n  function globalCoverage() public view returns(uint256) {\n    uint256 lB = globalLockedBitcoin();\n\n    return mocLibConfig.coverage(collateralRbtcInSystem(), lB);\n  }\n\n  /**\n  * @dev BUCKET lockedBitcoin\n  * @param bucket Name of the bucket used\n  * @return lockedBitcoin amount [using reservePrecision]\n  */\n  function lockedBitcoin(bytes32 bucket) public view returns(uint256) {\n    uint256 nDoc = bproxManager.getBucketNDoc(bucket);\n\n    return mocLibConfig.lockedBitcoin(getBitcoinPrice(), nDoc, peg);\n  }\n\n  /**\n  * @dev Gets RBTC in BitPro within specified bucket\n  * @param bucket Name of the bucket used\n  * @return Bitcoin amount of BitPro in Bucket [using reservePrecision]\n  */\n  function getRbtcInBitPro(bytes32 bucket) public view returns(uint256) {\n    uint256 nB = bproxManager.getBucketNBTC(bucket);\n    uint256 lB = lockedBitcoin(bucket);\n\n    if ( lB >= nB ){\n      return 0;\n    }\n\n    return nB.sub(lB);\n  }\n\n  /**\n  * @dev Gets the RBTC in the contract that not corresponds\n    to Doc collateral\n  * @return RBTC remainder [using reservePrecision]\n  */\n  function getRbtcRemainder() public view returns(uint256) {\n    uint256 lB = globalLockedBitcoin();\n\n    if ( lB >= rbtcInSystem ){\n      return 0;\n    }\n\n    return rbtcInSystem.sub(lB);\n  }\n\n  /**\n  * @dev BUCKET Coverage\n  * @param bucket Name of the bucket used\n  * @return coverage [using coveragePrecision]\n  */\n  function coverage(bytes32 bucket) public view returns(uint256) {\n    if (!bproxManager.isBucketBase(bucket) && bproxManager.isBucketEmpty(bucket)) {\n      return bproxManager.getBucketCobj(bucket);\n    }\n\n    uint256 nB = bproxManager.getBucketNBTC(bucket);\n    uint256 lB = lockedBitcoin(bucket);\n\n    return mocLibConfig.coverage(nB, lB);\n  }\n\n    /**\n  * @dev Abundance ratio, receives tha amount of doc to use the value of doc0 and Doc total supply\n  * @return abundance ratio [using mocPrecision]\n  */\n  function abundanceRatio(uint256 doc0) public view returns(uint256) {\n    return mocLibConfig.abundanceRatio(doc0, docTotalSupply());\n  }\n\n  /**\n  * @dev Relation between docs in bucket 0 and Doc total supply\n  * @return abundance ratio [using mocPrecision]\n  */\n  function currentAbundanceRatio() public view returns(uint256) {\n    return abundanceRatio(getBucketNDoc(BUCKET_C0));\n  }\n\n  /**\n  * @dev BUCKET Leverage\n  * @param bucket Name of the bucket used\n  * @return coverage [using mocPrecision]\n  */\n  function leverage(bytes32 bucket) public view returns(uint256) {\n    uint256 cov = coverage(bucket);\n\n    return mocLibConfig.leverageFromCoverage(cov);\n  }\n\n  /**\n  * @dev GLOBAL maxDoc\n  * @return abundance ratio [using mocPrecision]\n  */\n  function globalMaxDoc() public view returns(uint256) {\n    return mocLibConfig.maxDoc(collateralRbtcInSystem(), cobj(), docTotalSupply(), peg, getBitcoinPrice(), getBcons());\n  }\n\n  /**\n  * @return amount of docs in bucket 0, that can be redeemed outside of settlement [using mocPrecision]\n  */\n  function freeDoc() public view returns(uint256) {\n    return bproxManager.getBucketNDoc(BUCKET_C0);\n  }\n\n  /**\n  * @dev BUCKET maxDoc\n  * @return abundance ratio [using mocPrecision]\n  */\n  function maxDoc(bytes32 bucket) public view returns(uint256) {\n    uint256 nB = bproxManager.getBucketNBTC(bucket);\n    uint256 nDoc = bproxManager.getBucketNDoc(bucket);\n    uint256 bktCobj = bproxManager.getBucketCobj(bucket);\n\n    return mocLibConfig.maxDoc(nB, bktCobj, nDoc, peg, getBitcoinPrice(), getBcons());\n  }\n\n  /**\n  * @dev GLOBAL maxBPro\n  * @return maxBPro for redeem [using reservePrecision]\n  */\n  function globalMaxBPro() public view returns(uint256) {\n    uint256 bproPrice = bproUsdPrice();\n\n    return mocLibConfig.maxBPro(\n      collateralRbtcInSystem(), cobj(), docTotalSupply(), peg, getBitcoinPrice(), getBcons(), bproPrice\n    );\n  }\n\n  /**\n  * @dev ABSOLUTE maxDoc\n  * @return maxDoc to issue [using mocPrecision]\n  */\n  function absoluteMaxDoc() public view returns(uint256) {\n    return Math.min(globalMaxDoc(), maxDoc(BUCKET_C0));\n  }\n\n  /** @dev BUCKET maxBPro to redeem / mint\n      @param bucket Name of the bucket used\n    * @return maxBPro for redeem [using mocPrecision]\n    */\n  function maxBPro(bytes32 bucket) public view returns(uint256) {\n    uint256 nB = bproxManager.getBucketNBTC(bucket);\n    uint256 nDoc = bproxManager.getBucketNDoc(bucket);\n    uint256 bproPrice = bproUsdPrice();\n    uint256 bktCobj = bproxManager.getBucketCobj(bucket);\n\n    return mocLibConfig.maxBPro(\n      nB, bktCobj, nDoc, peg, getBitcoinPrice(), getBcons(), bproPrice\n    );\n  }\n\n /**\n  * @dev GLOBAL max bprox to mint\n  * @param bucket Name of the bucket used\n  * @return maxBProx [using reservePrecision]\n  */\n  function maxBProx(bytes32 bucket) public view returns(uint256) {\n    uint256 maxBtc = maxBProxBtcValue(bucket);\n\n    return mocLibConfig.maxBProWithBtc(maxBtc, bucketBProTecPrice(bucket));\n  }\n\n  /**\n  * @dev GLOBAL max bprox to mint\n  * @param bucket Name of the bucket used\n  * @return maxBProx BTC value to mint [using reservePrecision]\n  */\n  function maxBProxBtcValue(bytes32 bucket) public view returns(uint256) {\n    uint256 nDoc0 = bproxManager.getBucketNDoc(BUCKET_C0);\n    uint256 bucketLev = leverage(bucket);\n\n    return mocLibConfig.maxBProxBtcValue(nDoc0, peg, getBitcoinPrice(), bucketLev);\n  }\n\n  /** @dev ABSOLUTE maxBPro\n  * @return maxDoc to issue [using mocPrecision]\n  */\n  function absoluteMaxBPro() public view returns(uint256) {\n    return Math.min(globalMaxBPro(), maxBPro(BUCKET_C0));\n  }\n\n  /**\n  * @dev DISCOUNT maxBPro\n  * @return maxBPro for mint with discount [using mocPrecision]\n  */\n  function maxBProWithDiscount() public view returns(uint256) {\n    uint256 nDoc = docTotalSupply();\n    uint256 bproSpotDiscount = bproSpotDiscountRate();\n    uint256 bproPrice = bproUsdPrice();\n    uint256 btcPrice = getBitcoinPrice();\n\n    return mocLibConfig.maxBProWithDiscount(collateralRbtcInSystem(), nDoc, utpdu, peg, btcPrice, bproPrice,\n      bproSpotDiscount);\n  }\n\n  /**\n  * @dev GLOBAL lockedBitcoin\n  * @return lockedBitcoin amount [using reservePrecision]\n  */\n  function globalLockedBitcoin() public view returns(uint256) {\n    return mocLibConfig.lockedBitcoin(getBitcoinPrice(), docTotalSupply(), peg);\n  }\n\n  /**\n  * @dev BTC price of BPro\n  * @return the BPro Tec Price [using reservePrecision]\n  */\n  function bproTecPrice() public view returns(uint256) {\n    return bucketBProTecPrice(BUCKET_C0);\n  }\n\n  /**\n  * @dev BUCKET BTC price of BPro\n  * @param bucket Name of the bucket used\n  * @return the BPro Tec Price [using reservePrecision]\n  */\n  function bucketBProTecPrice(bytes32 bucket) public view returns(uint256) {\n    uint256 nBPro = bproxManager.getBucketNBPro(bucket);\n    uint256 lb = lockedBitcoin(bucket);\n    uint256 nB = bproxManager.getBucketNBTC(bucket);\n\n    return mocLibConfig.bproTecPrice(nB, lb, nBPro);\n  }\n\n  /**\n  * @dev BTC price of BPro with spot discount applied\n  * @return the BPro Tec Price [using reservePrecision]\n  */\n  function bproDiscountPrice() public view returns(uint256) {\n    uint256 bproTecprice = bproTecPrice();\n    uint256 discountRate = bproSpotDiscountRate();\n\n    return mocLibConfig.applyDiscountRate(bproTecprice, discountRate);\n  }\n\n  /**\n  * @dev BPro USD PRICE\n  * @return the BPro USD Price [using mocPrecision]\n  */\n  function bproUsdPrice() public view returns(uint256) {\n    uint256 bproBtcPrice = bproTecPrice();\n    uint256 btcPrice = getBitcoinPrice();\n\n    return btcPrice.mul(bproBtcPrice).div(mocLibConfig.reservePrecision);\n  }\n\n /**\n  * @dev GLOBAL max bprox to mint\n  * @param bucket Name of the bucket used\n  * @return max BPro allowed to be spent to mint BProx [using reservePrecision]\n  **/\n  function maxBProxBProValue(bytes32 bucket) public view returns(uint256) {\n    uint256 btcValue = maxBProxBtcValue(bucket);\n\n    return mocLibConfig.maxBProWithBtc(btcValue, bproTecPrice());\n  }\n\n  /**\n  * @dev BUCKET BProx price in BPro\n  * @param bucket Name of the bucket used\n  * @return BProx BPro Price [using mocPrecision]\n  */\n  function bproxBProPrice(bytes32 bucket) public view returns(uint256) {\n    // Otherwise, it reverts.\n    if (state == States.Liquidated) {\n      return 0;\n    }\n\n    uint256 bproxBtcPrice = bucketBProTecPrice(bucket);\n    uint256 bproBtcPrice = bproTecPrice();\n\n    return mocLibConfig.bproxBProPrice(bproxBtcPrice, bproBtcPrice);\n  }\n\n  /**\n  * @dev GLOBAL BTC Discount rate to apply to BProPrice.\n  * @return BPro discount rate [using DISCOUNT_PRECISION].\n   */\n  function bproSpotDiscountRate() public view returns(uint256) {\n    uint256 cov = globalCoverage();\n\n    return mocLibConfig.bproSpotDiscountRate(bproMaxDiscountRate, liq, utpdu, cov);\n  }\n\n  /**\n    @dev Calculates the number of days to next settlement based dayBlockSpan\n   */\n  function daysToSettlement() public view returns(uint256) {\n    return blocksToSettlement().mul(mocLibConfig.dayPrecision).div(dayBlockSpan);\n  }\n\n  /**\n    @dev Number of blocks to settlement\n   */\n  function blocksToSettlement() public view returns(uint256) {\n    if (mocSettlement.nextSettlementBlock() <= block.number) {\n      return 0;\n    }\n\n    return mocSettlement.nextSettlementBlock().sub(block.number);\n  }\n\n  /**\n   * @dev Verifies if forced liquidation is reached checking if globalCoverage <= liquidation (currently 1.04)\n   * @return true if liquidation state is reached, false otherwise\n   */\n  function isLiquidationReached() public view returns(bool) {\n    uint256 cov = globalCoverage();\n    if (state != States.Liquidated && cov <= liq)\n      return true;\n    return false;\n  }\n\n  /**\n    @dev Returns the price to use for doc redeem in a liquidation event\n   */\n  function getLiquidationPrice() public view returns(uint256) {\n    return liquidationPrice;\n  }\n\n  function getBucketNBTC(bytes32 bucket) public view returns(uint256) {\n    return bproxManager.getBucketNBTC(bucket);\n  }\n\n  function getBucketNBPro(bytes32 bucket) public view returns(uint256) {\n    return bproxManager.getBucketNBPro(bucket);\n  }\n\n  function getBucketNDoc(bytes32 bucket) public view returns(uint256) {\n    return bproxManager.getBucketNDoc(bucket);\n  }\n\n  function getBucketCobj(bytes32 bucket) public view returns(uint256) {\n    return bproxManager.getBucketCobj(bucket);\n  }\n\n  function getInrateBag(bytes32 bucket) public view returns(uint256) {\n    return bproxManager.getInrateBag(bucket);\n  }\n\n  /**********************\n    BTC PRICE PROVIDER\n   *********************/\n\n  function getBcons() public view returns(uint256) {\n    return Math.min(getBitcoinPrice(), getBitcoinMovingAverage());\n  }\n\n  function getBitcoinPrice() public view returns(uint256) {\n    (bytes32 price, bool has) = btcPriceProvider.peek();\n    require(has, \"Oracle have no Bitcoin Price\");\n\n    return uint256(price);\n  }\n\n\n  function calculateBitcoinMovingAverage() public {\n    setBitcoinMovingAverage(getBitcoinPrice());\n  }\n\n\n\n  /**\n   * @dev return the value of the liq threshold configuration param\n   * @return liq threshold, currently 1.04\n   */\n  function getLiq() public view returns(uint256) {\n    return liq;\n  }\n\n  /**\n   * @dev sets the value of the liq threshold configuration param\n   * @param _liq liquidation threshold\n   */\n  function setLiq(uint _liq) public onlyAuthorizedChanger(){\n    liq = _liq;\n  }\n\n  /**\n   * @dev return the value of the utpdu threshold configuration param\n   * @return utpdu Universal TPro discount sales coverage threshold\n   */\n  function getUtpdu() public view returns(uint256) {\n    return utpdu;\n  }\n\n  /**\n   * @dev sets the value of the utpdu threshold configuration param\n   * @param _utpdu Universal TPro discount sales coverage threshold\n   */\n  function setUtpdu(uint _utpdu) public onlyAuthorizedChanger(){\n    utpdu = _utpdu;\n  }\n\n  /**\n   * @dev returns the relation between DOC and dollar. By default it is 1.\n   * @return peg relation between DOC and dollar\n   */\n  function getPeg() public view returns(uint256) {\n    return peg;\n  }\n\n  /**\n   * @dev sets the relation between DOC and dollar. By default it is 1.\n   * @param _peg relation between DOC and dollar\n   */\n  function setPeg(uint _peg) public onlyAuthorizedChanger(){\n    peg = _peg;\n  }\n\n  function nextState() public {\n    // There is no coming back from Liquidation\n    if (state == States.Liquidated)\n      return;\n\n    States prevState = state;\n    calculateBitcoinMovingAverage();\n    uint256 cov = globalCoverage();\n    if (cov <= liq) {\n      setLiquidationPrice();\n      state = States.Liquidated;\n    } else if (cov > liq && cov <= utpdu) {\n      state = States.BProDiscount;\n    } else if (cov > utpdu && cov <= cobj()) {\n      state = States.BelowCobj;\n    } else {\n      state = States.AboveCobj;\n    }\n\n    if (prevState != state)\n      emit StateTransition(state);\n  }\n\n\n  /**\n    @dev Calculates price at liquidation event as the relation between\n    the doc total supply and the amount of RBTC available to distribute\n   */\n  function setLiquidationPrice() internal {\n    // When coverage is below 1, the amount to\n    // distribute is all the RBTC in the contract\n    uint256 rbtcAvailable = Math.min(globalLockedBitcoin(), rbtcInSystem);\n\n    liquidationPrice = mocLibConfig.liquidationPrice(rbtcAvailable, docTotalSupply());\n  }\n\n  function initializeValues(\n    address _governor,\n    address _btcPriceProvider,\n    uint256 _liq,\n    uint256 _utpdu,\n    uint256 _maxDiscRate,\n    uint256 _dayBlockSpan) internal {\n    liq = _liq;\n    utpdu = _utpdu;\n    bproMaxDiscountRate = _maxDiscRate;\n    dayBlockSpan = _dayBlockSpan;\n    governor = IGovernor(_governor);\n    btcPriceProvider = BtcPriceProvider(_btcPriceProvider);\n    // Default values\n    state = States.AboveCobj;\n    peg = 1;\n  }\n\n  function initializeContracts() internal  {\n    mocSettlement = MoCSettlement(connector.mocSettlement());\n    docToken = DocToken(connector.docToken());\n    bproToken = BProToken(connector.bproToken());\n    bproxManager = MoCBProxManager(connector.bproxManager());\n    mocConverter = MoCConverter(connector.mocConverter());\n  }\n\n  // Leave a gap betweeen inherited contracts variables in order to be\n  // able to add more variables in them later\n  uint256[50] private upgradeGap;\n}\n",
  "sourcePath": "/home/martin/Proyectos/moc_deployments/contracts/repositories/dev_moc_internal/moc/contracts/MoCState.sol",
  "compiler": {
    "name": "solc",
    "version": "0.5.8+commit.23d335f2.Emscripten.clang"
  },
  "schemaVersion": "3.0.11",
  "updatedAt": "2019-11-06T18:57:56.836Z",
  "devdoc": {
    "methods": {
      "absoluteMaxBPro()": {
        "details": "ABSOLUTE maxBPro",
        "return": "maxDoc to issue [using mocPrecision]"
      },
      "absoluteMaxDoc()": {
        "details": "ABSOLUTE maxDoc",
        "return": "maxDoc to issue [using mocPrecision]"
      },
      "abundanceRatio(uint256)": {
        "details": "Abundance ratio, receives tha amount of doc to use the value of doc0 and Doc total supply",
        "return": "abundance ratio [using mocPrecision]"
      },
      "addToRbtcInSystem(uint256)": {
        "details": "btcAmount Add the btc amount passed by parameter to the total Bitcoin Amount",
        "params": {
          "btcAmount": "Amount that will be added to rbtcInSystem"
        }
      },
      "blocksToSettlement()": {
        "details": "Number of blocks to settlement"
      },
      "bproDiscountPrice()": {
        "details": "BTC price of BPro with spot discount applied",
        "return": "the BPro Tec Price [using reservePrecision]"
      },
      "bproSpotDiscountRate()": {
        "details": "GLOBAL BTC Discount rate to apply to BProPrice.",
        "return": "BPro discount rate [using DISCOUNT_PRECISION]."
      },
      "bproTecPrice()": {
        "details": "BTC price of BPro",
        "return": "the BPro Tec Price [using reservePrecision]"
      },
      "bproTotalSupply()": {
        "details": "All BPros in circulation"
      },
      "bproUsdPrice()": {
        "details": "BPro USD PRICE",
        "return": "the BPro USD Price [using mocPrecision]"
      },
      "bproxBProPrice(bytes32)": {
        "details": "BUCKET BProx price in BPro",
        "params": {
          "bucket": "Name of the bucket used"
        },
        "return": "BProx BPro Price [using mocPrecision]"
      },
      "bucketBProTecPrice(bytes32)": {
        "details": "BUCKET BTC price of BPro",
        "params": {
          "bucket": "Name of the bucket used"
        },
        "return": "the BPro Tec Price [using reservePrecision]"
      },
      "changeIGovernor(address)": {
        "params": {
          "newIGovernor": "New governor address"
        }
      },
      "cobj()": {
        "details": "Target coverage for complete system"
      },
      "collateralRbtcInSystem()": {
        "details": "Amount of Bitcoins in the system excluding BTCx values and interests holdings"
      },
      "coverage(bytes32)": {
        "details": "BUCKET Coverage",
        "params": {
          "bucket": "Name of the bucket used"
        },
        "return": "coverage [using coveragePrecision]"
      },
      "currentAbundanceRatio()": {
        "details": "Relation between docs in bucket 0 and Doc total supply",
        "return": "abundance ratio [using mocPrecision]"
      },
      "daysToSettlement()": {
        "details": "Calculates the number of days to next settlement based dayBlockSpan"
      },
      "docTotalSupply()": {
        "details": "All docs in circulation"
      },
      "freeDoc()": {
        "return": "amount of docs in bucket 0, that can be redeemed outside of settlement [using mocPrecision]"
      },
      "getBtcPriceProvider()": {
        "details": "Gets the BTCPriceProviderAddress",
        "return": "btcPriceProvider blocks there are in a day*"
      },
      "getDayBlockSpan()": {
        "details": "Gets how many blocks there are in a day",
        "return": "blocks there are in a day"
      },
      "getLiq()": {
        "details": "return the value of the liq threshold configuration param",
        "return": "liq threshold, currently 1.04"
      },
      "getLiquidationPrice()": {
        "details": "Returns the price to use for doc redeem in a liquidation event"
      },
      "getMaxDiscountRate()": {
        "details": "return the value of the BPro max discount rate configuration param",
        "return": "bproMaxDiscountRate BPro max discount rate"
      },
      "getPeg()": {
        "details": "returns the relation between DOC and dollar. By default it is 1.",
        "return": "peg relation between DOC and dollar"
      },
      "getRbtcInBitPro(bytes32)": {
        "details": "Gets RBTC in BitPro within specified bucket",
        "params": {
          "bucket": "Name of the bucket used"
        },
        "return": "Bitcoin amount of BitPro in Bucket [using reservePrecision]"
      },
      "getRbtcRemainder()": {
        "details": "Gets the RBTC in the contract that not corresponds to Doc collateral",
        "return": "RBTC remainder [using reservePrecision]"
      },
      "getUtpdu()": {
        "details": "return the value of the utpdu threshold configuration param",
        "return": "utpdu Universal TPro discount sales coverage threshold"
      },
      "globalCoverage()": {
        "details": "GLOBAL Coverage",
        "return": "coverage [using mocPrecision]"
      },
      "globalLockedBitcoin()": {
        "details": "GLOBAL lockedBitcoin",
        "return": "lockedBitcoin amount [using reservePrecision]"
      },
      "globalMaxBPro()": {
        "details": "GLOBAL maxBPro",
        "return": "maxBPro for redeem [using reservePrecision]"
      },
      "globalMaxDoc()": {
        "details": "GLOBAL maxDoc",
        "return": "abundance ratio [using mocPrecision]"
      },
      "initialize(address)": {
        "details": "This initialize replaces the constructor but it is not called automatically. It is necessary because of the upgradeability of the contracts",
        "params": {
          "_governor": "Governor address"
        }
      },
      "isLiquidationReached()": {
        "details": "Verifies if forced liquidation is reached checking if globalCoverage <= liquidation (currently 1.04)",
        "return": "true if liquidation state is reached, false otherwise"
      },
      "leverage(bytes32)": {
        "details": "BUCKET Leverage",
        "params": {
          "bucket": "Name of the bucket used"
        },
        "return": "coverage [using mocPrecision]"
      },
      "lockedBitcoin(bytes32)": {
        "details": "BUCKET lockedBitcoin",
        "params": {
          "bucket": "Name of the bucket used"
        },
        "return": "lockedBitcoin amount [using reservePrecision]"
      },
      "maxBPro(bytes32)": {
        "details": "BUCKET maxBPro to redeem / mint",
        "params": {
          "bucket": "Name of the bucket used"
        },
        "return": "maxBPro for redeem [using mocPrecision]"
      },
      "maxBProWithDiscount()": {
        "details": "DISCOUNT maxBPro",
        "return": "maxBPro for mint with discount [using mocPrecision]"
      },
      "maxBProx(bytes32)": {
        "details": "GLOBAL max bprox to mint",
        "params": {
          "bucket": "Name of the bucket used"
        },
        "return": "maxBProx [using reservePrecision]"
      },
      "maxBProxBProValue(bytes32)": {
        "details": "GLOBAL max bprox to mint",
        "params": {
          "bucket": "Name of the bucket used"
        },
        "return": "max BPro allowed to be spent to mint BProx [using reservePrecision]*"
      },
      "maxBProxBtcValue(bytes32)": {
        "details": "GLOBAL max bprox to mint",
        "params": {
          "bucket": "Name of the bucket used"
        },
        "return": "maxBProx BTC value to mint [using reservePrecision]"
      },
      "maxDoc(bytes32)": {
        "details": "BUCKET maxDoc",
        "return": "abundance ratio [using mocPrecision]"
      },
      "setBtcPriceProvider(address)": {
        "details": "Sets a new BTCProvider contract",
        "params": {
          "btcProviderAddress": "blocks there are in a day*"
        }
      },
      "setDayBlockSpan(uint256)": {
        "details": "Defines how many blocks there are in a day",
        "params": {
          "blockSpan": "blocks there are in a day*"
        }
      },
      "setEmaCalculationBlockSpan(uint256)": {
        "params": {
          "blockSpan": "Defines how many blocks should pass between BMA calculations*"
        }
      },
      "setLiq(uint256)": {
        "details": "sets the value of the liq threshold configuration param",
        "params": {
          "_liq": "liquidation threshold"
        }
      },
      "setMaxDiscountRate(uint256)": {
        "params": {
          "rate": "Discount rate at liquidation level [using mocPrecision]*"
        }
      },
      "setPeg(uint256)": {
        "details": "sets the relation between DOC and dollar. By default it is 1.",
        "params": {
          "_peg": "relation between DOC and dollar"
        }
      },
      "setUtpdu(uint256)": {
        "details": "sets the value of the utpdu threshold configuration param",
        "params": {
          "_utpdu": "Universal TPro discount sales coverage threshold"
        }
      },
      "subtractRbtcFromSystem(uint256)": {
        "details": "Subtract the btc amount passed by parameter to the total Bitcoin Amount",
        "params": {
          "btcAmount": "Amount that will be subtract to rbtcInSystem"
        }
      }
    }
  },
  "userdoc": {
    "methods": {
      "changeIGovernor(address)": {
        "notice": "Change the contract's governor. Should be called through the old governance system"
      },
      "getBcons()": {
        "notice": "******************** BTC PRICE PROVIDER********************"
      },
      "initialize(address)": {
        "notice": "Initialize the contract with the basic settings"
      }
    }
  }
}