{
  "contractName": "MoC",
  "abi": [
    {
      "constant": true,
      "inputs": [],
      "name": "getReservePrecision",
      "outputs": [
        {
          "name": "",
          "type": "uint256"
        }
      ],
      "payable": false,
      "stateMutability": "view",
      "type": "function"
    },
    {
      "constant": false,
      "inputs": [
        {
          "name": "newStopper",
          "type": "address"
        }
      ],
      "name": "setStopper",
      "outputs": [],
      "payable": false,
      "stateMutability": "nonpayable",
      "type": "function"
    },
    {
      "constant": true,
      "inputs": [],
      "name": "governor",
      "outputs": [
        {
          "name": "",
          "type": "address"
        }
      ],
      "payable": false,
      "stateMutability": "view",
      "type": "function"
    },
    {
      "constant": false,
      "inputs": [],
      "name": "unpause",
      "outputs": [],
      "payable": false,
      "stateMutability": "nonpayable",
      "type": "function"
    },
    {
      "constant": false,
      "inputs": [],
      "name": "makeUnstoppable",
      "outputs": [],
      "payable": false,
      "stateMutability": "nonpayable",
      "type": "function"
    },
    {
      "constant": true,
      "inputs": [],
      "name": "BUCKET_X2",
      "outputs": [
        {
          "name": "",
          "type": "bytes32"
        }
      ],
      "payable": false,
      "stateMutability": "view",
      "type": "function"
    },
    {
      "constant": true,
      "inputs": [],
      "name": "paused",
      "outputs": [
        {
          "name": "",
          "type": "bool"
        }
      ],
      "payable": false,
      "stateMutability": "view",
      "type": "function"
    },
    {
      "constant": true,
      "inputs": [],
      "name": "mocBurnout",
      "outputs": [
        {
          "name": "",
          "type": "address"
        }
      ],
      "payable": false,
      "stateMutability": "view",
      "type": "function"
    },
    {
      "constant": false,
      "inputs": [],
      "name": "makeStoppable",
      "outputs": [],
      "payable": false,
      "stateMutability": "nonpayable",
      "type": "function"
    },
    {
      "constant": true,
      "inputs": [],
      "name": "connector",
      "outputs": [
        {
          "name": "",
          "type": "address"
        }
      ],
      "payable": false,
      "stateMutability": "view",
      "type": "function"
    },
    {
      "constant": false,
      "inputs": [],
      "name": "pause",
      "outputs": [],
      "payable": false,
      "stateMutability": "nonpayable",
      "type": "function"
    },
    {
      "constant": false,
      "inputs": [
        {
          "name": "newIGovernor",
          "type": "address"
        }
      ],
      "name": "changeIGovernor",
      "outputs": [],
      "payable": false,
      "stateMutability": "nonpayable",
      "type": "function"
    },
    {
      "constant": true,
      "inputs": [],
      "name": "stoppable",
      "outputs": [
        {
          "name": "",
          "type": "bool"
        }
      ],
      "payable": false,
      "stateMutability": "view",
      "type": "function"
    },
    {
      "constant": true,
      "inputs": [],
      "name": "stopper",
      "outputs": [
        {
          "name": "",
          "type": "address"
        }
      ],
      "payable": false,
      "stateMutability": "view",
      "type": "function"
    },
    {
      "constant": true,
      "inputs": [],
      "name": "BUCKET_C0",
      "outputs": [
        {
          "name": "",
          "type": "bytes32"
        }
      ],
      "payable": false,
      "stateMutability": "view",
      "type": "function"
    },
    {
      "constant": true,
      "inputs": [],
      "name": "getDayPrecision",
      "outputs": [
        {
          "name": "",
          "type": "uint256"
        }
      ],
      "payable": false,
      "stateMutability": "view",
      "type": "function"
    },
    {
      "constant": true,
      "inputs": [
        {
          "name": "account",
          "type": "address"
        }
      ],
      "name": "getAllowance",
      "outputs": [
        {
          "name": "",
          "type": "uint256"
        }
      ],
      "payable": false,
      "stateMutability": "view",
      "type": "function"
    },
    {
      "constant": true,
      "inputs": [],
      "name": "reserveToken",
      "outputs": [
        {
          "name": "",
          "type": "address"
        }
      ],
      "payable": false,
      "stateMutability": "view",
      "type": "function"
    },
    {
      "constant": true,
      "inputs": [],
      "name": "getMocPrecision",
      "outputs": [
        {
          "name": "",
          "type": "uint256"
        }
      ],
      "payable": false,
      "stateMutability": "view",
      "type": "function"
    },
    {
      "anonymous": false,
      "inputs": [
        {
          "indexed": false,
          "name": "account",
          "type": "address"
        }
      ],
      "name": "Paused",
      "type": "event"
    },
    {
      "anonymous": false,
      "inputs": [
        {
          "indexed": false,
          "name": "account",
          "type": "address"
        }
      ],
      "name": "Unpaused",
      "type": "event"
    },
    {
      "anonymous": false,
      "inputs": [],
      "name": "CallRevert",
      "type": "event"
    },
    {
      "anonymous": false,
      "inputs": [
        {
          "indexed": true,
          "name": "origin",
          "type": "address"
        },
        {
          "indexed": false,
          "name": "amount",
          "type": "uint256"
        }
      ],
      "name": "DepositFailed",
      "type": "event"
    },
    {
      "anonymous": false,
      "inputs": [
        {
          "indexed": true,
          "name": "destination",
          "type": "address"
        },
        {
          "indexed": false,
          "name": "amount",
          "type": "uint256"
        }
      ],
      "name": "WithdrawFailed",
      "type": "event"
    },
    {
      "anonymous": false,
      "inputs": [
        {
          "indexed": false,
          "name": "bucket",
          "type": "bytes32"
        }
      ],
      "name": "BucketLiquidation",
      "type": "event"
    },
    {
      "constant": false,
      "inputs": [
        {
          "name": "_stopper",
          "type": "address"
        },
        {
          "name": "_governor",
          "type": "address"
        }
      ],
      "name": "initialize",
      "outputs": [],
      "payable": false,
      "stateMutability": "nonpayable",
      "type": "function"
    },
    {
      "constant": false,
      "inputs": [
        {
          "name": "_governor",
          "type": "address"
        }
      ],
      "name": "initialize",
      "outputs": [],
      "payable": false,
      "stateMutability": "nonpayable",
      "type": "function"
    },
    {
      "constant": false,
      "inputs": [
        {
          "name": "_stopper",
          "type": "address"
        },
        {
          "name": "_governor",
          "type": "address"
        },
        {
          "name": "_stoppable",
          "type": "bool"
        }
      ],
      "name": "initialize",
      "outputs": [],
      "payable": false,
      "stateMutability": "nonpayable",
      "type": "function"
    },
    {
      "constant": false,
      "inputs": [
        {
          "name": "connectorAddress",
          "type": "address"
        },
        {
          "name": "governorAddress",
          "type": "address"
        },
        {
          "name": "stopperAddress",
          "type": "address"
        },
        {
          "name": "startStoppable",
          "type": "bool"
        }
      ],
      "name": "initialize",
      "outputs": [],
      "payable": false,
      "stateMutability": "nonpayable",
      "type": "function"
    },
    {
      "constant": true,
      "inputs": [
        {
          "name": "bucket",
          "type": "bytes32"
        },
        {
          "name": "account",
          "type": "address"
        }
      ],
      "name": "riskProxBalanceOf",
      "outputs": [
        {
          "name": "",
          "type": "uint256"
        }
      ],
      "payable": false,
      "stateMutability": "view",
      "type": "function"
    },
    {
      "constant": true,
      "inputs": [
        {
          "name": "index",
          "type": "uint256"
        }
      ],
      "name": "getRedeemRequestAt",
      "outputs": [
        {
          "name": "",
          "type": "address"
        },
        {
          "name": "",
          "type": "uint256"
        }
      ],
      "payable": false,
      "stateMutability": "view",
      "type": "function"
    },
    {
      "constant": true,
      "inputs": [],
      "name": "redeemQueueSize",
      "outputs": [
        {
          "name": "",
          "type": "uint256"
        }
      ],
      "payable": false,
      "stateMutability": "view",
      "type": "function"
    },
    {
      "constant": true,
      "inputs": [
        {
          "name": "redeemer",
          "type": "address"
        }
      ],
      "name": "stableTokenAmountToRedeem",
      "outputs": [
        {
          "name": "",
          "type": "uint256"
        }
      ],
      "payable": false,
      "stateMutability": "view",
      "type": "function"
    },
    {
      "constant": false,
      "inputs": [
        {
          "name": "stableTokenAmount",
          "type": "uint256"
        }
      ],
      "name": "redeemStableTokenRequest",
      "outputs": [],
      "payable": false,
      "stateMutability": "nonpayable",
      "type": "function"
    },
    {
      "constant": false,
      "inputs": [
        {
          "name": "isAddition",
          "type": "bool"
        },
        {
          "name": "delta",
          "type": "uint256"
        }
      ],
      "name": "alterRedeemRequestAmount",
      "outputs": [],
      "payable": false,
      "stateMutability": "nonpayable",
      "type": "function"
    },
    {
      "constant": false,
      "inputs": [
        {
          "name": "tokenAmount",
          "type": "uint256"
        }
      ],
      "name": "addReserves",
      "outputs": [],
      "payable": false,
      "stateMutability": "nonpayable",
      "type": "function"
    },
    {
      "constant": false,
      "inputs": [
        {
          "name": "resTokensToMint",
          "type": "uint256"
        }
      ],
      "name": "mintRiskPro",
      "outputs": [],
      "payable": false,
      "stateMutability": "nonpayable",
      "type": "function"
    },
    {
      "constant": false,
      "inputs": [
        {
          "name": "riskProAmount",
          "type": "uint256"
        }
      ],
      "name": "redeemRiskPro",
      "outputs": [],
      "payable": false,
      "stateMutability": "nonpayable",
      "type": "function"
    },
    {
      "constant": false,
      "inputs": [
        {
          "name": "resTokensToMint",
          "type": "uint256"
        }
      ],
      "name": "mintStableToken",
      "outputs": [],
      "payable": false,
      "stateMutability": "nonpayable",
      "type": "function"
    },
    {
      "constant": false,
      "inputs": [
        {
          "name": "bucket",
          "type": "bytes32"
        },
        {
          "name": "riskProxAmount",
          "type": "uint256"
        }
      ],
      "name": "redeemRiskProx",
      "outputs": [],
      "payable": false,
      "stateMutability": "nonpayable",
      "type": "function"
    },
    {
      "constant": false,
      "inputs": [
        {
          "name": "bucket",
          "type": "bytes32"
        },
        {
          "name": "resTokensToMint",
          "type": "uint256"
        }
      ],
      "name": "mintRiskProx",
      "outputs": [],
      "payable": false,
      "stateMutability": "nonpayable",
      "type": "function"
    },
    {
      "constant": false,
      "inputs": [
        {
          "name": "stableTokenAmount",
          "type": "uint256"
        }
      ],
      "name": "redeemFreeStableToken",
      "outputs": [],
      "payable": false,
      "stateMutability": "nonpayable",
      "type": "function"
    },
    {
      "constant": false,
      "inputs": [],
      "name": "redeemAllStableToken",
      "outputs": [],
      "payable": false,
      "stateMutability": "nonpayable",
      "type": "function"
    },
    {
      "constant": false,
      "inputs": [],
      "name": "dailyInratePayment",
      "outputs": [],
      "payable": false,
      "stateMutability": "nonpayable",
      "type": "function"
    },
    {
      "constant": false,
      "inputs": [],
      "name": "payRiskProHoldersInterestPayment",
      "outputs": [],
      "payable": false,
      "stateMutability": "nonpayable",
      "type": "function"
    },
    {
      "constant": true,
      "inputs": [],
      "name": "calculateRiskProHoldersInterest",
      "outputs": [
        {
          "name": "",
          "type": "uint256"
        },
        {
          "name": "",
          "type": "uint256"
        }
      ],
      "payable": false,
      "stateMutability": "view",
      "type": "function"
    },
    {
      "constant": true,
      "inputs": [],
      "name": "getRiskProInterestAddress",
      "outputs": [
        {
          "name": "",
          "type": "address"
        }
      ],
      "payable": false,
      "stateMutability": "view",
      "type": "function"
    },
    {
      "constant": true,
      "inputs": [],
      "name": "getRiskProRate",
      "outputs": [
        {
          "name": "",
          "type": "uint256"
        }
      ],
      "payable": false,
      "stateMutability": "view",
      "type": "function"
    },
    {
      "constant": true,
      "inputs": [],
      "name": "getRiskProInterestBlockSpan",
      "outputs": [
        {
          "name": "",
          "type": "uint256"
        }
      ],
      "payable": false,
      "stateMutability": "view",
      "type": "function"
    },
    {
      "constant": true,
      "inputs": [],
      "name": "isDailyEnabled",
      "outputs": [
        {
          "name": "",
          "type": "bool"
        }
      ],
      "payable": false,
      "stateMutability": "view",
      "type": "function"
    },
    {
      "constant": true,
      "inputs": [],
      "name": "isRiskProInterestEnabled",
      "outputs": [
        {
          "name": "",
          "type": "bool"
        }
      ],
      "payable": false,
      "stateMutability": "view",
      "type": "function"
    },
    {
      "constant": true,
      "inputs": [],
      "name": "isSettlementEnabled",
      "outputs": [
        {
          "name": "",
          "type": "bool"
        }
      ],
      "payable": false,
      "stateMutability": "view",
      "type": "function"
    },
    {
      "constant": true,
      "inputs": [
        {
          "name": "bucket",
          "type": "bytes32"
        }
      ],
      "name": "isBucketLiquidationReached",
      "outputs": [
        {
          "name": "",
          "type": "bool"
        }
      ],
      "payable": false,
      "stateMutability": "view",
      "type": "function"
    },
    {
      "constant": false,
      "inputs": [
        {
          "name": "bucket",
          "type": "bytes32"
        }
      ],
      "name": "evalBucketLiquidation",
      "outputs": [],
      "payable": false,
      "stateMutability": "nonpayable",
      "type": "function"
    },
    {
      "constant": false,
      "inputs": [
        {
          "name": "burnoutAddress",
          "type": "address"
        }
      ],
      "name": "setBurnoutAddress",
      "outputs": [],
      "payable": false,
      "stateMutability": "nonpayable",
      "type": "function"
    },
    {
      "constant": true,
      "inputs": [],
      "name": "getBurnoutAddress",
      "outputs": [
        {
          "name": "",
          "type": "address"
        }
      ],
      "payable": false,
      "stateMutability": "view",
      "type": "function"
    },
    {
      "constant": false,
      "inputs": [
        {
          "name": "steps",
          "type": "uint256"
        }
      ],
      "name": "evalLiquidation",
      "outputs": [],
      "payable": false,
      "stateMutability": "nonpayable",
      "type": "function"
    },
    {
      "constant": false,
      "inputs": [
        {
          "name": "steps",
          "type": "uint256"
        }
      ],
      "name": "runSettlement",
      "outputs": [],
      "payable": false,
      "stateMutability": "nonpayable",
      "type": "function"
    },
    {
      "constant": false,
      "inputs": [
        {
          "name": "receiver",
          "type": "address"
        },
        {
          "name": "tokenAmount",
          "type": "uint256"
        }
      ],
      "name": "sendToAddress",
      "outputs": [
        {
          "name": "",
          "type": "bool"
        }
      ],
      "payable": false,
      "stateMutability": "nonpayable",
      "type": "function"
    }
  ],
  "bytecode": "0x608060405234801561001057600080fd5b50615100806100206000396000f3fe608060405234801561001057600080fd5b506004361061026a5760e060020a600035046306bdce8c811461026f57806307760687146102895780630a58f47a146102a85780630c340a24146102ce57806325833afc146102f25780632768ef09146102fa5780632816d681146103165780632b28a6c71461033357806332549a071461035f5780633acb38d1146103855780633debd2d81461038d5780633f4ba83a146103b957806342af302c146103c1578063485cc955146103de5780635210570c1461040c57806357a13a16146104145780635b0217c81461041c5780635c975abb1461043957806361b122041461044157806363762cb214610449578063638dd5281461046657806368274357146104835780636872c4291461048b578063703355d0146104935780637218c7b5146104b65780637821a514146104dc5780637caca79c146104f957806383f3084f146105015780638456cb59146105095780638bd24796146105115780639a0ef025146105325780639d5a3ba81461053a578063b6e0833014610542578063bb4872de14610568578063c375536b14610570578063c4d66de814610578578063cc7ed8861461059e578063d1a76714146105a6578063d6a8aba9146105ae578063dae2844e146105d1578063dc15ec4b146105f6578063ded76383146105fe578063e22155f61461061b578063e2414a7314610623578063e4bbb5a81461062b578063e5a3c65614610663578063eb5a662e1461066b578063eef13ca114610691578063f1a528ae146106d1578063f4325d67146106ee578063f715e293146106f6578063fecf9734146106fe578063ff5690771461073c575b600080fd5b610277610759565b60408051918252519081900360200190f35b6102a66004803603602081101561029f57600080fd5b503561075f565b005b6102a6600480360360208110156102be57600080fd5b5035600160a060020a0316610aaf565b6102d6610bc6565b60408051600160a060020a039092168252519081900360200190f35b6102a6610bd5565b610302610dd1565b604080519115158252519081900360200190f35b6102a66004803603602081101561032c57600080fd5b5035610e4b565b6102776004803603604081101561034957600080fd5b5080359060200135600160a060020a0316611172565b6102776004803603602081101561037557600080fd5b5035600160a060020a0316611201565b6102a661128a565b610302600480360360408110156103a357600080fd5b50600160a060020a03813516906020013561138b565b6102a661147d565b610302600480360360208110156103d757600080fd5b50356115d0565b6102a6600480360360408110156103f457600080fd5b50600160a060020a03813581169160200135166116d6565b6102a6611788565b610277611881565b6102a66004803603602081101561043257600080fd5b503561188d565b610302611b17565b6102d6611b26565b6102a66004803603602081101561045f57600080fd5b5035611b36565b6102a66004803603602081101561047c57600080fd5b5035611ede565b6102a661214c565b610277612248565b6102a6600480360360408110156104a957600080fd5b5080359060200135612291565b6102a6600480360360208110156104cc57600080fd5b5035600160a060020a0316612752565b6102a6600480360360208110156104f257600080fd5b5035612909565b61030261297f565b6102d66129c8565b6102a66129d7565b610519612ba1565b6040805192835260208301919091528051918290030190f35b6102d6612c26565b610277612c75565b6102a66004803603602081101561055857600080fd5b5035600160a060020a0316612cbe565b610302612dcc565b6102d6612dd6565b6102a66004803603602081101561058e57600080fd5b5035600160a060020a0316612e1f565b610277612edf565b6102d6612f28565b6102a6600480360360408110156105c457600080fd5b5080359060200135612f3e565b6102a6600480360360408110156105e757600080fd5b50803515159060200135613461565b6102a66135fb565b6102a66004803603602081101561061457600080fd5b5035613748565b6102776138da565b6102776138e6565b6102a66004803603606081101561064157600080fd5b50600160a060020a0381358116916020810135909116906040013515156138ec565b6103026139c7565b6102776004803603602081101561068157600080fd5b5035600160a060020a0316613a10565b6106ae600480360360208110156106a757600080fd5b5035613b2a565b60408051600160a060020a03909316835260208301919091528051918290030190f35b6102a6600480360360208110156106e757600080fd5b5035613bb7565b6102d6613ef1565b610277613f00565b6102a66004803603608081101561071457600080fd5b50600160a060020a038135811691602081013582169160408201351690606001351515613f06565b6102a66004803603602081101561075257600080fd5b5035613fd2565b60335490565b610101546040805180820190915260128152600080516020614f2f833981519152602082015290610100900460ff161561081a5760405160e560020a62461bcd0281526004018080602001828103825283818151815260200191508051906020019080838360005b838110156107df5781810151838201526020016107c7565b50505050905090810190601f16801561080c5780820380516001836020036101000a031916815260200191505b509250505060405180910390fd5b5061013760009054906101000a9004600160a060020a0316600160a060020a03166314007c6d6040518163ffffffff1660e060020a028152600401600060405180830381600087803b15801561086f57600080fd5b505af1158015610883573d6000803e3d6000fd5b5060009250610890915050565b61013760009054906101000a9004600160a060020a0316600160a060020a031663c19d93fb6040518163ffffffff1660e060020a02815260040160206040518083038186803b1580156108e257600080fd5b505afa1580156108f6573d6000803e3d6000fd5b505050506040513d602081101561090c57600080fd5b5051600381111561091957fe5b141561092c5761092761412f565b610aac565b600061093733613a10565b61013a546040805160e160020a63059ef5290281523360048201526024810186905281519394506000938493600160a060020a031692630b3dea52926044808201939182900301818787803b15801561098f57600080fd5b505af11580156109a3573d6000803e3d6000fd5b505050506040513d60408110156109b957600080fd5b508051602090910151909250905060006109d9838363ffffffff61416b16565b905083811115610a21576040805160e560020a62461bcd0281526020600482015260146024820152600080516020615095833981519152604482015290519081900360640190fd5b610a2b33826141cf565b61013b546040805160e260020a6330a5e1730281529051610aa792600160a060020a03169163c29785cc916004808301926020929190829003018186803b158015610a7557600080fd5b505afa158015610a89573d6000803e3d6000fd5b505050506040513d6020811015610a9f57600080fd5b505183614268565b505050505b50565b60ce546040805160e060020a63d994d6d50281523360048201529051600160a060020a039092169163d994d6d591602480820192602092909190829003018186803b158015610afd57600080fd5b505afa158015610b11573d6000803e3d6000fd5b505050506040513d6020811015610b2757600080fd5b505160408051808201909152601681526000805160206150b5833981519152602082015290610b9a5760405160e560020a62461bcd0281526020600482018181528351602484015283519092839260449091019190850190808383600083156107df5781810151838201526020016107c7565b506101018054600160a060020a0390921662010000026201000060b060020a0319909216919091179055565b60ce54600160a060020a031681565b610101546040805180820190915260128152600080516020614f2f833981519152602082015290610100900460ff1615610c535760405160e560020a62461bcd0281526020600482018181528351602484015283519092839260449091019190850190808383600083156107df5781810151838201526020016107c7565b5061013b546040805160e260020a630960cebf0281529051600092600160a060020a0316916325833afc91600480830192602092919082900301818787803b158015610c9e57600080fd5b505af1158015610cb2573d6000803e3d6000fd5b505050506040513d6020811015610cc857600080fd5b505161013b546040805160e060020a63c375536b0281529051929350610d4c92600160a060020a039092169163c375536b91600480820192602092909190829003018186803b158015610d1a57600080fd5b505afa158015610d2e573d6000803e3d6000fd5b505050506040513d6020811015610d4457600080fd5b505182614301565b15610aac57610136546040805160e160020a6308cf156b02815260f460020a61043302600482015260248101849052600060448201819052606482018190529151600160a060020a039093169263119e2ad69260848084019391929182900301818387803b158015610dbd57600080fd5b505af1158015610aa7573d6000803e3d6000fd5b610139546040805160e060020a632768ef090281529051600092600160a060020a031691632768ef09916004808301926020929190829003018186803b158015610e1a57600080fd5b505afa158015610e2e573d6000803e3d6000fd5b505050506040513d6020811015610e4457600080fd5b5051905090565b610136546040805160e160020a6376befe990281526004810184905290518392600160a060020a03169163ed7dfd32916024808301926020929190829003018186803b158015610e9a57600080fd5b505afa158015610eae573d6000803e3d6000fd5b505050506040513d6020811015610ec457600080fd5b5051610f08576040805160e560020a62461bcd0281526020600482015260176024820152600080516020614f0f833981519152604482015290519081900360640190fd5b610136546040805160e360020a630c6774510281526004810185905290518492600160a060020a03169163633ba288916024808301926020929190829003018186803b158015610f5757600080fd5b505afa158015610f6b573d6000803e3d6000fd5b505050506040513d6020811015610f8157600080fd5b505115610fc25760405160e560020a62461bcd028152600401808060200182810382526027815260200180614f4f6027913960400191505060405180910390fd5b61013760009054906101000a9004600160a060020a0316600160a060020a031663faba8c3b6040518163ffffffff1660e060020a02815260040160206040518083038186803b15801561101457600080fd5b505afa158015611028573d6000803e3d6000fd5b505050506040513d602081101561103e57600080fd5b5051610137546040805160e160020a63461f0281028152600481018790529051600160a060020a0390921691638c3e050291602480820192602092909190829003018186803b15801561109057600080fd5b505afa1580156110a4573d6000803e3d6000fd5b505050506040513d60208110156110ba57600080fd5b50511161116d57610136546040805160e160020a630ae8d86b0281526004810186905260f460020a6104330260248201529051600160a060020a03909216916315d1b0d69160448082019260009290919082900301818387803b15801561112057600080fd5b505af1158015611134573d6000803e3d6000fd5b50506040805186815290517f03b09556eaf1538697123fabf059066271cafa36dc147deec0ec8c90ea14c89b9350908190036020019150a15b505050565b610136546040805160e060020a632b28a6c702815260048101859052600160a060020a03848116602483015291516000939290921691632b28a6c791604480820192602092909190829003018186803b1580156111ce57600080fd5b505afa1580156111e2573d6000803e3d6000fd5b505050506040513d60208110156111f857600080fd5b50519392505050565b610139546040805160e060020a6332549a07028152600160a060020a038481166004830152915160009392909216916332549a0791602480820192602092909190829003018186803b15801561125657600080fd5b505afa15801561126a573d6000803e3d6000fd5b505050506040513d602081101561128057600080fd5b505190505b919050565b610101546040805180820190915260128152600080516020614f2f833981519152602082015290610100900460ff16156113085760405160e560020a62461bcd0281526020600482018181528351602484015283519092839260449091019190850190808383600083156107df5781810151838201526020016107c7565b5061013b60009054906101000a9004600160a060020a0316600160a060020a0316633acb38d16040518163ffffffff1660e060020a028152600401602060405180830381600087803b15801561135d57600080fd5b505af1158015611371573d6000803e3d6000fd5b505050506040513d602081101561138757600080fd5b5050565b609b546040805160e060020a633af32abf02815233600482018190529151600093600160a060020a031691633af32abf916024808301926020929190829003018186803b1580156113db57600080fd5b505afa1580156113ef573d6000803e3d6000fd5b505050506040513d602081101561140557600080fd5b505161145b576040805160e560020a62461bcd02815260206004820152601a60248201527f41646472657373206973206e6f742077686974656c6973746564000000000000604482015290519081900360640190fd5b826114695760019150611476565b6114738484614301565b91505b5092915050565b6101015460408051808201909152600b815260a960020a6a3737ba2fb9ba37b83832b902602082015290620100009004600160a060020a031633146115065760405160e560020a62461bcd0281526020600482018181528351602484015283519092839260449091019190850190808383600083156107df5781810151838201526020016107c7565b50610101546040805180820190915260128152607060020a71636f6e74726163745f69735f61637469766502602082015290610100900460ff1661158e5760405160e560020a62461bcd0281526020600482018181528351602484015283519092839260449091019190850190808383600083156107df5781810151838201526020016107c7565b50610101805461ff00191690556040805133815290517f5db9ee0a495bf2e6ff9c91a7834c1ba4fdd244a5e8aa4e537bd38aeae4b073aa9181900360200190a1565b610137546040805160e060020a63faba8c3b0281529051600092600160a060020a03169163faba8c3b916004808301926020929190829003018186803b15801561161957600080fd5b505afa15801561162d573d6000803e3d6000fd5b505050506040513d602081101561164357600080fd5b5051610137546040805160e160020a63461f0281028152600481018690529051600160a060020a0390921691638c3e050291602480820192602092909190829003018186803b15801561169557600080fd5b505afa1580156116a9573d6000803e3d6000fd5b505050506040513d60208110156116bf57600080fd5b5051116116ce57506001611285565b506000919050565b606854610100900460ff16806116ef57506116ef614387565b806116fd575060685460ff16155b61173b5760405160e560020a62461bcd02815260040180806020018281038252602e815260200180614fad602e913960400191505060405180910390fd5b606854610100900460ff16158015611766576068805460ff1961ff0019909116610100171660011790555b611772838360016138ec565b801561116d576068805461ff0019169055505050565b60ce546040805160e060020a63d994d6d50281523360048201529051600160a060020a039092169163d994d6d591602480820192602092909190829003018186803b1580156117d657600080fd5b505afa1580156117ea573d6000803e3d6000fd5b505050506040513d602081101561180057600080fd5b505160408051808201909152601681526000805160206150b58339815191526020820152906118735760405160e560020a62461bcd0281526020600482018181528351602484015283519092839260449091019190850190808383600083156107df5781810151838201526020016107c7565b50610101805460ff19169055565b60f160020a612c190281565b610101546040805180820190915260128152600080516020614f2f833981519152602082015290610100900460ff161561190b5760405160e560020a62461bcd0281526020600482018181528351602484015283519092839260449091019190850190808383600083156107df5781810151838201526020016107c7565b5061013760009054906101000a9004600160a060020a0316600160a060020a03166314007c6d6040518163ffffffff1660e060020a028152600401600060405180830381600087803b15801561196057600080fd5b505af1158015611974573d6000803e3d6000fd5b5060009250611981915050565b61013760009054906101000a9004600160a060020a0316600160a060020a031663c19d93fb6040518163ffffffff1660e060020a02815260040160206040518083038186803b1580156119d357600080fd5b505afa1580156119e7573d6000803e3d6000fd5b505050506040513d60208110156119fd57600080fd5b50516003811115611a0a57fe5b1415611a185761092761412f565b610139546040805160e360020a630b6042f9028152600481018490529051600092600160a060020a031691635b0217c891602480830192602092919082900301818787803b158015611a6957600080fd5b505af1158015611a7d573d6000803e3d6000fd5b505050506040513d6020811015611a9357600080fd5b505161013b546040805160e260020a6330a5e173028152905192935061138792600160a060020a039092169163c29785cc91600480820192602092909190829003018186803b158015611ae557600080fd5b505afa158015611af9573d6000803e3d6000fd5b505050506040513d6020811015611b0f57600080fd5b505182614268565b61010154610100900460ff1690565b61013c54600160a060020a031681565b610101546040805180820190915260128152600080516020614f2f833981519152602082015290610100900460ff1615611bb45760405160e560020a62461bcd0281526020600482018181528351602484015283519092839260449091019190850190808383600083156107df5781810151838201526020016107c7565b5061013760009054906101000a9004600160a060020a0316600160a060020a03166314007c6d6040518163ffffffff1660e060020a028152600401600060405180830381600087803b158015611c0957600080fd5b505af1158015611c1d573d6000803e3d6000fd5b5060009250611c2a915050565b61013760009054906101000a9004600160a060020a0316600160a060020a031663c19d93fb6040518163ffffffff1660e060020a02815260040160206040518083038186803b158015611c7c57600080fd5b505afa158015611c90573d6000803e3d6000fd5b505050506040513d6020811015611ca657600080fd5b50516003811115611cb357fe5b1415611cc15761092761412f565b60038061013760009054906101000a9004600160a060020a0316600160a060020a031663c19d93fb6040518163ffffffff1660e060020a02815260040160206040518083038186803b158015611d1657600080fd5b505afa158015611d2a573d6000803e3d6000fd5b505050506040513d6020811015611d4057600080fd5b50516003811115611d4d57fe5b1015611d8d5760405160e560020a62461bcd02815260040180806020018281038252602881526020018061500f6028913960400191505060405180910390fd5b6000611d9833613a10565b61013a546040805160e060020a63362df2110281523360048201526024810187905281519394506000938493600160a060020a03169263362df211926044808201939182900301818787803b158015611df057600080fd5b505af1158015611e04573d6000803e3d6000fd5b505050506040513d6040811015611e1a57600080fd5b50805160209091015190925090506000611e3a838363ffffffff61416b16565b905083811115611e82576040805160e560020a62461bcd0281526020600482015260146024820152600080516020615095833981519152604482015290519081900360640190fd5b611e8c33826141cf565b61013b546040805160e260020a6330a5e1730281529051611ed692600160a060020a03169163c29785cc916004808301926020929190829003018186803b158015610a7557600080fd5b505050505050565b610101546040805180820190915260128152600080516020614f2f833981519152602082015290610100900460ff1615611f5c5760405160e560020a62461bcd0281526020600482018181528351602484015283519092839260449091019190850190808383600083156107df5781810151838201526020016107c7565b5061013760009054906101000a9004600160a060020a0316600160a060020a03166314007c6d6040518163ffffffff1660e060020a028152600401600060405180830381600087803b158015611fb157600080fd5b505af1158015611fc5573d6000803e3d6000fd5b5060009250611fd2915050565b61013760009054906101000a9004600160a060020a0316600160a060020a031663c19d93fb6040518163ffffffff1660e060020a02815260040160206040518083038186803b15801561202457600080fd5b505afa158015612038573d6000803e3d6000fd5b505050506040513d602081101561204e57600080fd5b5051600381111561205b57fe5b14156120695761092761412f565b61013a546040805160e160020a636171f1a50281523360048201526024810184905281516000938493600160a060020a039091169263c2e3e34a926044808301939282900301818787803b1580156120c057600080fd5b505af11580156120d4573d6000803e3d6000fd5b505050506040513d60408110156120ea57600080fd5b50805160209091015190925090506121023383614268565b61013b546040805160e260020a6330a5e173028152905161116d92600160a060020a03169163c29785cc916004808301926020929190829003018186803b158015611ae557600080fd5b60ce546040805160e060020a63d994d6d50281523360048201529051600160a060020a039092169163d994d6d591602480820192602092909190829003018186803b15801561219a57600080fd5b505afa1580156121ae573d6000803e3d6000fd5b505050506040513d60208110156121c457600080fd5b505160408051808201909152601681526000805160206150b58339815191526020820152906122375760405160e560020a62461bcd0281526020600482018181528351602484015283519092839260449091019190850190808383600083156107df5781810151838201526020016107c7565b50610101805460ff19166001179055565b61013b546040805160e060020a636872c4290281529051600092600160a060020a031691636872c429916004808301926020929190829003018186803b158015610e1a57600080fd5b610101546040805180820190915260128152600080516020614f2f833981519152602082015290610100900460ff161561230f5760405160e560020a62461bcd0281526020600482018181528351602484015283519092839260449091019190850190808383600083156107df5781810151838201526020016107c7565b5061013960009054906101000a9004600160a060020a0316600160a060020a03166318de7ffc6040518163ffffffff1660e060020a02815260040160206040518083038186803b15801561236257600080fd5b505afa158015612376573d6000803e3d6000fd5b505050506040513d602081101561238c57600080fd5b50516123cc5760405160e560020a62461bcd0281526004018080602001828103825260348152602001806150616034913960400191505060405180910390fd5b610136546040805160e160020a6376befe990281526004810185905290518492600160a060020a03169163ed7dfd32916024808301926020929190829003018186803b15801561241b57600080fd5b505afa15801561242f573d6000803e3d6000fd5b505050506040513d602081101561244557600080fd5b5051612489576040805160e560020a62461bcd0281526020600482015260176024820152600080516020614f0f833981519152604482015290519081900360640190fd5b610136546040805160e360020a630c6774510281526004810186905290518592600160a060020a03169163633ba288916024808301926020929190829003018186803b1580156124d857600080fd5b505afa1580156124ec573d6000803e3d6000fd5b505050506040513d602081101561250257600080fd5b5051156125435760405160e560020a62461bcd028152600401808060200182810382526027815260200180614f4f6027913960400191505060405180910390fd5b61013760009054906101000a9004600160a060020a0316600160a060020a03166314007c6d6040518163ffffffff1660e060020a028152600401600060405180830381600087803b15801561259757600080fd5b505af11580156125ab573d6000803e3d6000fd5b50600092506125b8915050565b61013760009054906101000a9004600160a060020a0316600160a060020a031663c19d93fb6040518163ffffffff1660e060020a02815260040160206040518083038186803b15801561260a57600080fd5b505afa15801561261e573d6000803e3d6000fd5b505050506040513d602081101561263457600080fd5b5051600381111561264157fe5b14156126545761264f61412f565b61274c565b8361265e81610e4b565b61013a546040805160e160020a63702d6bf3028152336004820152602481018890526044810187905281516000938493600160a060020a039091169263e05ad7e6926064808301939282900301818787803b1580156126bc57600080fd5b505af11580156126d0573d6000803e3d6000fd5b505050506040513d60408110156126e657600080fd5b50805160209091015190925090506126fe3383614268565b61013b546040805160e260020a6330a5e173028152905161274892600160a060020a03169163c29785cc916004808301926020929190829003018186803b158015611ae557600080fd5b5050505b50505050565b610101546040805180820190915260128152600080516020614f2f833981519152602082015290610100900460ff16156127d05760405160e560020a62461bcd0281526020600482018181528351602484015283519092839260449091019190850190808383600083156107df5781810151838201526020016107c7565b5060018061013760009054906101000a9004600160a060020a0316600160a060020a031663c19d93fb6040518163ffffffff1660e060020a02815260040160206040518083038186803b15801561282657600080fd5b505afa15801561283a573d6000803e3d6000fd5b505050506040513d602081101561285057600080fd5b5051600381111561285d57fe5b101561289d5760405160e560020a62461bcd02815260040180806020018281038252602881526020018061500f6028913960400191505060405180910390fd5b61013c546040805160e060020a630ae34fd7028152336004820152600160a060020a03858116602483015291519190921691630ae34fd791604480830192600092919082900301818387803b1580156128f557600080fd5b505af1158015611ed6573d6000803e3d6000fd5b61291333826141cf565b610136546040805160e660020a6302ae5d5f02815260f460020a61043302600482015260248101849052600060448201819052606482018190529151600160a060020a039093169263ab9757c09260848084019391929182900301818387803b158015610dbd57600080fd5b61013b546040805160e260020a631f2b29e70281529051600092600160a060020a031691637caca79c916004808301926020929190829003018186803b158015610e1a57600080fd5b609b54600160a060020a031681565b6101015460408051808201909152600b815260a860020a6a756e73746f707061626c650260208201529060ff16612a525760405160e560020a62461bcd0281526020600482018181528351602484015283519092839260449091019190850190808383600083156107df5781810151838201526020016107c7565b506101015460408051808201909152600b815260a960020a6a3737ba2fb9ba37b83832b902602082015290620100009004600160a060020a03163314612adc5760405160e560020a62461bcd0281526020600482018181528351602484015283519092839260449091019190850190808383600083156107df5781810151838201526020016107c7565b50610101546040805180820190915260128152600080516020614f2f833981519152602082015290610100900460ff1615612b5b5760405160e560020a62461bcd0281526020600482018181528351602484015283519092839260449091019190850190808383600083156107df5781810151838201526020016107c7565b50610101805461ff0019166101001790556040805133815290517f62e78cea01bee320cd4e420270b5ea74000d11b0c9f74754ebdbfc544b05a2589181900360200190a1565b61013b546040805160e160020a6345e923cb02815281516000938493600160a060020a0390911692638bd247969260048083019392829003018186803b158015612bea57600080fd5b505afa158015612bfe573d6000803e3d6000fd5b505050506040513d6040811015612c1457600080fd5b50805160209091015190925090509091565b61013c546040805160e060020a6346bcdf690281523360048201529051600092600160a060020a0316916346bcdf69916024808301926020929190829003018186803b158015610e1a57600080fd5b610139546040805160e360020a6313ab47750281529051600092600160a060020a031691639d5a3ba8916004808301926020929190829003018186803b158015610e1a57600080fd5b60ce546040805160e060020a63d994d6d50281523360048201529051600160a060020a039092169163d994d6d591602480820192602092909190829003018186803b158015612d0c57600080fd5b505afa158015612d20573d6000803e3d6000fd5b505050506040513d6020811015612d3657600080fd5b505160408051808201909152601681526000805160206150b5833981519152602082015290612da95760405160e560020a62461bcd0281526020600482018181528351602484015283519092839260449091019190850190808383600083156107df5781810151838201526020016107c7565b5060ce8054600160a060020a031916600160a060020a0392909216919091179055565b6101015460ff1681565b61013b546040805160e060020a63c375536b0281529051600092600160a060020a03169163c375536b916004808301926020929190829003018186803b158015610e1a57600080fd5b606854610100900460ff1680612e385750612e38614387565b80612e46575060685460ff16155b612e845760405160e560020a62461bcd02815260040180806020018281038252602e815260200180614fad602e913960400191505060405180910390fd5b606854610100900460ff16158015612eaf576068805460ff1961ff0019909116610100171660011790555b60ce8054600160a060020a031916600160a060020a0384161790558015611387576068805461ff00191690555050565b61013b546040805160e160020a63663f6c430281529051600092600160a060020a03169163cc7ed886916004808301926020929190829003018186803b158015610e1a57600080fd5b61010154620100009004600160a060020a031681565b610101546040805180820190915260128152600080516020614f2f833981519152602082015290610100900460ff1615612fbc5760405160e560020a62461bcd0281526020600482018181528351602484015283519092839260449091019190850190808383600083156107df5781810151838201526020016107c7565b5061013960009054906101000a9004600160a060020a0316600160a060020a03166318de7ffc6040518163ffffffff1660e060020a02815260040160206040518083038186803b15801561300f57600080fd5b505afa158015613023573d6000803e3d6000fd5b505050506040513d602081101561303957600080fd5b50516130795760405160e560020a62461bcd0281526004018080602001828103825260348152602001806150616034913960400191505060405180910390fd5b610136546040805160e160020a6376befe990281526004810185905290518492600160a060020a03169163ed7dfd32916024808301926020929190829003018186803b1580156130c857600080fd5b505afa1580156130dc573d6000803e3d6000fd5b505050506040513d60208110156130f257600080fd5b5051613136576040805160e560020a62461bcd0281526020600482015260176024820152600080516020614f0f833981519152604482015290519081900360640190fd5b610136546040805160e360020a630c6774510281526004810186905290518592600160a060020a03169163633ba288916024808301926020929190829003018186803b15801561318557600080fd5b505afa158015613199573d6000803e3d6000fd5b505050506040513d60208110156131af57600080fd5b5051156131f05760405160e560020a62461bcd028152600401808060200182810382526027815260200180614f4f6027913960400191505060405180910390fd5b61013760009054906101000a9004600160a060020a0316600160a060020a03166314007c6d6040518163ffffffff1660e060020a028152600401600060405180830381600087803b15801561324457600080fd5b505af1158015613258573d6000803e3d6000fd5b5060009250613265915050565b61013760009054906101000a9004600160a060020a0316600160a060020a031663c19d93fb6040518163ffffffff1660e060020a02815260040160206040518083038186803b1580156132b757600080fd5b505afa1580156132cb573d6000803e3d6000fd5b505050506040513d60208110156132e157600080fd5b505160038111156132ee57fe5b14156132fc5761264f61412f565b8361330681610e4b565b600061331133613a10565b61013a546040805160e260020a63044e5db3028152336004820152602481018a90526044810189905281519394506000938493600160a060020a03169263113976cc926064808201939182900301818787803b15801561337057600080fd5b505af1158015613384573d6000803e3d6000fd5b505050506040513d604081101561339a57600080fd5b508051602090910151909250905060006133ba838363ffffffff61416b16565b905083811115613402576040805160e560020a62461bcd0281526020600482015260146024820152600080516020615095833981519152604482015290519081900360640190fd5b61340c33826141cf565b61013b546040805160e260020a6330a5e173028152905161345692600160a060020a03169163c29785cc916004808301926020929190829003018186803b158015610a7557600080fd5b505050505050505050565b610101546040805180820190915260128152600080516020614f2f833981519152602082015290610100900460ff16156134df5760405160e560020a62461bcd0281526020600482018181528351602484015283519092839260449091019190850190808383600083156107df5781810151838201526020016107c7565b5061013960009054906101000a9004600160a060020a0316600160a060020a03166318de7ffc6040518163ffffffff1660e060020a02815260040160206040518083038186803b15801561353257600080fd5b505afa158015613546573d6000803e3d6000fd5b505050506040513d602081101561355c57600080fd5b505161359c5760405160e560020a62461bcd0281526004018080602001828103825260348152602001806150616034913960400191505060405180910390fd5b610139546040805160e060020a6357c0fac70281528415156004820152602481018490523360448201529051600160a060020a03909216916357c0fac79160648082019260009290919082900301818387803b1580156128f557600080fd5b60008061013760009054906101000a9004600160a060020a0316600160a060020a031663c19d93fb6040518163ffffffff1660e060020a02815260040160206040518083038186803b15801561365057600080fd5b505afa158015613664573d6000803e3d6000fd5b505050506040513d602081101561367a57600080fd5b5051600381111561368757fe5b146136c65760405160e560020a62461bcd02815260040180806020018281038252602881526020018061500f6028913960400191505060405180910390fd5b61013a546040805160e160020a630be6a8ab028152336004820181905260248201529051600160a060020a03909216916317cd5156916044808201926020929091908290030181600087803b15801561371e57600080fd5b505af1158015613732573d6000803e3d6000fd5b505050506040513d602081101561116d57600080fd5b610101546040805180820190915260128152600080516020614f2f833981519152602082015290610100900460ff16156137c65760405160e560020a62461bcd0281526020600482018181528351602484015283519092839260449091019190850190808383600083156107df5781810151838201526020016107c7565b5061013960009054906101000a9004600160a060020a0316600160a060020a03166318de7ffc6040518163ffffffff1660e060020a02815260040160206040518083038186803b15801561381957600080fd5b505afa15801561382d573d6000803e3d6000fd5b505050506040513d602081101561384357600080fd5b50516138835760405160e560020a62461bcd0281526004018080602001828103825260348152602001806150616034913960400191505060405180910390fd5b610139546040805160e060020a637cfad7a1028152600481018490523360248201529051600160a060020a0390921691637cfad7a19160448082019260009290919082900301818387803b158015610dbd57600080fd5b60f460020a6104330281565b60345490565b606854610100900460ff16806139055750613905614387565b80613913575060685460ff16155b6139515760405160e560020a62461bcd02815260040180806020018281038252602e815260200180614fad602e913960400191505060405180910390fd5b606854610100900460ff1615801561397c576068805460ff1961ff0019909116610100171660011790555b610101805460ff1916831515176201000060b060020a03191662010000600160a060020a038716021790556139b083612e1f565b801561274c576068805461ff001916905550505050565b61013b546040805160e160020a6372d1e32b0281529051600092600160a060020a03169163e5a3c656916004808301926020929190829003018186803b158015610e1a57600080fd5b600080546040805160e060020a6370a08231028152600160a060020a0385811660048301529151849392909216916370a0823191602480820192602092909190829003018186803b158015613a6457600080fd5b505afa158015613a78573d6000803e3d6000fd5b505050506040513d6020811015613a8e57600080fd5b5051600080546040805160e160020a636eb1769f028152600160a060020a0388811660048301523060248301529151949550929391169163dd62ed3e916044808301926020929190829003018186803b158015613aea57600080fd5b505afa158015613afe573d6000803e3d6000fd5b505050506040513d6020811015613b1457600080fd5b50519050613b22828261438d565b949350505050565b610139546040805160e060020a63eef13ca10281526004810184905281516000938493600160a060020a039091169263eef13ca19260248083019392829003018186803b158015613b7a57600080fd5b505afa158015613b8e573d6000803e3d6000fd5b505050506040513d6040811015613ba457600080fd5b5080516020909101519092509050915091565b610101546040805180820190915260128152600080516020614f2f833981519152602082015290610100900460ff1615613c355760405160e560020a62461bcd0281526020600482018181528351602484015283519092839260449091019190850190808383600083156107df5781810151838201526020016107c7565b5061013760009054906101000a9004600160a060020a0316600160a060020a03166314007c6d6040518163ffffffff1660e060020a028152600401600060405180830381600087803b158015613c8a57600080fd5b505af1158015613c9e573d6000803e3d6000fd5b5060009250613cab915050565b61013760009054906101000a9004600160a060020a0316600160a060020a031663c19d93fb6040518163ffffffff1660e060020a02815260040160206040518083038186803b158015613cfd57600080fd5b505afa158015613d11573d6000803e3d6000fd5b505050506040513d6020811015613d2757600080fd5b50516003811115613d3457fe5b1415613d425761092761412f565b60038061013760009054906101000a9004600160a060020a0316600160a060020a031663c19d93fb6040518163ffffffff1660e060020a02815260040160206040518083038186803b158015613d9757600080fd5b505afa158015613dab573d6000803e3d6000fd5b505050506040513d6020811015613dc157600080fd5b50516003811115613dce57fe5b1015613e0e5760405160e560020a62461bcd02815260040180806020018281038252602881526020018061500f6028913960400191505060405180910390fd5b61013a546040805160e460020a63098e8ec30281523360048201526024810185905281516000938493600160a060020a03909116926398e8ec30926044808301939282900301818787803b158015613e6557600080fd5b505af1158015613e79573d6000803e3d6000fd5b505050506040513d6040811015613e8f57600080fd5b5080516020909101519092509050613ea73383614268565b61013b546040805160e260020a6330a5e173028152905161274c92600160a060020a03169163c29785cc916004808301926020929190829003018186803b158015611ae557600080fd5b600054600160a060020a031681565b60355490565b606854610100900460ff1680613f1f5750613f1f614387565b80613f2d575060685460ff16155b613f6b5760405160e560020a62461bcd02815260040180806020018281038252602e815260200180614fad602e913960400191505060405180910390fd5b606854610100900460ff16158015613f96576068805460ff1961ff0019909116610100171660011790555b613f9e6143a3565b613fa7856143d6565b613faf614496565b613fba8385846149f1565b8015610aa7576068805461ff00191690555050505050565b61013760009054906101000a9004600160a060020a0316600160a060020a03166314007c6d6040518163ffffffff1660e060020a028152600401600060405180830381600087803b15801561402657600080fd5b505af115801561403a573d6000803e3d6000fd5b5060009250614047915050565b61013760009054906101000a9004600160a060020a0316600160a060020a031663c19d93fb6040518163ffffffff1660e060020a02815260040160206040518083038186803b15801561409957600080fd5b505afa1580156140ad573d6000803e3d6000fd5b505050506040513d60208110156140c357600080fd5b505160038111156140d057fe5b1415610aac576140de61412f565b61013c546040805160e060020a639e767c7f028152600481018490529051600160a060020a0390921691639e767c7f9160248082019260009290919082900301818387803b158015610dbd57600080fd5b61013c5460a060020a900460ff16614169576141496149fc565b614151614ae6565b61013c805460a060020a60ff02191660a060020a1790555b565b6000828201838110156141c8576040805160e560020a62461bcd02815260206004820152601b60248201527f536166654d6174683a206164646974696f6e206f766572666c6f770000000000604482015290519081900360640190fd5b9392505050565b6141d98183614bab565b6142175760405160e560020a62461bcd028152600401808060200182810382526034815260200180614fdb6034913960400191505060405180910390fd5b610137546040805160e060020a63b0920b6d028152600481018490529051600160a060020a039092169163b0920b6d9160248082019260009290919082900301818387803b1580156128f557600080fd5b6142728183614c55565b6142b05760405160e560020a62461bcd028152600401808060200182810382526037815260200180614f766037913960400191505060405180910390fd5b610137546040805160e160020a631f65fbf7028152600481018490529051600160a060020a0390921691633ecbf7ee9160248082019260009290919082900301818387803b1580156128f557600080fd5b60008061430e8385614c55565b905080156141c857610137546040805160e160020a631f65fbf7028152600481018690529051600160a060020a0390921691633ecbf7ee9160248082019260009290919082900301818387803b15801561436757600080fd5b505af115801561437b573d6000803e3d6000fd5b50505050905092915050565b303b1590565b600081831061439c57816141c8565b5090919050565b60408051606081018252670de0b6b3a7640000808252600160208301819052919092018290526033829055603455603555565b606854610100900460ff16806143ef57506143ef614387565b806143fd575060685460ff16155b61443b5760405160e560020a62461bcd02815260040180806020018281038252602e815260200180614fad602e913960400191505060405180910390fd5b606854610100900460ff16158015614466576068805460ff1961ff0019909116610100171660011790555b609b8054600160a060020a031916600160a060020a0384161790558015611387576068805461ff00191690555050565b609b60009054906101000a9004600160a060020a0316600160a060020a031663a9d75b2b6040518163ffffffff1660e060020a02815260040160206040518083038186803b1580156144e757600080fd5b505afa1580156144fb573d6000803e3d6000fd5b505050506040513d602081101561451157600080fd5b50516101348054600160a060020a031916600160a060020a03928316179055609b546040805160e160020a634d9abbbf02815290519190921691639b35777e916004808301926020929190829003018186803b15801561457057600080fd5b505afa158015614584573d6000803e3d6000fd5b505050506040513d602081101561459a57600080fd5b50516101358054600160a060020a031916600160a060020a03928316179055609b546040805160e060020a63360b41b10281529051919092169163360b41b1916004808301926020929190829003018186803b1580156145f957600080fd5b505afa15801561460d573d6000803e3d6000fd5b505050506040513d602081101561462357600080fd5b50516101368054600160a060020a031916600160a060020a03928316179055609b546040805160e060020a6312529f1f028152905191909216916312529f1f916004808301926020929190829003018186803b15801561468257600080fd5b505afa158015614696573d6000803e3d6000fd5b505050506040513d60208110156146ac57600080fd5b50516101378054600160a060020a031916600160a060020a03928316179055609b546040805160e260020a632ca7ab5b0281529051919092169163b29ead6c916004808301926020929190829003018186803b15801561470b57600080fd5b505afa15801561471f573d6000803e3d6000fd5b505050506040513d602081101561473557600080fd5b50516101398054600160a060020a031916600160a060020a03928316179055609b546040805160e160020a63679ab6ed0281529051919092169163cf356dda916004808301926020929190829003018186803b15801561479457600080fd5b505afa1580156147a8573d6000803e3d6000fd5b505050506040513d60208110156147be57600080fd5b50516101388054600160a060020a031916600160a060020a03928316179055609b546040805160e060020a638557af6f02815290519190921691638557af6f916004808301926020929190829003018186803b15801561481d57600080fd5b505afa158015614831573d6000803e3d6000fd5b505050506040513d602081101561484757600080fd5b505161013a8054600160a060020a031916600160a060020a03928316179055609b5460408051600160e460020a620496ed02031981529051919092169163ffb69130916004808301926020929190829003018186803b1580156148a957600080fd5b505afa1580156148bd573d6000803e3d6000fd5b505050506040513d60208110156148d357600080fd5b505161013b8054600160a060020a031916600160a060020a03928316179055609b546040805160e260020a63186c4881028152905191909216916361b12204916004808301926020929190829003018186803b15801561493257600080fd5b505afa158015614946573d6000803e3d6000fd5b505050506040513d602081101561495c57600080fd5b505161013c8054600160a060020a031916600160a060020a03928316179055609b546040805160e060020a63f4325d67028152905161416993929092169163f4325d6791600480820192602092909190829003018186803b1580156149c057600080fd5b505afa1580156149d4573d6000803e3d6000fd5b505050506040513d60208110156149ea57600080fd5b5051614caf565b61116d8383836138ec565b61013560009054906101000a9004600160a060020a0316600160a060020a0316635c975abb6040518163ffffffff1660e060020a02815260040160206040518083038186803b158015614a4e57600080fd5b505afa158015614a62573d6000803e3d6000fd5b505050506040513d6020811015614a7857600080fd5b50516141695761013560009054906101000a9004600160a060020a0316600160a060020a0316638456cb596040518163ffffffff1660e060020a028152600401600060405180830381600087803b158015614ad257600080fd5b505af115801561274c573d6000803e3d6000fd5b610137546040805160e060020a631ced55410281529051600092600160a060020a031691631ced5541916004808301926020929190829003018186803b158015614b2f57600080fd5b505afa158015614b43573d6000803e3d6000fd5b505050506040513d6020811015614b5957600080fd5b505161013b546040805160e260020a6330a5e1730281529051929350610aac92600160a060020a039092169163c29785cc91600480820192602092909190829003018186803b158015611ae557600080fd5b60008282614bb881613a10565b821115614bf95760405160e560020a62461bcd02815260040180806020018281038252602a815260200180615037602a913960400191505060405180910390fd5b6000614c058587614cd1565b905080614c4c57604080518781529051600160a060020a038716917fb25cefcd019c9ac00557fa1cae5f952455cd9ad7b058f91d66e1bbe895e31ece919081900360200190a25b95945050505050565b600080614c628385614d8a565b9050806141c857604080518581529051600160a060020a038516917fa2269912b47133fae1d7f448c9284ea248951ac29b8c7c41d301f8721a38d10d919081900360200190a29392505050565b60008054600160a060020a031916600160a060020a0392909216919091179055565b60408051600160a060020a03841660208083019190915230828401526060808301859052835180840390910181526080830190935260e060020a6323b872dd0260a0830181815284516000956141c8959394909360a40191908401908083835b60208310614d505780518252601f199092019160209182019101614d31565b6001836020036101000a03801982511681845116808217855250505050505090500192505050604051602081830303815290604052614e00565b60408051600160a060020a0384166020808301919091528183018490528251808303840181526060830190935260e060020a63a9059cbb026080830181815284516000956141c89593949093608401919084019080838360208310614d505780518252601f199092019160209182019101614d31565b6000805460405183518392606092600160a060020a0390911691869190819060208401908083835b60208310614e475780518252601f199092019160209182019101614e28565b6001836020036101000a0380198251168184511680821785525050505050509050019150506000604051808303816000865af19150503d8060008114614ea9576040519150601f19603f3d011682016040523d82523d6000602084013e614eae565b606091505b50915091508115614eda57808060200190516020811015614ece57600080fd5b50519250611285915050565b6040517f4e6492c3bd8ce28f74eeccbc3e461f243ee12a981a34e14fe75b98291a291d7690600090a160009250505061128556fe4275636b6574206973206e6f7420617661696c61626c65000000000000000000636f6e74726163745f69735f70617573656400000000000000000000000000004275636b65742073686f756c64206e6f74206265206120626173652074797065206275636b6574546f6b656e207769746864726177616c206661696c6564206f6e205252433230205265736572766520746f6b656e207472616e73666572436f6e747261637420696e7374616e63652068617320616c7265616479206265656e20696e697469616c697a6564546f6b656e206465706f736974206661696c6564206f6e205252433230205265736572766520746f6b656e207472616e7366657246756e6374696f6e2063616e6e6f742062652063616c6c656420617420746869732073746174652e4e6f7420656e6f75676820616c6c6f77616e636520746f206d616b6520746865206f7065726174696f6e46756e6374696f6e2063616e206f6e6c792062652063616c6c6564207768656e20736574746c656d656e74206973207265616479616d6f756e74206973206e6f7420656e6f7567680000000000000000000000006e6f745f617574686f72697a65645f6368616e67657200000000000000000000a165627a7a72305820761df6d3140cdd7e7cd90286fb40216939731e373c0db4fad7f6913b25e044c50029",
  "source": "pragma solidity 0.5.8;\n\nimport \"openzeppelin-solidity/contracts/math/SafeMath.sol\";\nimport \"./MoCLibConnection.sol\";\nimport \"./token/StableToken.sol\";\nimport \"./token/RiskProToken.sol\";\nimport \"./MoCRiskProxManager.sol\";\nimport \"./MoCState.sol\";\nimport \"./MoCConverter.sol\";\nimport \"./MoCSettlement.sol\";\nimport \"./MoCExchange.sol\";\nimport \"./MoCBurnout.sol\";\nimport \"./base/MoCBase.sol\";\nimport \"./base/MoCReserve.sol\";\nimport \"moc-governance/contracts/Stopper/Stoppable.sol\";\nimport \"moc-governance/contracts/Governance/IGovernor.sol\";\n\ncontract MoCEvents {\n  event BucketLiquidation(bytes32 bucket);\n}\n\ncontract MoC is MoCEvents, MoCReserve, MoCLibConnection, MoCBase, Stoppable  {\n  using SafeMath for uint256;\n\n  // Contracts\n  StableToken internal stableToken;\n  RiskProToken internal riskProToken;\n  MoCRiskProxManager internal riskProxManager;\n  MoCState internal mocState;\n  MoCConverter internal mocConverter;\n  MoCSettlement internal settlement;\n  MoCExchange internal mocExchange;\n  MoCInrate internal mocInrate;\n  MoCBurnout public mocBurnout;\n\n  // Indicates if ReserveTokens remainder was sent and\n  // RiskProToken was paused\n  bool internal liquidationExecuted;\n  function initialize(\n    address connectorAddress,\n    address governorAddress,\n    address stopperAddress,\n    bool startStoppable\n  ) public initializer {\n    initializePrecisions();\n    initializeBase(connectorAddress);\n    initializeContracts();\n    initializeGovernanceContracts(stopperAddress, governorAddress, startStoppable);\n  }\n\n  /****************************INTERFACE*******************************************/\n\n  function riskProxBalanceOf(bytes32 bucket, address account) public view returns(uint256) {\n    return riskProxManager.riskProxBalanceOf(bucket, account);\n  }\n\n  /**\n    @dev Gets the RedeemRequest at the queue index position\n    @param index queue position to get\n    @return redeemer's address and amount he submitted\n  */\n  function getRedeemRequestAt(uint256 index) public view returns(address, uint256) {\n    return settlement.getRedeemRequestAt(index);\n  }\n\n  /**\n    @dev returns current redeem queue size\n   */\n  function redeemQueueSize() public view returns(uint256) {\n    return settlement.redeemQueueSize();\n  }\n\n  /**\n    @dev returns the total amount of StableTokens in the redeem queue for redeemer\n    @param redeemer address for which ^ is computed\n   */\n  function stableTokenAmountToRedeem(address redeemer) public view returns(uint256) {\n    return settlement.stableTokenAmountToRedeem(redeemer);\n  }\n\n  /**\n  * @dev Creates or updates the amount of a StableToken redeem Request from the msg.sender\n  * @param stableTokenAmount Amount of StableTokens to redeem on settlement [using mocPrecision]\n  */\n  function redeemStableTokenRequest(uint256 stableTokenAmount) public  whenNotPaused() whenSettlementReady() {\n    settlement.addRedeemRequest(stableTokenAmount, msg.sender);\n  }\n\n  /**\n    @dev Alters the redeem amount position for the redeemer\n    @param isAddition true if adding amount to redeem, false to substract.\n    @param delta the amount to add/substract to current position\n  */\n  function alterRedeemRequestAmount(bool isAddition, uint256 delta) public whenNotPaused() whenSettlementReady() {\n    settlement.alterRedeemRequestAmount(isAddition, delta, msg.sender);\n  }\n\n  /**\n    @dev Adding tokens to the token reserve and C0 Bucket without minting any token.\n    Could revert.\n\n    @param tokenAmount Amount to deposit.\n   */\n  function addReserves(uint256 tokenAmount) public {\n    safeDepositInReserve(msg.sender, tokenAmount);\n    riskProxManager.addValuesToBucket(BUCKET_C0, tokenAmount, 0, 0);\n  }\n\n  /**\n    @dev Mints RiskPro and pays the comissions of the operation.\n    @param resTokensToMint Amount Reserve Tokens to spend in minting\n   */\n  function mintRiskPro(uint256 resTokensToMint) public whenNotPaused() transitionState() {\n    uint256 allowedBalance = getAllowance(msg.sender);\n    (uint256 resTokensExchangeTokens, uint256 commissionSpent) = mocExchange.mintRiskPro(msg.sender, resTokensToMint);\n\n    uint256 totalResTokensSpent = resTokensExchangeTokens.add(commissionSpent);\n    require(totalResTokensSpent <= allowedBalance, \"amount is not enough\");\n\n    safeDepositInReserve(msg.sender, totalResTokensSpent);\n\n    //Transfer commissions to commissions address\n    safeWithdrawFromReserve(mocInrate.commissionsAddress(), commissionSpent);\n  }\n\n  /**\n   * @dev Redeems RiskPro Tokens and pays the comissions of the operation in ReserveTokens\n     @param riskProAmount Amout in RiskPro\n   */\n  function redeemRiskPro(uint256 riskProAmount) public whenNotPaused() transitionState() atLeastState(MoCState.States.AboveCobj) {\n    (uint256 resTokensAmount, uint256 commissionSpent) = mocExchange.redeemRiskPro(msg.sender, riskProAmount);\n\n    safeWithdrawFromReserve(msg.sender, resTokensAmount);\n\n    // Transfer commissions to commissions address\n    safeWithdrawFromReserve(mocInrate.commissionsAddress(), commissionSpent);\n  }\n\n  /**\n   * @dev Mint StableToken tokens and pays the commisions of the operation\n   * @param resTokensToMint Amount in ReserveTokens to mint\n   */\n  function mintStableToken(uint256 resTokensToMint) public whenNotPaused() transitionState() atLeastState(MoCState.States.AboveCobj) {\n    uint256 allowedBalance = getAllowance(msg.sender);\n    (uint256 resTokensExchangeSpent, uint256 commissionSpent) = mocExchange.mintStableToken(msg.sender, resTokensToMint);\n\n    uint256 totalResTokensSpent = resTokensExchangeSpent.add(commissionSpent);\n    require(totalResTokensSpent <= allowedBalance, \"amount is not enough\");\n\n    safeDepositInReserve(msg.sender, totalResTokensSpent);\n\n    // Transfer commissions to commissions address\n    safeWithdrawFromReserve(mocInrate.commissionsAddress(), commissionSpent);\n  }\n\n  /**\n     @dev Redeems RiskProx Tokens and pays the comissions of the operation in ReserveTokens\n     @param bucket Bucket to reedem, for example X2\n     @param riskProxAmount Amount in RiskProx\n   */\n  function redeemRiskProx(bytes32 bucket, uint256 riskProxAmount) public\n  whenNotPaused() whenSettlementReady() availableBucket(bucket) notBaseBucket(bucket)\n  transitionState() bucketStateTransition(bucket) {\n    (uint256 totalReserveTokenRedeemed, uint256 commissionSpent) = mocExchange.redeemRiskProx(msg.sender, bucket, riskProxAmount);\n\n    safeWithdrawFromReserve(msg.sender, totalReserveTokenRedeemed);\n\n    // Transfer commissions to commissions address\n    safeWithdrawFromReserve(mocInrate.commissionsAddress(), commissionSpent);\n  }\n\n  /**\n  * @dev BUCKET riskProx minting\n  * @param bucket Name of the bucket used\n  * @param resTokensToMint amount to mint on ReserveTokens\n  **/\n  function mintRiskProx(bytes32 bucket, uint256 resTokensToMint) public\n  whenNotPaused() whenSettlementReady() availableBucket(bucket) notBaseBucket(bucket)\n  transitionState() bucketStateTransition(bucket) {\n    uint256 allowedBalance = getAllowance(msg.sender);\n    (uint256 resTokensExchangeSpent, uint256 commissionSpent) = mocExchange.mintRiskProx(msg.sender, bucket, resTokensToMint);\n\n    uint256 totalResTokensSpent = resTokensExchangeSpent.add(commissionSpent);\n    require(totalResTokensSpent <= allowedBalance, \"amount is not enough\");\n\n    // Need to update general State\n    safeDepositInReserve(msg.sender, totalResTokensSpent);\n\n    // Transfer commissions to commissions address\n    safeWithdrawFromReserve(mocInrate.commissionsAddress(), commissionSpent);\n  }\n\n  /**\n  * @dev Redeems the requested amount for the msg.sender, or the max amount of free stableTokens possible.\n  * @param stableTokenAmount Amount of StableTokens to redeem.\n  */\n  function redeemFreeStableToken(uint256 stableTokenAmount) public whenNotPaused() transitionState() {\n    (uint256 resTokensAmount, uint256 commissionSpent) = mocExchange.redeemFreeStableToken(msg.sender, stableTokenAmount);\n\n    safeWithdrawFromReserve(msg.sender, resTokensAmount);\n\n    // Transfer commissions to commissions address\n    safeWithdrawFromReserve(mocInrate.commissionsAddress(), commissionSpent);\n  }\n\n  /**\n  * @dev Allow redeem on liquidation state, user StableTokens get burned and he receives\n  * the equivalent ReserveTokens if can be covered, or the maximum available\n  **/\n  function redeemAllStableToken() public atState(MoCState.States.Liquidated) {\n    mocExchange.redeemAllStableToken(msg.sender, msg.sender);\n  }\n\n  /**\n    @dev Moves the daily amount of interest rate to C0 bucket\n  */\n  function dailyInratePayment() public whenNotPaused() {\n    mocInrate.dailyInratePayment();\n  }\n\n  /**\n  * @dev Pays the RiskPro interest and transfers it to the address mocInrate.riskProInterestAddress\n  * RiskPro interests = Nb (bucket 0) * riskProRate.\n  */\n  function payRiskProHoldersInterestPayment() public whenNotPaused() {\n    uint256 toPay = mocInrate.payRiskProHoldersInterestPayment();\n    if (withdrawFromReserve(mocInrate.getRiskProInterestAddress(), toPay)) {\n      riskProxManager.substractValuesFromBucket(BUCKET_C0, toPay, 0, 0);\n    }\n  }\n\n  /**\n  * @dev Calculates RiskPro holders holder interest by taking the total amount of RBCs available on Bucket 0.\n  * RiskPro interests = Nb (bucket 0) * riskProRate.\n  */\n  function calculateRiskProHoldersInterest() public view returns(uint256, uint256) {\n    return mocInrate.calculateRiskProHoldersInterest();\n  }\n\n  function getRiskProInterestAddress() public view returns(address payable) {\n    return mocInrate.getRiskProInterestAddress();\n  }\n\n  function getRiskProRate() public view returns(uint256) {\n    return mocInrate.getRiskProRate();\n  }\n\n  function getRiskProInterestBlockSpan() public view returns(uint256) {\n    return mocInrate.getRiskProInterestBlockSpan();\n  }\n\n  function isDailyEnabled() public view returns(bool) {\n    return mocInrate.isDailyEnabled();\n  }\n\n  function isRiskProInterestEnabled() public view returns(bool) {\n    return mocInrate.isRiskProInterestEnabled();\n  }\n\n  /**\n    @dev Returns true if blockSpan number of blocks has pass since last execution\n  */\n  function isSettlementEnabled() public view returns(bool) {\n    return settlement.isSettlementEnabled();\n  }\n\n  /**\n   * @dev Checks if bucket liquidation is reached.\n   * @return true if bucket liquidation is reached, false otherwise\n   */\n  function isBucketLiquidationReached(bytes32 bucket) public view returns(bool) {\n    if (mocState.coverage(bucket) <= mocState.liq()) {\n      return true;\n    }\n    return false;\n  }\n\n  function evalBucketLiquidation(bytes32 bucket) public availableBucket(bucket) notBaseBucket(bucket) {\n    if (mocState.coverage(bucket) <= mocState.liq()) {\n      riskProxManager.liquidateBucket(bucket, BUCKET_C0);\n\n      emit BucketLiquidation(bucket);\n    }\n  }\n\n  /**\n  * @dev Set Burnout address.\n  * @param burnoutAddress Address to which the funds will be sent on liquidation.\n  */\n  function setBurnoutAddress(address payable burnoutAddress) public whenNotPaused() atLeastState(MoCState.States.RiskProDiscount) {\n    mocBurnout.pushBurnoutAddress(msg.sender, burnoutAddress);\n  }\n\n  /**\n  * @dev Get Burnout address.\n  */\n  function getBurnoutAddress() public view returns(address) {\n    return mocBurnout.getBurnoutAddress(msg.sender);\n  }\n\n  /**\n  * @dev Evaluates if liquidation state has been reached and runs liq if that's the case\n  */\n  function evalLiquidation(uint256 steps) public {\n    mocState.nextState();\n\n    if (mocState.state() == MoCState.States.Liquidated) {\n      liquidate();\n      mocBurnout.executeBurnout(steps);\n    }\n  }\n\n  /**\n  * @dev Runs all settlement process\n  */\n  function runSettlement(uint256 steps) public whenNotPaused() transitionState() {\n    uint256 accumCommissions = settlement.runSettlement(steps);\n\n    // Transfer accums commissions to commissions address\n    safeWithdrawFromReserve(mocInrate.commissionsAddress(), accumCommissions);\n  }\n\n  /**\n  * @dev Public function to extract and send tokens from the reserve.\n    Will return false if transfer reverts or fails.\n\n    @param receiver Account to which the tokens will be send\n    @param tokenAmount Amount of tokens to send\n    @return False if RRC20 transfer fails or revert and true if succeeds\n  **/\n  function sendToAddress(address receiver, uint256 tokenAmount) public onlyWhitelisted(msg.sender) returns(bool) {\n    if (tokenAmount == 0) {\n      return true;\n    }\n\n    return withdrawFromReserve(receiver, tokenAmount);\n  }\n\n  function liquidate() internal {\n    if (!liquidationExecuted) {\n      pauseRiskProToken();\n      sendReservesRemainder();\n      liquidationExecuted = true;\n    }\n  }\n\n  /**\n    @dev Transfer the value that not corresponds to\n    StableToken Collateral\n  */\n  function sendReservesRemainder() internal {\n    uint256 riskProResTokenValue = mocState.getReservesRemainder();\n    safeWithdrawFromReserve(mocInrate.commissionsAddress(), riskProResTokenValue);\n  }\n\n  function initializeContracts() internal {\n    stableToken = StableToken(connector.stableToken());\n    riskProToken = RiskProToken(connector.riskProToken());\n    riskProxManager = MoCRiskProxManager(connector.riskProxManager());\n    mocState = MoCState(connector.mocState());\n    settlement = MoCSettlement(connector.mocSettlement());\n    mocConverter = MoCConverter(connector.mocConverter());\n    mocExchange = MoCExchange(connector.mocExchange());\n    mocInrate = MoCInrate(connector.mocInrate());\n    mocBurnout = MoCBurnout(connector.mocBurnout());\n    setReserveToken(connector.reserveToken());\n  }\n\n  function initializeGovernanceContracts(address stopperAddress, address governorAddress, bool startStoppable) internal {\n    Stoppable.initialize(stopperAddress, IGovernor(governorAddress), startStoppable);\n  }\n\n  function pauseRiskProToken() internal {\n    if (!riskProToken.paused()) {\n      riskProToken.pause();\n    }\n  }\n\n  /**\n    @dev Extracts tokens from the reserve and update mocState\n    @param receiver Account to which the tokens will be send\n    @param tokenAmount Amount to extract from reserve\n    @return False if RRC20 transfer fails or revert and true if succeeds\n   */\n  function withdrawFromReserve(address receiver, uint256 tokenAmount) internal returns(bool) {\n    bool result = withdraw(tokenAmount, receiver);\n\n    if (result) {\n      mocState.substractFromReserves(tokenAmount);\n    }\n\n    return result;\n  }\n\n  /**\n    @dev Extracts tokens from the reserve and update mocState but reverts if token transfer fails\n    @param receiver Account to which the tokens will be send\n    @param tokenAmount Amount to extract from reserve\n   */\n  function safeWithdrawFromReserve(address receiver, uint256 tokenAmount) internal {\n    require(withdraw(tokenAmount, receiver), \"Token withdrawal failed on RRC20 Reserve token transfer\");\n    mocState.substractFromReserves(tokenAmount);\n  }\n\n  /**\n    @dev Extracts tokens from the reserve and update mocState\n    @param receiver Account from which the tokens will be taken\n    @param tokenAmount Amount to deposit\n   */\n  function safeDepositInReserve(address receiver, uint256 tokenAmount) private {\n    require(deposit(tokenAmount, receiver), \"Token deposit failed on RRC20 Reserve token transfer\");\n    mocState.addToReserves(tokenAmount);\n  }\n\n  /***** STATE MODIFIERS *****/\n  modifier whenSettlementReady() {\n    require(settlement.isSettlementReady(), \"Function can only be called when settlement is ready\");\n    _;\n  }\n\n  modifier atState(MoCState.States _state) {\n    require(mocState.state() == _state, \"Function cannot be called at this state.\");\n    _;\n  }\n\n  modifier atLeastState(MoCState.States _state) {\n    require(mocState.state() >= _state, \"Function cannot be called at this state.\");\n    _;\n  }\n\n  modifier atMostState(MoCState.States _state) {\n    require(mocState.state() <= _state, \"Function cannot be called at this state.\");\n    _;\n  }\n\n  modifier bucketStateTransition(bytes32 bucket) {\n    evalBucketLiquidation(bucket);\n    _;\n  }\n\n  modifier availableBucket(bytes32 bucket) {\n    require (riskProxManager.isAvailableBucket(bucket), \"Bucket is not available\");\n    _;\n  }\n\n  modifier notBaseBucket(bytes32 bucket) {\n    require(!riskProxManager.isBucketBase(bucket), \"Bucket should not be a base type bucket\");\n    _;\n  }\n\n  modifier transitionState()\n  {\n    mocState.nextState();\n    if (mocState.state() == MoCState.States.Liquidated) {\n      liquidate();\n    }\n    else\n      _;\n  }\n\n  // Leave a gap betweeen inherited contracts variables in order to be\n  // able to add more variables in them later\n  uint256[50] private upgradeGap;\n}\n",
  "sourcePath": "/home/martin/Proyectos/RDOC-Contract/contracts/MoC.sol",
  "compiler": {
    "name": "solc",
    "version": "0.5.8+commit.23d335f2.Emscripten.clang"
  },
  "schemaVersion": "3.0.11",
  "updatedAt": "2020-01-28T19:29:42.129Z",
  "devdoc": {
    "methods": {
      "addReserves(uint256)": {
        "details": "Adding tokens to the token reserve and C0 Bucket without minting any token. Could revert.",
        "params": {
          "tokenAmount": "Amount to deposit."
        }
      },
      "alterRedeemRequestAmount(bool,uint256)": {
        "details": "Alters the redeem amount position for the redeemer",
        "params": {
          "delta": "the amount to add/substract to current position",
          "isAddition": "true if adding amount to redeem, false to substract."
        }
      },
      "calculateRiskProHoldersInterest()": {
        "details": "Calculates RiskPro holders holder interest by taking the total amount of RBCs available on Bucket 0. RiskPro interests = Nb (bucket 0) * riskProRate."
      },
      "changeIGovernor(address)": {
        "params": {
          "newIGovernor": "New governor address"
        }
      },
      "dailyInratePayment()": {
        "details": "Moves the daily amount of interest rate to C0 bucket"
      },
      "evalLiquidation(uint256)": {
        "details": "Evaluates if liquidation state has been reached and runs liq if that's the case"
      },
      "getAllowance(address)": {
        "details": "Returns the amount of token reserve an account is allowed to use for deposit.",
        "params": {
          "account": "User account to check allowance."
        },
        "return": "The minimum value between MoC allowance for that account and the account's balance."
      },
      "getBurnoutAddress()": {
        "details": "Get Burnout address."
      },
      "getRedeemRequestAt(uint256)": {
        "details": "Gets the RedeemRequest at the queue index position",
        "params": {
          "index": "queue position to get"
        },
        "return": "redeemer's address and amount he submitted"
      },
      "initialize(address)": {
        "details": "This initialize replaces the constructor but it is not called automatically. It is necessary because of the upgradeability of the contracts",
        "params": {
          "_governor": "Governor address"
        }
      },
      "initialize(address,address)": {
        "details": "This initialize replaces the constructor but it is not called automatically. It is necessary because of the upgradeability of the contracts. Either this function or the next can be used",
        "params": {
          "_governor": "The address that will define when a change contract is authorized to do this unstoppable/stoppable again",
          "_stopper": "The address that is authorized to stop this contract"
        }
      },
      "initialize(address,address,bool)": {
        "details": "This initialize replaces the constructor but it is not called automatically. It is necessary because of the upgradeability of the contracts. Either this function or the previous can be used",
        "params": {
          "_governor": "The address that will define when a change contract is authorized to do this unstoppable/stoppable again",
          "_stoppable": "Define if the contract starts being unstoppable or not",
          "_stopper": "The address that is authorized to stop this contract"
        }
      },
      "isBucketLiquidationReached(bytes32)": {
        "details": "Checks if bucket liquidation is reached.",
        "return": "true if bucket liquidation is reached, false otherwise"
      },
      "isSettlementEnabled()": {
        "details": "Returns true if blockSpan number of blocks has pass since last execution"
      },
      "makeStoppable()": {
        "details": "Should be called through governance"
      },
      "makeUnstoppable()": {
        "details": "Should be called through governance"
      },
      "mintRiskPro(uint256)": {
        "details": "Mints RiskPro and pays the comissions of the operation.",
        "params": {
          "resTokensToMint": "Amount Reserve Tokens to spend in minting"
        }
      },
      "mintRiskProx(bytes32,uint256)": {
        "details": "BUCKET riskProx minting",
        "params": {
          "bucket": "Name of the bucket used",
          "resTokensToMint": "amount to mint on ReserveTokens*"
        }
      },
      "mintStableToken(uint256)": {
        "details": "Mint StableToken tokens and pays the commisions of the operation",
        "params": {
          "resTokensToMint": "Amount in ReserveTokens to mint"
        }
      },
      "pause()": {
        "details": "Should only be called by the pauser and when it is stoppable"
      },
      "payRiskProHoldersInterestPayment()": {
        "details": "Pays the RiskPro interest and transfers it to the address mocInrate.riskProInterestAddress RiskPro interests = Nb (bucket 0) * riskProRate."
      },
      "redeemAllStableToken()": {
        "details": "Allow redeem on liquidation state, user StableTokens get burned and he receives the equivalent ReserveTokens if can be covered, or the maximum available*"
      },
      "redeemFreeStableToken(uint256)": {
        "details": "Redeems the requested amount for the msg.sender, or the max amount of free stableTokens possible.",
        "params": {
          "stableTokenAmount": "Amount of StableTokens to redeem."
        }
      },
      "redeemQueueSize()": {
        "details": "returns current redeem queue size"
      },
      "redeemRiskPro(uint256)": {
        "details": "Redeems RiskPro Tokens and pays the comissions of the operation in ReserveTokens",
        "params": {
          "riskProAmount": "Amout in RiskPro"
        }
      },
      "redeemRiskProx(bytes32,uint256)": {
        "details": "Redeems RiskProx Tokens and pays the comissions of the operation in ReserveTokens",
        "params": {
          "bucket": "Bucket to reedem, for example X2",
          "riskProxAmount": "Amount in RiskProx"
        }
      },
      "redeemStableTokenRequest(uint256)": {
        "details": "Creates or updates the amount of a StableToken redeem Request from the msg.sender",
        "params": {
          "stableTokenAmount": "Amount of StableTokens to redeem on settlement [using mocPrecision]"
        }
      },
      "runSettlement(uint256)": {
        "details": "Runs all settlement process"
      },
      "sendToAddress(address,uint256)": {
        "details": "Public function to extract and send tokens from the reserve. Will return false if transfer reverts or fails.",
        "params": {
          "receiver": "Account to which the tokens will be send",
          "tokenAmount": "Amount of tokens to send"
        },
        "return": "False if RRC20 transfer fails or revert and true if succeeds*"
      },
      "setBurnoutAddress(address)": {
        "details": "Set Burnout address.",
        "params": {
          "burnoutAddress": "Address to which the funds will be sent on liquidation."
        }
      },
      "setStopper(address)": {
        "details": "Should be called through governance",
        "params": {
          "newStopper": "Address of the newStopper"
        }
      },
      "stableTokenAmountToRedeem(address)": {
        "details": "returns the total amount of StableTokens in the redeem queue for redeemer",
        "params": {
          "redeemer": "address for which ^ is computed"
        }
      }
    }
  },
  "userdoc": {
    "methods": {
      "changeIGovernor(address)": {
        "notice": "Change the contract's governor. Should be called through the old governance system"
      },
      "initialize(address)": {
        "notice": "Initialize the contract with the basic settings"
      },
      "initialize(address,address)": {
        "notice": "Initialize the contract with the basic settings"
      },
      "initialize(address,address,bool)": {
        "notice": "Initialize the contract with the basic settings"
      },
      "makeStoppable()": {
        "notice": "Switches ON the stoppability of the contract; if the contract was paused before making it unstoppable it will be paused again after calling this function"
      },
      "makeUnstoppable()": {
        "notice": "Switches OFF the stoppability of the contract; if the contract was paused it will no longer be so"
      },
      "pause()": {
        "notice": "Called by the owner to pause, triggers stopped state"
      },
      "paused()": {
        "notice": "Returns true if paused"
      },
      "riskProxBalanceOf(bytes32,address)": {
        "notice": "**************************INTERFACE******************************************"
      },
      "setStopper(address)": {
        "notice": "Changes the address which is enable to stop this contract"
      },
      "unpause()": {
        "notice": "Called by the owner to unpause, returns to normal state"
      }
    }
  }
}