{
  "contractName": "MoCState",
  "abi": [
    {
      "constant": true,
      "inputs": [],
      "name": "getReservePrecision",
      "outputs": [
        {
          "name": "",
          "type": "uint256"
        }
      ],
      "payable": false,
      "stateMutability": "view",
      "type": "function"
    },
    {
      "constant": true,
      "inputs": [],
      "name": "governor",
      "outputs": [
        {
          "name": "",
          "type": "address"
        }
      ],
      "payable": false,
      "stateMutability": "view",
      "type": "function"
    },
    {
      "constant": true,
      "inputs": [],
      "name": "smoothingFactor",
      "outputs": [
        {
          "name": "",
          "type": "uint256"
        }
      ],
      "payable": false,
      "stateMutability": "view",
      "type": "function"
    },
    {
      "constant": true,
      "inputs": [],
      "name": "getGovernorAddress",
      "outputs": [
        {
          "name": "",
          "type": "address"
        }
      ],
      "payable": false,
      "stateMutability": "view",
      "type": "function"
    },
    {
      "constant": true,
      "inputs": [],
      "name": "peg",
      "outputs": [
        {
          "name": "",
          "type": "uint256"
        }
      ],
      "payable": false,
      "stateMutability": "view",
      "type": "function"
    },
    {
      "constant": false,
      "inputs": [
        {
          "name": "blockSpan",
          "type": "uint256"
        }
      ],
      "name": "setEmaCalculationBlockSpan",
      "outputs": [],
      "payable": false,
      "stateMutability": "nonpayable",
      "type": "function"
    },
    {
      "constant": true,
      "inputs": [],
      "name": "riskProMaxDiscountRate",
      "outputs": [
        {
          "name": "",
          "type": "uint256"
        }
      ],
      "payable": false,
      "stateMutability": "view",
      "type": "function"
    },
    {
      "constant": true,
      "inputs": [],
      "name": "BUCKET_X2",
      "outputs": [
        {
          "name": "",
          "type": "bytes32"
        }
      ],
      "payable": false,
      "stateMutability": "view",
      "type": "function"
    },
    {
      "constant": true,
      "inputs": [],
      "name": "maxMintRiskPro",
      "outputs": [
        {
          "name": "",
          "type": "uint256"
        }
      ],
      "payable": false,
      "stateMutability": "view",
      "type": "function"
    },
    {
      "constant": true,
      "inputs": [],
      "name": "getEmaCalculationBlockSpan",
      "outputs": [
        {
          "name": "",
          "type": "uint256"
        }
      ],
      "payable": false,
      "stateMutability": "view",
      "type": "function"
    },
    {
      "constant": true,
      "inputs": [],
      "name": "dayBlockSpan",
      "outputs": [
        {
          "name": "",
          "type": "uint256"
        }
      ],
      "payable": false,
      "stateMutability": "view",
      "type": "function"
    },
    {
      "constant": true,
      "inputs": [],
      "name": "reserves",
      "outputs": [
        {
          "name": "",
          "type": "uint256"
        }
      ],
      "payable": false,
      "stateMutability": "view",
      "type": "function"
    },
    {
      "constant": true,
      "inputs": [],
      "name": "emaCalculationBlockSpan",
      "outputs": [
        {
          "name": "",
          "type": "uint256"
        }
      ],
      "payable": false,
      "stateMutability": "view",
      "type": "function"
    },
    {
      "constant": true,
      "inputs": [],
      "name": "connector",
      "outputs": [
        {
          "name": "",
          "type": "address"
        }
      ],
      "payable": false,
      "stateMutability": "view",
      "type": "function"
    },
    {
      "constant": true,
      "inputs": [],
      "name": "PRICE_PRECISION",
      "outputs": [
        {
          "name": "",
          "type": "uint256"
        }
      ],
      "payable": false,
      "stateMutability": "view",
      "type": "function"
    },
    {
      "constant": true,
      "inputs": [],
      "name": "getLastEmaCalculation",
      "outputs": [
        {
          "name": "",
          "type": "uint256"
        }
      ],
      "payable": false,
      "stateMutability": "view",
      "type": "function"
    },
    {
      "constant": true,
      "inputs": [],
      "name": "lastEmaCalculation",
      "outputs": [
        {
          "name": "",
          "type": "uint256"
        }
      ],
      "payable": false,
      "stateMutability": "view",
      "type": "function"
    },
    {
      "constant": true,
      "inputs": [],
      "name": "FACTOR_PRECISION",
      "outputs": [
        {
          "name": "",
          "type": "uint256"
        }
      ],
      "payable": false,
      "stateMutability": "view",
      "type": "function"
    },
    {
      "constant": true,
      "inputs": [],
      "name": "shouldCalculateEma",
      "outputs": [
        {
          "name": "",
          "type": "bool"
        }
      ],
      "payable": false,
      "stateMutability": "view",
      "type": "function"
    },
    {
      "constant": false,
      "inputs": [
        {
          "name": "factor",
          "type": "uint256"
        }
      ],
      "name": "setSmoothingFactor",
      "outputs": [],
      "payable": false,
      "stateMutability": "nonpayable",
      "type": "function"
    },
    {
      "constant": true,
      "inputs": [],
      "name": "getExponentalMovingAverage",
      "outputs": [
        {
          "name": "",
          "type": "uint256"
        }
      ],
      "payable": false,
      "stateMutability": "view",
      "type": "function"
    },
    {
      "constant": false,
      "inputs": [
        {
          "name": "newIGovernor",
          "type": "address"
        }
      ],
      "name": "changeIGovernor",
      "outputs": [],
      "payable": false,
      "stateMutability": "nonpayable",
      "type": "function"
    },
    {
      "constant": true,
      "inputs": [],
      "name": "liquidationPrice",
      "outputs": [
        {
          "name": "",
          "type": "uint256"
        }
      ],
      "payable": false,
      "stateMutability": "view",
      "type": "function"
    },
    {
      "constant": true,
      "inputs": [],
      "name": "state",
      "outputs": [
        {
          "name": "",
          "type": "uint8"
        }
      ],
      "payable": false,
      "stateMutability": "view",
      "type": "function"
    },
    {
      "constant": true,
      "inputs": [],
      "name": "getSmoothingFactor",
      "outputs": [
        {
          "name": "",
          "type": "uint256"
        }
      ],
      "payable": false,
      "stateMutability": "view",
      "type": "function"
    },
    {
      "constant": true,
      "inputs": [],
      "name": "BUCKET_C0",
      "outputs": [
        {
          "name": "",
          "type": "bytes32"
        }
      ],
      "payable": false,
      "stateMutability": "view",
      "type": "function"
    },
    {
      "constant": true,
      "inputs": [],
      "name": "getDayPrecision",
      "outputs": [
        {
          "name": "",
          "type": "uint256"
        }
      ],
      "payable": false,
      "stateMutability": "view",
      "type": "function"
    },
    {
      "constant": true,
      "inputs": [],
      "name": "utpdu",
      "outputs": [
        {
          "name": "",
          "type": "uint256"
        }
      ],
      "payable": false,
      "stateMutability": "view",
      "type": "function"
    },
    {
      "constant": true,
      "inputs": [],
      "name": "getMocPrecision",
      "outputs": [
        {
          "name": "",
          "type": "uint256"
        }
      ],
      "payable": false,
      "stateMutability": "view",
      "type": "function"
    },
    {
      "constant": true,
      "inputs": [],
      "name": "liq",
      "outputs": [
        {
          "name": "",
          "type": "uint256"
        }
      ],
      "payable": false,
      "stateMutability": "view",
      "type": "function"
    },
    {
      "anonymous": false,
      "inputs": [
        {
          "indexed": false,
          "name": "newState",
          "type": "uint8"
        }
      ],
      "name": "StateTransition",
      "type": "event"
    },
    {
      "anonymous": false,
      "inputs": [
        {
          "indexed": false,
          "name": "oldAddress",
          "type": "address"
        },
        {
          "indexed": false,
          "name": "newAddress",
          "type": "address"
        }
      ],
      "name": "PriceProviderUpdated",
      "type": "event"
    },
    {
      "anonymous": false,
      "inputs": [
        {
          "indexed": false,
          "name": "price",
          "type": "uint256"
        },
        {
          "indexed": false,
          "name": "movingAverage",
          "type": "uint256"
        }
      ],
      "name": "MovingAverageCalculation",
      "type": "event"
    },
    {
      "constant": false,
      "inputs": [
        {
          "name": "connectorAddress",
          "type": "address"
        },
        {
          "name": "_governor",
          "type": "address"
        },
        {
          "name": "_priceProvider",
          "type": "address"
        },
        {
          "name": "_liq",
          "type": "uint256"
        },
        {
          "name": "_utpdu",
          "type": "uint256"
        },
        {
          "name": "_maxDiscRate",
          "type": "uint256"
        },
        {
          "name": "_dayBlockSpan",
          "type": "uint256"
        },
        {
          "name": "_ema",
          "type": "uint256"
        },
        {
          "name": "_smoothFactor",
          "type": "uint256"
        },
        {
          "name": "_emaBlockSpan",
          "type": "uint256"
        },
        {
          "name": "_maxMintRiskPro",
          "type": "uint256"
        }
      ],
      "name": "initialize",
      "outputs": [],
      "payable": false,
      "stateMutability": "nonpayable",
      "type": "function"
    },
    {
      "constant": false,
      "inputs": [
        {
          "name": "_governor",
          "type": "address"
        }
      ],
      "name": "initialize",
      "outputs": [],
      "payable": false,
      "stateMutability": "nonpayable",
      "type": "function"
    },
    {
      "constant": false,
      "inputs": [
        {
          "name": "rate",
          "type": "uint256"
        }
      ],
      "name": "setMaxDiscountRate",
      "outputs": [],
      "payable": false,
      "stateMutability": "nonpayable",
      "type": "function"
    },
    {
      "constant": true,
      "inputs": [],
      "name": "getMaxDiscountRate",
      "outputs": [
        {
          "name": "",
          "type": "uint256"
        }
      ],
      "payable": false,
      "stateMutability": "view",
      "type": "function"
    },
    {
      "constant": false,
      "inputs": [
        {
          "name": "blockSpan",
          "type": "uint256"
        }
      ],
      "name": "setDayBlockSpan",
      "outputs": [],
      "payable": false,
      "stateMutability": "nonpayable",
      "type": "function"
    },
    {
      "constant": false,
      "inputs": [
        {
          "name": "priceProviderAddress",
          "type": "address"
        }
      ],
      "name": "setPriceProvider",
      "outputs": [],
      "payable": false,
      "stateMutability": "nonpayable",
      "type": "function"
    },
    {
      "constant": true,
      "inputs": [],
      "name": "getPriceProvider",
      "outputs": [
        {
          "name": "",
          "type": "address"
        }
      ],
      "payable": false,
      "stateMutability": "view",
      "type": "function"
    },
    {
      "constant": true,
      "inputs": [],
      "name": "getDayBlockSpan",
      "outputs": [
        {
          "name": "",
          "type": "uint256"
        }
      ],
      "payable": false,
      "stateMutability": "view",
      "type": "function"
    },
    {
      "constant": false,
      "inputs": [
        {
          "name": "amount",
          "type": "uint256"
        }
      ],
      "name": "substractFromReserves",
      "outputs": [],
      "payable": false,
      "stateMutability": "nonpayable",
      "type": "function"
    },
    {
      "constant": false,
      "inputs": [
        {
          "name": "amount",
          "type": "uint256"
        }
      ],
      "name": "addToReserves",
      "outputs": [],
      "payable": false,
      "stateMutability": "nonpayable",
      "type": "function"
    },
    {
      "constant": true,
      "inputs": [],
      "name": "riskProTotalSupply",
      "outputs": [
        {
          "name": "",
          "type": "uint256"
        }
      ],
      "payable": false,
      "stateMutability": "view",
      "type": "function"
    },
    {
      "constant": true,
      "inputs": [],
      "name": "stableTokenTotalSupply",
      "outputs": [
        {
          "name": "",
          "type": "uint256"
        }
      ],
      "payable": false,
      "stateMutability": "view",
      "type": "function"
    },
    {
      "constant": true,
      "inputs": [],
      "name": "cobj",
      "outputs": [
        {
          "name": "",
          "type": "uint256"
        }
      ],
      "payable": false,
      "stateMutability": "view",
      "type": "function"
    },
    {
      "constant": true,
      "inputs": [],
      "name": "collateralReserves",
      "outputs": [
        {
          "name": "",
          "type": "uint256"
        }
      ],
      "payable": false,
      "stateMutability": "view",
      "type": "function"
    },
    {
      "constant": true,
      "inputs": [],
      "name": "globalCoverage",
      "outputs": [
        {
          "name": "",
          "type": "uint256"
        }
      ],
      "payable": false,
      "stateMutability": "view",
      "type": "function"
    },
    {
      "constant": true,
      "inputs": [
        {
          "name": "bucket",
          "type": "bytes32"
        }
      ],
      "name": "lockedReserveTokens",
      "outputs": [
        {
          "name": "",
          "type": "uint256"
        }
      ],
      "payable": false,
      "stateMutability": "view",
      "type": "function"
    },
    {
      "constant": true,
      "inputs": [
        {
          "name": "bucket",
          "type": "bytes32"
        }
      ],
      "name": "getResTokensInRiskPro",
      "outputs": [
        {
          "name": "",
          "type": "uint256"
        }
      ],
      "payable": false,
      "stateMutability": "view",
      "type": "function"
    },
    {
      "constant": true,
      "inputs": [],
      "name": "getReservesRemainder",
      "outputs": [
        {
          "name": "",
          "type": "uint256"
        }
      ],
      "payable": false,
      "stateMutability": "view",
      "type": "function"
    },
    {
      "constant": true,
      "inputs": [
        {
          "name": "bucket",
          "type": "bytes32"
        }
      ],
      "name": "coverage",
      "outputs": [
        {
          "name": "",
          "type": "uint256"
        }
      ],
      "payable": false,
      "stateMutability": "view",
      "type": "function"
    },
    {
      "constant": true,
      "inputs": [
        {
          "name": "stableToken0",
          "type": "uint256"
        }
      ],
      "name": "abundanceRatio",
      "outputs": [
        {
          "name": "",
          "type": "uint256"
        }
      ],
      "payable": false,
      "stateMutability": "view",
      "type": "function"
    },
    {
      "constant": true,
      "inputs": [],
      "name": "currentAbundanceRatio",
      "outputs": [
        {
          "name": "",
          "type": "uint256"
        }
      ],
      "payable": false,
      "stateMutability": "view",
      "type": "function"
    },
    {
      "constant": true,
      "inputs": [
        {
          "name": "bucket",
          "type": "bytes32"
        }
      ],
      "name": "leverage",
      "outputs": [
        {
          "name": "",
          "type": "uint256"
        }
      ],
      "payable": false,
      "stateMutability": "view",
      "type": "function"
    },
    {
      "constant": true,
      "inputs": [],
      "name": "globalMaxStableToken",
      "outputs": [
        {
          "name": "",
          "type": "uint256"
        }
      ],
      "payable": false,
      "stateMutability": "view",
      "type": "function"
    },
    {
      "constant": true,
      "inputs": [],
      "name": "freeStableToken",
      "outputs": [
        {
          "name": "",
          "type": "uint256"
        }
      ],
      "payable": false,
      "stateMutability": "view",
      "type": "function"
    },
    {
      "constant": true,
      "inputs": [
        {
          "name": "bucket",
          "type": "bytes32"
        }
      ],
      "name": "maxStableToken",
      "outputs": [
        {
          "name": "",
          "type": "uint256"
        }
      ],
      "payable": false,
      "stateMutability": "view",
      "type": "function"
    },
    {
      "constant": true,
      "inputs": [],
      "name": "globalMaxRiskPro",
      "outputs": [
        {
          "name": "",
          "type": "uint256"
        }
      ],
      "payable": false,
      "stateMutability": "view",
      "type": "function"
    },
    {
      "constant": true,
      "inputs": [],
      "name": "absoluteMaxStableToken",
      "outputs": [
        {
          "name": "",
          "type": "uint256"
        }
      ],
      "payable": false,
      "stateMutability": "view",
      "type": "function"
    },
    {
      "constant": true,
      "inputs": [
        {
          "name": "bucket",
          "type": "bytes32"
        }
      ],
      "name": "maxRiskPro",
      "outputs": [
        {
          "name": "",
          "type": "uint256"
        }
      ],
      "payable": false,
      "stateMutability": "view",
      "type": "function"
    },
    {
      "constant": true,
      "inputs": [
        {
          "name": "bucket",
          "type": "bytes32"
        }
      ],
      "name": "maxRiskProx",
      "outputs": [
        {
          "name": "",
          "type": "uint256"
        }
      ],
      "payable": false,
      "stateMutability": "view",
      "type": "function"
    },
    {
      "constant": true,
      "inputs": [
        {
          "name": "bucket",
          "type": "bytes32"
        }
      ],
      "name": "maxRiskProxResTokenValue",
      "outputs": [
        {
          "name": "",
          "type": "uint256"
        }
      ],
      "payable": false,
      "stateMutability": "view",
      "type": "function"
    },
    {
      "constant": true,
      "inputs": [],
      "name": "absoluteMaxRiskPro",
      "outputs": [
        {
          "name": "",
          "type": "uint256"
        }
      ],
      "payable": false,
      "stateMutability": "view",
      "type": "function"
    },
    {
      "constant": true,
      "inputs": [],
      "name": "maxRiskProWithDiscount",
      "outputs": [
        {
          "name": "",
          "type": "uint256"
        }
      ],
      "payable": false,
      "stateMutability": "view",
      "type": "function"
    },
    {
      "constant": true,
      "inputs": [],
      "name": "globalLockedReserveTokens",
      "outputs": [
        {
          "name": "",
          "type": "uint256"
        }
      ],
      "payable": false,
      "stateMutability": "view",
      "type": "function"
    },
    {
      "constant": true,
      "inputs": [],
      "name": "riskProTecPrice",
      "outputs": [
        {
          "name": "",
          "type": "uint256"
        }
      ],
      "payable": false,
      "stateMutability": "view",
      "type": "function"
    },
    {
      "constant": true,
      "inputs": [
        {
          "name": "bucket",
          "type": "bytes32"
        }
      ],
      "name": "bucketRiskProTecPrice",
      "outputs": [
        {
          "name": "",
          "type": "uint256"
        }
      ],
      "payable": false,
      "stateMutability": "view",
      "type": "function"
    },
    {
      "constant": true,
      "inputs": [],
      "name": "riskProDiscountPrice",
      "outputs": [
        {
          "name": "",
          "type": "uint256"
        }
      ],
      "payable": false,
      "stateMutability": "view",
      "type": "function"
    },
    {
      "constant": true,
      "inputs": [],
      "name": "riskProUsdPrice",
      "outputs": [
        {
          "name": "",
          "type": "uint256"
        }
      ],
      "payable": false,
      "stateMutability": "view",
      "type": "function"
    },
    {
      "constant": true,
      "inputs": [
        {
          "name": "bucket",
          "type": "bytes32"
        }
      ],
      "name": "maxRiskProxRiskProValue",
      "outputs": [
        {
          "name": "",
          "type": "uint256"
        }
      ],
      "payable": false,
      "stateMutability": "view",
      "type": "function"
    },
    {
      "constant": true,
      "inputs": [
        {
          "name": "bucket",
          "type": "bytes32"
        }
      ],
      "name": "riskProxRiskProPrice",
      "outputs": [
        {
          "name": "",
          "type": "uint256"
        }
      ],
      "payable": false,
      "stateMutability": "view",
      "type": "function"
    },
    {
      "constant": true,
      "inputs": [],
      "name": "riskProSpotDiscountRate",
      "outputs": [
        {
          "name": "",
          "type": "uint256"
        }
      ],
      "payable": false,
      "stateMutability": "view",
      "type": "function"
    },
    {
      "constant": true,
      "inputs": [],
      "name": "daysToSettlement",
      "outputs": [
        {
          "name": "",
          "type": "uint256"
        }
      ],
      "payable": false,
      "stateMutability": "view",
      "type": "function"
    },
    {
      "constant": true,
      "inputs": [],
      "name": "blocksToSettlement",
      "outputs": [
        {
          "name": "",
          "type": "uint256"
        }
      ],
      "payable": false,
      "stateMutability": "view",
      "type": "function"
    },
    {
      "constant": true,
      "inputs": [],
      "name": "isLiquidationReached",
      "outputs": [
        {
          "name": "",
          "type": "bool"
        }
      ],
      "payable": false,
      "stateMutability": "view",
      "type": "function"
    },
    {
      "constant": true,
      "inputs": [],
      "name": "getLiquidationPrice",
      "outputs": [
        {
          "name": "",
          "type": "uint256"
        }
      ],
      "payable": false,
      "stateMutability": "view",
      "type": "function"
    },
    {
      "constant": true,
      "inputs": [
        {
          "name": "bucket",
          "type": "bytes32"
        }
      ],
      "name": "getBucketNReserve",
      "outputs": [
        {
          "name": "",
          "type": "uint256"
        }
      ],
      "payable": false,
      "stateMutability": "view",
      "type": "function"
    },
    {
      "constant": true,
      "inputs": [
        {
          "name": "bucket",
          "type": "bytes32"
        }
      ],
      "name": "getBucketNRiskPro",
      "outputs": [
        {
          "name": "",
          "type": "uint256"
        }
      ],
      "payable": false,
      "stateMutability": "view",
      "type": "function"
    },
    {
      "constant": true,
      "inputs": [
        {
          "name": "bucket",
          "type": "bytes32"
        }
      ],
      "name": "getBucketNStableToken",
      "outputs": [
        {
          "name": "",
          "type": "uint256"
        }
      ],
      "payable": false,
      "stateMutability": "view",
      "type": "function"
    },
    {
      "constant": true,
      "inputs": [
        {
          "name": "bucket",
          "type": "bytes32"
        }
      ],
      "name": "getBucketCobj",
      "outputs": [
        {
          "name": "",
          "type": "uint256"
        }
      ],
      "payable": false,
      "stateMutability": "view",
      "type": "function"
    },
    {
      "constant": true,
      "inputs": [
        {
          "name": "bucket",
          "type": "bytes32"
        }
      ],
      "name": "getInrateBag",
      "outputs": [
        {
          "name": "",
          "type": "uint256"
        }
      ],
      "payable": false,
      "stateMutability": "view",
      "type": "function"
    },
    {
      "constant": true,
      "inputs": [],
      "name": "getBcons",
      "outputs": [
        {
          "name": "",
          "type": "uint256"
        }
      ],
      "payable": false,
      "stateMutability": "view",
      "type": "function"
    },
    {
      "constant": true,
      "inputs": [],
      "name": "getReserveTokenPrice",
      "outputs": [
        {
          "name": "",
          "type": "uint256"
        }
      ],
      "payable": false,
      "stateMutability": "view",
      "type": "function"
    },
    {
      "constant": false,
      "inputs": [],
      "name": "calculateReserveTokenMovingAverage",
      "outputs": [],
      "payable": false,
      "stateMutability": "nonpayable",
      "type": "function"
    },
    {
      "constant": true,
      "inputs": [],
      "name": "getLiq",
      "outputs": [
        {
          "name": "",
          "type": "uint256"
        }
      ],
      "payable": false,
      "stateMutability": "view",
      "type": "function"
    },
    {
      "constant": false,
      "inputs": [
        {
          "name": "_liq",
          "type": "uint256"
        }
      ],
      "name": "setLiq",
      "outputs": [],
      "payable": false,
      "stateMutability": "nonpayable",
      "type": "function"
    },
    {
      "constant": true,
      "inputs": [],
      "name": "getUtpdu",
      "outputs": [
        {
          "name": "",
          "type": "uint256"
        }
      ],
      "payable": false,
      "stateMutability": "view",
      "type": "function"
    },
    {
      "constant": false,
      "inputs": [
        {
          "name": "_utpdu",
          "type": "uint256"
        }
      ],
      "name": "setUtpdu",
      "outputs": [],
      "payable": false,
      "stateMutability": "nonpayable",
      "type": "function"
    },
    {
      "constant": true,
      "inputs": [],
      "name": "getPeg",
      "outputs": [
        {
          "name": "",
          "type": "uint256"
        }
      ],
      "payable": false,
      "stateMutability": "view",
      "type": "function"
    },
    {
      "constant": false,
      "inputs": [
        {
          "name": "_peg",
          "type": "uint256"
        }
      ],
      "name": "setPeg",
      "outputs": [],
      "payable": false,
      "stateMutability": "nonpayable",
      "type": "function"
    },
    {
      "constant": false,
      "inputs": [],
      "name": "nextState",
      "outputs": [],
      "payable": false,
      "stateMutability": "nonpayable",
      "type": "function"
    },
    {
      "constant": false,
      "inputs": [
        {
          "name": "_maxMintRiskPro",
          "type": "uint256"
        }
      ],
      "name": "setMaxMintRiskPro",
      "outputs": [],
      "payable": false,
      "stateMutability": "nonpayable",
      "type": "function"
    },
    {
      "constant": true,
      "inputs": [],
      "name": "getMaxMintRiskPro",
      "outputs": [
        {
          "name": "",
          "type": "uint256"
        }
      ],
      "payable": false,
      "stateMutability": "view",
      "type": "function"
    },
    {
      "constant": true,
      "inputs": [],
      "name": "maxMintRiskProAvalaible",
      "outputs": [
        {
          "name": "",
          "type": "uint256"
        }
      ],
      "payable": false,
      "stateMutability": "view",
      "type": "function"
    }
  ],
  "bytecode": "0x608060405234801561001057600080fd5b50613ee7806100206000396000f3fe608060405234801561001057600080fd5b50600436106104175760e060020a600035046306bdce8c811461041c5780630a065fb6146104365780630c340a241461045a5780630d9c71aa1461046257806311a2e50b1461046a57806312119e021461047257806314007c6d1461048f578063147a36d114610499578063157d5cfb146104a157806319a7039a146104a95780631cd2b37c146104b15780631ced5541146104b95780631f085870146104c15780631f1cb62b146104c957806321052149146104d15780632439725a146104d9578063372aa224146104f65780633bc4ac0a1461051c5780633ecbf7ee146105395780633ffdff5d1461055657806340ed4b571461055e57806340fb9ab31461057b57806346558d1b14610598578063483bc516146105a0578063484ec046146105a85780634aa50e40146105b057806351ffe193146105b857806357a13a16146105c05780635e73f484146105c8578063607b69f6146105d057806360bf1031146105d857806362d96807146105e05780636325f968146105e8578063657576eb146105f05780637144e9a2146105f85780637149d12114610600578063717c01c01461060857806375172a8b14610610578063761a6c3b1461061857806376edfc7f146106355780637a727fe81461063d5780637c536216146106455780637f19c56f1461066257806380c14b8d1461066a57806383f3084f14610687578063849d7e861461068f578063889d9b64146106975780638c3e0502146106b45780639214fa4d146106d157806392bc2865146106d957806393327d7b146106f657806395082d25146106fe578063953bbcf01461070657806398b762a1146107235780639aa59d44146107405780639ad6659d146107485780639f3d87b514610764578063a181c39714610781578063a42c69a9146106fe578063a53e85e214610789578063a8e9ac3014610791578063b0920b6d14610799578063b398eb21146107b6578063b488ea41146107d3578063b640c073146107f0578063b6e08330146107f8578063b6fc2d5f1461081e578063b71210d514610826578063b7b3f47e1461082e578063b81047731461084b578063bc2ae97214610853578063bcce77ef14610870578063be71863214610878578063c19a125f14610895578063c19d93fb146108b2578063c4d66de8146108de578063c4ee19ea14610904578063cb93e65d1461090c578063d4d67a9c14610914578063e0dd23761461091c578063e138c70a14610924578063e22155f614610941578063e2414a7314610949578063e890675714610951578063eb892a6214610959578063ec98182d14610976578063f4288dc914610993578063f65d47aa1461099b578063f715e29314610a05578063f74326f914610a0d578063f98b43c414610a2a578063faba8c3b14610a47575b600080fd5b610424610a4f565b60408051918252519081900360200190f35b61043e610a56565b60408051600160a060020a039092168252519081900360200190f35b61043e610a6b565b610424610a7a565b610424610a80565b6104246004803603602081101561048857600080fd5b5035610ab7565b610497610b8e565b005b610424610cdb565b61043e610d20565b610424610d2f565b610424610ef3565b610424610efa565b610424610f35565b610424610f48565b610424610f4f565b610497600480360360208110156104ef57600080fd5b503561104d565b6104976004803603602081101561050c57600080fd5b5035600160a060020a031661117c565b6104976004803603602081101561053257600080fd5b50356112d8565b6104976004803603602081101561054f57600080fd5b50356113c9565b6104246114a3565b6104246004803603602081101561057457600080fd5b503561151d565b6104246004803603602081101561059157600080fd5b50356115c8565b610424611834565b61042461183b565b610424611842565b610424611849565b610424611863565b61042461186a565b610424611876565b610424611992565b6104246119b0565b610424611a61565b610424611a68565b610424611a6e565b610424611b2b565b610424611b82565b610424611c40565b610424611c47565b6104976004803603602081101561062e57600080fd5b5035611c4e565b610424611d40565b610424611dbd565b6104976004803603602081101561065b57600080fd5b5035611dc3565b610424611eb5565b6104976004803603602081101561068057600080fd5b5035611ebc565b61043e611fae565b610424611fbd565b610424600480360360208110156106ad57600080fd5b5035611fee565b610424600480360360208110156106ca57600080fd5b5035612070565b6104246122e9565b610424600480360360208110156106ef57600080fd5b50356122f0565b610424612324565b61042461236d565b6104246004803603602081101561071c57600080fd5b5035612379565b6104976004803603602081101561073957600080fd5b503561252c565b610424612677565b61075061267d565b604080519115158252519081900360200190f35b6104246004803603602081101561077a57600080fd5b50356126c6565b610424612716565b61042461271c565b6107506127da565b610497600480360360208110156107af57600080fd5b50356127fb565b610424600480360360208110156107cc57600080fd5b50356128cd565b610497600480360360208110156107e957600080fd5b503561291d565b610424612a15565b6104976004803603602081101561080e57600080fd5b5035600160a060020a0316612a1b565b610424612b29565b610424612b30565b6104246004803603602081101561084457600080fd5b5035612b87565b610424612c7f565b6104976004803603602081101561086957600080fd5b5035612c9a565b610424612d8c565b6104246004803603602081101561088e57600080fd5b5035612da6565b610424600480360360208110156108ab57600080fd5b5035612fc8565b6108ba6130de565b604051808260038111156108ca57fe5b60ff16815260200191505060405180910390f35b610497600480360360208110156108f457600080fd5b5035600160a060020a03166130e8565b6104246131a8565b61042461321f565b610424613225565b61042461322c565b6104246004803603602081101561093a57600080fd5b503561330f565b61042461335f565b61042461336b565b610424613371565b6104246004803603602081101561096f57600080fd5b5035613378565b6104246004803603602081101561098c57600080fd5b50356133e3565b61049761349d565b61049760048036036101608110156109b257600080fd5b50600160a060020a03813581169160208101358216916040820135169060608101359060808101359060a08101359060c08101359060e081013590610100810135906101208101359061014001356134ad565b610424613590565b61042460048036036020811015610a2357600080fd5b5035613596565b61042460048036036020811015610a4057600080fd5b5035613615565b610424613665565b6000545b90565b610104546101009004600160a060020a031690565b609b54600160a060020a031681565b60cf5481565b6000610ab261010a54610aa6600060010154610a9a611876565b9063ffffffff61366c16565b9063ffffffff6136d116565b905090565b6000806101045460ff166003811115610acc57fe5b1415610ada57506000610b89565b6000610ae583612379565b90506000610af1610f35565b6040805160e460020a6303dd0b8f028152600060048201526024810185905260448101839052905191925073__MoCHelperLib__________________________91633dd0b8f091606480820192602092909190829003018186803b158015610b5857600080fd5b505af4158015610b6c573d6000803e3d6000fd5b505050506040513d6020811015610b8257600080fd5b5051925050505b919050565b60006101045460ff166003811115610ba257fe5b1415610bad57610cd9565b6101045460ff16610bbc61349d565b6000610bc66131a8565b905061010d548111610bf557610bda61373e565b61010480546000919060ff19166001835b0217905550610c65565b61010d5481118015610c0a575061010e548111155b15610c235761010480546001919060ff19168280610beb565b61010e5481118015610c3c5750610c38611b2b565b8111155b15610c565761010480546002919060ff1916600183610beb565b610104805460ff191660031790555b6101045460ff166003811115610c7757fe5b826003811115610c8357fe5b14610cd657610104546040517fb9eb8a309bf89f3159b39681f485b6430fec1035b2b457edbcdadcdece888c0b9160ff169080826003811115610cc257fe5b60ff16815260200191505060405180910390a15b50505b565b600080610ce6612324565b90506000610cf2613225565b9050808210610d0657600092505050610a53565b6000610d18828463ffffffff6137f316565b935050505090565b609b54600160a060020a031690565b61010654610109546040805160e060020a639f3d87b502815260f160020a612c1902600482015290516000938493600160a060020a039182169363281acfb8939190921691639f3d87b5916024808301926020929190829003018186803b158015610d9957600080fd5b505afa158015610dad573d6000803e3d6000fd5b505050506040513d6020811015610dc357600080fd5b50516040805160e060020a63ffffffff8516028152600481019290925260f160020a612c19026024830152516044808301926020929190829003018186803b158015610e0e57600080fd5b505afa158015610e22573d6000803e3d6000fd5b505050506040513d6020811015610e3857600080fd5b5051610109546040805160e260020a63222766d902815260f460020a6104330260048201529051929350600092600160a060020a039092169163889d9b6491602480820192602092909190829003018186803b158015610e9757600080fd5b505afa158015610eab573d6000803e3d6000fd5b505050506040513d6020811015610ec157600080fd5b505161010f54909150610eec908290610ee0908563ffffffff6137f316565b9063ffffffff6137f316565b9250505090565b61010e5490565b600080610f05611d40565b905061010f548110610f1b576000915050610a53565b61010f54610f2f908263ffffffff6137f316565b91505090565b6000610ab260f460020a61043302612379565b61010b5481565b600080610f5a6114a3565b90506000610f66611a6e565b90506000610f72611fbd565b90506000610f7e61322c565b905073__MoCHelperLib__________________________631aa6567c6000610fa4610d2f565b8761010e5461010b5487898b6040518963ffffffff1660e060020a028152600401808981526020018881526020018781526020018681526020018581526020018481526020018381526020018281526020019850505050505050505060206040518083038186803b15801561101857600080fd5b505af415801561102c573d6000803e3d6000fd5b505050506040513d602081101561104257600080fd5b505194505050505090565b609b546040805160e060020a63d994d6d50281523360048201529051600160a060020a039092169163d994d6d591602480820192602092909190829003018186803b15801561109b57600080fd5b505afa1580156110af573d6000803e3d6000fd5b505050506040513d60208110156110c557600080fd5b50516040805180820190915260168152600080516020613e9c8339815191526020820152906111755760405160e560020a62461bcd0281526004018080602001828103825283818151815260200191508051906020019080838360005b8381101561113a578181015183820152602001611122565b50505050905090810190601f1680156111675780820380516001836020036101000a031916815260200191505b509250505060405180910390fd5b5061010b55565b609b546040805160e060020a63d994d6d50281523360048201529051600160a060020a039092169163d994d6d591602480820192602092909190829003018186803b1580156111ca57600080fd5b505afa1580156111de573d6000803e3d6000fd5b505050506040513d60208110156111f457600080fd5b50516040805180820190915260168152600080516020613e9c8339815191526020820152906112675760405160e560020a62461bcd02815260206004820181815283516024840152835190928392604490910191908501908083836000831561113a578181015183820152602001611122565b506101048054600160a060020a0383811661010090810261010060a860020a03198416179384905560408051938290048316808552919094049091166020830152825190927ff01c4ba47ffa16ddc86be088e27d891895d6944b4f1b88a7d30fedb0296de55c928290030190a15050565b609b546040805160e060020a63d994d6d50281523360048201529051600160a060020a039092169163d994d6d591602480820192602092909190829003018186803b15801561132657600080fd5b505afa15801561133a573d6000803e3d6000fd5b505050506040513d602081101561135057600080fd5b50516040805180820190915260168152600080516020613e9c8339815191526020820152906113c35760405160e560020a62461bcd02815260206004820181815283516024840152835190928392604490910191908501908083836000831561113a578181015183820152602001611122565b5060d155565b6068546040805160e060020a633af32abf028152336004820181905291519192600160a060020a031691633af32abf91602480820192602092909190829003018186803b15801561141957600080fd5b505afa15801561142d573d6000803e3d6000fd5b505050506040513d602081101561144357600080fd5b5051611487576040805160e560020a62461bcd02815260206004820152601a6024820152600080516020613e4e833981519152604482015290519081900360640190fd5b61010f5461149b908363ffffffff6137f316565b61010f555050565b610107546040805160e060020a6318160ddd0281529051600092600160a060020a0316916318160ddd916004808301926020929190829003018186803b1580156114ec57600080fd5b505afa158015611500573d6000803e3d6000fd5b505050506040513d602081101561151657600080fd5b5051905090565b60008061152983612fc8565b905073__MoCHelperLib__________________________63716d1a69600083611550610f35565b6040518463ffffffff1660e060020a02815260040180848152602001838152602001828152602001935050505060206040518083038186803b15801561159557600080fd5b505af41580156115a9573d6000803e3d6000fd5b505050506040513d60208110156115bf57600080fd5b50519392505050565b610109546040805160e260020a633e62d0f10281526004810184905290516000928392600160a060020a039091169163f98b43c491602480820192602092909190829003018186803b15801561161d57600080fd5b505afa158015611631573d6000803e3d6000fd5b505050506040513d602081101561164757600080fd5b5051610109546040805160e160020a63709c6385028152600481018790529051929350600092600160a060020a039092169163e138c70a91602480820192602092909190829003018186803b15801561169f57600080fd5b505afa1580156116b3573d6000803e3d6000fd5b505050506040513d60208110156116c957600080fd5b5051905060006116d7611fbd565b610109546040805160e060020a63b398eb21028152600481018990529051929350600092600160a060020a039092169163b398eb2191602480820192602092909190829003018186803b15801561172d57600080fd5b505afa158015611741573d6000803e3d6000fd5b505050506040513d602081101561175757600080fd5b505161010b5490915073__MoCHelperLib__________________________9063169092bf9060009087908590889061178d61322c565b611795611849565b8a6040518963ffffffff1660e060020a028152600401808981526020018881526020018781526020018681526020018581526020018481526020018381526020018281526020019850505050505050505060206040518083038186803b1580156117fe57600080fd5b505af4158015611812573d6000803e3d6000fd5b505050506040513d602081101561182857600080fd5b50519695505050505050565b6101105490565b61010c5481565b61010a5490565b6000610ab261185661322c565b61185e612a15565b613853565b61010c5490565b60f160020a612c190281565b60004361010560009054906101000a9004600160a060020a0316600160a060020a0316637bac9c7c6040518163ffffffff1660e060020a02815260040160206040518083038186803b1580156118cb57600080fd5b505afa1580156118df573d6000803e3d6000fd5b505050506040513d60208110156118f557600080fd5b50511161190457506000610a53565b610ab24361010560009054906101000a9004600160a060020a0316600160a060020a0316637bac9c7c6040518163ffffffff1660e060020a02815260040160206040518083038186803b15801561195a57600080fd5b505afa15801561196e573d6000803e3d6000fd5b505050506040513d602081101561198457600080fd5b50519063ffffffff6137f316565b6000610ab261199f61271c565b61185e60f460020a610433026115c8565b6000806119bb610f35565b905060006119c7611a6e565b6040805160e260020a632d4f109b028152600060048201526024810185905260448101839052905191925073__MoCHelperLib__________________________9163b53c426c91606480820192602092909190829003018186803b158015611a2e57600080fd5b505af4158015611a42573d6000803e3d6000fd5b505050506040513d6020811015611a5857600080fd5b50519250505090565b6101115481565b60d15490565b600080611a796131a8565b61010c5461010d5461010e546040805160e060020a635f5ba87f02815260006004820152602481019490945260448401929092526064830152608482018390525191925073__MoCHelperLib__________________________91635f5ba87f9160a480820192602092909190829003018186803b158015611af957600080fd5b505af4158015611b0d573d6000803e3d6000fd5b505050506040513d6020811015611b2357600080fd5b505191505090565b610109546040805160e060020a63b398eb2102815260f460020a6104330260048201529051600092600160a060020a03169163b398eb21916024808301926020929190829003018186803b1580156114ec57600080fd5b600073__MoCHelperLib__________________________63ba036a2982611ba7610d2f565b611baf611b2b565b611bb76114a3565b61010b54611bc361322c565b611bcb611849565b6040518863ffffffff1660e060020a0281526004018088815260200187815260200186815260200185815260200184815260200183815260200182815260200197505050505050505060206040518083038186803b158015611c2c57600080fd5b505af4158015611500573d6000803e3d6000fd5b61010a5481565b61010f5481565b609b546040805160e060020a63d994d6d50281523360048201529051600160a060020a039092169163d994d6d591602480820192602092909190829003018186803b158015611c9c57600080fd5b505afa158015611cb0573d6000803e3d6000fd5b505050506040513d6020811015611cc657600080fd5b50516040805180820190915260168152600080516020613e9c833981519152602082015290611d395760405160e560020a62461bcd02815260206004820181815283516024840152835190928392604490910191908501908083836000831561113a578181015183820152602001611122565b5061011155565b600073__MoCHelperLib__________________________630fa79b3582611d6561322c565b611d6d6114a3565b61010b546040518563ffffffff1660e060020a0281526004018085815260200184815260200183815260200182815260200194505050505060206040518083038186803b158015611c2c57600080fd5b60d15481565b609b546040805160e060020a63d994d6d50281523360048201529051600160a060020a039092169163d994d6d591602480820192602092909190829003018186803b158015611e1157600080fd5b505afa158015611e25573d6000803e3d6000fd5b505050506040513d6020811015611e3b57600080fd5b50516040805180820190915260168152600080516020613e9c833981519152602082015290611eae5760405160e560020a62461bcd02815260206004820181815283516024840152835190928392604490910191908501908083836000831561113a578181015183820152602001611122565b5061010e55565b61010d5490565b609b546040805160e060020a63d994d6d50281523360048201529051600160a060020a039092169163d994d6d591602480820192602092909190829003018186803b158015611f0a57600080fd5b505afa158015611f1e573d6000803e3d6000fd5b505050506040513d6020811015611f3457600080fd5b50516040805180820190915260168152600080516020613e9c833981519152602082015290611fa75760405160e560020a62461bcd02815260206004820181815283516024840152835190928392604490910191908501908083836000831561113a578181015183820152602001611122565b5061010d55565b606854600160a060020a031681565b600080611fc8610f35565b90506000611fd461322c565b600054909150610eec90610aa6838563ffffffff61366c16565b610109546040805160e260020a63222766d9028152600481018490529051600092600160a060020a03169163889d9b64916024808301926020929190829003018186803b15801561203e57600080fd5b505afa158015612052573d6000803e3d6000fd5b505050506040513d602081101561206857600080fd5b505192915050565b610109546040805160e360020a630c677451028152600481018490529051600092600160a060020a03169163633ba288916024808301926020929190829003018186803b1580156120c057600080fd5b505afa1580156120d4573d6000803e3d6000fd5b505050506040513d60208110156120ea57600080fd5b50511580156121715750610109546040805160e060020a63a9e61b4f028152600481018590529051600160a060020a039092169163a9e61b4f91602480820192602092909190829003018186803b15801561214457600080fd5b505afa158015612158573d6000803e3d6000fd5b505050506040513d602081101561216e57600080fd5b50515b156121f957610109546040805160e060020a63b398eb21028152600481018590529051600160a060020a039092169163b398eb2191602480820192602092909190829003018186803b1580156121c657600080fd5b505afa1580156121da573d6000803e3d6000fd5b505050506040513d60208110156121f057600080fd5b50519050610b89565b610109546040805160e260020a633e62d0f1028152600481018590529051600092600160a060020a03169163f98b43c4916024808301926020929190829003018186803b15801561224957600080fd5b505afa15801561225d573d6000803e3d6000fd5b505050506040513d602081101561227357600080fd5b50519050600061228284612b87565b6040805160e260020a63386c0d21028152600060048201526024810185905260448101839052905191925073__MoCHelperLib__________________________9163e1b0348491606480820192602092909190829003018186803b158015610b5857600080fd5b61010b5490565b6000806122fc83612fc8565b905073__MoCHelperLib__________________________63716d1a6960008361155087612379565b610108546040805160e060020a6318160ddd0281529051600092600160a060020a0316916318160ddd916004808301926020929190829003018186803b1580156114ec57600080fd5b670de0b6b3a764000081565b610109546040805160e060020a639f3d87b50281526004810184905290516000928392600160a060020a0390911691639f3d87b591602480820192602092909190829003018186803b1580156123ce57600080fd5b505afa1580156123e2573d6000803e3d6000fd5b505050506040513d60208110156123f857600080fd5b50519050600061240784612b87565b610109546040805160e260020a633e62d0f1028152600481018890529051929350600092600160a060020a039092169163f98b43c491602480820192602092909190829003018186803b15801561245d57600080fd5b505afa158015612471573d6000803e3d6000fd5b505050506040513d602081101561248757600080fd5b50516040805160e260020a63386c74cd02815260006004820152602481018390526044810185905260648101869052905191925073__MoCHelperLib__________________________9163e1b1d33491608480820192602092909190829003018186803b1580156124f757600080fd5b505af415801561250b573d6000803e3d6000fd5b505050506040513d602081101561252157600080fd5b505195945050505050565b609b546040805160e060020a63d994d6d50281523360048201529051600160a060020a039092169163d994d6d591602480820192602092909190829003018186803b15801561257a57600080fd5b505afa15801561258e573d6000803e3d6000fd5b505050506040513d60208110156125a457600080fd5b50516040805180820190915260168152600080516020613e9c8339815191526020820152906126175760405160e560020a62461bcd02815260206004820181815283516024840152835190928392604490910191908501908083836000831561113a578181015183820152602001611122565b506002548110612671576040805160e560020a62461bcd02815260206004820152601f60248201527f72617465206973206c6f776572207468616e206d6f63507265636973696f6e00604482015290519081900360640190fd5b61010c55565b60d05490565b6000806126886131a8565b905060006101045460ff16600381111561269e57fe5b141580156126af575061010d548111155b156126be576001915050610a53565b600091505090565b610109546040805160e060020a639f3d87b5028152600481018490529051600092600160a060020a031691639f3d87b5916024808301926020929190829003018186803b15801561203e57600080fd5b60d05481565b600080612727611fbd565b905073__MoCHelperLib__________________________63169092bf600061274d610d2f565b612755611b2b565b61275d6114a3565b61010b5461276961322c565b612771611849565b896040518963ffffffff1660e060020a028152600401808981526020018881526020018781526020018681526020018581526020018481526020018381526020018281526020019850505050505050505060206040518083038186803b158015611af957600080fd5b60006127f360d15460d05461386990919063ffffffff16565b431015905090565b6068546040805160e060020a633af32abf028152336004820181905291519192600160a060020a031691633af32abf91602480820192602092909190829003018186803b15801561284b57600080fd5b505afa15801561285f573d6000803e3d6000fd5b505050506040513d602081101561287557600080fd5b50516128b9576040805160e560020a62461bcd02815260206004820152601a6024820152600080516020613e4e833981519152604482015290519081900360640190fd5b61010f5461149b908363ffffffff61386916565b610109546040805160e060020a63b398eb21028152600481018490529051600092600160a060020a03169163b398eb21916024808301926020929190829003018186803b15801561203e57600080fd5b609b546040805160e060020a63d994d6d50281523360048201529051600160a060020a039092169163d994d6d591602480820192602092909190829003018186803b15801561296b57600080fd5b505afa15801561297f573d6000803e3d6000fd5b505050506040513d602081101561299557600080fd5b50516040805180820190915260168152600080516020613e9c833981519152602082015290612a085760405160e560020a62461bcd02815260206004820181815283516024840152835190928392604490910191908501908083836000831561113a578181015183820152602001611122565b50612a12816138c6565b50565b60ce5490565b609b546040805160e060020a63d994d6d50281523360048201529051600160a060020a039092169163d994d6d591602480820192602092909190829003018186803b158015612a6957600080fd5b505afa158015612a7d573d6000803e3d6000fd5b505050506040513d6020811015612a9357600080fd5b50516040805180820190915260168152600080516020613e9c833981519152602082015290612b065760405160e560020a62461bcd02815260206004820181815283516024840152835190928392604490910191908501908083836000831561113a578181015183820152602001611122565b50609b8054600160a060020a031916600160a060020a0392909216919091179055565b6101105481565b610109546040805160e160020a63709c638502815260f460020a6104330260048201529051600092600160a060020a03169163e138c70a916024808301926020929190829003018186803b1580156114ec57600080fd5b610109546040805160e160020a63709c63850281526004810184905290516000928392600160a060020a039091169163e138c70a91602480820192602092909190829003018186803b158015612bdc57600080fd5b505afa158015612bf0573d6000803e3d6000fd5b505050506040513d6020811015612c0657600080fd5b5051905073__MoCHelperLib__________________________630fa79b356000612c2e61322c565b8461010b546040518563ffffffff1660e060020a0281526004018085815260200184815260200183815260200182815260200194505050505060206040518083038186803b15801561159557600080fd5b6000610ab2612c9560f460020a6104330261330f565b613596565b609b546040805160e060020a63d994d6d50281523360048201529051600160a060020a039092169163d994d6d591602480820192602092909190829003018186803b158015612ce857600080fd5b505afa158015612cfc573d6000803e3d6000fd5b505050506040513d6020811015612d1257600080fd5b50516040805180820190915260168152600080516020613e9c833981519152602082015290612d855760405160e560020a62461bcd02815260206004820181815283516024840152835190928392604490910191908501908083836000831561113a578181015183820152602001611122565b5061010a55565b6000610ab2612d99611b82565b61185e60f460020a610433025b610109546040805160e260020a633e62d0f10281526004810184905290516000928392600160a060020a039091169163f98b43c491602480820192602092909190829003018186803b158015612dfb57600080fd5b505afa158015612e0f573d6000803e3d6000fd5b505050506040513d6020811015612e2557600080fd5b5051610109546040805160e160020a63709c6385028152600481018790529051929350600092600160a060020a039092169163e138c70a91602480820192602092909190829003018186803b158015612e7d57600080fd5b505afa158015612e91573d6000803e3d6000fd5b505050506040513d6020811015612ea757600080fd5b5051610109546040805160e060020a63b398eb21028152600481018890529051929350600092600160a060020a039092169163b398eb2191602480820192602092909190829003018186803b158015612eff57600080fd5b505afa158015612f13573d6000803e3d6000fd5b505050506040513d6020811015612f2957600080fd5b505161010b5490915073__MoCHelperLib__________________________9063ba036a2990600090869085908790612f5f61322c565b612f67611849565b6040518863ffffffff1660e060020a0281526004018088815260200187815260200186815260200185815260200184815260200183815260200182815260200197505050505050505060206040518083038186803b1580156124f757600080fd5b610109546040805160e160020a63709c638502815260f460020a61043302600482015290516000928392600160a060020a039091169163e138c70a91602480820192602092909190829003018186803b15801561302457600080fd5b505afa158015613038573d6000803e3d6000fd5b505050506040513d602081101561304e57600080fd5b50519050600061305d84613378565b9050600073__MoCHelperLib__________________________63069f62dc90918461010b5461308a61322c565b866040518663ffffffff1660e060020a028152600401808681526020018581526020018481526020018381526020018281526020019550505050505060206040518083038186803b158015610b5857600080fd5b6101045460ff1681565b603554610100900460ff16806131015750613101613929565b8061310f575060355460ff16155b61314d5760405160e560020a62461bcd02815260040180806020018281038252602e815260200180613e6e602e913960400191505060405180910390fd5b603554610100900460ff16158015613178576035805460ff1961ff0019909116610100171660011790555b609b8054600160a060020a031916600160a060020a0384161790558015610cd6576035805461ff00191690555050565b6000806131b3611d40565b905073__MoCHelperLib__________________________63e1b0348460006131d9610d2f565b846040518463ffffffff1660e060020a02815260040180848152602001838152602001828152602001935050505060206040518083038186803b158015611af957600080fd5b60cf5490565b6101115490565b600080600061010460019054906101000a9004600160a060020a0316600160a060020a03166359e02dd76040518163ffffffff1660e060020a028152600401604080518083038186803b15801561328257600080fd5b505afa158015613296573d6000803e3d6000fd5b505050506040513d60408110156132ac57600080fd5b508051602090910151909250905080613309576040805160e560020a62461bcd0281526020600482015260146024820152606060020a734f7261636c652068617665206e6f20507269636502604482015290519081900360640190fd5b50905090565b610109546040805160e160020a63709c6385028152600481018490529051600092600160a060020a03169163e138c70a916024808301926020929190829003018186803b15801561203e57600080fd5b60f460020a6104330281565b60015490565b61010e5481565b60008061338483612070565b9050600073__MoCHelperLib__________________________63df3992079091836040518363ffffffff1660e060020a028152600401808381526020018281526020019250505060206040518083038186803b15801561159557600080fd5b610109546040805160e260020a633e62d0f10281526004810184905290516000928392600160a060020a039091169163f98b43c491602480820192602092909190829003018186803b15801561343857600080fd5b505afa15801561344c573d6000803e3d6000fd5b505050506040513d602081101561346257600080fd5b50519050600061347184612b87565b905081811061348557600092505050610b89565b613495828263ffffffff6137f316565b949350505050565b610cd96134a861322c565b61392f565b603554610100900460ff16806134c657506134c6613929565b806134d4575060355460ff16155b6135125760405160e560020a62461bcd02815260040180806020018281038252602e815260200180613e6e602e913960400191505060405180910390fd5b603554610100900460ff1615801561353d576035805460ff1961ff0019909116610100171660011790555b6135456139d9565b61354e8c613a0b565b613556613acb565b6135658b8b8b8b8b8b88613d8e565b613570858585613df4565b8015613582576035805461ff00191690555b505050505050505050505050565b60025490565b600073__MoCHelperLib__________________________637b5c24eb82846135bc6114a3565b6040518463ffffffff1660e060020a02815260040180848152602001838152602001828152602001935050505060206040518083038186803b15801561360157600080fd5b505af4158015612052573d6000803e3d6000fd5b610109546040805160e260020a633e62d0f1028152600481018490529051600092600160a060020a03169163f98b43c4916024808301926020929190829003018186803b15801561203e57600080fd5b61010d5481565b60008261367b575060006136cb565b8282028284828161368857fe5b04146136c85760405160e560020a62461bcd028152600401808060200182810382526021815260200180613e2d6021913960400191505060405180910390fd5b90505b92915050565b600080821161372a576040805160e560020a62461bcd02815260206004820152601a60248201527f536166654d6174683a206469766973696f6e206279207a65726f000000000000604482015290519081900360640190fd5b600082848161373557fe5b04949350505050565b600061375461374b611d40565b61010f54613853565b905073__MoCHelperLib__________________________630a4be82360008361377b6114a3565b6040518463ffffffff1660e060020a02815260040180848152602001838152602001828152602001935050505060206040518083038186803b1580156137c057600080fd5b505af41580156137d4573d6000803e3d6000fd5b505050506040513d60208110156137ea57600080fd5b50516101105550565b60008282111561384d576040805160e560020a62461bcd02815260206004820152601e60248201527f536166654d6174683a207375627472616374696f6e206f766572666c6f770000604482015290519081900360640190fd5b50900390565b600081831061386257816136c8565b5090919050565b6000828201838110156136c8576040805160e560020a62461bcd02815260206004820152601b60248201527f536166654d6174683a206164646974696f6e206f766572666c6f770000000000604482015290519081900360640190fd5b670de0b6b3a7640000811115613924576040805160e560020a62461bcd0281526020600482015260186024820152604160020a7724b73b30b634b21039b6b7b7ba3434b733903330b1ba37b902604482015290519081900360640190fd5b60cf55565b303b1590565b6139376127da565b15612a1257600061395360cf548361366c90919063ffffffff16565b9050600061398d670de0b6b3a7640000610aa684613981613972613e0d565b60ce549063ffffffff61366c16565b9063ffffffff61386916565b4360d05560ce819055604080518581526020810183905281519293507f8cf60c7db6ef7d88fad2695a615a151ecebf27045d4887b69fdf5ce5b46fc619929081900390910190a1505050565b60408051606081018252670de0b6b3a76400008082526001602083018190529190920182905260008290558055600255565b603554610100900460ff1680613a245750613a24613929565b80613a32575060355460ff16155b613a705760405160e560020a62461bcd02815260040180806020018281038252602e815260200180613e6e602e913960400191505060405180910390fd5b603554610100900460ff16158015613a9b576035805460ff1961ff0019909116610100171660011790555b60688054600160a060020a031916600160a060020a0384161790558015610cd6576035805461ff00191690555050565b606860009054906101000a9004600160a060020a0316600160a060020a031663b29ead6c6040518163ffffffff1660e060020a02815260040160206040518083038186803b158015613b1c57600080fd5b505afa158015613b30573d6000803e3d6000fd5b505050506040513d6020811015613b4657600080fd5b50516101058054600160a060020a031916600160a060020a039283161790556068546040805160e060020a63a9d75b2b0281529051919092169163a9d75b2b916004808301926020929190829003018186803b158015613ba557600080fd5b505afa158015613bb9573d6000803e3d6000fd5b505050506040513d6020811015613bcf57600080fd5b50516101078054600160a060020a031916600160a060020a039283161790556068546040805160e160020a634d9abbbf02815290519190921691639b35777e916004808301926020929190829003018186803b158015613c2e57600080fd5b505afa158015613c42573d6000803e3d6000fd5b505050506040513d6020811015613c5857600080fd5b50516101088054600160a060020a031916600160a060020a039283161790556068546040805160e060020a63360b41b10281529051919092169163360b41b1916004808301926020929190829003018186803b158015613cb757600080fd5b505afa158015613ccb573d6000803e3d6000fd5b505050506040513d6020811015613ce157600080fd5b50516101098054600160a060020a031916600160a060020a039283161790556068546040805160e160020a63679ab6ed0281529051919092169163cf356dda916004808301926020929190829003018186803b158015613d4057600080fd5b505afa158015613d54573d6000803e3d6000fd5b505050506040513d6020811015613d6a57600080fd5b50516101068054600160a060020a031916600160a060020a03909216919091179055565b61010d9490945561010e9290925561010c5561010a55609b8054600160a060020a031916600160a060020a03948516179055610104805461010060a860020a03191661010093909416929092029290921760ff19166003179055600161010b5561011155565b613dfd826138c6565b4360d05560ce929092555060d155565b6000610ab260cf54670de0b6b3a76400006137f390919063ffffffff1656fe536166654d6174683a206d756c7469706c69636174696f6e206f766572666c6f7741646472657373206973206e6f742077686974656c6973746564000000000000436f6e747261637420696e7374616e63652068617320616c7265616479206265656e20696e697469616c697a65646e6f745f617574686f72697a65645f6368616e67657200000000000000000000a165627a7a72305820bb40d5aa7749dc86af3f159bf505855761cfbcfb86b237a42589e1e9cb4ace030029",
  "source": "pragma solidity 0.5.8;\n\nimport \"openzeppelin-solidity/contracts/math/Math.sol\";\nimport \"./interface/PriceProvider.sol\";\nimport \"./MoCEMACalculator.sol\";\nimport \"./base/MoCBase.sol\";\nimport \"./MoCLibConnection.sol\";\nimport \"./MoCRiskProxManager.sol\";\nimport \"./token/StableToken.sol\";\nimport \"./token/RiskProToken.sol\";\nimport \"./MoCSettlement.sol\";\nimport \"moc-governance/contracts/Governance/Governed.sol\";\nimport \"moc-governance/contracts/Governance/IGovernor.sol\";\n\ncontract MoCState is MoCLibConnection, MoCBase, MoCEMACalculator {\n  using Math for uint256;\n  using SafeMath for uint256;\n\n  // This is the current state.\n  States public state;\n\n  event StateTransition(States newState);\n  event PriceProviderUpdated(address oldAddress, address newAddress);\n  // Contracts\n  PriceProvider internal priceProvider;\n  MoCSettlement internal mocSettlement;\n  MoCConverter internal mocConverter;\n  StableToken internal stableToken;\n  RiskProToken internal riskProToken;\n  MoCRiskProxManager internal riskProxManager;\n\n  // One Day based on 15 seconds blocks\n  uint256 public dayBlockSpan;\n  // Relation between StableToken and dollar\n  uint256 public peg;\n  // RiskPro max discount rate\n  // Reflects the discount spot rate at Liquidation level\n  uint256 public riskProMaxDiscountRate;\n  // Liquidation limit\n  // [using mocPrecision]\n  uint256 public liq;\n  // RiskPro with discount limit\n  // [using mocPrecision]\n  uint256 public utpdu;\n  // Complete amount reserves in the system\n  uint256 public reserves;\n  // Price to use at stableToken redemption at\n  // liquidation event\n  uint256 public liquidationPrice;\n  // Max value posible to mint of RiskPro\n  uint256 public maxMintRiskPro;\n\n  function initialize(\n    address connectorAddress,\n    address _governor,\n    address _priceProvider,\n    uint256 _liq,\n    uint256 _utpdu,\n    uint256 _maxDiscRate,\n    uint256 _dayBlockSpan,\n    uint256 _ema,\n    uint256 _smoothFactor,\n    uint256 _emaBlockSpan,\n    uint256 _maxMintRiskPro\n  ) public initializer {\n    initializePrecisions();\n    initializeBase(connectorAddress);\n    initializeContracts();\n    initializeValues(_governor, _priceProvider,_liq, _utpdu, _maxDiscRate, _dayBlockSpan, _maxMintRiskPro);\n    initializeMovingAverage(_ema, _smoothFactor, _emaBlockSpan);\n  }\n\n  /**\n  * @param rate Discount rate at liquidation level [using mocPrecision]\n  **/\n  function setMaxDiscountRate(uint256 rate) public onlyAuthorizedChanger() {\n    require(rate < mocLibConfig.mocPrecision, \"rate is lower than mocPrecision\");\n\n    riskProMaxDiscountRate = rate;\n  }\n\n    /**\n   * @dev return the value of the RiskPro max discount rate configuration param\n   * @return riskProMaxDiscountRate RiskPro max discount rate\n   */\n  function getMaxDiscountRate() public view returns(uint256) {\n    return riskProMaxDiscountRate;\n  }\n\n  /**\n  * @dev Defines how many blocks there are in a day\n  * @param blockSpan blocks there are in a day\n  **/\n  function setDayBlockSpan(uint256 blockSpan) public onlyAuthorizedChanger() {\n    dayBlockSpan = blockSpan;\n  }\n\n  /**\n  * @dev Sets a new PriceProvider contract\n  * @param priceProviderAddress blocks there are in a day\n  **/\n  function setPriceProvider(address priceProviderAddress) public onlyAuthorizedChanger() {\n    address oldPriceProviderAddress = address(priceProvider);\n    priceProvider = PriceProvider(priceProviderAddress);\n    emit PriceProviderUpdated(oldPriceProviderAddress, address(priceProvider));\n  }\n\n  /**\n  * @dev Gets the PriceProviderAddress\n  * @return priceProvider blocks there are in a day\n  **/\n  function getPriceProvider() public view returns(address) {\n    return address(priceProvider);\n  }\n  /**\n   * @dev Gets how many blocks there are in a day\n   * @return blocks there are in a day\n   */\n  function getDayBlockSpan() public view returns(uint256) {\n    return dayBlockSpan;\n  }\n  /******STATE MACHINE*********/\n\n  enum States {\n    // State 0\n    Liquidated,\n    // State 1\n    RiskProDiscount,\n    // State 2\n    BelowCobj,\n    // State 3\n    AboveCobj\n  }\n\n/**\n  * @dev Subtract the reserve amount passed by parameter to the reserves total\n  * @param amount Amount that will be subtract to reserves\n  */\n  function substractFromReserves(uint256 amount) public onlyWhitelisted(msg.sender) {\n    reserves = reserves.sub(amount);\n  }\n\n  /**\n  * @dev Add the reserve amount passed by parameter to the reserves total\n  * @param amount Amount that will be added to reserves\n  */\n  function addToReserves(uint256 amount) public onlyWhitelisted(msg.sender) {\n    reserves = reserves.add(amount);\n  }\n\n  /**\n    @dev All RiskPros in circulation\n   */\n  function riskProTotalSupply() public view returns(uint256) {\n    return riskProToken.totalSupply();\n  }\n\n  /**\n    @dev All stableTokens in circulation\n   */\n  function stableTokenTotalSupply() public view returns(uint256) {\n    return stableToken.totalSupply();\n  }\n\n  /**\n    @dev Target coverage for complete system\n   */\n  function cobj() public view returns(uint256) {\n    return riskProxManager.getBucketCobj(BUCKET_C0);\n  }\n\n  /**\n    * @dev Amount of ReserveTokens in the system excluding\n    * RiskProx values and interests holdings\n    */\n  function collateralReserves() public view returns(uint256) {\n    uint256 resTokensInRiskProx = mocConverter.riskProxToResToken(riskProxManager.getBucketNRiskPro(BUCKET_X2),BUCKET_X2);\n    uint256 resTokensInBag = riskProxManager.getInrateBag(BUCKET_C0);\n\n    return reserves.sub(resTokensInRiskProx).sub(resTokensInBag);\n  }\n\n  /** @dev GLOBAL Coverage\n    * @return coverage [using mocPrecision].\n    */\n  function globalCoverage() public view returns(uint256) {\n    uint256 lB = globalLockedReserveTokens();\n\n    return mocLibConfig.coverage(collateralReserves(), lB);\n  }\n\n  /**\n  * @dev BUCKET lockedReserveTokens\n  * @param bucket Name of the bucket used\n  * @return lockedReserveTokens amount [using reservePrecision].\n  */\n  function lockedReserveTokens(bytes32 bucket) public view returns(uint256) {\n    uint256 nStableToken = riskProxManager.getBucketNStableToken(bucket);\n\n    return mocLibConfig.lockedReserveTokens(getReserveTokenPrice(), nStableToken, peg);\n  }\n\n  /**\n  * @dev Gets ReserveTokens in RiskPro within specified bucket\n  * @param bucket Name of the bucket used\n  * @return ReserveToken amount of RiskPro in Bucket [using reservePrecision].\n  */\n  function getResTokensInRiskPro(bytes32 bucket) public view returns(uint256) {\n    uint256 nReserve = riskProxManager.getBucketNReserve(bucket);\n    uint256 lB = lockedReserveTokens(bucket);\n\n    if ( lB >= nReserve ){\n      return 0;\n    }\n\n    return nReserve.sub(lB);\n  }\n\n  /**\n  * @dev Gets the ReserveTokens in the contract that not corresponds\n    to StableToken collateral\n  * @return ReserveTokens remainder [using reservePrecision].\n  */\n  function getReservesRemainder() public view returns(uint256) {\n    uint256 lB = globalLockedReserveTokens();\n\n    if ( lB >= reserves ){\n      return 0;\n    }\n\n    return reserves.sub(lB);\n  }\n\n  /**\n  * @dev BUCKET Coverage\n  * @param bucket Name of the bucket used\n  * @return coverage [using mocPrecision]\n  */\n  function coverage(bytes32 bucket) public view returns(uint256) {\n    if (!riskProxManager.isBucketBase(bucket) && riskProxManager.isBucketEmpty(bucket)) {\n      return riskProxManager.getBucketCobj(bucket);\n    }\n\n    uint256 nReserve = riskProxManager.getBucketNReserve(bucket);\n    uint256 lB = lockedReserveTokens(bucket);\n\n    return mocLibConfig.coverage(nReserve, lB);\n  }\n\n    /**\n  * @dev Abundance ratio, receives tha amount of stableToken to use the value of stableToken0 and StableToken total supply\n  * @return abundance ratio [using mocPrecision]\n  */\n  function abundanceRatio(uint256 stableToken0) public view returns(uint256) {\n    return mocLibConfig.abundanceRatio(stableToken0, stableTokenTotalSupply());\n  }\n\n  /**\n  * @dev Relation between stableTokens in bucket 0 and StableToken total supply\n  * @return abundance ratio [using mocPrecision]\n  */\n  function currentAbundanceRatio() public view returns(uint256) {\n    return abundanceRatio(getBucketNStableToken(BUCKET_C0));\n  }\n\n  /**\n  * @dev BUCKET Leverage\n  * @param bucket Name of the bucket used\n  * @return leverage [using mocPrecision]\n  */\n  function leverage(bytes32 bucket) public view returns(uint256) {\n    uint256 cov = coverage(bucket);\n\n    return mocLibConfig.leverageFromCoverage(cov);\n  }\n\n  /**\n  * @dev GLOBAL maxStableToken\n  * @return maxStableToken to issue [using mocPrecision]\n  */\n  function globalMaxStableToken() public view returns(uint256) {\n    return mocLibConfig.maxStableToken(collateralReserves(), cobj(), stableTokenTotalSupply(), peg, getReserveTokenPrice(), getBcons());\n  }\n\n  /**\n  * @return amount of stableTokens in bucket 0, that can be redeemed outside of settlement [using mocPrecision]\n  */\n  function freeStableToken() public view returns(uint256) {\n    return riskProxManager.getBucketNStableToken(BUCKET_C0);\n  }\n\n  /**\n  * @dev BUCKET maxStableToken\n  * @return maxStableToken to issue [using mocPrecision]\n  */\n  function maxStableToken(bytes32 bucket) public view returns(uint256) {\n    uint256 nReserve = riskProxManager.getBucketNReserve(bucket);\n    uint256 nStableToken = riskProxManager.getBucketNStableToken(bucket);\n    uint256 bktCobj = riskProxManager.getBucketCobj(bucket);\n\n    return mocLibConfig.maxStableToken(nReserve, bktCobj, nStableToken, peg, getReserveTokenPrice(), getBcons());\n  }\n\n  /**\n  * @dev GLOBAL maxRiskPro\n  * @return maxRiskPro for redeem [using mocPrecision].\n  */\n  function globalMaxRiskPro() public view returns(uint256) {\n    uint256 riskProPrice = riskProUsdPrice();\n\n    return mocLibConfig.maxRiskPro(\n      collateralReserves(), cobj(), stableTokenTotalSupply(), peg, getReserveTokenPrice(), getBcons(), riskProPrice\n    );\n  }\n\n  /**\n  * @dev ABSOLUTE maxStableToken\n  * @return maxStableToken to issue [using mocPrecision]\n  */\n  function absoluteMaxStableToken() public view returns(uint256) {\n    return Math.min(globalMaxStableToken(), maxStableToken(BUCKET_C0));\n  }\n\n  /** @dev BUCKET maxRiskPro to redeem / mint\n      @param bucket Name of the bucket used\n    * @return maxRiskPro for redeem [using mocPrecision].\n    */\n  function maxRiskPro(bytes32 bucket) public view returns(uint256) {\n    uint256 nReserve = riskProxManager.getBucketNReserve(bucket);\n    uint256 nStableToken = riskProxManager.getBucketNStableToken(bucket);\n    uint256 riskProPrice = riskProUsdPrice();\n    uint256 bktCobj = riskProxManager.getBucketCobj(bucket);\n\n    return mocLibConfig.maxRiskPro(\n      nReserve, bktCobj, nStableToken, peg, getReserveTokenPrice(), getBcons(), riskProPrice\n    );\n  }\n\n /**\n  * @dev GLOBAL max riskProx to mint\n  * @param bucket Name of the bucket used\n  * @return maxRiskProx [using mocPrecision]\n  */\n  function maxRiskProx(bytes32 bucket) public view returns(uint256) {\n    uint256 maxResTokens = maxRiskProxResTokenValue(bucket);\n\n    return mocLibConfig.maxRiskProWithResTokens(maxResTokens, bucketRiskProTecPrice(bucket));\n  }\n\n  /**\n  * @dev GLOBAL max riskProx to mint\n  * @param bucket Name of the bucket used\n  * @return maxRiskProx ReserveTokens value to mint [using reservePrecision]\n  */\n  function maxRiskProxResTokenValue(bytes32 bucket) public view returns(uint256) {\n    uint256 nStableToken0 = riskProxManager.getBucketNStableToken(BUCKET_C0);\n    uint256 bucketLev = leverage(bucket);\n\n    return mocLibConfig.maxRiskProxResTokenValue(nStableToken0, peg, getReserveTokenPrice(), bucketLev);\n  }\n\n  /** @dev ABSOLUTE maxRiskPro\n  * @return maxStableToken to issue [using mocPrecision].\n  */\n  function absoluteMaxRiskPro() public view returns(uint256) {\n    return Math.min(globalMaxRiskPro(), maxRiskPro(BUCKET_C0));\n  }\n\n  /**\n  * @dev DISCOUNT maxRiskPro\n  * @return maxRiskPro for mint with discount [using mocPrecision]\n  */\n  function maxRiskProWithDiscount() public view returns(uint256) {\n    uint256 nStableToken = stableTokenTotalSupply();\n    uint256 riskProSpotDiscount = riskProSpotDiscountRate();\n    uint256 riskProPrice = riskProUsdPrice();\n    uint256 reservePrice = getReserveTokenPrice();\n\n    return mocLibConfig.maxRiskProWithDiscount(collateralReserves(), nStableToken, utpdu, peg, reservePrice, riskProPrice,\n      riskProSpotDiscount);\n  }\n\n  /**\n  * @dev GLOBAL lockedReserveTokens\n  * @return lockedReserveTokens amount [using reservePrecision].\n  */\n  function globalLockedReserveTokens() public view returns(uint256) {\n    return mocLibConfig.lockedReserveTokens(getReserveTokenPrice(), stableTokenTotalSupply(), peg);\n  }\n\n  /**\n  * @dev ReserveTokens price of RiskPro\n  * @return the RiskPro Tec Price [using reservePrecision].\n  */\n  function riskProTecPrice() public view returns(uint256) {\n    return bucketRiskProTecPrice(BUCKET_C0);\n  }\n\n  /**\n  * @dev BUCKET ReserveTokens price of RiskPro\n  * @param bucket Name of the bucket used\n  * @return the RiskPro Tec Price [using reservePrecision].\n  */\n  function bucketRiskProTecPrice(bytes32 bucket) public view returns(uint256) {\n    uint256 nRiskPro = riskProxManager.getBucketNRiskPro(bucket);\n    uint256 lb = lockedReserveTokens(bucket);\n    uint256 nReserve = riskProxManager.getBucketNReserve(bucket);\n\n    return mocLibConfig.riskProTecPrice(nReserve, lb, nRiskPro);\n  }\n\n  /**\n  * @dev ReserveTokens price of RiskPro with spot discount applied\n  * @return the RiskPro Tec Price [using reservePrecision].\n  */\n  function riskProDiscountPrice() public view returns(uint256) {\n    uint256 riskProTecprice = riskProTecPrice();\n    uint256 discountRate = riskProSpotDiscountRate();\n\n    return mocLibConfig.applyDiscountRate(riskProTecprice, discountRate);\n  }\n\n  /**\n  * @dev RiskPro USD PRICE\n  * @return the RiskPro USD Price [using mocPrecision]\n  */\n  function riskProUsdPrice() public view returns(uint256) {\n    uint256 riskProResTokenPrice = riskProTecPrice();\n    uint256 reservePrice = getReserveTokenPrice();\n\n    return reservePrice.mul(riskProResTokenPrice).div(mocLibConfig.reservePrecision);\n  }\n\n /**\n  * @dev GLOBAL max riskProx to mint\n  * @param bucket Name of the bucket used\n  * @return max RiskPro allowed to be spent to mint RiskProx [using reservePrecision]\n  **/\n  function maxRiskProxRiskProValue(bytes32 bucket) public view returns(uint256) {\n    uint256 resTokensValue = maxRiskProxResTokenValue(bucket);\n\n    return mocLibConfig.maxRiskProWithResTokens(resTokensValue, riskProTecPrice());\n  }\n\n  /**\n  * @dev BUCKET RiskProx price in RiskPro\n  * @param bucket Name of the bucket used\n  * @return RiskPro RiskPro Price [[using mocPrecision]Precision].\n  */\n  function riskProxRiskProPrice(bytes32 bucket) public view returns(uint256) {\n    // Otherwise, it reverts.\n    if (state == States.Liquidated) {\n      return 0;\n    }\n\n    uint256 riskProxResTokenPrice = bucketRiskProTecPrice(bucket);\n    uint256 riskProResTokenPrice = riskProTecPrice();\n\n    return mocLibConfig.riskProxRiskProPrice(riskProxResTokenPrice, riskProResTokenPrice);\n  }\n\n  /**\n  * @dev GLOBAL ReserveTokens Discount rate to apply to RiskProPrice.\n  * @return RiskPro discount rate [using DISCOUNT_PRECISION].\n   */\n  function riskProSpotDiscountRate() public view returns(uint256) {\n    uint256 cov = globalCoverage();\n\n    return mocLibConfig.riskProSpotDiscountRate(riskProMaxDiscountRate, liq, utpdu, cov);\n  }\n\n  /**\n    @dev Calculates the number of days to next settlement based dayBlockSpan\n   */\n  function daysToSettlement() public view returns(uint256) {\n    return blocksToSettlement().mul(mocLibConfig.dayPrecision).div(dayBlockSpan);\n  }\n\n  /**\n    @dev Number of blocks to settlement\n   */\n  function blocksToSettlement() public view returns(uint256) {\n    if (mocSettlement.nextSettlementBlock() <= block.number) {\n      return 0;\n    }\n\n    return mocSettlement.nextSettlementBlock().sub(block.number);\n  }\n\n  /**\n   * @dev Verifies if forced liquidation is reached checking if globalCoverage <= liquidation (currently 1.04)\n   * @return true if liquidation state is reached, false otherwise\n   */\n  function isLiquidationReached() public view returns(bool) {\n    uint256 cov = globalCoverage();\n    if (state != States.Liquidated && cov <= liq)\n      return true;\n    return false;\n  }\n\n  /**\n    @dev Returns the price to use for stableToken redeem in a liquidation event\n   */\n  function getLiquidationPrice() public view returns(uint256) {\n    return liquidationPrice;\n  }\n\n  function getBucketNReserve(bytes32 bucket) public view returns(uint256) {\n    return riskProxManager.getBucketNReserve(bucket);\n  }\n\n  function getBucketNRiskPro(bytes32 bucket) public view returns(uint256) {\n    return riskProxManager.getBucketNRiskPro(bucket);\n  }\n\n  function getBucketNStableToken(bytes32 bucket) public view returns(uint256) {\n    return riskProxManager.getBucketNStableToken(bucket);\n  }\n\n  function getBucketCobj(bytes32 bucket) public view returns(uint256) {\n    return riskProxManager.getBucketCobj(bucket);\n  }\n\n  function getInrateBag(bytes32 bucket) public view returns(uint256) {\n    return riskProxManager.getInrateBag(bucket);\n  }\n\n  /**********************\n    ReserveTokens PRICE PROVIDER\n   *********************/\n\n  function getBcons() public view returns(uint256) {\n    return Math.min(getReserveTokenPrice(), getExponentalMovingAverage());\n  }\n\n  function getReserveTokenPrice() public view returns(uint256) {\n    (bytes32 price, bool has) = priceProvider.peek();\n    require(has, \"Oracle have no Price\");\n\n    return uint256(price);\n  }\n\n\n  function calculateReserveTokenMovingAverage() public {\n    setExponentalMovingAverage(getReserveTokenPrice());\n  }\n\n\n\n  /**\n   * @dev return the value of the liq threshold configuration param\n   * @return liq threshold, currently 1.04\n   */\n  function getLiq() public view returns(uint256) {\n    return liq;\n  }\n\n  /**\n   * @dev sets the value of the liq threshold configuration param\n   * @param _liq liquidation threshold\n   */\n  function setLiq(uint _liq) public onlyAuthorizedChanger(){\n    liq = _liq;\n  }\n\n  /**\n   * @dev return the value of the utpdu threshold configuration param\n   * @return utpdu Universal TPro discount sales coverage threshold\n   */\n  function getUtpdu() public view returns(uint256) {\n    return utpdu;\n  }\n\n  /**\n   * @dev sets the value of the utpdu threshold configuration param\n   * @param _utpdu Universal TPro discount sales coverage threshold\n   */\n  function setUtpdu(uint _utpdu) public onlyAuthorizedChanger(){\n    utpdu = _utpdu;\n  }\n\n  /**\n   * @dev returns the relation between StableToken and dollar. By default it is 1.\n   * @return peg relation between StableToken and dollar\n   */\n  function getPeg() public view returns(uint256) {\n    return peg;\n  }\n\n  /**\n   * @dev sets the relation between StableToken and dollar. By default it is 1.\n   * @param _peg relation between StableToken and dollar\n   */\n  function setPeg(uint _peg) public onlyAuthorizedChanger(){\n    peg = _peg;\n  }\n\n  function nextState() public {\n    // There is no coming back from Liquidation\n    if (state == States.Liquidated)\n      return;\n\n    States prevState = state;\n    calculateReserveTokenMovingAverage();\n    uint256 cov = globalCoverage();\n    if (cov <= liq) {\n      setLiquidationPrice();\n      state = States.Liquidated;\n    } else if (cov > liq && cov <= utpdu) {\n      state = States.RiskProDiscount;\n    } else if (cov > utpdu && cov <= cobj()) {\n      state = States.BelowCobj;\n    } else {\n      state = States.AboveCobj;\n    }\n\n    if (prevState != state)\n      emit StateTransition(state);\n  }\n\n\n  /**\n    @dev Calculates price at liquidation event as the relation between\n    the stableToken total supply and the amount of ReserveTokens available to distribute\n   */\n  function setLiquidationPrice() internal {\n    // When coverage is below 1, the amount to\n    // distribute is all the ReserveTokens in the contract\n    uint256 resTokenscAvailable = Math.min(globalLockedReserveTokens(), reserves);\n\n    liquidationPrice = mocLibConfig.liquidationPrice(resTokenscAvailable, stableTokenTotalSupply());\n  }\n\n  function initializeValues(\n    address _governor,\n    address _priceProvider,\n    uint256 _liq,\n    uint256 _utpdu,\n    uint256 _maxDiscRate,\n    uint256 _dayBlockSpan,\n    uint256 _maxMintRiskPro) internal {\n    liq = _liq;\n    utpdu = _utpdu;\n    riskProMaxDiscountRate = _maxDiscRate;\n    dayBlockSpan = _dayBlockSpan;\n    governor = IGovernor(_governor);\n    priceProvider = PriceProvider(_priceProvider);\n    // Default values\n    state = States.AboveCobj;\n    peg = 1;\n    maxMintRiskPro = _maxMintRiskPro;\n  }\n\n  function initializeContracts() internal  {\n    mocSettlement = MoCSettlement(connector.mocSettlement());\n    stableToken = StableToken(connector.stableToken());\n    riskProToken = RiskProToken(connector.riskProToken());\n    riskProxManager = MoCRiskProxManager(connector.riskProxManager());\n    mocConverter = MoCConverter(connector.mocConverter());\n  }\n\n  /**\n  * @param _maxMintRiskPro [using mocPrecision]\n  **/\n  function setMaxMintRiskPro(uint256 _maxMintRiskPro) public onlyAuthorizedChanger() {\n    maxMintRiskPro = _maxMintRiskPro;\n  }\n\n   /**\n   * @dev return Max value posible to mint of RiskPro\n   * @return maxMintRiskPro\n   */\n  function getMaxMintRiskPro() public view returns(uint256) {\n    return maxMintRiskPro;\n  }\n\n  /**\n  * @dev return the RiskPro available to mint\n  * @return maxMintRiskProAvalaible  [using mocPrecision]\n  */\n  function maxMintRiskProAvalaible() public view returns(uint256) {\n\n    uint256 totalRiskPro = riskProTotalSupply();\n    uint256 maxiMintRiskPro = getMaxMintRiskPro();\n\n    if (totalRiskPro >= maxiMintRiskPro) {\n      return 0;\n    }\n\n    uint256 availableMintRiskPro = maxiMintRiskPro.sub(totalRiskPro);\n\n    return availableMintRiskPro;\n  }\n\n  // Leave a gap betweeen inherited contracts variables in order to be\n  // able to add more variables in them later\n  uint256[50] private upgradeGap;\n}\n",
  "sourcePath": "/home/martin/Proyectos/RDOC-Contract/contracts/MoCState.sol",
  "compiler": {
    "name": "solc",
    "version": "0.5.8+commit.23d335f2.Emscripten.clang"
  },
  "schemaVersion": "3.0.11",
  "updatedAt": "2020-01-28T19:29:42.111Z",
  "devdoc": {
    "methods": {
      "absoluteMaxRiskPro()": {
        "details": "ABSOLUTE maxRiskPro",
        "return": "maxStableToken to issue [using mocPrecision]."
      },
      "absoluteMaxStableToken()": {
        "details": "ABSOLUTE maxStableToken",
        "return": "maxStableToken to issue [using mocPrecision]"
      },
      "abundanceRatio(uint256)": {
        "details": "Abundance ratio, receives tha amount of stableToken to use the value of stableToken0 and StableToken total supply",
        "return": "abundance ratio [using mocPrecision]"
      },
      "addToReserves(uint256)": {
        "details": "Add the reserve amount passed by parameter to the reserves total",
        "params": {
          "amount": "Amount that will be added to reserves"
        }
      },
      "blocksToSettlement()": {
        "details": "Number of blocks to settlement"
      },
      "bucketRiskProTecPrice(bytes32)": {
        "details": "BUCKET ReserveTokens price of RiskPro",
        "params": {
          "bucket": "Name of the bucket used"
        },
        "return": "the RiskPro Tec Price [using reservePrecision]."
      },
      "changeIGovernor(address)": {
        "params": {
          "newIGovernor": "New governor address"
        }
      },
      "cobj()": {
        "details": "Target coverage for complete system"
      },
      "collateralReserves()": {
        "details": "Amount of ReserveTokens in the system excluding RiskProx values and interests holdings"
      },
      "coverage(bytes32)": {
        "details": "BUCKET Coverage",
        "params": {
          "bucket": "Name of the bucket used"
        },
        "return": "coverage [using mocPrecision]"
      },
      "currentAbundanceRatio()": {
        "details": "Relation between stableTokens in bucket 0 and StableToken total supply",
        "return": "abundance ratio [using mocPrecision]"
      },
      "daysToSettlement()": {
        "details": "Calculates the number of days to next settlement based dayBlockSpan"
      },
      "freeStableToken()": {
        "return": "amount of stableTokens in bucket 0, that can be redeemed outside of settlement [using mocPrecision]"
      },
      "getDayBlockSpan()": {
        "details": "Gets how many blocks there are in a day",
        "return": "blocks there are in a day"
      },
      "getLiq()": {
        "details": "return the value of the liq threshold configuration param",
        "return": "liq threshold, currently 1.04"
      },
      "getLiquidationPrice()": {
        "details": "Returns the price to use for stableToken redeem in a liquidation event"
      },
      "getMaxDiscountRate()": {
        "details": "return the value of the RiskPro max discount rate configuration param",
        "return": "riskProMaxDiscountRate RiskPro max discount rate"
      },
      "getMaxMintRiskPro()": {
        "details": "return Max value posible to mint of RiskPro",
        "return": "maxMintRiskPro"
      },
      "getPeg()": {
        "details": "returns the relation between StableToken and dollar. By default it is 1.",
        "return": "peg relation between StableToken and dollar"
      },
      "getPriceProvider()": {
        "details": "Gets the PriceProviderAddress",
        "return": "priceProvider blocks there are in a day*"
      },
      "getResTokensInRiskPro(bytes32)": {
        "details": "Gets ReserveTokens in RiskPro within specified bucket",
        "params": {
          "bucket": "Name of the bucket used"
        },
        "return": "ReserveToken amount of RiskPro in Bucket [using reservePrecision]."
      },
      "getReservesRemainder()": {
        "details": "Gets the ReserveTokens in the contract that not corresponds to StableToken collateral",
        "return": "ReserveTokens remainder [using reservePrecision]."
      },
      "getUtpdu()": {
        "details": "return the value of the utpdu threshold configuration param",
        "return": "utpdu Universal TPro discount sales coverage threshold"
      },
      "globalCoverage()": {
        "details": "GLOBAL Coverage",
        "return": "coverage [using mocPrecision]."
      },
      "globalLockedReserveTokens()": {
        "details": "GLOBAL lockedReserveTokens",
        "return": "lockedReserveTokens amount [using reservePrecision]."
      },
      "globalMaxRiskPro()": {
        "details": "GLOBAL maxRiskPro",
        "return": "maxRiskPro for redeem [using mocPrecision]."
      },
      "globalMaxStableToken()": {
        "details": "GLOBAL maxStableToken",
        "return": "maxStableToken to issue [using mocPrecision]"
      },
      "initialize(address)": {
        "details": "This initialize replaces the constructor but it is not called automatically. It is necessary because of the upgradeability of the contracts",
        "params": {
          "_governor": "Governor address"
        }
      },
      "isLiquidationReached()": {
        "details": "Verifies if forced liquidation is reached checking if globalCoverage <= liquidation (currently 1.04)",
        "return": "true if liquidation state is reached, false otherwise"
      },
      "leverage(bytes32)": {
        "details": "BUCKET Leverage",
        "params": {
          "bucket": "Name of the bucket used"
        },
        "return": "leverage [using mocPrecision]"
      },
      "lockedReserveTokens(bytes32)": {
        "details": "BUCKET lockedReserveTokens",
        "params": {
          "bucket": "Name of the bucket used"
        },
        "return": "lockedReserveTokens amount [using reservePrecision]."
      },
      "maxMintRiskProAvalaible()": {
        "details": "return the RiskPro available to mint",
        "return": "maxMintRiskProAvalaible  [using mocPrecision]"
      },
      "maxRiskPro(bytes32)": {
        "details": "BUCKET maxRiskPro to redeem / mint",
        "params": {
          "bucket": "Name of the bucket used"
        },
        "return": "maxRiskPro for redeem [using mocPrecision]."
      },
      "maxRiskProWithDiscount()": {
        "details": "DISCOUNT maxRiskPro",
        "return": "maxRiskPro for mint with discount [using mocPrecision]"
      },
      "maxRiskProx(bytes32)": {
        "details": "GLOBAL max riskProx to mint",
        "params": {
          "bucket": "Name of the bucket used"
        },
        "return": "maxRiskProx [using mocPrecision]"
      },
      "maxRiskProxResTokenValue(bytes32)": {
        "details": "GLOBAL max riskProx to mint",
        "params": {
          "bucket": "Name of the bucket used"
        },
        "return": "maxRiskProx ReserveTokens value to mint [using reservePrecision]"
      },
      "maxRiskProxRiskProValue(bytes32)": {
        "details": "GLOBAL max riskProx to mint",
        "params": {
          "bucket": "Name of the bucket used"
        },
        "return": "max RiskPro allowed to be spent to mint RiskProx [using reservePrecision]*"
      },
      "maxStableToken(bytes32)": {
        "details": "BUCKET maxStableToken",
        "return": "maxStableToken to issue [using mocPrecision]"
      },
      "riskProDiscountPrice()": {
        "details": "ReserveTokens price of RiskPro with spot discount applied",
        "return": "the RiskPro Tec Price [using reservePrecision]."
      },
      "riskProSpotDiscountRate()": {
        "details": "GLOBAL ReserveTokens Discount rate to apply to RiskProPrice.",
        "return": "RiskPro discount rate [using DISCOUNT_PRECISION]."
      },
      "riskProTecPrice()": {
        "details": "ReserveTokens price of RiskPro",
        "return": "the RiskPro Tec Price [using reservePrecision]."
      },
      "riskProTotalSupply()": {
        "details": "All RiskPros in circulation"
      },
      "riskProUsdPrice()": {
        "details": "RiskPro USD PRICE",
        "return": "the RiskPro USD Price [using mocPrecision]"
      },
      "riskProxRiskProPrice(bytes32)": {
        "details": "BUCKET RiskProx price in RiskPro",
        "params": {
          "bucket": "Name of the bucket used"
        },
        "return": "RiskPro RiskPro Price [[using mocPrecision]Precision]."
      },
      "setDayBlockSpan(uint256)": {
        "details": "Defines how many blocks there are in a day",
        "params": {
          "blockSpan": "blocks there are in a day*"
        }
      },
      "setEmaCalculationBlockSpan(uint256)": {
        "params": {
          "blockSpan": "Defines how many blocks should pass between BMA calculations*"
        }
      },
      "setLiq(uint256)": {
        "details": "sets the value of the liq threshold configuration param",
        "params": {
          "_liq": "liquidation threshold"
        }
      },
      "setMaxDiscountRate(uint256)": {
        "params": {
          "rate": "Discount rate at liquidation level [using mocPrecision]*"
        }
      },
      "setMaxMintRiskPro(uint256)": {
        "params": {
          "_maxMintRiskPro": "[using mocPrecision]*"
        }
      },
      "setPeg(uint256)": {
        "details": "sets the relation between StableToken and dollar. By default it is 1.",
        "params": {
          "_peg": "relation between StableToken and dollar"
        }
      },
      "setPriceProvider(address)": {
        "details": "Sets a new PriceProvider contract",
        "params": {
          "priceProviderAddress": "blocks there are in a day*"
        }
      },
      "setUtpdu(uint256)": {
        "details": "sets the value of the utpdu threshold configuration param",
        "params": {
          "_utpdu": "Universal TPro discount sales coverage threshold"
        }
      },
      "stableTokenTotalSupply()": {
        "details": "All stableTokens in circulation"
      },
      "substractFromReserves(uint256)": {
        "details": "Subtract the reserve amount passed by parameter to the reserves total",
        "params": {
          "amount": "Amount that will be subtract to reserves"
        }
      }
    }
  },
  "userdoc": {
    "methods": {
      "changeIGovernor(address)": {
        "notice": "Change the contract's governor. Should be called through the old governance system"
      },
      "getBcons()": {
        "notice": "******************** ReserveTokens PRICE PROVIDER********************"
      },
      "initialize(address)": {
        "notice": "Initialize the contract with the basic settings"
      }
    }
  }
}