{
  "contractName": "MoCState",
  "abi": [
    {
      "constant": true,
      "inputs": [],
      "name": "getReservePrecision",
      "outputs": [
        {
          "name": "",
          "type": "uint256"
        }
      ],
      "payable": false,
      "stateMutability": "view",
      "type": "function"
    },
    {
      "constant": true,
      "inputs": [],
      "name": "governor",
      "outputs": [
        {
          "name": "",
          "type": "address"
        }
      ],
      "payable": false,
      "stateMutability": "view",
      "type": "function"
    },
    {
      "constant": true,
      "inputs": [],
      "name": "smoothingFactor",
      "outputs": [
        {
          "name": "",
          "type": "uint256"
        }
      ],
      "payable": false,
      "stateMutability": "view",
      "type": "function"
    },
    {
      "constant": true,
      "inputs": [],
      "name": "getGovernorAddress",
      "outputs": [
        {
          "name": "",
          "type": "address"
        }
      ],
      "payable": false,
      "stateMutability": "view",
      "type": "function"
    },
    {
      "constant": true,
      "inputs": [],
      "name": "peg",
      "outputs": [
        {
          "name": "",
          "type": "uint256"
        }
      ],
      "payable": false,
      "stateMutability": "view",
      "type": "function"
    },
    {
      "constant": false,
      "inputs": [
        {
          "name": "blockSpan",
          "type": "uint256"
        }
      ],
      "name": "setEmaCalculationBlockSpan",
      "outputs": [],
      "payable": false,
      "stateMutability": "nonpayable",
      "type": "function"
    },
    {
      "constant": true,
      "inputs": [],
      "name": "riskProMaxDiscountRate",
      "outputs": [
        {
          "name": "",
          "type": "uint256"
        }
      ],
      "payable": false,
      "stateMutability": "view",
      "type": "function"
    },
    {
      "constant": true,
      "inputs": [],
      "name": "BUCKET_X2",
      "outputs": [
        {
          "name": "",
          "type": "bytes32"
        }
      ],
      "payable": false,
      "stateMutability": "view",
      "type": "function"
    },
    {
      "constant": true,
      "inputs": [],
      "name": "getEmaCalculationBlockSpan",
      "outputs": [
        {
          "name": "",
          "type": "uint256"
        }
      ],
      "payable": false,
      "stateMutability": "view",
      "type": "function"
    },
    {
      "constant": true,
      "inputs": [],
      "name": "dayBlockSpan",
      "outputs": [
        {
          "name": "",
          "type": "uint256"
        }
      ],
      "payable": false,
      "stateMutability": "view",
      "type": "function"
    },
    {
      "constant": true,
      "inputs": [],
      "name": "reserves",
      "outputs": [
        {
          "name": "",
          "type": "uint256"
        }
      ],
      "payable": false,
      "stateMutability": "view",
      "type": "function"
    },
    {
      "constant": true,
      "inputs": [],
      "name": "emaCalculationBlockSpan",
      "outputs": [
        {
          "name": "",
          "type": "uint256"
        }
      ],
      "payable": false,
      "stateMutability": "view",
      "type": "function"
    },
    {
      "constant": true,
      "inputs": [],
      "name": "connector",
      "outputs": [
        {
          "name": "",
          "type": "address"
        }
      ],
      "payable": false,
      "stateMutability": "view",
      "type": "function"
    },
    {
      "constant": true,
      "inputs": [],
      "name": "PRICE_PRECISION",
      "outputs": [
        {
          "name": "",
          "type": "uint256"
        }
      ],
      "payable": false,
      "stateMutability": "view",
      "type": "function"
    },
    {
      "constant": true,
      "inputs": [],
      "name": "getLastEmaCalculation",
      "outputs": [
        {
          "name": "",
          "type": "uint256"
        }
      ],
      "payable": false,
      "stateMutability": "view",
      "type": "function"
    },
    {
      "constant": true,
      "inputs": [],
      "name": "lastEmaCalculation",
      "outputs": [
        {
          "name": "",
          "type": "uint256"
        }
      ],
      "payable": false,
      "stateMutability": "view",
      "type": "function"
    },
    {
      "constant": true,
      "inputs": [],
      "name": "FACTOR_PRECISION",
      "outputs": [
        {
          "name": "",
          "type": "uint256"
        }
      ],
      "payable": false,
      "stateMutability": "view",
      "type": "function"
    },
    {
      "constant": true,
      "inputs": [],
      "name": "shouldCalculateEma",
      "outputs": [
        {
          "name": "",
          "type": "bool"
        }
      ],
      "payable": false,
      "stateMutability": "view",
      "type": "function"
    },
    {
      "constant": false,
      "inputs": [
        {
          "name": "factor",
          "type": "uint256"
        }
      ],
      "name": "setSmoothingFactor",
      "outputs": [],
      "payable": false,
      "stateMutability": "nonpayable",
      "type": "function"
    },
    {
      "constant": true,
      "inputs": [],
      "name": "getExponentalMovingAverage",
      "outputs": [
        {
          "name": "",
          "type": "uint256"
        }
      ],
      "payable": false,
      "stateMutability": "view",
      "type": "function"
    },
    {
      "constant": false,
      "inputs": [
        {
          "name": "newIGovernor",
          "type": "address"
        }
      ],
      "name": "changeIGovernor",
      "outputs": [],
      "payable": false,
      "stateMutability": "nonpayable",
      "type": "function"
    },
    {
      "constant": true,
      "inputs": [],
      "name": "liquidationPrice",
      "outputs": [
        {
          "name": "",
          "type": "uint256"
        }
      ],
      "payable": false,
      "stateMutability": "view",
      "type": "function"
    },
    {
      "constant": true,
      "inputs": [],
      "name": "state",
      "outputs": [
        {
          "name": "",
          "type": "uint8"
        }
      ],
      "payable": false,
      "stateMutability": "view",
      "type": "function"
    },
    {
      "constant": true,
      "inputs": [],
      "name": "getSmoothingFactor",
      "outputs": [
        {
          "name": "",
          "type": "uint256"
        }
      ],
      "payable": false,
      "stateMutability": "view",
      "type": "function"
    },
    {
      "constant": true,
      "inputs": [],
      "name": "BUCKET_C0",
      "outputs": [
        {
          "name": "",
          "type": "bytes32"
        }
      ],
      "payable": false,
      "stateMutability": "view",
      "type": "function"
    },
    {
      "constant": true,
      "inputs": [],
      "name": "getDayPrecision",
      "outputs": [
        {
          "name": "",
          "type": "uint256"
        }
      ],
      "payable": false,
      "stateMutability": "view",
      "type": "function"
    },
    {
      "constant": true,
      "inputs": [],
      "name": "utpdu",
      "outputs": [
        {
          "name": "",
          "type": "uint256"
        }
      ],
      "payable": false,
      "stateMutability": "view",
      "type": "function"
    },
    {
      "constant": true,
      "inputs": [],
      "name": "getMocPrecision",
      "outputs": [
        {
          "name": "",
          "type": "uint256"
        }
      ],
      "payable": false,
      "stateMutability": "view",
      "type": "function"
    },
    {
      "constant": true,
      "inputs": [],
      "name": "liq",
      "outputs": [
        {
          "name": "",
          "type": "uint256"
        }
      ],
      "payable": false,
      "stateMutability": "view",
      "type": "function"
    },
    {
      "anonymous": false,
      "inputs": [
        {
          "indexed": false,
          "name": "newState",
          "type": "uint8"
        }
      ],
      "name": "StateTransition",
      "type": "event"
    },
    {
      "anonymous": false,
      "inputs": [
        {
          "indexed": false,
          "name": "oldAddress",
          "type": "address"
        },
        {
          "indexed": false,
          "name": "newAddress",
          "type": "address"
        }
      ],
      "name": "PriceProviderUpdated",
      "type": "event"
    },
    {
      "anonymous": false,
      "inputs": [
        {
          "indexed": false,
          "name": "price",
          "type": "uint256"
        },
        {
          "indexed": false,
          "name": "movingAverage",
          "type": "uint256"
        }
      ],
      "name": "MovingAverageCalculation",
      "type": "event"
    },
    {
      "constant": false,
      "inputs": [
        {
          "name": "_governor",
          "type": "address"
        }
      ],
      "name": "initialize",
      "outputs": [],
      "payable": false,
      "stateMutability": "nonpayable",
      "type": "function"
    },
    {
      "constant": false,
      "inputs": [
        {
          "name": "connectorAddress",
          "type": "address"
        },
        {
          "name": "_governor",
          "type": "address"
        },
        {
          "name": "_priceProvider",
          "type": "address"
        },
        {
          "name": "_liq",
          "type": "uint256"
        },
        {
          "name": "_utpdu",
          "type": "uint256"
        },
        {
          "name": "_maxDiscRate",
          "type": "uint256"
        },
        {
          "name": "_dayBlockSpan",
          "type": "uint256"
        },
        {
          "name": "_ema",
          "type": "uint256"
        },
        {
          "name": "_smoothFactor",
          "type": "uint256"
        },
        {
          "name": "_emaBlockSpan",
          "type": "uint256"
        }
      ],
      "name": "initialize",
      "outputs": [],
      "payable": false,
      "stateMutability": "nonpayable",
      "type": "function"
    },
    {
      "constant": false,
      "inputs": [
        {
          "name": "rate",
          "type": "uint256"
        }
      ],
      "name": "setMaxDiscountRate",
      "outputs": [],
      "payable": false,
      "stateMutability": "nonpayable",
      "type": "function"
    },
    {
      "constant": true,
      "inputs": [],
      "name": "getMaxDiscountRate",
      "outputs": [
        {
          "name": "",
          "type": "uint256"
        }
      ],
      "payable": false,
      "stateMutability": "view",
      "type": "function"
    },
    {
      "constant": false,
      "inputs": [
        {
          "name": "blockSpan",
          "type": "uint256"
        }
      ],
      "name": "setDayBlockSpan",
      "outputs": [],
      "payable": false,
      "stateMutability": "nonpayable",
      "type": "function"
    },
    {
      "constant": false,
      "inputs": [
        {
          "name": "priceProviderAddress",
          "type": "address"
        }
      ],
      "name": "setPriceProvider",
      "outputs": [],
      "payable": false,
      "stateMutability": "nonpayable",
      "type": "function"
    },
    {
      "constant": true,
      "inputs": [],
      "name": "getPriceProvider",
      "outputs": [
        {
          "name": "",
          "type": "address"
        }
      ],
      "payable": false,
      "stateMutability": "view",
      "type": "function"
    },
    {
      "constant": true,
      "inputs": [],
      "name": "getDayBlockSpan",
      "outputs": [
        {
          "name": "",
          "type": "uint256"
        }
      ],
      "payable": false,
      "stateMutability": "view",
      "type": "function"
    },
    {
      "constant": false,
      "inputs": [
        {
          "name": "amount",
          "type": "uint256"
        }
      ],
      "name": "substractFromReserves",
      "outputs": [],
      "payable": false,
      "stateMutability": "nonpayable",
      "type": "function"
    },
    {
      "constant": false,
      "inputs": [
        {
          "name": "amount",
          "type": "uint256"
        }
      ],
      "name": "addToReserves",
      "outputs": [],
      "payable": false,
      "stateMutability": "nonpayable",
      "type": "function"
    },
    {
      "constant": true,
      "inputs": [],
      "name": "riskProTotalSupply",
      "outputs": [
        {
          "name": "",
          "type": "uint256"
        }
      ],
      "payable": false,
      "stateMutability": "view",
      "type": "function"
    },
    {
      "constant": true,
      "inputs": [],
      "name": "stableTokenTotalSupply",
      "outputs": [
        {
          "name": "",
          "type": "uint256"
        }
      ],
      "payable": false,
      "stateMutability": "view",
      "type": "function"
    },
    {
      "constant": true,
      "inputs": [],
      "name": "cobj",
      "outputs": [
        {
          "name": "",
          "type": "uint256"
        }
      ],
      "payable": false,
      "stateMutability": "view",
      "type": "function"
    },
    {
      "constant": true,
      "inputs": [],
      "name": "collateralReserves",
      "outputs": [
        {
          "name": "",
          "type": "uint256"
        }
      ],
      "payable": false,
      "stateMutability": "view",
      "type": "function"
    },
    {
      "constant": true,
      "inputs": [],
      "name": "globalCoverage",
      "outputs": [
        {
          "name": "",
          "type": "uint256"
        }
      ],
      "payable": false,
      "stateMutability": "view",
      "type": "function"
    },
    {
      "constant": true,
      "inputs": [
        {
          "name": "bucket",
          "type": "bytes32"
        }
      ],
      "name": "lockedReserveTokens",
      "outputs": [
        {
          "name": "",
          "type": "uint256"
        }
      ],
      "payable": false,
      "stateMutability": "view",
      "type": "function"
    },
    {
      "constant": true,
      "inputs": [
        {
          "name": "bucket",
          "type": "bytes32"
        }
      ],
      "name": "getResTokensInRiskPro",
      "outputs": [
        {
          "name": "",
          "type": "uint256"
        }
      ],
      "payable": false,
      "stateMutability": "view",
      "type": "function"
    },
    {
      "constant": true,
      "inputs": [],
      "name": "getReservesRemainder",
      "outputs": [
        {
          "name": "",
          "type": "uint256"
        }
      ],
      "payable": false,
      "stateMutability": "view",
      "type": "function"
    },
    {
      "constant": true,
      "inputs": [
        {
          "name": "bucket",
          "type": "bytes32"
        }
      ],
      "name": "coverage",
      "outputs": [
        {
          "name": "",
          "type": "uint256"
        }
      ],
      "payable": false,
      "stateMutability": "view",
      "type": "function"
    },
    {
      "constant": true,
      "inputs": [
        {
          "name": "stableToken0",
          "type": "uint256"
        }
      ],
      "name": "abundanceRatio",
      "outputs": [
        {
          "name": "",
          "type": "uint256"
        }
      ],
      "payable": false,
      "stateMutability": "view",
      "type": "function"
    },
    {
      "constant": true,
      "inputs": [],
      "name": "currentAbundanceRatio",
      "outputs": [
        {
          "name": "",
          "type": "uint256"
        }
      ],
      "payable": false,
      "stateMutability": "view",
      "type": "function"
    },
    {
      "constant": true,
      "inputs": [
        {
          "name": "bucket",
          "type": "bytes32"
        }
      ],
      "name": "leverage",
      "outputs": [
        {
          "name": "",
          "type": "uint256"
        }
      ],
      "payable": false,
      "stateMutability": "view",
      "type": "function"
    },
    {
      "constant": true,
      "inputs": [],
      "name": "globalMaxStableToken",
      "outputs": [
        {
          "name": "",
          "type": "uint256"
        }
      ],
      "payable": false,
      "stateMutability": "view",
      "type": "function"
    },
    {
      "constant": true,
      "inputs": [],
      "name": "freeStableToken",
      "outputs": [
        {
          "name": "",
          "type": "uint256"
        }
      ],
      "payable": false,
      "stateMutability": "view",
      "type": "function"
    },
    {
      "constant": true,
      "inputs": [
        {
          "name": "bucket",
          "type": "bytes32"
        }
      ],
      "name": "maxStableToken",
      "outputs": [
        {
          "name": "",
          "type": "uint256"
        }
      ],
      "payable": false,
      "stateMutability": "view",
      "type": "function"
    },
    {
      "constant": true,
      "inputs": [],
      "name": "globalMaxRiskPro",
      "outputs": [
        {
          "name": "",
          "type": "uint256"
        }
      ],
      "payable": false,
      "stateMutability": "view",
      "type": "function"
    },
    {
      "constant": true,
      "inputs": [],
      "name": "absoluteMaxStableToken",
      "outputs": [
        {
          "name": "",
          "type": "uint256"
        }
      ],
      "payable": false,
      "stateMutability": "view",
      "type": "function"
    },
    {
      "constant": true,
      "inputs": [
        {
          "name": "bucket",
          "type": "bytes32"
        }
      ],
      "name": "maxRiskPro",
      "outputs": [
        {
          "name": "",
          "type": "uint256"
        }
      ],
      "payable": false,
      "stateMutability": "view",
      "type": "function"
    },
    {
      "constant": true,
      "inputs": [
        {
          "name": "bucket",
          "type": "bytes32"
        }
      ],
      "name": "maxRiskProx",
      "outputs": [
        {
          "name": "",
          "type": "uint256"
        }
      ],
      "payable": false,
      "stateMutability": "view",
      "type": "function"
    },
    {
      "constant": true,
      "inputs": [
        {
          "name": "bucket",
          "type": "bytes32"
        }
      ],
      "name": "maxRiskProxResTokenValue",
      "outputs": [
        {
          "name": "",
          "type": "uint256"
        }
      ],
      "payable": false,
      "stateMutability": "view",
      "type": "function"
    },
    {
      "constant": true,
      "inputs": [],
      "name": "absoluteMaxRiskPro",
      "outputs": [
        {
          "name": "",
          "type": "uint256"
        }
      ],
      "payable": false,
      "stateMutability": "view",
      "type": "function"
    },
    {
      "constant": true,
      "inputs": [],
      "name": "maxRiskProWithDiscount",
      "outputs": [
        {
          "name": "",
          "type": "uint256"
        }
      ],
      "payable": false,
      "stateMutability": "view",
      "type": "function"
    },
    {
      "constant": true,
      "inputs": [],
      "name": "globalLockedReserveTokens",
      "outputs": [
        {
          "name": "",
          "type": "uint256"
        }
      ],
      "payable": false,
      "stateMutability": "view",
      "type": "function"
    },
    {
      "constant": true,
      "inputs": [],
      "name": "riskProTecPrice",
      "outputs": [
        {
          "name": "",
          "type": "uint256"
        }
      ],
      "payable": false,
      "stateMutability": "view",
      "type": "function"
    },
    {
      "constant": true,
      "inputs": [
        {
          "name": "bucket",
          "type": "bytes32"
        }
      ],
      "name": "bucketRiskProTecPrice",
      "outputs": [
        {
          "name": "",
          "type": "uint256"
        }
      ],
      "payable": false,
      "stateMutability": "view",
      "type": "function"
    },
    {
      "constant": true,
      "inputs": [],
      "name": "riskProDiscountPrice",
      "outputs": [
        {
          "name": "",
          "type": "uint256"
        }
      ],
      "payable": false,
      "stateMutability": "view",
      "type": "function"
    },
    {
      "constant": true,
      "inputs": [],
      "name": "riskProUsdPrice",
      "outputs": [
        {
          "name": "",
          "type": "uint256"
        }
      ],
      "payable": false,
      "stateMutability": "view",
      "type": "function"
    },
    {
      "constant": true,
      "inputs": [
        {
          "name": "bucket",
          "type": "bytes32"
        }
      ],
      "name": "maxRiskProxRiskProValue",
      "outputs": [
        {
          "name": "",
          "type": "uint256"
        }
      ],
      "payable": false,
      "stateMutability": "view",
      "type": "function"
    },
    {
      "constant": true,
      "inputs": [
        {
          "name": "bucket",
          "type": "bytes32"
        }
      ],
      "name": "riskProxRiskProPrice",
      "outputs": [
        {
          "name": "",
          "type": "uint256"
        }
      ],
      "payable": false,
      "stateMutability": "view",
      "type": "function"
    },
    {
      "constant": true,
      "inputs": [],
      "name": "riskProSpotDiscountRate",
      "outputs": [
        {
          "name": "",
          "type": "uint256"
        }
      ],
      "payable": false,
      "stateMutability": "view",
      "type": "function"
    },
    {
      "constant": true,
      "inputs": [],
      "name": "daysToSettlement",
      "outputs": [
        {
          "name": "",
          "type": "uint256"
        }
      ],
      "payable": false,
      "stateMutability": "view",
      "type": "function"
    },
    {
      "constant": true,
      "inputs": [],
      "name": "blocksToSettlement",
      "outputs": [
        {
          "name": "",
          "type": "uint256"
        }
      ],
      "payable": false,
      "stateMutability": "view",
      "type": "function"
    },
    {
      "constant": true,
      "inputs": [],
      "name": "isLiquidationReached",
      "outputs": [
        {
          "name": "",
          "type": "bool"
        }
      ],
      "payable": false,
      "stateMutability": "view",
      "type": "function"
    },
    {
      "constant": true,
      "inputs": [],
      "name": "getLiquidationPrice",
      "outputs": [
        {
          "name": "",
          "type": "uint256"
        }
      ],
      "payable": false,
      "stateMutability": "view",
      "type": "function"
    },
    {
      "constant": true,
      "inputs": [
        {
          "name": "bucket",
          "type": "bytes32"
        }
      ],
      "name": "getBucketNReserve",
      "outputs": [
        {
          "name": "",
          "type": "uint256"
        }
      ],
      "payable": false,
      "stateMutability": "view",
      "type": "function"
    },
    {
      "constant": true,
      "inputs": [
        {
          "name": "bucket",
          "type": "bytes32"
        }
      ],
      "name": "getBucketNRiskPro",
      "outputs": [
        {
          "name": "",
          "type": "uint256"
        }
      ],
      "payable": false,
      "stateMutability": "view",
      "type": "function"
    },
    {
      "constant": true,
      "inputs": [
        {
          "name": "bucket",
          "type": "bytes32"
        }
      ],
      "name": "getBucketNStableToken",
      "outputs": [
        {
          "name": "",
          "type": "uint256"
        }
      ],
      "payable": false,
      "stateMutability": "view",
      "type": "function"
    },
    {
      "constant": true,
      "inputs": [
        {
          "name": "bucket",
          "type": "bytes32"
        }
      ],
      "name": "getBucketCobj",
      "outputs": [
        {
          "name": "",
          "type": "uint256"
        }
      ],
      "payable": false,
      "stateMutability": "view",
      "type": "function"
    },
    {
      "constant": true,
      "inputs": [
        {
          "name": "bucket",
          "type": "bytes32"
        }
      ],
      "name": "getInrateBag",
      "outputs": [
        {
          "name": "",
          "type": "uint256"
        }
      ],
      "payable": false,
      "stateMutability": "view",
      "type": "function"
    },
    {
      "constant": true,
      "inputs": [],
      "name": "getBcons",
      "outputs": [
        {
          "name": "",
          "type": "uint256"
        }
      ],
      "payable": false,
      "stateMutability": "view",
      "type": "function"
    },
    {
      "constant": true,
      "inputs": [],
      "name": "getReserveTokenPrice",
      "outputs": [
        {
          "name": "",
          "type": "uint256"
        }
      ],
      "payable": false,
      "stateMutability": "view",
      "type": "function"
    },
    {
      "constant": false,
      "inputs": [],
      "name": "calculateReserveTokenMovingAverage",
      "outputs": [],
      "payable": false,
      "stateMutability": "nonpayable",
      "type": "function"
    },
    {
      "constant": true,
      "inputs": [],
      "name": "getLiq",
      "outputs": [
        {
          "name": "",
          "type": "uint256"
        }
      ],
      "payable": false,
      "stateMutability": "view",
      "type": "function"
    },
    {
      "constant": false,
      "inputs": [
        {
          "name": "_liq",
          "type": "uint256"
        }
      ],
      "name": "setLiq",
      "outputs": [],
      "payable": false,
      "stateMutability": "nonpayable",
      "type": "function"
    },
    {
      "constant": true,
      "inputs": [],
      "name": "getUtpdu",
      "outputs": [
        {
          "name": "",
          "type": "uint256"
        }
      ],
      "payable": false,
      "stateMutability": "view",
      "type": "function"
    },
    {
      "constant": false,
      "inputs": [
        {
          "name": "_utpdu",
          "type": "uint256"
        }
      ],
      "name": "setUtpdu",
      "outputs": [],
      "payable": false,
      "stateMutability": "nonpayable",
      "type": "function"
    },
    {
      "constant": true,
      "inputs": [],
      "name": "getPeg",
      "outputs": [
        {
          "name": "",
          "type": "uint256"
        }
      ],
      "payable": false,
      "stateMutability": "view",
      "type": "function"
    },
    {
      "constant": false,
      "inputs": [
        {
          "name": "_peg",
          "type": "uint256"
        }
      ],
      "name": "setPeg",
      "outputs": [],
      "payable": false,
      "stateMutability": "nonpayable",
      "type": "function"
    },
    {
      "constant": false,
      "inputs": [],
      "name": "nextState",
      "outputs": [],
      "payable": false,
      "stateMutability": "nonpayable",
      "type": "function"
    }
  ],
  "bytecode": "0x608060405234801561001057600080fd5b50613d34806100206000396000f3fe608060405234801561001057600080fd5b50600436106103eb5760e060020a600035046306bdce8c81146103f05780630a065fb61461040a5780630c340a241461042e5780630d9c71aa1461043657806311a2e50b1461043e57806312119e021461044657806314007c6d14610463578063157d5cfb1461046d57806319a7039a146104755780631cd2b37c1461047d5780631ced5541146104855780631f0858701461048d5780631f1cb62b14610495578063210521491461049d5780632439725a146104a5578063372aa224146104c25780633bc4ac0a146104e85780633ecbf7ee146105055780633ffdff5d1461052257806340ed4b571461052a57806340fb9ab31461054757806346558d1b14610564578063483bc5161461056c578063484ec046146105745780634aa50e401461057c57806351ffe1931461058457806357a13a161461058c5780635e73f48414610594578063607b69f61461059c57806360bf1031146105a45780636325f968146105ac578063657576eb146105b45780637144e9a2146105bc5780637149d121146105c4578063717c01c0146105cc57806375172a8b146105d457806376edfc7f146105dc5780637a727fe8146105e45780637c536216146105ec5780637f19c56f1461060957806380c14b8d1461061157806383f3084f1461062e578063849d7e8614610636578063889d9b641461063e5780638c3e05021461065b5780639214fa4d1461067857806392bc28651461068057806393327d7b1461069d57806395082d25146106a5578063953bbcf0146106ad57806398b762a1146106ca5780639aa59d44146106e75780639ad6659d146106ef5780639f3d87b51461070b578063a181c39714610728578063a42c69a9146106a5578063a53e85e214610730578063a8e9ac3014610738578063b0920b6d14610740578063b398eb211461075d578063b488ea411461077a578063b640c07314610797578063b6e083301461079f578063b6fc2d5f146107c5578063b71210d5146107cd578063b7b3f47e146107d5578063b8104773146107f2578063bc2ae972146107fa578063bcce77ef14610817578063be7186321461081f578063c19a125f1461083c578063c19d93fb14610859578063c4d66de814610885578063c4ee19ea146108ab578063cb93e65d146108b3578063d45fc1a9146108bb578063e0dd23761461091e578063e138c70a14610926578063e22155f614610943578063e2414a731461094b578063e890675714610953578063eb892a621461095b578063ec98182d14610978578063f4288dc914610995578063f715e2931461099d578063f74326f9146109a5578063f98b43c4146109c2578063faba8c3b146109df575b600080fd5b6103f86109e7565b60408051918252519081900360200190f35b6104126109ee565b60408051600160a060020a039092168252519081900360200190f35b610412610a03565b6103f8610a12565b6103f8610a18565b6103f86004803603602081101561045c57600080fd5b5035610a4f565b61046b610b26565b005b610412610c73565b6103f8610c82565b6103f8610e46565b6103f8610e4d565b6103f8610e88565b6103f8610e9b565b6103f8610ea2565b61046b600480360360208110156104bb57600080fd5b5035610fa0565b61046b600480360360208110156104d857600080fd5b5035600160a060020a03166110cf565b61046b600480360360208110156104fe57600080fd5b503561122b565b61046b6004803603602081101561051b57600080fd5b503561131c565b6103f86113f6565b6103f86004803603602081101561054057600080fd5b5035611470565b6103f86004803603602081101561055d57600080fd5b503561151b565b6103f8611787565b6103f861178e565b6103f8611795565b6103f861179c565b6103f86117b6565b6103f86117bd565b6103f86117c9565b6103f86118e5565b6103f8611903565b6103f86119b4565b6103f86119ba565b6103f8611a77565b6103f8611ace565b6103f8611b8c565b6103f8611b93565b6103f8611b9a565b6103f8611c17565b61046b6004803603602081101561060257600080fd5b5035611c1d565b6103f8611d0f565b61046b6004803603602081101561062757600080fd5b5035611d16565b610412611e08565b6103f8611e17565b6103f86004803603602081101561065457600080fd5b5035611e48565b6103f86004803603602081101561067157600080fd5b5035611eca565b6103f8612143565b6103f86004803603602081101561069657600080fd5b503561214a565b6103f861217e565b6103f86121c7565b6103f8600480360360208110156106c357600080fd5b50356121d3565b61046b600480360360208110156106e057600080fd5b5035612386565b6103f86124d1565b6106f76124d7565b604080519115158252519081900360200190f35b6103f86004803603602081101561072157600080fd5b5035612520565b6103f8612570565b6103f8612576565b6106f7612634565b61046b6004803603602081101561075657600080fd5b5035612655565b6103f86004803603602081101561077357600080fd5b5035612727565b61046b6004803603602081101561079057600080fd5b5035612777565b6103f861286f565b61046b600480360360208110156107b557600080fd5b5035600160a060020a0316612875565b6103f8612983565b6103f861298a565b6103f8600480360360208110156107eb57600080fd5b50356129e1565b6103f8612ad9565b61046b6004803603602081101561081057600080fd5b5035612af4565b6103f8612be6565b6103f86004803603602081101561083557600080fd5b5035612c00565b6103f86004803603602081101561085257600080fd5b5035612e22565b610861612f38565b6040518082600381111561087157fe5b60ff16815260200191505060405180910390f35b61046b6004803603602081101561089b57600080fd5b5035600160a060020a0316612f42565b6103f8613002565b6103f8613079565b61046b60048036036101408110156108d257600080fd5b50600160a060020a03813581169160208101358216916040820135169060608101359060808101359060a08101359060c08101359060e08101359061010081013590610120013561307f565b6103f8613160565b6103f86004803603602081101561093c57600080fd5b5035613243565b6103f8613293565b6103f861329f565b6103f86132a5565b6103f86004803603602081101561097157600080fd5b50356132ac565b6103f86004803603602081101561098e57600080fd5b5035613317565b61046b6133d1565b6103f86133e1565b6103f8600480360360208110156109bb57600080fd5b50356133e7565b6103f8600480360360208110156109d857600080fd5b5035613466565b6103f86134b6565b6000545b90565b610104546101009004600160a060020a031690565b609b54600160a060020a031681565b60cf5481565b6000610a4a61010a54610a3e600060010154610a326117c9565b9063ffffffff6134bd16565b9063ffffffff61352216565b905090565b6000806101045460ff166003811115610a6457fe5b1415610a7257506000610b21565b6000610a7d836121d3565b90506000610a89610e88565b6040805160e460020a6303dd0b8f028152600060048201526024810185905260448101839052905191925073__MoCHelperLib__________________________91633dd0b8f091606480820192602092909190829003018186803b158015610af057600080fd5b505af4158015610b04573d6000803e3d6000fd5b505050506040513d6020811015610b1a57600080fd5b5051925050505b919050565b60006101045460ff166003811115610b3a57fe5b1415610b4557610c71565b6101045460ff16610b546133d1565b6000610b5e613002565b905061010d548111610b8d57610b7261358f565b61010480546000919060ff19166001835b0217905550610bfd565b61010d5481118015610ba2575061010e548111155b15610bbb5761010480546001919060ff19168280610b83565b61010e5481118015610bd45750610bd0611a77565b8111155b15610bee5761010480546002919060ff1916600183610b83565b610104805460ff191660031790555b6101045460ff166003811115610c0f57fe5b826003811115610c1b57fe5b14610c6e57610104546040517fb9eb8a309bf89f3159b39681f485b6430fec1035b2b457edbcdadcdece888c0b9160ff169080826003811115610c5a57fe5b60ff16815260200191505060405180910390a15b50505b565b609b54600160a060020a031690565b61010654610109546040805160e060020a639f3d87b502815260f160020a612c1902600482015290516000938493600160a060020a039182169363281acfb8939190921691639f3d87b5916024808301926020929190829003018186803b158015610cec57600080fd5b505afa158015610d00573d6000803e3d6000fd5b505050506040513d6020811015610d1657600080fd5b50516040805160e060020a63ffffffff8516028152600481019290925260f160020a612c19026024830152516044808301926020929190829003018186803b158015610d6157600080fd5b505afa158015610d75573d6000803e3d6000fd5b505050506040513d6020811015610d8b57600080fd5b5051610109546040805160e260020a63222766d902815260f460020a6104330260048201529051929350600092600160a060020a039092169163889d9b6491602480820192602092909190829003018186803b158015610dea57600080fd5b505afa158015610dfe573d6000803e3d6000fd5b505050506040513d6020811015610e1457600080fd5b505161010f54909150610e3f908290610e33908563ffffffff61364416565b9063ffffffff61364416565b9250505090565b61010e5490565b600080610e58611b9a565b905061010f548110610e6e5760009150506109eb565b61010f54610e82908263ffffffff61364416565b91505090565b6000610a4a60f460020a610433026121d3565b61010b5481565b600080610ead6113f6565b90506000610eb96119ba565b90506000610ec5611e17565b90506000610ed1613160565b905073__MoCHelperLib__________________________631aa6567c6000610ef7610c82565b8761010e5461010b5487898b6040518963ffffffff1660e060020a028152600401808981526020018881526020018781526020018681526020018581526020018481526020018381526020018281526020019850505050505050505060206040518083038186803b158015610f6b57600080fd5b505af4158015610f7f573d6000803e3d6000fd5b505050506040513d6020811015610f9557600080fd5b505194505050505090565b609b546040805160e060020a63d994d6d50281523360048201529051600160a060020a039092169163d994d6d591602480820192602092909190829003018186803b158015610fee57600080fd5b505afa158015611002573d6000803e3d6000fd5b505050506040513d602081101561101857600080fd5b50516040805180820190915260168152600080516020613ce98339815191526020820152906110c85760405160e560020a62461bcd0281526004018080602001828103825283818151815260200191508051906020019080838360005b8381101561108d578181015183820152602001611075565b50505050905090810190601f1680156110ba5780820380516001836020036101000a031916815260200191505b509250505060405180910390fd5b5061010b55565b609b546040805160e060020a63d994d6d50281523360048201529051600160a060020a039092169163d994d6d591602480820192602092909190829003018186803b15801561111d57600080fd5b505afa158015611131573d6000803e3d6000fd5b505050506040513d602081101561114757600080fd5b50516040805180820190915260168152600080516020613ce98339815191526020820152906111ba5760405160e560020a62461bcd02815260206004820181815283516024840152835190928392604490910191908501908083836000831561108d578181015183820152602001611075565b506101048054600160a060020a0383811661010090810261010060a860020a03198416179384905560408051938290048316808552919094049091166020830152825190927ff01c4ba47ffa16ddc86be088e27d891895d6944b4f1b88a7d30fedb0296de55c928290030190a15050565b609b546040805160e060020a63d994d6d50281523360048201529051600160a060020a039092169163d994d6d591602480820192602092909190829003018186803b15801561127957600080fd5b505afa15801561128d573d6000803e3d6000fd5b505050506040513d60208110156112a357600080fd5b50516040805180820190915260168152600080516020613ce98339815191526020820152906113165760405160e560020a62461bcd02815260206004820181815283516024840152835190928392604490910191908501908083836000831561108d578181015183820152602001611075565b5060d155565b6068546040805160e060020a633af32abf028152336004820181905291519192600160a060020a031691633af32abf91602480820192602092909190829003018186803b15801561136c57600080fd5b505afa158015611380573d6000803e3d6000fd5b505050506040513d602081101561139657600080fd5b50516113da576040805160e560020a62461bcd02815260206004820152601a6024820152600080516020613c9b833981519152604482015290519081900360640190fd5b61010f546113ee908363ffffffff61364416565b61010f555050565b610107546040805160e060020a6318160ddd0281529051600092600160a060020a0316916318160ddd916004808301926020929190829003018186803b15801561143f57600080fd5b505afa158015611453573d6000803e3d6000fd5b505050506040513d602081101561146957600080fd5b5051905090565b60008061147c83612e22565b905073__MoCHelperLib__________________________63716d1a696000836114a3610e88565b6040518463ffffffff1660e060020a02815260040180848152602001838152602001828152602001935050505060206040518083038186803b1580156114e857600080fd5b505af41580156114fc573d6000803e3d6000fd5b505050506040513d602081101561151257600080fd5b50519392505050565b610109546040805160e260020a633e62d0f10281526004810184905290516000928392600160a060020a039091169163f98b43c491602480820192602092909190829003018186803b15801561157057600080fd5b505afa158015611584573d6000803e3d6000fd5b505050506040513d602081101561159a57600080fd5b5051610109546040805160e160020a63709c6385028152600481018790529051929350600092600160a060020a039092169163e138c70a91602480820192602092909190829003018186803b1580156115f257600080fd5b505afa158015611606573d6000803e3d6000fd5b505050506040513d602081101561161c57600080fd5b50519050600061162a611e17565b610109546040805160e060020a63b398eb21028152600481018990529051929350600092600160a060020a039092169163b398eb2191602480820192602092909190829003018186803b15801561168057600080fd5b505afa158015611694573d6000803e3d6000fd5b505050506040513d60208110156116aa57600080fd5b505161010b5490915073__MoCHelperLib__________________________9063169092bf906000908790859088906116e0613160565b6116e861179c565b8a6040518963ffffffff1660e060020a028152600401808981526020018881526020018781526020018681526020018581526020018481526020018381526020018281526020019850505050505050505060206040518083038186803b15801561175157600080fd5b505af4158015611765573d6000803e3d6000fd5b505050506040513d602081101561177b57600080fd5b50519695505050505050565b6101105490565b61010c5481565b61010a5490565b6000610a4a6117a9613160565b6117b161286f565b6136a4565b61010c5490565b60f160020a612c190281565b60004361010560009054906101000a9004600160a060020a0316600160a060020a0316637bac9c7c6040518163ffffffff1660e060020a02815260040160206040518083038186803b15801561181e57600080fd5b505afa158015611832573d6000803e3d6000fd5b505050506040513d602081101561184857600080fd5b505111611857575060006109eb565b610a4a4361010560009054906101000a9004600160a060020a0316600160a060020a0316637bac9c7c6040518163ffffffff1660e060020a02815260040160206040518083038186803b1580156118ad57600080fd5b505afa1580156118c1573d6000803e3d6000fd5b505050506040513d60208110156118d757600080fd5b50519063ffffffff61364416565b6000610a4a6118f2612576565b6117b160f460020a6104330261151b565b60008061190e610e88565b9050600061191a6119ba565b6040805160e260020a632d4f109b028152600060048201526024810185905260448101839052905191925073__MoCHelperLib__________________________9163b53c426c91606480820192602092909190829003018186803b15801561198157600080fd5b505af4158015611995573d6000803e3d6000fd5b505050506040513d60208110156119ab57600080fd5b50519250505090565b60d15490565b6000806119c5613002565b61010c5461010d5461010e546040805160e060020a635f5ba87f02815260006004820152602481019490945260448401929092526064830152608482018390525191925073__MoCHelperLib__________________________91635f5ba87f9160a480820192602092909190829003018186803b158015611a4557600080fd5b505af4158015611a59573d6000803e3d6000fd5b505050506040513d6020811015611a6f57600080fd5b505191505090565b610109546040805160e060020a63b398eb2102815260f460020a6104330260048201529051600092600160a060020a03169163b398eb21916024808301926020929190829003018186803b15801561143f57600080fd5b600073__MoCHelperLib__________________________63ba036a2982611af3610c82565b611afb611a77565b611b036113f6565b61010b54611b0f613160565b611b1761179c565b6040518863ffffffff1660e060020a0281526004018088815260200187815260200186815260200185815260200184815260200183815260200182815260200197505050505050505060206040518083038186803b158015611b7857600080fd5b505af4158015611453573d6000803e3d6000fd5b61010a5481565b61010f5481565b600073__MoCHelperLib__________________________630fa79b3582611bbf613160565b611bc76113f6565b61010b546040518563ffffffff1660e060020a0281526004018085815260200184815260200183815260200182815260200194505050505060206040518083038186803b158015611b7857600080fd5b60d15481565b609b546040805160e060020a63d994d6d50281523360048201529051600160a060020a039092169163d994d6d591602480820192602092909190829003018186803b158015611c6b57600080fd5b505afa158015611c7f573d6000803e3d6000fd5b505050506040513d6020811015611c9557600080fd5b50516040805180820190915260168152600080516020613ce9833981519152602082015290611d085760405160e560020a62461bcd02815260206004820181815283516024840152835190928392604490910191908501908083836000831561108d578181015183820152602001611075565b5061010e55565b61010d5490565b609b546040805160e060020a63d994d6d50281523360048201529051600160a060020a039092169163d994d6d591602480820192602092909190829003018186803b158015611d6457600080fd5b505afa158015611d78573d6000803e3d6000fd5b505050506040513d6020811015611d8e57600080fd5b50516040805180820190915260168152600080516020613ce9833981519152602082015290611e015760405160e560020a62461bcd02815260206004820181815283516024840152835190928392604490910191908501908083836000831561108d578181015183820152602001611075565b5061010d55565b606854600160a060020a031681565b600080611e22610e88565b90506000611e2e613160565b600054909150610e3f90610a3e838563ffffffff6134bd16565b610109546040805160e260020a63222766d9028152600481018490529051600092600160a060020a03169163889d9b64916024808301926020929190829003018186803b158015611e9857600080fd5b505afa158015611eac573d6000803e3d6000fd5b505050506040513d6020811015611ec257600080fd5b505192915050565b610109546040805160e360020a630c677451028152600481018490529051600092600160a060020a03169163633ba288916024808301926020929190829003018186803b158015611f1a57600080fd5b505afa158015611f2e573d6000803e3d6000fd5b505050506040513d6020811015611f4457600080fd5b5051158015611fcb5750610109546040805160e060020a63a9e61b4f028152600481018590529051600160a060020a039092169163a9e61b4f91602480820192602092909190829003018186803b158015611f9e57600080fd5b505afa158015611fb2573d6000803e3d6000fd5b505050506040513d6020811015611fc857600080fd5b50515b1561205357610109546040805160e060020a63b398eb21028152600481018590529051600160a060020a039092169163b398eb2191602480820192602092909190829003018186803b15801561202057600080fd5b505afa158015612034573d6000803e3d6000fd5b505050506040513d602081101561204a57600080fd5b50519050610b21565b610109546040805160e260020a633e62d0f1028152600481018590529051600092600160a060020a03169163f98b43c4916024808301926020929190829003018186803b1580156120a357600080fd5b505afa1580156120b7573d6000803e3d6000fd5b505050506040513d60208110156120cd57600080fd5b5051905060006120dc846129e1565b6040805160e260020a63386c0d21028152600060048201526024810185905260448101839052905191925073__MoCHelperLib__________________________9163e1b0348491606480820192602092909190829003018186803b158015610af057600080fd5b61010b5490565b60008061215683612e22565b905073__MoCHelperLib__________________________63716d1a696000836114a3876121d3565b610108546040805160e060020a6318160ddd0281529051600092600160a060020a0316916318160ddd916004808301926020929190829003018186803b15801561143f57600080fd5b670de0b6b3a764000081565b610109546040805160e060020a639f3d87b50281526004810184905290516000928392600160a060020a0390911691639f3d87b591602480820192602092909190829003018186803b15801561222857600080fd5b505afa15801561223c573d6000803e3d6000fd5b505050506040513d602081101561225257600080fd5b505190506000612261846129e1565b610109546040805160e260020a633e62d0f1028152600481018890529051929350600092600160a060020a039092169163f98b43c491602480820192602092909190829003018186803b1580156122b757600080fd5b505afa1580156122cb573d6000803e3d6000fd5b505050506040513d60208110156122e157600080fd5b50516040805160e260020a63386c74cd02815260006004820152602481018390526044810185905260648101869052905191925073__MoCHelperLib__________________________9163e1b1d33491608480820192602092909190829003018186803b15801561235157600080fd5b505af4158015612365573d6000803e3d6000fd5b505050506040513d602081101561237b57600080fd5b505195945050505050565b609b546040805160e060020a63d994d6d50281523360048201529051600160a060020a039092169163d994d6d591602480820192602092909190829003018186803b1580156123d457600080fd5b505afa1580156123e8573d6000803e3d6000fd5b505050506040513d60208110156123fe57600080fd5b50516040805180820190915260168152600080516020613ce98339815191526020820152906124715760405160e560020a62461bcd02815260206004820181815283516024840152835190928392604490910191908501908083836000831561108d578181015183820152602001611075565b5060025481106124cb576040805160e560020a62461bcd02815260206004820152601f60248201527f72617465206973206c6f776572207468616e206d6f63507265636973696f6e00604482015290519081900360640190fd5b61010c55565b60d05490565b6000806124e2613002565b905060006101045460ff1660038111156124f857fe5b14158015612509575061010d548111155b156125185760019150506109eb565b600091505090565b610109546040805160e060020a639f3d87b5028152600481018490529051600092600160a060020a031691639f3d87b5916024808301926020929190829003018186803b158015611e9857600080fd5b60d05481565b600080612581611e17565b905073__MoCHelperLib__________________________63169092bf60006125a7610c82565b6125af611a77565b6125b76113f6565b61010b546125c3613160565b6125cb61179c565b896040518963ffffffff1660e060020a028152600401808981526020018881526020018781526020018681526020018581526020018481526020018381526020018281526020019850505050505050505060206040518083038186803b158015611a4557600080fd5b600061264d60d15460d0546136ba90919063ffffffff16565b431015905090565b6068546040805160e060020a633af32abf028152336004820181905291519192600160a060020a031691633af32abf91602480820192602092909190829003018186803b1580156126a557600080fd5b505afa1580156126b9573d6000803e3d6000fd5b505050506040513d60208110156126cf57600080fd5b5051612713576040805160e560020a62461bcd02815260206004820152601a6024820152600080516020613c9b833981519152604482015290519081900360640190fd5b61010f546113ee908363ffffffff6136ba16565b610109546040805160e060020a63b398eb21028152600481018490529051600092600160a060020a03169163b398eb21916024808301926020929190829003018186803b158015611e9857600080fd5b609b546040805160e060020a63d994d6d50281523360048201529051600160a060020a039092169163d994d6d591602480820192602092909190829003018186803b1580156127c557600080fd5b505afa1580156127d9573d6000803e3d6000fd5b505050506040513d60208110156127ef57600080fd5b50516040805180820190915260168152600080516020613ce98339815191526020820152906128625760405160e560020a62461bcd02815260206004820181815283516024840152835190928392604490910191908501908083836000831561108d578181015183820152602001611075565b5061286c81613717565b50565b60ce5490565b609b546040805160e060020a63d994d6d50281523360048201529051600160a060020a039092169163d994d6d591602480820192602092909190829003018186803b1580156128c357600080fd5b505afa1580156128d7573d6000803e3d6000fd5b505050506040513d60208110156128ed57600080fd5b50516040805180820190915260168152600080516020613ce98339815191526020820152906129605760405160e560020a62461bcd02815260206004820181815283516024840152835190928392604490910191908501908083836000831561108d578181015183820152602001611075565b50609b8054600160a060020a031916600160a060020a0392909216919091179055565b6101105481565b610109546040805160e160020a63709c638502815260f460020a6104330260048201529051600092600160a060020a03169163e138c70a916024808301926020929190829003018186803b15801561143f57600080fd5b610109546040805160e160020a63709c63850281526004810184905290516000928392600160a060020a039091169163e138c70a91602480820192602092909190829003018186803b158015612a3657600080fd5b505afa158015612a4a573d6000803e3d6000fd5b505050506040513d6020811015612a6057600080fd5b5051905073__MoCHelperLib__________________________630fa79b356000612a88613160565b8461010b546040518563ffffffff1660e060020a0281526004018085815260200184815260200183815260200182815260200194505050505060206040518083038186803b1580156114e857600080fd5b6000610a4a612aef60f460020a61043302613243565b6133e7565b609b546040805160e060020a63d994d6d50281523360048201529051600160a060020a039092169163d994d6d591602480820192602092909190829003018186803b158015612b4257600080fd5b505afa158015612b56573d6000803e3d6000fd5b505050506040513d6020811015612b6c57600080fd5b50516040805180820190915260168152600080516020613ce9833981519152602082015290612bdf5760405160e560020a62461bcd02815260206004820181815283516024840152835190928392604490910191908501908083836000831561108d578181015183820152602001611075565b5061010a55565b6000610a4a612bf3611ace565b6117b160f460020a610433025b610109546040805160e260020a633e62d0f10281526004810184905290516000928392600160a060020a039091169163f98b43c491602480820192602092909190829003018186803b158015612c5557600080fd5b505afa158015612c69573d6000803e3d6000fd5b505050506040513d6020811015612c7f57600080fd5b5051610109546040805160e160020a63709c6385028152600481018790529051929350600092600160a060020a039092169163e138c70a91602480820192602092909190829003018186803b158015612cd757600080fd5b505afa158015612ceb573d6000803e3d6000fd5b505050506040513d6020811015612d0157600080fd5b5051610109546040805160e060020a63b398eb21028152600481018890529051929350600092600160a060020a039092169163b398eb2191602480820192602092909190829003018186803b158015612d5957600080fd5b505afa158015612d6d573d6000803e3d6000fd5b505050506040513d6020811015612d8357600080fd5b505161010b5490915073__MoCHelperLib__________________________9063ba036a2990600090869085908790612db9613160565b612dc161179c565b6040518863ffffffff1660e060020a0281526004018088815260200187815260200186815260200185815260200184815260200183815260200182815260200197505050505050505060206040518083038186803b15801561235157600080fd5b610109546040805160e160020a63709c638502815260f460020a61043302600482015290516000928392600160a060020a039091169163e138c70a91602480820192602092909190829003018186803b158015612e7e57600080fd5b505afa158015612e92573d6000803e3d6000fd5b505050506040513d6020811015612ea857600080fd5b505190506000612eb7846132ac565b9050600073__MoCHelperLib__________________________63069f62dc90918461010b54612ee4613160565b866040518663ffffffff1660e060020a028152600401808681526020018581526020018481526020018381526020018281526020019550505050505060206040518083038186803b158015610af057600080fd5b6101045460ff1681565b603554610100900460ff1680612f5b5750612f5b61377a565b80612f69575060355460ff16155b612fa75760405160e560020a62461bcd02815260040180806020018281038252602e815260200180613cbb602e913960400191505060405180910390fd5b603554610100900460ff16158015612fd2576035805460ff1961ff0019909116610100171660011790555b609b8054600160a060020a031916600160a060020a0384161790558015610c6e576035805461ff00191690555050565b60008061300d611b9a565b905073__MoCHelperLib__________________________63e1b034846000613033610c82565b846040518463ffffffff1660e060020a02815260040180848152602001838152602001828152602001935050505060206040518083038186803b158015611a4557600080fd5b60cf5490565b603554610100900460ff1680613098575061309861377a565b806130a6575060355460ff16155b6130e45760405160e560020a62461bcd02815260040180806020018281038252602e815260200180613cbb602e913960400191505060405180910390fd5b603554610100900460ff1615801561310f576035805460ff1961ff0019909116610100171660011790555b613117613780565b6131208b6137b2565b613128613872565b6131368a8a8a8a8a8a613b35565b613141848484613b97565b8015613153576035805461ff00191690555b5050505050505050505050565b600080600061010460019054906101000a9004600160a060020a0316600160a060020a03166359e02dd76040518163ffffffff1660e060020a028152600401604080518083038186803b1580156131b657600080fd5b505afa1580156131ca573d6000803e3d6000fd5b505050506040513d60408110156131e057600080fd5b50805160209091015190925090508061323d576040805160e560020a62461bcd0281526020600482015260146024820152606060020a734f7261636c652068617665206e6f20507269636502604482015290519081900360640190fd5b50905090565b610109546040805160e160020a63709c6385028152600481018490529051600092600160a060020a03169163e138c70a916024808301926020929190829003018186803b158015611e9857600080fd5b60f460020a6104330281565b60015490565b61010e5481565b6000806132b883611eca565b9050600073__MoCHelperLib__________________________63df3992079091836040518363ffffffff1660e060020a028152600401808381526020018281526020019250505060206040518083038186803b1580156114e857600080fd5b610109546040805160e260020a633e62d0f10281526004810184905290516000928392600160a060020a039091169163f98b43c491602480820192602092909190829003018186803b15801561336c57600080fd5b505afa158015613380573d6000803e3d6000fd5b505050506040513d602081101561339657600080fd5b5051905060006133a5846129e1565b90508181106133b957600092505050610b21565b6133c9828263ffffffff61364416565b949350505050565b610c716133dc613160565b613bb0565b60025490565b600073__MoCHelperLib__________________________637b5c24eb828461340d6113f6565b6040518463ffffffff1660e060020a02815260040180848152602001838152602001828152602001935050505060206040518083038186803b15801561345257600080fd5b505af4158015611eac573d6000803e3d6000fd5b610109546040805160e260020a633e62d0f1028152600481018490529051600092600160a060020a03169163f98b43c4916024808301926020929190829003018186803b158015611e9857600080fd5b61010d5481565b6000826134cc5750600061351c565b828202828482816134d957fe5b04146135195760405160e560020a62461bcd028152600401808060200182810382526021815260200180613c7a6021913960400191505060405180910390fd5b90505b92915050565b600080821161357b576040805160e560020a62461bcd02815260206004820152601a60248201527f536166654d6174683a206469766973696f6e206279207a65726f000000000000604482015290519081900360640190fd5b600082848161358657fe5b04949350505050565b60006135a561359c611b9a565b61010f546136a4565b905073__MoCHelperLib__________________________630a4be8236000836135cc6113f6565b6040518463ffffffff1660e060020a02815260040180848152602001838152602001828152602001935050505060206040518083038186803b15801561361157600080fd5b505af4158015613625573d6000803e3d6000fd5b505050506040513d602081101561363b57600080fd5b50516101105550565b60008282111561369e576040805160e560020a62461bcd02815260206004820152601e60248201527f536166654d6174683a207375627472616374696f6e206f766572666c6f770000604482015290519081900360640190fd5b50900390565b60008183106136b35781613519565b5090919050565b600082820183811015613519576040805160e560020a62461bcd02815260206004820152601b60248201527f536166654d6174683a206164646974696f6e206f766572666c6f770000000000604482015290519081900360640190fd5b670de0b6b3a7640000811115613775576040805160e560020a62461bcd0281526020600482015260186024820152604160020a7724b73b30b634b21039b6b7b7ba3434b733903330b1ba37b902604482015290519081900360640190fd5b60cf55565b303b1590565b60408051606081018252670de0b6b3a76400008082526001602083018190529190920182905260008290558055600255565b603554610100900460ff16806137cb57506137cb61377a565b806137d9575060355460ff16155b6138175760405160e560020a62461bcd02815260040180806020018281038252602e815260200180613cbb602e913960400191505060405180910390fd5b603554610100900460ff16158015613842576035805460ff1961ff0019909116610100171660011790555b60688054600160a060020a031916600160a060020a0384161790558015610c6e576035805461ff00191690555050565b606860009054906101000a9004600160a060020a0316600160a060020a031663b29ead6c6040518163ffffffff1660e060020a02815260040160206040518083038186803b1580156138c357600080fd5b505afa1580156138d7573d6000803e3d6000fd5b505050506040513d60208110156138ed57600080fd5b50516101058054600160a060020a031916600160a060020a039283161790556068546040805160e060020a63a9d75b2b0281529051919092169163a9d75b2b916004808301926020929190829003018186803b15801561394c57600080fd5b505afa158015613960573d6000803e3d6000fd5b505050506040513d602081101561397657600080fd5b50516101078054600160a060020a031916600160a060020a039283161790556068546040805160e160020a634d9abbbf02815290519190921691639b35777e916004808301926020929190829003018186803b1580156139d557600080fd5b505afa1580156139e9573d6000803e3d6000fd5b505050506040513d60208110156139ff57600080fd5b50516101088054600160a060020a031916600160a060020a039283161790556068546040805160e060020a63360b41b10281529051919092169163360b41b1916004808301926020929190829003018186803b158015613a5e57600080fd5b505afa158015613a72573d6000803e3d6000fd5b505050506040513d6020811015613a8857600080fd5b50516101098054600160a060020a031916600160a060020a039283161790556068546040805160e160020a63679ab6ed0281529051919092169163cf356dda916004808301926020929190829003018186803b158015613ae757600080fd5b505afa158015613afb573d6000803e3d6000fd5b505050506040513d6020811015613b1157600080fd5b50516101068054600160a060020a031916600160a060020a03909216919091179055565b61010d9390935561010e9190915561010c5561010a55609b8054600160a060020a031916600160a060020a03938416179055610104805461010060a860020a03191661010092909316919091029190911760ff19166003179055600161010b55565b613ba082613717565b4360d05560ce929092555060d155565b613bb8612634565b1561286c576000613bd460cf54836134bd90919063ffffffff16565b90506000613c0e670de0b6b3a7640000610a3e84613c02613bf3613c5a565b60ce549063ffffffff6134bd16565b9063ffffffff6136ba16565b4360d05560ce819055604080518581526020810183905281519293507f8cf60c7db6ef7d88fad2695a615a151ecebf27045d4887b69fdf5ce5b46fc619929081900390910190a1505050565b6000610a4a60cf54670de0b6b3a764000061364490919063ffffffff1656fe536166654d6174683a206d756c7469706c69636174696f6e206f766572666c6f7741646472657373206973206e6f742077686974656c6973746564000000000000436f6e747261637420696e7374616e63652068617320616c7265616479206265656e20696e697469616c697a65646e6f745f617574686f72697a65645f6368616e67657200000000000000000000a165627a7a723058201fedb9fc287c76d2d2da324dfcdf3057cf2675b376fcfc47f574289a2567d84f0029",
  "source": "pragma solidity 0.5.8;\n\nimport \"openzeppelin-solidity/contracts/math/Math.sol\";\nimport \"./interface/PriceProvider.sol\";\nimport \"./MoCEMACalculator.sol\";\nimport \"./base/MoCBase.sol\";\nimport \"./MoCLibConnection.sol\";\nimport \"./MoCRiskProxManager.sol\";\nimport \"./token/StableToken.sol\";\nimport \"./token/RiskProToken.sol\";\nimport \"./MoCSettlement.sol\";\nimport \"moc-governance/contracts/Governance/Governed.sol\";\nimport \"moc-governance/contracts/Governance/IGovernor.sol\";\n\ncontract MoCState is MoCLibConnection, MoCBase, MoCEMACalculator {\n  using Math for uint256;\n  using SafeMath for uint256;\n\n  // This is the current state.\n  States public state;\n\n  event StateTransition(States newState);\n  event PriceProviderUpdated(address oldAddress, address newAddress);\n  // Contracts\n  PriceProvider internal priceProvider;\n  MoCSettlement internal mocSettlement;\n  MoCConverter internal mocConverter;\n  StableToken internal stableToken;\n  RiskProToken internal riskProToken;\n  MoCRiskProxManager internal riskProxManager;\n\n  // One Day based on 15 seconds blocks\n  uint256 public dayBlockSpan;\n  // Relation between StableToken and dollar\n  uint256 public peg;\n  // RiskPro max discount rate\n  // Reflects the discount spot rate at Liquidation level\n  uint256 public riskProMaxDiscountRate;\n  // Liquidation limit\n  // [using mocPrecision]\n  uint256 public liq;\n  // RiskPro with discount limit\n  // [using mocPrecision]\n  uint256 public utpdu;\n  // Complete amount reserves in the system\n  uint256 public reserves;\n  // Price to use at stableToken redemption at\n  // liquidation event\n  uint256 public liquidationPrice;\n\n  function initialize(\n    address connectorAddress,\n    address _governor,\n    address _priceProvider,\n    uint256 _liq,\n    uint256 _utpdu,\n    uint256 _maxDiscRate,\n    uint256 _dayBlockSpan,\n    uint256 _ema,\n    uint256 _smoothFactor,\n    uint256 _emaBlockSpan\n  ) public initializer {\n    initializePrecisions();\n    initializeBase(connectorAddress);\n    initializeContracts();\n    initializeValues(_governor, _priceProvider,_liq, _utpdu, _maxDiscRate, _dayBlockSpan);\n    initializeMovingAverage(_ema, _smoothFactor, _emaBlockSpan);\n  }\n\n  /**\n  * @param rate Discount rate at liquidation level [using mocPrecision]\n  **/\n  function setMaxDiscountRate(uint256 rate) public onlyAuthorizedChanger() {\n    require(rate < mocLibConfig.mocPrecision, \"rate is lower than mocPrecision\");\n\n    riskProMaxDiscountRate = rate;\n  }\n\n    /**\n   * @dev return the value of the RiskPro max discount rate configuration param\n   * @return riskProMaxDiscountRate RiskPro max discount rate\n   */\n  function getMaxDiscountRate() public view returns(uint256) {\n    return riskProMaxDiscountRate;\n  }\n\n  /**\n  * @dev Defines how many blocks there are in a day\n  * @param blockSpan blocks there are in a day\n  **/\n  function setDayBlockSpan(uint256 blockSpan) public onlyAuthorizedChanger() {\n    dayBlockSpan = blockSpan;\n  }\n\n  /**\n  * @dev Sets a new PriceProvider contract\n  * @param priceProviderAddress blocks there are in a day\n  **/\n  function setPriceProvider(address priceProviderAddress) public onlyAuthorizedChanger() {\n    address oldPriceProviderAddress = address(priceProvider);\n    priceProvider = PriceProvider(priceProviderAddress);\n    emit PriceProviderUpdated(oldPriceProviderAddress, address(priceProvider));\n  }\n\n  /**\n  * @dev Gets the PriceProviderAddress\n  * @return priceProvider blocks there are in a day\n  **/\n  function getPriceProvider() public view returns(address) {\n    return address(priceProvider);\n  }\n  /**\n   * @dev Gets how many blocks there are in a day\n   * @return blocks there are in a day\n   */\n  function getDayBlockSpan() public view returns(uint256) {\n    return dayBlockSpan;\n  }\n  /******STATE MACHINE*********/\n\n  enum States {\n    // State 0\n    Liquidated,\n    // State 1\n    RiskProDiscount,\n    // State 2\n    BelowCobj,\n    // State 3\n    AboveCobj\n  }\n\n/**\n  * @dev Subtract the reserve amount passed by parameter to the reserves total\n  * @param amount Amount that will be subtract to reserves\n  */\n  function substractFromReserves(uint256 amount) public onlyWhitelisted(msg.sender) {\n    reserves = reserves.sub(amount);\n  }\n\n  /**\n  * @dev Add the reserve amount passed by parameter to the reserves total\n  * @param amount Amount that will be added to reserves\n  */\n  function addToReserves(uint256 amount) public onlyWhitelisted(msg.sender) {\n    reserves = reserves.add(amount);\n  }\n\n  /**\n    @dev All RiskPros in circulation\n   */\n  function riskProTotalSupply() public view returns(uint256) {\n    return riskProToken.totalSupply();\n  }\n\n  /**\n    @dev All stableTokens in circulation\n   */\n  function stableTokenTotalSupply() public view returns(uint256) {\n    return stableToken.totalSupply();\n  }\n\n  /**\n    @dev Target coverage for complete system\n   */\n  function cobj() public view returns(uint256) {\n    return riskProxManager.getBucketCobj(BUCKET_C0);\n  }\n\n  /**\n    * @dev Amount of ReserveTokens in the system excluding\n    * RiskProx values and interests holdings\n    */\n  function collateralReserves() public view returns(uint256) {\n    uint256 resTokensInRiskProx = mocConverter.riskProxToResToken(riskProxManager.getBucketNRiskPro(BUCKET_X2),BUCKET_X2);\n    uint256 resTokensInBag = riskProxManager.getInrateBag(BUCKET_C0);\n\n    return reserves.sub(resTokensInRiskProx).sub(resTokensInBag);\n  }\n\n  /** @dev GLOBAL Coverage\n    * @return coverage [using mocPrecision].\n    */\n  function globalCoverage() public view returns(uint256) {\n    uint256 lB = globalLockedReserveTokens();\n\n    return mocLibConfig.coverage(collateralReserves(), lB);\n  }\n\n  /**\n  * @dev BUCKET lockedReserveTokens\n  * @param bucket Name of the bucket used\n  * @return lockedReserveTokens amount [using reservePrecision].\n  */\n  function lockedReserveTokens(bytes32 bucket) public view returns(uint256) {\n    uint256 nStableToken = riskProxManager.getBucketNStableToken(bucket);\n\n    return mocLibConfig.lockedReserveTokens(getReserveTokenPrice(), nStableToken, peg);\n  }\n\n  /**\n  * @dev Gets ReserveTokens in RiskPro within specified bucket\n  * @param bucket Name of the bucket used\n  * @return ReserveToken amount of RiskPro in Bucket [using reservePrecision].\n  */\n  function getResTokensInRiskPro(bytes32 bucket) public view returns(uint256) {\n    uint256 nReserve = riskProxManager.getBucketNReserve(bucket);\n    uint256 lB = lockedReserveTokens(bucket);\n\n    if ( lB >= nReserve ){\n      return 0;\n    }\n\n    return nReserve.sub(lB);\n  }\n\n  /**\n  * @dev Gets the ReserveTokens in the contract that not corresponds\n    to StableToken collateral\n  * @return ReserveTokens remainder [using reservePrecision].\n  */\n  function getReservesRemainder() public view returns(uint256) {\n    uint256 lB = globalLockedReserveTokens();\n\n    if ( lB >= reserves ){\n      return 0;\n    }\n\n    return reserves.sub(lB);\n  }\n\n  /**\n  * @dev BUCKET Coverage\n  * @param bucket Name of the bucket used\n  * @return coverage [using mocPrecision]\n  */\n  function coverage(bytes32 bucket) public view returns(uint256) {\n    if (!riskProxManager.isBucketBase(bucket) && riskProxManager.isBucketEmpty(bucket)) {\n      return riskProxManager.getBucketCobj(bucket);\n    }\n\n    uint256 nReserve = riskProxManager.getBucketNReserve(bucket);\n    uint256 lB = lockedReserveTokens(bucket);\n\n    return mocLibConfig.coverage(nReserve, lB);\n  }\n\n    /**\n  * @dev Abundance ratio, receives tha amount of stableToken to use the value of stableToken0 and StableToken total supply\n  * @return abundance ratio [using mocPrecision]\n  */\n  function abundanceRatio(uint256 stableToken0) public view returns(uint256) {\n    return mocLibConfig.abundanceRatio(stableToken0, stableTokenTotalSupply());\n  }\n\n  /**\n  * @dev Relation between stableTokens in bucket 0 and StableToken total supply\n  * @return abundance ratio [using mocPrecision]\n  */\n  function currentAbundanceRatio() public view returns(uint256) {\n    return abundanceRatio(getBucketNStableToken(BUCKET_C0));\n  }\n\n  /**\n  * @dev BUCKET Leverage\n  * @param bucket Name of the bucket used\n  * @return leverage [using mocPrecision]\n  */\n  function leverage(bytes32 bucket) public view returns(uint256) {\n    uint256 cov = coverage(bucket);\n\n    return mocLibConfig.leverageFromCoverage(cov);\n  }\n\n  /**\n  * @dev GLOBAL maxStableToken\n  * @return maxStableToken to issue [using mocPrecision]\n  */\n  function globalMaxStableToken() public view returns(uint256) {\n    return mocLibConfig.maxStableToken(collateralReserves(), cobj(), stableTokenTotalSupply(), peg, getReserveTokenPrice(), getBcons());\n  }\n\n  /**\n  * @return amount of stableTokens in bucket 0, that can be redeemed outside of settlement [using mocPrecision]\n  */\n  function freeStableToken() public view returns(uint256) {\n    return riskProxManager.getBucketNStableToken(BUCKET_C0);\n  }\n\n  /**\n  * @dev BUCKET maxStableToken\n  * @return maxStableToken to issue [using mocPrecision]\n  */\n  function maxStableToken(bytes32 bucket) public view returns(uint256) {\n    uint256 nReserve = riskProxManager.getBucketNReserve(bucket);\n    uint256 nStableToken = riskProxManager.getBucketNStableToken(bucket);\n    uint256 bktCobj = riskProxManager.getBucketCobj(bucket);\n\n    return mocLibConfig.maxStableToken(nReserve, bktCobj, nStableToken, peg, getReserveTokenPrice(), getBcons());\n  }\n\n  /**\n  * @dev GLOBAL maxRiskPro\n  * @return maxRiskPro for redeem [using mocPrecision].\n  */\n  function globalMaxRiskPro() public view returns(uint256) {\n    uint256 riskProPrice = riskProUsdPrice();\n\n    return mocLibConfig.maxRiskPro(\n      collateralReserves(), cobj(), stableTokenTotalSupply(), peg, getReserveTokenPrice(), getBcons(), riskProPrice\n    );\n  }\n\n  /**\n  * @dev ABSOLUTE maxStableToken\n  * @return maxStableToken to issue [using mocPrecision]\n  */\n  function absoluteMaxStableToken() public view returns(uint256) {\n    return Math.min(globalMaxStableToken(), maxStableToken(BUCKET_C0));\n  }\n\n  /** @dev BUCKET maxRiskPro to redeem / mint\n      @param bucket Name of the bucket used\n    * @return maxRiskPro for redeem [using mocPrecision].\n    */\n  function maxRiskPro(bytes32 bucket) public view returns(uint256) {\n    uint256 nReserve = riskProxManager.getBucketNReserve(bucket);\n    uint256 nStableToken = riskProxManager.getBucketNStableToken(bucket);\n    uint256 riskProPrice = riskProUsdPrice();\n    uint256 bktCobj = riskProxManager.getBucketCobj(bucket);\n\n    return mocLibConfig.maxRiskPro(\n      nReserve, bktCobj, nStableToken, peg, getReserveTokenPrice(), getBcons(), riskProPrice\n    );\n  }\n\n /**\n  * @dev GLOBAL max riskProx to mint\n  * @param bucket Name of the bucket used\n  * @return maxRiskProx [using mocPrecision]\n  */\n  function maxRiskProx(bytes32 bucket) public view returns(uint256) {\n    uint256 maxResTokens = maxRiskProxResTokenValue(bucket);\n\n    return mocLibConfig.maxRiskProWithResTokens(maxResTokens, bucketRiskProTecPrice(bucket));\n  }\n\n  /**\n  * @dev GLOBAL max riskProx to mint\n  * @param bucket Name of the bucket used\n  * @return maxRiskProx ReserveTokens value to mint [using reservePrecision]\n  */\n  function maxRiskProxResTokenValue(bytes32 bucket) public view returns(uint256) {\n    uint256 nStableToken0 = riskProxManager.getBucketNStableToken(BUCKET_C0);\n    uint256 bucketLev = leverage(bucket);\n\n    return mocLibConfig.maxRiskProxResTokenValue(nStableToken0, peg, getReserveTokenPrice(), bucketLev);\n  }\n\n  /** @dev ABSOLUTE maxRiskPro\n  * @return maxStableToken to issue [using mocPrecision].\n  */\n  function absoluteMaxRiskPro() public view returns(uint256) {\n    return Math.min(globalMaxRiskPro(), maxRiskPro(BUCKET_C0));\n  }\n\n  /**\n  * @dev DISCOUNT maxRiskPro\n  * @return maxRiskPro for mint with discount [using mocPrecision]\n  */\n  function maxRiskProWithDiscount() public view returns(uint256) {\n    uint256 nStableToken = stableTokenTotalSupply();\n    uint256 riskProSpotDiscount = riskProSpotDiscountRate();\n    uint256 riskProPrice = riskProUsdPrice();\n    uint256 reservePrice = getReserveTokenPrice();\n\n    return mocLibConfig.maxRiskProWithDiscount(collateralReserves(), nStableToken, utpdu, peg, reservePrice, riskProPrice,\n      riskProSpotDiscount);\n  }\n\n  /**\n  * @dev GLOBAL lockedReserveTokens\n  * @return lockedReserveTokens amount [using reservePrecision].\n  */\n  function globalLockedReserveTokens() public view returns(uint256) {\n    return mocLibConfig.lockedReserveTokens(getReserveTokenPrice(), stableTokenTotalSupply(), peg);\n  }\n\n  /**\n  * @dev ReserveTokens price of RiskPro\n  * @return the RiskPro Tec Price [using reservePrecision].\n  */\n  function riskProTecPrice() public view returns(uint256) {\n    return bucketRiskProTecPrice(BUCKET_C0);\n  }\n\n  /**\n  * @dev BUCKET ReserveTokens price of RiskPro\n  * @param bucket Name of the bucket used\n  * @return the RiskPro Tec Price [using reservePrecision].\n  */\n  function bucketRiskProTecPrice(bytes32 bucket) public view returns(uint256) {\n    uint256 nRiskPro = riskProxManager.getBucketNRiskPro(bucket);\n    uint256 lb = lockedReserveTokens(bucket);\n    uint256 nReserve = riskProxManager.getBucketNReserve(bucket);\n\n    return mocLibConfig.riskProTecPrice(nReserve, lb, nRiskPro);\n  }\n\n  /**\n  * @dev ReserveTokens price of RiskPro with spot discount applied\n  * @return the RiskPro Tec Price [using reservePrecision].\n  */\n  function riskProDiscountPrice() public view returns(uint256) {\n    uint256 riskProTecprice = riskProTecPrice();\n    uint256 discountRate = riskProSpotDiscountRate();\n\n    return mocLibConfig.applyDiscountRate(riskProTecprice, discountRate);\n  }\n\n  /**\n  * @dev RiskPro USD PRICE\n  * @return the RiskPro USD Price [using mocPrecision]\n  */\n  function riskProUsdPrice() public view returns(uint256) {\n    uint256 riskProResTokenPrice = riskProTecPrice();\n    uint256 reservePrice = getReserveTokenPrice();\n\n    return reservePrice.mul(riskProResTokenPrice).div(mocLibConfig.reservePrecision);\n  }\n\n /**\n  * @dev GLOBAL max riskProx to mint\n  * @param bucket Name of the bucket used\n  * @return max RiskPro allowed to be spent to mint RiskProx [using reservePrecision]\n  **/\n  function maxRiskProxRiskProValue(bytes32 bucket) public view returns(uint256) {\n    uint256 resTokensValue = maxRiskProxResTokenValue(bucket);\n\n    return mocLibConfig.maxRiskProWithResTokens(resTokensValue, riskProTecPrice());\n  }\n\n  /**\n  * @dev BUCKET RiskProx price in RiskPro\n  * @param bucket Name of the bucket used\n  * @return RiskPro RiskPro Price [[using mocPrecision]Precision].\n  */\n  function riskProxRiskProPrice(bytes32 bucket) public view returns(uint256) {\n    // Otherwise, it reverts.\n    if (state == States.Liquidated) {\n      return 0;\n    }\n\n    uint256 riskProxResTokenPrice = bucketRiskProTecPrice(bucket);\n    uint256 riskProResTokenPrice = riskProTecPrice();\n\n    return mocLibConfig.riskProxRiskProPrice(riskProxResTokenPrice, riskProResTokenPrice);\n  }\n\n  /**\n  * @dev GLOBAL ReserveTokens Discount rate to apply to RiskProPrice.\n  * @return RiskPro discount rate [using DISCOUNT_PRECISION].\n   */\n  function riskProSpotDiscountRate() public view returns(uint256) {\n    uint256 cov = globalCoverage();\n\n    return mocLibConfig.riskProSpotDiscountRate(riskProMaxDiscountRate, liq, utpdu, cov);\n  }\n\n  /**\n    @dev Calculates the number of days to next settlement based dayBlockSpan\n   */\n  function daysToSettlement() public view returns(uint256) {\n    return blocksToSettlement().mul(mocLibConfig.dayPrecision).div(dayBlockSpan);\n  }\n\n  /**\n    @dev Number of blocks to settlement\n   */\n  function blocksToSettlement() public view returns(uint256) {\n    if (mocSettlement.nextSettlementBlock() <= block.number) {\n      return 0;\n    }\n\n    return mocSettlement.nextSettlementBlock().sub(block.number);\n  }\n\n  /**\n   * @dev Verifies if forced liquidation is reached checking if globalCoverage <= liquidation (currently 1.04)\n   * @return true if liquidation state is reached, false otherwise\n   */\n  function isLiquidationReached() public view returns(bool) {\n    uint256 cov = globalCoverage();\n    if (state != States.Liquidated && cov <= liq)\n      return true;\n    return false;\n  }\n\n  /**\n    @dev Returns the price to use for stableToken redeem in a liquidation event\n   */\n  function getLiquidationPrice() public view returns(uint256) {\n    return liquidationPrice;\n  }\n\n  function getBucketNReserve(bytes32 bucket) public view returns(uint256) {\n    return riskProxManager.getBucketNReserve(bucket);\n  }\n\n  function getBucketNRiskPro(bytes32 bucket) public view returns(uint256) {\n    return riskProxManager.getBucketNRiskPro(bucket);\n  }\n\n  function getBucketNStableToken(bytes32 bucket) public view returns(uint256) {\n    return riskProxManager.getBucketNStableToken(bucket);\n  }\n\n  function getBucketCobj(bytes32 bucket) public view returns(uint256) {\n    return riskProxManager.getBucketCobj(bucket);\n  }\n\n  function getInrateBag(bytes32 bucket) public view returns(uint256) {\n    return riskProxManager.getInrateBag(bucket);\n  }\n\n  /**********************\n    ReserveTokens PRICE PROVIDER\n   *********************/\n\n  function getBcons() public view returns(uint256) {\n    return Math.min(getReserveTokenPrice(), getExponentalMovingAverage());\n  }\n\n  function getReserveTokenPrice() public view returns(uint256) {\n    (bytes32 price, bool has) = priceProvider.peek();\n    require(has, \"Oracle have no Price\");\n\n    return uint256(price);\n  }\n\n\n  function calculateReserveTokenMovingAverage() public {\n    setExponentalMovingAverage(getReserveTokenPrice());\n  }\n\n\n\n  /**\n   * @dev return the value of the liq threshold configuration param\n   * @return liq threshold, currently 1.04\n   */\n  function getLiq() public view returns(uint256) {\n    return liq;\n  }\n\n  /**\n   * @dev sets the value of the liq threshold configuration param\n   * @param _liq liquidation threshold\n   */\n  function setLiq(uint _liq) public onlyAuthorizedChanger(){\n    liq = _liq;\n  }\n\n  /**\n   * @dev return the value of the utpdu threshold configuration param\n   * @return utpdu Universal TPro discount sales coverage threshold\n   */\n  function getUtpdu() public view returns(uint256) {\n    return utpdu;\n  }\n\n  /**\n   * @dev sets the value of the utpdu threshold configuration param\n   * @param _utpdu Universal TPro discount sales coverage threshold\n   */\n  function setUtpdu(uint _utpdu) public onlyAuthorizedChanger(){\n    utpdu = _utpdu;\n  }\n\n  /**\n   * @dev returns the relation between StableToken and dollar. By default it is 1.\n   * @return peg relation between StableToken and dollar\n   */\n  function getPeg() public view returns(uint256) {\n    return peg;\n  }\n\n  /**\n   * @dev sets the relation between StableToken and dollar. By default it is 1.\n   * @param _peg relation between StableToken and dollar\n   */\n  function setPeg(uint _peg) public onlyAuthorizedChanger(){\n    peg = _peg;\n  }\n\n  function nextState() public {\n    // There is no coming back from Liquidation\n    if (state == States.Liquidated)\n      return;\n\n    States prevState = state;\n    calculateReserveTokenMovingAverage();\n    uint256 cov = globalCoverage();\n    if (cov <= liq) {\n      setLiquidationPrice();\n      state = States.Liquidated;\n    } else if (cov > liq && cov <= utpdu) {\n      state = States.RiskProDiscount;\n    } else if (cov > utpdu && cov <= cobj()) {\n      state = States.BelowCobj;\n    } else {\n      state = States.AboveCobj;\n    }\n\n    if (prevState != state)\n      emit StateTransition(state);\n  }\n\n\n  /**\n    @dev Calculates price at liquidation event as the relation between\n    the stableToken total supply and the amount of ReserveTokens available to distribute\n   */\n  function setLiquidationPrice() internal {\n    // When coverage is below 1, the amount to\n    // distribute is all the ReserveTokens in the contract\n    uint256 resTokenscAvailable = Math.min(globalLockedReserveTokens(), reserves);\n\n    liquidationPrice = mocLibConfig.liquidationPrice(resTokenscAvailable, stableTokenTotalSupply());\n  }\n\n  function initializeValues(\n    address _governor,\n    address _priceProvider,\n    uint256 _liq,\n    uint256 _utpdu,\n    uint256 _maxDiscRate,\n    uint256 _dayBlockSpan) internal {\n    liq = _liq;\n    utpdu = _utpdu;\n    riskProMaxDiscountRate = _maxDiscRate;\n    dayBlockSpan = _dayBlockSpan;\n    governor = IGovernor(_governor);\n    priceProvider = PriceProvider(_priceProvider);\n    // Default values\n    state = States.AboveCobj;\n    peg = 1;\n  }\n\n  function initializeContracts() internal  {\n    mocSettlement = MoCSettlement(connector.mocSettlement());\n    stableToken = StableToken(connector.stableToken());\n    riskProToken = RiskProToken(connector.riskProToken());\n    riskProxManager = MoCRiskProxManager(connector.riskProxManager());\n    mocConverter = MoCConverter(connector.mocConverter());\n  }\n\n  // Leave a gap betweeen inherited contracts variables in order to be\n  // able to add more variables in them later\n  uint256[50] private upgradeGap;\n}\n",
  "sourcePath": "/home/martin/Proyectos/moc_deployments/contracts/repositories/testnet_rrc20_v012/contracts/MoCState.sol",
  "compiler": {
    "name": "solc",
    "version": "0.5.8+commit.23d335f2.Emscripten.clang"
  },
  "schemaVersion": "3.0.11",
  "updatedAt": "2019-09-11T11:24:56.960Z",
  "devdoc": {
    "methods": {
      "absoluteMaxRiskPro()": {
        "details": "ABSOLUTE maxRiskPro",
        "return": "maxStableToken to issue [using mocPrecision]."
      },
      "absoluteMaxStableToken()": {
        "details": "ABSOLUTE maxStableToken",
        "return": "maxStableToken to issue [using mocPrecision]"
      },
      "abundanceRatio(uint256)": {
        "details": "Abundance ratio, receives tha amount of stableToken to use the value of stableToken0 and StableToken total supply",
        "return": "abundance ratio [using mocPrecision]"
      },
      "addToReserves(uint256)": {
        "details": "Add the reserve amount passed by parameter to the reserves total",
        "params": {
          "amount": "Amount that will be added to reserves"
        }
      },
      "blocksToSettlement()": {
        "details": "Number of blocks to settlement"
      },
      "bucketRiskProTecPrice(bytes32)": {
        "details": "BUCKET ReserveTokens price of RiskPro",
        "params": {
          "bucket": "Name of the bucket used"
        },
        "return": "the RiskPro Tec Price [using reservePrecision]."
      },
      "changeIGovernor(address)": {
        "params": {
          "newIGovernor": "New governor address"
        }
      },
      "cobj()": {
        "details": "Target coverage for complete system"
      },
      "collateralReserves()": {
        "details": "Amount of ReserveTokens in the system excluding RiskProx values and interests holdings"
      },
      "coverage(bytes32)": {
        "details": "BUCKET Coverage",
        "params": {
          "bucket": "Name of the bucket used"
        },
        "return": "coverage [using mocPrecision]"
      },
      "currentAbundanceRatio()": {
        "details": "Relation between stableTokens in bucket 0 and StableToken total supply",
        "return": "abundance ratio [using mocPrecision]"
      },
      "daysToSettlement()": {
        "details": "Calculates the number of days to next settlement based dayBlockSpan"
      },
      "freeStableToken()": {
        "return": "amount of stableTokens in bucket 0, that can be redeemed outside of settlement [using mocPrecision]"
      },
      "getDayBlockSpan()": {
        "details": "Gets how many blocks there are in a day",
        "return": "blocks there are in a day"
      },
      "getLiq()": {
        "details": "return the value of the liq threshold configuration param",
        "return": "liq threshold, currently 1.04"
      },
      "getLiquidationPrice()": {
        "details": "Returns the price to use for stableToken redeem in a liquidation event"
      },
      "getMaxDiscountRate()": {
        "details": "return the value of the RiskPro max discount rate configuration param",
        "return": "riskProMaxDiscountRate RiskPro max discount rate"
      },
      "getPeg()": {
        "details": "returns the relation between StableToken and dollar. By default it is 1.",
        "return": "peg relation between StableToken and dollar"
      },
      "getPriceProvider()": {
        "details": "Gets the PriceProviderAddress",
        "return": "priceProvider blocks there are in a day*"
      },
      "getResTokensInRiskPro(bytes32)": {
        "details": "Gets ReserveTokens in RiskPro within specified bucket",
        "params": {
          "bucket": "Name of the bucket used"
        },
        "return": "ReserveToken amount of RiskPro in Bucket [using reservePrecision]."
      },
      "getReservesRemainder()": {
        "details": "Gets the ReserveTokens in the contract that not corresponds to StableToken collateral",
        "return": "ReserveTokens remainder [using reservePrecision]."
      },
      "getUtpdu()": {
        "details": "return the value of the utpdu threshold configuration param",
        "return": "utpdu Universal TPro discount sales coverage threshold"
      },
      "globalCoverage()": {
        "details": "GLOBAL Coverage",
        "return": "coverage [using mocPrecision]."
      },
      "globalLockedReserveTokens()": {
        "details": "GLOBAL lockedReserveTokens",
        "return": "lockedReserveTokens amount [using reservePrecision]."
      },
      "globalMaxRiskPro()": {
        "details": "GLOBAL maxRiskPro",
        "return": "maxRiskPro for redeem [using mocPrecision]."
      },
      "globalMaxStableToken()": {
        "details": "GLOBAL maxStableToken",
        "return": "maxStableToken to issue [using mocPrecision]"
      },
      "initialize(address)": {
        "details": "This initialize replaces the constructor but it is not called automatically. It is necessary because of the upgradeability of the contracts",
        "params": {
          "_governor": "Governor address"
        }
      },
      "isLiquidationReached()": {
        "details": "Verifies if forced liquidation is reached checking if globalCoverage <= liquidation (currently 1.04)",
        "return": "true if liquidation state is reached, false otherwise"
      },
      "leverage(bytes32)": {
        "details": "BUCKET Leverage",
        "params": {
          "bucket": "Name of the bucket used"
        },
        "return": "leverage [using mocPrecision]"
      },
      "lockedReserveTokens(bytes32)": {
        "details": "BUCKET lockedReserveTokens",
        "params": {
          "bucket": "Name of the bucket used"
        },
        "return": "lockedReserveTokens amount [using reservePrecision]."
      },
      "maxRiskPro(bytes32)": {
        "details": "BUCKET maxRiskPro to redeem / mint",
        "params": {
          "bucket": "Name of the bucket used"
        },
        "return": "maxRiskPro for redeem [using mocPrecision]."
      },
      "maxRiskProWithDiscount()": {
        "details": "DISCOUNT maxRiskPro",
        "return": "maxRiskPro for mint with discount [using mocPrecision]"
      },
      "maxRiskProx(bytes32)": {
        "details": "GLOBAL max riskProx to mint",
        "params": {
          "bucket": "Name of the bucket used"
        },
        "return": "maxRiskProx [using mocPrecision]"
      },
      "maxRiskProxResTokenValue(bytes32)": {
        "details": "GLOBAL max riskProx to mint",
        "params": {
          "bucket": "Name of the bucket used"
        },
        "return": "maxRiskProx ReserveTokens value to mint [using reservePrecision]"
      },
      "maxRiskProxRiskProValue(bytes32)": {
        "details": "GLOBAL max riskProx to mint",
        "params": {
          "bucket": "Name of the bucket used"
        },
        "return": "max RiskPro allowed to be spent to mint RiskProx [using reservePrecision]*"
      },
      "maxStableToken(bytes32)": {
        "details": "BUCKET maxStableToken",
        "return": "maxStableToken to issue [using mocPrecision]"
      },
      "riskProDiscountPrice()": {
        "details": "ReserveTokens price of RiskPro with spot discount applied",
        "return": "the RiskPro Tec Price [using reservePrecision]."
      },
      "riskProSpotDiscountRate()": {
        "details": "GLOBAL ReserveTokens Discount rate to apply to RiskProPrice.",
        "return": "RiskPro discount rate [using DISCOUNT_PRECISION]."
      },
      "riskProTecPrice()": {
        "details": "ReserveTokens price of RiskPro",
        "return": "the RiskPro Tec Price [using reservePrecision]."
      },
      "riskProTotalSupply()": {
        "details": "All RiskPros in circulation"
      },
      "riskProUsdPrice()": {
        "details": "RiskPro USD PRICE",
        "return": "the RiskPro USD Price [using mocPrecision]"
      },
      "riskProxRiskProPrice(bytes32)": {
        "details": "BUCKET RiskProx price in RiskPro",
        "params": {
          "bucket": "Name of the bucket used"
        },
        "return": "RiskPro RiskPro Price [[using mocPrecision]Precision]."
      },
      "setDayBlockSpan(uint256)": {
        "details": "Defines how many blocks there are in a day",
        "params": {
          "blockSpan": "blocks there are in a day*"
        }
      },
      "setEmaCalculationBlockSpan(uint256)": {
        "params": {
          "blockSpan": "Defines how many blocks should pass between BMA calculations*"
        }
      },
      "setLiq(uint256)": {
        "details": "sets the value of the liq threshold configuration param",
        "params": {
          "_liq": "liquidation threshold"
        }
      },
      "setMaxDiscountRate(uint256)": {
        "params": {
          "rate": "Discount rate at liquidation level [using mocPrecision]*"
        }
      },
      "setPeg(uint256)": {
        "details": "sets the relation between StableToken and dollar. By default it is 1.",
        "params": {
          "_peg": "relation between StableToken and dollar"
        }
      },
      "setPriceProvider(address)": {
        "details": "Sets a new PriceProvider contract",
        "params": {
          "priceProviderAddress": "blocks there are in a day*"
        }
      },
      "setUtpdu(uint256)": {
        "details": "sets the value of the utpdu threshold configuration param",
        "params": {
          "_utpdu": "Universal TPro discount sales coverage threshold"
        }
      },
      "stableTokenTotalSupply()": {
        "details": "All stableTokens in circulation"
      },
      "substractFromReserves(uint256)": {
        "details": "Subtract the reserve amount passed by parameter to the reserves total",
        "params": {
          "amount": "Amount that will be subtract to reserves"
        }
      }
    }
  },
  "userdoc": {
    "methods": {
      "changeIGovernor(address)": {
        "notice": "Change the contract's governor. Should be called through the old governance system"
      },
      "getBcons()": {
        "notice": "******************** ReserveTokens PRICE PROVIDER********************"
      },
      "initialize(address)": {
        "notice": "Initialize the contract with the basic settings"
      }
    }
  }
}