{
  "contractName": "MoC",
  "abi": [
    {
      "constant": true,
      "inputs": [],
      "name": "getReservePrecision",
      "outputs": [
        {
          "name": "",
          "type": "uint256"
        }
      ],
      "payable": false,
      "stateMutability": "view",
      "type": "function"
    },
    {
      "constant": false,
      "inputs": [
        {
          "name": "newStopper",
          "type": "address"
        }
      ],
      "name": "setStopper",
      "outputs": [],
      "payable": false,
      "stateMutability": "nonpayable",
      "type": "function"
    },
    {
      "constant": true,
      "inputs": [],
      "name": "governor",
      "outputs": [
        {
          "name": "",
          "type": "address"
        }
      ],
      "payable": false,
      "stateMutability": "view",
      "type": "function"
    },
    {
      "constant": false,
      "inputs": [],
      "name": "unpause",
      "outputs": [],
      "payable": false,
      "stateMutability": "nonpayable",
      "type": "function"
    },
    {
      "constant": false,
      "inputs": [],
      "name": "makeUnstoppable",
      "outputs": [],
      "payable": false,
      "stateMutability": "nonpayable",
      "type": "function"
    },
    {
      "constant": true,
      "inputs": [],
      "name": "BUCKET_X2",
      "outputs": [
        {
          "name": "",
          "type": "bytes32"
        }
      ],
      "payable": false,
      "stateMutability": "view",
      "type": "function"
    },
    {
      "constant": true,
      "inputs": [],
      "name": "paused",
      "outputs": [
        {
          "name": "",
          "type": "bool"
        }
      ],
      "payable": false,
      "stateMutability": "view",
      "type": "function"
    },
    {
      "constant": true,
      "inputs": [],
      "name": "mocBurnout",
      "outputs": [
        {
          "name": "",
          "type": "address"
        }
      ],
      "payable": false,
      "stateMutability": "view",
      "type": "function"
    },
    {
      "constant": false,
      "inputs": [],
      "name": "makeStoppable",
      "outputs": [],
      "payable": false,
      "stateMutability": "nonpayable",
      "type": "function"
    },
    {
      "constant": true,
      "inputs": [],
      "name": "connector",
      "outputs": [
        {
          "name": "",
          "type": "address"
        }
      ],
      "payable": false,
      "stateMutability": "view",
      "type": "function"
    },
    {
      "constant": false,
      "inputs": [],
      "name": "pause",
      "outputs": [],
      "payable": false,
      "stateMutability": "nonpayable",
      "type": "function"
    },
    {
      "constant": false,
      "inputs": [
        {
          "name": "newIGovernor",
          "type": "address"
        }
      ],
      "name": "changeIGovernor",
      "outputs": [],
      "payable": false,
      "stateMutability": "nonpayable",
      "type": "function"
    },
    {
      "constant": true,
      "inputs": [],
      "name": "stoppable",
      "outputs": [
        {
          "name": "",
          "type": "bool"
        }
      ],
      "payable": false,
      "stateMutability": "view",
      "type": "function"
    },
    {
      "constant": true,
      "inputs": [],
      "name": "stopper",
      "outputs": [
        {
          "name": "",
          "type": "address"
        }
      ],
      "payable": false,
      "stateMutability": "view",
      "type": "function"
    },
    {
      "constant": true,
      "inputs": [],
      "name": "BUCKET_C0",
      "outputs": [
        {
          "name": "",
          "type": "bytes32"
        }
      ],
      "payable": false,
      "stateMutability": "view",
      "type": "function"
    },
    {
      "constant": true,
      "inputs": [],
      "name": "getDayPrecision",
      "outputs": [
        {
          "name": "",
          "type": "uint256"
        }
      ],
      "payable": false,
      "stateMutability": "view",
      "type": "function"
    },
    {
      "constant": true,
      "inputs": [],
      "name": "getMocPrecision",
      "outputs": [
        {
          "name": "",
          "type": "uint256"
        }
      ],
      "payable": false,
      "stateMutability": "view",
      "type": "function"
    },
    {
      "payable": true,
      "stateMutability": "payable",
      "type": "fallback"
    },
    {
      "anonymous": false,
      "inputs": [
        {
          "indexed": false,
          "name": "account",
          "type": "address"
        }
      ],
      "name": "Paused",
      "type": "event"
    },
    {
      "anonymous": false,
      "inputs": [
        {
          "indexed": false,
          "name": "account",
          "type": "address"
        }
      ],
      "name": "Unpaused",
      "type": "event"
    },
    {
      "anonymous": false,
      "inputs": [
        {
          "indexed": false,
          "name": "bucket",
          "type": "bytes32"
        }
      ],
      "name": "BucketLiquidation",
      "type": "event"
    },
    {
      "constant": false,
      "inputs": [
        {
          "name": "_stopper",
          "type": "address"
        },
        {
          "name": "_governor",
          "type": "address"
        },
        {
          "name": "_stoppable",
          "type": "bool"
        }
      ],
      "name": "initialize",
      "outputs": [],
      "payable": false,
      "stateMutability": "nonpayable",
      "type": "function"
    },
    {
      "constant": false,
      "inputs": [
        {
          "name": "_governor",
          "type": "address"
        }
      ],
      "name": "initialize",
      "outputs": [],
      "payable": false,
      "stateMutability": "nonpayable",
      "type": "function"
    },
    {
      "constant": false,
      "inputs": [
        {
          "name": "connectorAddress",
          "type": "address"
        },
        {
          "name": "governorAddress",
          "type": "address"
        },
        {
          "name": "stopperAddress",
          "type": "address"
        },
        {
          "name": "startStoppable",
          "type": "bool"
        }
      ],
      "name": "initialize",
      "outputs": [],
      "payable": false,
      "stateMutability": "nonpayable",
      "type": "function"
    },
    {
      "constant": false,
      "inputs": [
        {
          "name": "_stopper",
          "type": "address"
        },
        {
          "name": "_governor",
          "type": "address"
        }
      ],
      "name": "initialize",
      "outputs": [],
      "payable": false,
      "stateMutability": "nonpayable",
      "type": "function"
    },
    {
      "constant": true,
      "inputs": [
        {
          "name": "bucket",
          "type": "bytes32"
        },
        {
          "name": "account",
          "type": "address"
        }
      ],
      "name": "bproxBalanceOf",
      "outputs": [
        {
          "name": "",
          "type": "uint256"
        }
      ],
      "payable": false,
      "stateMutability": "view",
      "type": "function"
    },
    {
      "constant": true,
      "inputs": [
        {
          "name": "index",
          "type": "uint256"
        }
      ],
      "name": "getRedeemRequestAt",
      "outputs": [
        {
          "name": "",
          "type": "address"
        },
        {
          "name": "",
          "type": "uint256"
        }
      ],
      "payable": false,
      "stateMutability": "view",
      "type": "function"
    },
    {
      "constant": true,
      "inputs": [],
      "name": "redeemQueueSize",
      "outputs": [
        {
          "name": "",
          "type": "uint256"
        }
      ],
      "payable": false,
      "stateMutability": "view",
      "type": "function"
    },
    {
      "constant": true,
      "inputs": [
        {
          "name": "redeemer",
          "type": "address"
        }
      ],
      "name": "docAmountToRedeem",
      "outputs": [
        {
          "name": "",
          "type": "uint256"
        }
      ],
      "payable": false,
      "stateMutability": "view",
      "type": "function"
    },
    {
      "constant": false,
      "inputs": [
        {
          "name": "docAmount",
          "type": "uint256"
        }
      ],
      "name": "redeemDocRequest",
      "outputs": [],
      "payable": false,
      "stateMutability": "nonpayable",
      "type": "function"
    },
    {
      "constant": false,
      "inputs": [
        {
          "name": "isAddition",
          "type": "bool"
        },
        {
          "name": "delta",
          "type": "uint256"
        }
      ],
      "name": "alterRedeemRequestAmount",
      "outputs": [],
      "payable": false,
      "stateMutability": "nonpayable",
      "type": "function"
    },
    {
      "constant": false,
      "inputs": [
        {
          "name": "btcToMint",
          "type": "uint256"
        }
      ],
      "name": "mintBPro",
      "outputs": [],
      "payable": true,
      "stateMutability": "payable",
      "type": "function"
    },
    {
      "constant": false,
      "inputs": [
        {
          "name": "bproAmount",
          "type": "uint256"
        }
      ],
      "name": "redeemBPro",
      "outputs": [],
      "payable": false,
      "stateMutability": "nonpayable",
      "type": "function"
    },
    {
      "constant": false,
      "inputs": [
        {
          "name": "btcToMint",
          "type": "uint256"
        }
      ],
      "name": "mintDoc",
      "outputs": [],
      "payable": true,
      "stateMutability": "payable",
      "type": "function"
    },
    {
      "constant": false,
      "inputs": [
        {
          "name": "bucket",
          "type": "bytes32"
        },
        {
          "name": "bproxAmount",
          "type": "uint256"
        }
      ],
      "name": "redeemBProx",
      "outputs": [],
      "payable": false,
      "stateMutability": "nonpayable",
      "type": "function"
    },
    {
      "constant": false,
      "inputs": [
        {
          "name": "bucket",
          "type": "bytes32"
        },
        {
          "name": "btcToMint",
          "type": "uint256"
        }
      ],
      "name": "mintBProx",
      "outputs": [],
      "payable": true,
      "stateMutability": "payable",
      "type": "function"
    },
    {
      "constant": false,
      "inputs": [
        {
          "name": "docAmount",
          "type": "uint256"
        }
      ],
      "name": "redeemFreeDoc",
      "outputs": [],
      "payable": false,
      "stateMutability": "nonpayable",
      "type": "function"
    },
    {
      "constant": false,
      "inputs": [],
      "name": "redeemAllDoc",
      "outputs": [],
      "payable": false,
      "stateMutability": "nonpayable",
      "type": "function"
    },
    {
      "constant": false,
      "inputs": [],
      "name": "dailyInratePayment",
      "outputs": [],
      "payable": false,
      "stateMutability": "nonpayable",
      "type": "function"
    },
    {
      "constant": false,
      "inputs": [],
      "name": "payBitProHoldersInterestPayment",
      "outputs": [],
      "payable": false,
      "stateMutability": "nonpayable",
      "type": "function"
    },
    {
      "constant": true,
      "inputs": [],
      "name": "calculateBitProHoldersInterest",
      "outputs": [
        {
          "name": "",
          "type": "uint256"
        },
        {
          "name": "",
          "type": "uint256"
        }
      ],
      "payable": false,
      "stateMutability": "view",
      "type": "function"
    },
    {
      "constant": true,
      "inputs": [],
      "name": "getBitProInterestAddress",
      "outputs": [
        {
          "name": "",
          "type": "address"
        }
      ],
      "payable": false,
      "stateMutability": "view",
      "type": "function"
    },
    {
      "constant": true,
      "inputs": [],
      "name": "getBitProRate",
      "outputs": [
        {
          "name": "",
          "type": "uint256"
        }
      ],
      "payable": false,
      "stateMutability": "view",
      "type": "function"
    },
    {
      "constant": true,
      "inputs": [],
      "name": "getBitProInterestBlockSpan",
      "outputs": [
        {
          "name": "",
          "type": "uint256"
        }
      ],
      "payable": false,
      "stateMutability": "view",
      "type": "function"
    },
    {
      "constant": true,
      "inputs": [],
      "name": "isDailyEnabled",
      "outputs": [
        {
          "name": "",
          "type": "bool"
        }
      ],
      "payable": false,
      "stateMutability": "view",
      "type": "function"
    },
    {
      "constant": true,
      "inputs": [],
      "name": "isBitProInterestEnabled",
      "outputs": [
        {
          "name": "",
          "type": "bool"
        }
      ],
      "payable": false,
      "stateMutability": "view",
      "type": "function"
    },
    {
      "constant": true,
      "inputs": [],
      "name": "isSettlementEnabled",
      "outputs": [
        {
          "name": "",
          "type": "bool"
        }
      ],
      "payable": false,
      "stateMutability": "view",
      "type": "function"
    },
    {
      "constant": true,
      "inputs": [
        {
          "name": "bucket",
          "type": "bytes32"
        }
      ],
      "name": "isBucketLiquidationReached",
      "outputs": [
        {
          "name": "",
          "type": "bool"
        }
      ],
      "payable": false,
      "stateMutability": "view",
      "type": "function"
    },
    {
      "constant": false,
      "inputs": [
        {
          "name": "bucket",
          "type": "bytes32"
        }
      ],
      "name": "evalBucketLiquidation",
      "outputs": [],
      "payable": false,
      "stateMutability": "nonpayable",
      "type": "function"
    },
    {
      "constant": false,
      "inputs": [
        {
          "name": "burnoutAddress",
          "type": "address"
        }
      ],
      "name": "setBurnoutAddress",
      "outputs": [],
      "payable": false,
      "stateMutability": "nonpayable",
      "type": "function"
    },
    {
      "constant": true,
      "inputs": [],
      "name": "getBurnoutAddress",
      "outputs": [
        {
          "name": "",
          "type": "address"
        }
      ],
      "payable": false,
      "stateMutability": "view",
      "type": "function"
    },
    {
      "constant": false,
      "inputs": [
        {
          "name": "steps",
          "type": "uint256"
        }
      ],
      "name": "evalLiquidation",
      "outputs": [],
      "payable": false,
      "stateMutability": "nonpayable",
      "type": "function"
    },
    {
      "constant": false,
      "inputs": [
        {
          "name": "steps",
          "type": "uint256"
        }
      ],
      "name": "runSettlement",
      "outputs": [],
      "payable": false,
      "stateMutability": "nonpayable",
      "type": "function"
    },
    {
      "constant": false,
      "inputs": [
        {
          "name": "receiver",
          "type": "address"
        },
        {
          "name": "btcAmount",
          "type": "uint256"
        }
      ],
      "name": "sendToAddress",
      "outputs": [
        {
          "name": "",
          "type": "bool"
        }
      ],
      "payable": false,
      "stateMutability": "nonpayable",
      "type": "function"
    }
  ],
  "bytecode": "0x608060405234801561001057600080fd5b5061507f806100206000396000f3fe60806040526004361061023c5760e060020a600035046305903cee81146104f657806306bdce8c146105205780630a58f47a146105475780630c340a241461057a5780631d28b199146105ab578063219edd9e146105c05780632768ef09146105e35780632816d6811461060c5780633acb38d1146106365780633debd2d81461064b5780633f4ba83a14610684578063408837401461069957806342af302c146106ae578063485cc955146106d857806350771849146107135780635210570c1461073d57806357a13a16146107525780635afccf72146107675780635b0217c81461077c5780635c975abb146107a65780635cefe4b4146107bb57806361b12204146107eb57806368274357146108005780637218c7b5146108155780637caca79c146108485780637d28f1e51461085d57806383f3084f1461087a5780638456cb591461088f5780638953902d146108a457806397f773e6146108b9578063995cc172146108f25780639a0ef025146109255780639d5a3ba81461093a5780639e95db2c1461094f578063a9718f5814610964578063b6e0833014610979578063bb4872de146109ac578063bb5dcd95146109c1578063c273f9ee146109eb578063c4d66de814610a08578063d1a7671414610a3b578063dae2844e14610a50578063dd7c6c7f14610a82578063e22155f614610ab0578063e2414a7314610ac5578063e4bbb5a814610ada578063eef13ca114610b1f578063f715e29314610b6c578063fecf973414610b81578063ff56907714610bcc575b60ce546040805180820190915260128152600080516020614f43833981519152602082015290610100900460ff16156102f65760405160e560020a62461bcd0281526004018080602001828103825283818151815260200191508051906020019080838360005b838110156102bb5781810151838201526020016102a3565b50505050905090810190601f1680156102e85780820380516001836020036101000a031916815260200191505b509250505060405180910390fd5b5061010460009054906101000a9004600160a060020a0316600160a060020a03166314007c6d6040518163ffffffff1660e060020a028152600401600060405180830381600087803b15801561034b57600080fd5b505af115801561035f573d6000803e3d6000fd5b506000925061036c915050565b61010460009054906101000a9004600160a060020a0316600160a060020a031663c19d93fb6040518163ffffffff1660e060020a02815260040160206040518083038186803b1580156103be57600080fd5b505afa1580156103d2573d6000803e3d6000fd5b505050506040513d60208110156103e857600080fd5b505160038111156103f557fe5b141561040857610403610bf6565b6104f4565b610103546040805160e660020a6302ae5d5f02815260f460020a610433026004820152346024820152600060448201819052606482018190529151600160a060020a039093169263ab9757c09260848084019391929182900301818387803b15801561047357600080fd5b505af1158015610487573d6000803e3d6000fd5b5050610104546040805160e060020a63eb4edb850281523460048201529051600160a060020a03909216935063eb4edb85925060248082019260009290919082900301818387803b1580156104db57600080fd5b505af11580156104ef573d6000803e3d6000fd5b505050505b005b34801561050257600080fd5b506104f46004803603602081101561051957600080fd5b5035610c32565b34801561052c57600080fd5b50610535610dde565b60408051918252519081900360200190f35b34801561055357600080fd5b506104f46004803603602081101561056a57600080fd5b5035600160a060020a0316610de4565b34801561058657600080fd5b5061058f610efa565b60408051600160a060020a039092168252519081900360200190f35b3480156105b757600080fd5b50610535610f09565b6104f4600480360360408110156105d657600080fd5b5080359060200135610f83565b3480156105ef57600080fd5b506105f8611550565b604080519115158252519081900360200190f35b34801561061857600080fd5b506104f46004803603602081101561062f57600080fd5b5035611599565b34801561064257600080fd5b506104f46118c0565b34801561065757600080fd5b506105f86004803603604081101561066e57600080fd5b50600160a060020a0381351690602001356119c0565b34801561069057600080fd5b506104f4611ab2565b3480156106a557600080fd5b5061058f611c02565b3480156106ba57600080fd5b506105f8600480360360208110156106d157600080fd5b5035611c4b565b3480156106e457600080fd5b506104f4600480360360408110156106fb57600080fd5b50600160a060020a0381358116916020013516611d52565b34801561071f57600080fd5b506104f46004803603602081101561073657600080fd5b5035611e04565b34801561074957600080fd5b506104f46120ab565b34801561075e57600080fd5b506105356121a3565b34801561077357600080fd5b506105f86121af565b34801561078857600080fd5b506104f46004803603602081101561079f57600080fd5b50356121f8565b3480156107b257600080fd5b506105f861244f565b3480156107c757600080fd5b506104f4600480360360408110156107de57600080fd5b5080359060200135612470565b3480156107f757600080fd5b5061058f61292a565b34801561080c57600080fd5b506104f461293a565b34801561082157600080fd5b506104f46004803603602081101561083857600080fd5b5035600160a060020a0316612a35565b34801561085457600080fd5b506105f8612bf3565b6104f46004803603602081101561087357600080fd5b5035612c3c565b34801561088657600080fd5b5061058f61304e565b34801561089b57600080fd5b506104f461305d565b3480156108b057600080fd5b506104f4613223565b3480156108c557600080fd5b50610535600480360360408110156108dc57600080fd5b5080359060200135600160a060020a0316613370565b3480156108fe57600080fd5b506105356004803603602081101561091557600080fd5b5035600160a060020a03166133ff565b34801561093157600080fd5b5061058f613486565b34801561094657600080fd5b506105356134d5565b34801561095b57600080fd5b506104f461351e565b34801561097057600080fd5b50610535613705565b34801561098557600080fd5b506104f46004803603602081101561099c57600080fd5b5035600160a060020a031661374e565b3480156109b857600080fd5b506105f861385c565b3480156109cd57600080fd5b506104f4600480360360208110156109e457600080fd5b5035613865565b6104f460048036036020811015610a0157600080fd5b5035613b9e565b348015610a1457600080fd5b506104f460048036036020811015610a2b57600080fd5b5035600160a060020a0316613ee4565b348015610a4757600080fd5b5061058f613fa4565b348015610a5c57600080fd5b506104f460048036036040811015610a7357600080fd5b50803515159060200135613fb9565b348015610a8e57600080fd5b50610a97614152565b6040805192835260208301919091528051918290030190f35b348015610abc57600080fd5b506105356141d7565b348015610ad157600080fd5b506105356141e3565b348015610ae657600080fd5b506104f460048036036060811015610afd57600080fd5b50600160a060020a0381358116916020810135909116906040013515156141e9565b348015610b2b57600080fd5b50610b4960048036036020811015610b4257600080fd5b50356142c3565b60408051600160a060020a03909316835260208301919091528051918290030190f35b348015610b7857600080fd5b50610535614350565b348015610b8d57600080fd5b506104f460048036036080811015610ba457600080fd5b50600160a060020a038135811691602081013582169160408201351690606001351515614356565b348015610bd857600080fd5b506104f460048036036020811015610bef57600080fd5b5035614422565b6101095460a060020a900460ff16610c3057610c1061457f565b610c18614669565b610109805460a060020a60ff02191660a060020a1790555b565b60ce546040805180820190915260128152600080516020614f43833981519152602082015290610100900460ff1615610caf5760405160e560020a62461bcd0281526020600482018181528351602484015283519092839260449091019190850190808383600083156102bb5781810151838201526020016102a3565b5061010660009054906101000a9004600160a060020a0316600160a060020a03166318de7ffc6040518163ffffffff1660e060020a02815260040160206040518083038186803b158015610d0257600080fd5b505afa158015610d16573d6000803e3d6000fd5b505050506040513d6020811015610d2c57600080fd5b5051610d6c5760405160e560020a62461bcd028152600401808060200182810382526034815260200180614fe06034913960400191505060405180910390fd5b610106546040805160e060020a637cfad7a1028152600481018490523360248201529051600160a060020a0390921691637cfad7a19160448082019260009290919082900301818387803b158015610dc357600080fd5b505af1158015610dd7573d6000803e3d6000fd5b5050505050565b60005490565b609b546040805160e060020a63d994d6d50281523360048201529051600160a060020a039092169163d994d6d591602480820192602092909190829003018186803b158015610e3257600080fd5b505afa158015610e46573d6000803e3d6000fd5b505050506040513d6020811015610e5c57600080fd5b50516040805180820190915260168152600080516020615034833981519152602082015290610ecf5760405160e560020a62461bcd0281526020600482018181528351602484015283519092839260449091019190850190808383600083156102bb5781810151838201526020016102a3565b5060ce8054600160a060020a0390921662010000026201000060b060020a0319909216919091179055565b609b54600160a060020a031681565b610108546040805160e060020a631d28b1990281529051600092600160a060020a031691631d28b199916004808301926020929190829003018186803b158015610f5257600080fd5b505afa158015610f66573d6000803e3d6000fd5b505050506040513d6020811015610f7c57600080fd5b5051905090565b60ce546040805180820190915260128152600080516020614f43833981519152602082015290610100900460ff16156110005760405160e560020a62461bcd0281526020600482018181528351602484015283519092839260449091019190850190808383600083156102bb5781810151838201526020016102a3565b5061010660009054906101000a9004600160a060020a0316600160a060020a03166318de7ffc6040518163ffffffff1660e060020a02815260040160206040518083038186803b15801561105357600080fd5b505afa158015611067573d6000803e3d6000fd5b505050506040513d602081101561107d57600080fd5b50516110bd5760405160e560020a62461bcd028152600401808060200182810382526034815260200180614fe06034913960400191505060405180910390fd5b610103546040805160e160020a6376befe990281526004810185905290518492600160a060020a03169163ed7dfd32916024808301926020929190829003018186803b15801561110c57600080fd5b505afa158015611120573d6000803e3d6000fd5b505050506040513d602081101561113657600080fd5b505161117a576040805160e560020a62461bcd0281526020600482015260176024820152600080516020614f23833981519152604482015290519081900360640190fd5b610103546040805160e360020a630c6774510281526004810186905290518592600160a060020a03169163633ba288916024808301926020929190829003018186803b1580156111c957600080fd5b505afa1580156111dd573d6000803e3d6000fd5b505050506040513d60208110156111f357600080fd5b5051156112345760405160e560020a62461bcd028152600401808060200182810382526027815260200180614f636027913960400191505060405180910390fd5b61010460009054906101000a9004600160a060020a0316600160a060020a03166314007c6d6040518163ffffffff1660e060020a028152600401600060405180830381600087803b15801561128857600080fd5b505af115801561129c573d6000803e3d6000fd5b50600092506112a9915050565b61010460009054906101000a9004600160a060020a0316600160a060020a031663c19d93fb6040518163ffffffff1660e060020a02815260040160206040518083038186803b1580156112fb57600080fd5b505afa15801561130f573d6000803e3d6000fd5b505050506040513d602081101561132557600080fd5b5051600381111561133257fe5b141561134557611340610bf6565b61154a565b8361134f81611599565b610107546040805160e060020a6365c9ab97028152336004820152602481018890526044810187905281516000938493600160a060020a03909116926365c9ab97926064808301939282900301818787803b1580156113ad57600080fd5b505af11580156113c1573d6000803e3d6000fd5b505050506040513d60408110156113d757600080fd5b508051602090910151909250905060006113f7838363ffffffff61472e16565b90503481111561143f576040805160e560020a62461bcd0281526020600482015260146024820152600080516020615014833981519152604482015290519081900360640190fd5b610104546040805160e060020a63eb4edb850281523460048201529051600160a060020a039092169163eb4edb859160248082019260009290919082900301818387803b15801561148f57600080fd5b505af11580156114a3573d6000803e3d6000fd5b5050505060006114bc823461479290919063ffffffff16565b90506114c833826147f2565b610108546040805160e260020a6330a5e173028152905161154492600160a060020a03169163c29785cc916004808301926020929190829003018186803b15801561151257600080fd5b505afa158015611526573d6000803e3d6000fd5b505050506040513d602081101561153c57600080fd5b5051846147f2565b50505050505b50505050565b610106546040805160e060020a632768ef090281529051600092600160a060020a031691632768ef09916004808301926020929190829003018186803b158015610f5257600080fd5b610103546040805160e160020a6376befe990281526004810184905290518392600160a060020a03169163ed7dfd32916024808301926020929190829003018186803b1580156115e857600080fd5b505afa1580156115fc573d6000803e3d6000fd5b505050506040513d602081101561161257600080fd5b5051611656576040805160e560020a62461bcd0281526020600482015260176024820152600080516020614f23833981519152604482015290519081900360640190fd5b610103546040805160e360020a630c6774510281526004810185905290518492600160a060020a03169163633ba288916024808301926020929190829003018186803b1580156116a557600080fd5b505afa1580156116b9573d6000803e3d6000fd5b505050506040513d60208110156116cf57600080fd5b5051156117105760405160e560020a62461bcd028152600401808060200182810382526027815260200180614f636027913960400191505060405180910390fd5b61010460009054906101000a9004600160a060020a0316600160a060020a031663faba8c3b6040518163ffffffff1660e060020a02815260040160206040518083038186803b15801561176257600080fd5b505afa158015611776573d6000803e3d6000fd5b505050506040513d602081101561178c57600080fd5b5051610104546040805160e160020a63461f0281028152600481018790529051600160a060020a0390921691638c3e050291602480820192602092909190829003018186803b1580156117de57600080fd5b505afa1580156117f2573d6000803e3d6000fd5b505050506040513d602081101561180857600080fd5b5051116118bb57610103546040805160e160020a630ae8d86b0281526004810186905260f460020a6104330260248201529051600160a060020a03909216916315d1b0d69160448082019260009290919082900301818387803b15801561186e57600080fd5b505af1158015611882573d6000803e3d6000fd5b50506040805186815290517f03b09556eaf1538697123fabf059066271cafa36dc147deec0ec8c90ea14c89b9350908190036020019150a15b505050565b60ce546040805180820190915260128152600080516020614f43833981519152602082015290610100900460ff161561193d5760405160e560020a62461bcd0281526020600482018181528351602484015283519092839260449091019190850190808383600083156102bb5781810151838201526020016102a3565b5061010860009054906101000a9004600160a060020a0316600160a060020a0316633acb38d16040518163ffffffff1660e060020a028152600401602060405180830381600087803b15801561199257600080fd5b505af11580156119a6573d6000803e3d6000fd5b505050506040513d60208110156119bc57600080fd5b5050565b6068546040805160e060020a633af32abf02815233600482018190529151600093600160a060020a031691633af32abf916024808301926020929190829003018186803b158015611a1057600080fd5b505afa158015611a24573d6000803e3d6000fd5b505050506040513d6020811015611a3a57600080fd5b5051611a90576040805160e560020a62461bcd02815260206004820152601a60248201527f41646472657373206973206e6f742077686974656c6973746564000000000000604482015290519081900360640190fd5b82611a9e5760019150611aab565b611aa88484614891565b91505b5092915050565b60ce5460408051808201909152600b815260a960020a6a3737ba2fb9ba37b83832b902602082015290620100009004600160a060020a03163314611b3a5760405160e560020a62461bcd0281526020600482018181528351602484015283519092839260449091019190850190808383600083156102bb5781810151838201526020016102a3565b5060ce546040805180820190915260128152607060020a71636f6e74726163745f69735f61637469766502602082015290610100900460ff16611bc15760405160e560020a62461bcd0281526020600482018181528351602484015283519092839260449091019190850190808383600083156102bb5781810151838201526020016102a3565b5060ce805461ff00191690556040805133815290517f5db9ee0a495bf2e6ff9c91a7834c1ba4fdd244a5e8aa4e537bd38aeae4b073aa9181900360200190a1565b610108546040805160e660020a63010220dd0281529051600092600160a060020a0316916340883740916004808301926020929190829003018186803b158015610f5257600080fd5b610104546040805160e060020a63faba8c3b0281529051600092600160a060020a03169163faba8c3b916004808301926020929190829003018186803b158015611c9457600080fd5b505afa158015611ca8573d6000803e3d6000fd5b505050506040513d6020811015611cbe57600080fd5b5051610104546040805160e160020a63461f0281028152600481018690529051600160a060020a0390921691638c3e050291602480820192602092909190829003018186803b158015611d1057600080fd5b505afa158015611d24573d6000803e3d6000fd5b505050506040513d6020811015611d3a57600080fd5b505111611d4957506001611d4d565b5060005b919050565b603554610100900460ff1680611d6b5750611d6b614935565b80611d79575060355460ff16155b611db75760405160e560020a62461bcd02815260040180806020018281038252602e815260200180614f8a602e913960400191505060405180910390fd5b603554610100900460ff16158015611de2576035805460ff1961ff0019909116610100171660011790555b611dee838360016141e9565b80156118bb576035805461ff0019169055505050565b60ce546040805180820190915260128152600080516020614f43833981519152602082015290610100900460ff1615611e815760405160e560020a62461bcd0281526020600482018181528351602484015283519092839260449091019190850190808383600083156102bb5781810151838201526020016102a3565b5061010460009054906101000a9004600160a060020a0316600160a060020a03166314007c6d6040518163ffffffff1660e060020a028152600401600060405180830381600087803b158015611ed657600080fd5b505af1158015611eea573d6000803e3d6000fd5b5060009250611ef7915050565b61010460009054906101000a9004600160a060020a0316600160a060020a031663c19d93fb6040518163ffffffff1660e060020a02815260040160206040518083038186803b158015611f4957600080fd5b505afa158015611f5d573d6000803e3d6000fd5b505050506040513d6020811015611f7357600080fd5b50516003811115611f8057fe5b1415611f9357611f8e610bf6565b6120a8565b610107546040805160e360020a631ee60df50281523360048201526024810184905281516000938493600160a060020a039091169263f7306fa8926044808301939282900301818787803b158015611fea57600080fd5b505af1158015611ffe573d6000803e3d6000fd5b505050506040513d604081101561201457600080fd5b508051602090910151909250905061202c33836147f2565b610108546040805160e260020a6330a5e17302815290516118bb92600160a060020a03169163c29785cc916004808301926020929190829003018186803b15801561207657600080fd5b505afa15801561208a573d6000803e3d6000fd5b505050506040513d60208110156120a057600080fd5b5051826147f2565b50565b609b546040805160e060020a63d994d6d50281523360048201529051600160a060020a039092169163d994d6d591602480820192602092909190829003018186803b1580156120f957600080fd5b505afa15801561210d573d6000803e3d6000fd5b505050506040513d602081101561212357600080fd5b505160408051808201909152601681526000805160206150348339815191526020820152906121965760405160e560020a62461bcd0281526020600482018181528351602484015283519092839260449091019190850190808383600083156102bb5781810151838201526020016102a3565b5060ce805460ff19169055565b60f160020a612c190281565b610108546040805160e160020a632d7e67b90281529051600092600160a060020a031691635afccf72916004808301926020929190829003018186803b158015610f5257600080fd5b60ce546040805180820190915260128152600080516020614f43833981519152602082015290610100900460ff16156122755760405160e560020a62461bcd0281526020600482018181528351602484015283519092839260449091019190850190808383600083156102bb5781810151838201526020016102a3565b5061010460009054906101000a9004600160a060020a0316600160a060020a03166314007c6d6040518163ffffffff1660e060020a028152600401600060405180830381600087803b1580156122ca57600080fd5b505af11580156122de573d6000803e3d6000fd5b50600092506122eb915050565b61010460009054906101000a9004600160a060020a0316600160a060020a031663c19d93fb6040518163ffffffff1660e060020a02815260040160206040518083038186803b15801561233d57600080fd5b505afa158015612351573d6000803e3d6000fd5b505050506040513d602081101561236757600080fd5b5051600381111561237457fe5b141561238257611f8e610bf6565b610106546040805160e360020a630b6042f9028152600481018490529051600092600160a060020a031691635b0217c891602480830192602092919082900301818787803b1580156123d357600080fd5b505af11580156123e7573d6000803e3d6000fd5b505050506040513d60208110156123fd57600080fd5b5051610108546040805160e260020a6330a5e17302815290519293506119bc92600160a060020a039092169163c29785cc91600480820192602092909190829003018186803b15801561207657600080fd5b60ce5460009060ff16801561246b575060ce54610100900460ff165b905090565b60ce546040805180820190915260128152600080516020614f43833981519152602082015290610100900460ff16156124ed5760405160e560020a62461bcd0281526020600482018181528351602484015283519092839260449091019190850190808383600083156102bb5781810151838201526020016102a3565b5061010660009054906101000a9004600160a060020a0316600160a060020a03166318de7ffc6040518163ffffffff1660e060020a02815260040160206040518083038186803b15801561254057600080fd5b505afa158015612554573d6000803e3d6000fd5b505050506040513d602081101561256a57600080fd5b50516125aa5760405160e560020a62461bcd028152600401808060200182810382526034815260200180614fe06034913960400191505060405180910390fd5b610103546040805160e160020a6376befe990281526004810185905290518492600160a060020a03169163ed7dfd32916024808301926020929190829003018186803b1580156125f957600080fd5b505afa15801561260d573d6000803e3d6000fd5b505050506040513d602081101561262357600080fd5b5051612667576040805160e560020a62461bcd0281526020600482015260176024820152600080516020614f23833981519152604482015290519081900360640190fd5b610103546040805160e360020a630c6774510281526004810186905290518592600160a060020a03169163633ba288916024808301926020929190829003018186803b1580156126b657600080fd5b505afa1580156126ca573d6000803e3d6000fd5b505050506040513d60208110156126e057600080fd5b5051156127215760405160e560020a62461bcd028152600401808060200182810382526027815260200180614f636027913960400191505060405180910390fd5b61010460009054906101000a9004600160a060020a0316600160a060020a03166314007c6d6040518163ffffffff1660e060020a028152600401600060405180830381600087803b15801561277557600080fd5b505af1158015612789573d6000803e3d6000fd5b5060009250612796915050565b61010460009054906101000a9004600160a060020a0316600160a060020a031663c19d93fb6040518163ffffffff1660e060020a02815260040160206040518083038186803b1580156127e857600080fd5b505afa1580156127fc573d6000803e3d6000fd5b505050506040513d602081101561281257600080fd5b5051600381111561281f57fe5b141561282d57611340610bf6565b8361283781611599565b610107546040805160e060020a639e04ab71028152336004820152602481018890526044810187905281516000938493600160a060020a0390911692639e04ab71926064808301939282900301818787803b15801561289557600080fd5b505af11580156128a9573d6000803e3d6000fd5b505050506040513d60408110156128bf57600080fd5b50805160209091015190925090506128d733836147f2565b610108546040805160e260020a6330a5e173028152905161292192600160a060020a03169163c29785cc916004808301926020929190829003018186803b15801561207657600080fd5b50505050505050565b61010954600160a060020a031681565b609b546040805160e060020a63d994d6d50281523360048201529051600160a060020a039092169163d994d6d591602480820192602092909190829003018186803b15801561298857600080fd5b505afa15801561299c573d6000803e3d6000fd5b505050506040513d60208110156129b257600080fd5b50516040805180820190915260168152600080516020615034833981519152602082015290612a255760405160e560020a62461bcd0281526020600482018181528351602484015283519092839260449091019190850190808383600083156102bb5781810151838201526020016102a3565b5060ce805460ff19166001179055565b60ce546040805180820190915260128152600080516020614f43833981519152602082015290610100900460ff1615612ab25760405160e560020a62461bcd0281526020600482018181528351602484015283519092839260449091019190850190808383600083156102bb5781810151838201526020016102a3565b5060018061010460009054906101000a9004600160a060020a0316600160a060020a031663c19d93fb6040518163ffffffff1660e060020a02815260040160206040518083038186803b158015612b0857600080fd5b505afa158015612b1c573d6000803e3d6000fd5b505050506040513d6020811015612b3257600080fd5b50516003811115612b3f57fe5b1015612b7f5760405160e560020a62461bcd028152600401808060200182810382526028815260200180614fb86028913960400191505060405180910390fd5b610109546040805160e060020a630ae34fd7028152336004820152600160a060020a03858116602483015291519190921691630ae34fd791604480830192600092919082900301818387803b158015612bd757600080fd5b505af1158015612beb573d6000803e3d6000fd5b505050505050565b610108546040805160e260020a631f2b29e70281529051600092600160a060020a031691637caca79c916004808301926020929190829003018186803b158015610f5257600080fd5b60ce546040805180820190915260128152600080516020614f43833981519152602082015290610100900460ff1615612cb95760405160e560020a62461bcd0281526020600482018181528351602484015283519092839260449091019190850190808383600083156102bb5781810151838201526020016102a3565b5061010460009054906101000a9004600160a060020a0316600160a060020a03166314007c6d6040518163ffffffff1660e060020a028152600401600060405180830381600087803b158015612d0e57600080fd5b505af1158015612d22573d6000803e3d6000fd5b5060009250612d2f915050565b61010460009054906101000a9004600160a060020a0316600160a060020a031663c19d93fb6040518163ffffffff1660e060020a02815260040160206040518083038186803b158015612d8157600080fd5b505afa158015612d95573d6000803e3d6000fd5b505050506040513d6020811015612dab57600080fd5b50516003811115612db857fe5b1415612dc657611f8e610bf6565b60038061010460009054906101000a9004600160a060020a0316600160a060020a031663c19d93fb6040518163ffffffff1660e060020a02815260040160206040518083038186803b158015612e1b57600080fd5b505afa158015612e2f573d6000803e3d6000fd5b505050506040513d6020811015612e4557600080fd5b50516003811115612e5257fe5b1015612e925760405160e560020a62461bcd028152600401808060200182810382526028815260200180614fb86028913960400191505060405180910390fd5b610107546040805160e060020a63ecc687df0281523360048201526024810185905281516000938493600160a060020a039091169263ecc687df926044808301939282900301818787803b158015612ee957600080fd5b505af1158015612efd573d6000803e3d6000fd5b505050506040513d6040811015612f1357600080fd5b50805160209091015190925090506000612f33838363ffffffff61472e16565b905034811115612f7b576040805160e560020a62461bcd0281526020600482015260146024820152600080516020615014833981519152604482015290519081900360640190fd5b610104546040805160e060020a63eb4edb850281523460048201529051600160a060020a039092169163eb4edb859160248082019260009290919082900301818387803b158015612fcb57600080fd5b505af1158015612fdf573d6000803e3d6000fd5b505050506000612ff8823461479290919063ffffffff16565b905061300433826147f2565b610108546040805160e260020a6330a5e1730281529051612beb92600160a060020a03169163c29785cc916004808301926020929190829003018186803b15801561151257600080fd5b606854600160a060020a031681565b60ce5460408051808201909152600b815260a860020a6a756e73746f707061626c650260208201529060ff166130d75760405160e560020a62461bcd0281526020600482018181528351602484015283519092839260449091019190850190808383600083156102bb5781810151838201526020016102a3565b5060ce5460408051808201909152600b815260a960020a6a3737ba2fb9ba37b83832b902602082015290620100009004600160a060020a031633146131605760405160e560020a62461bcd0281526020600482018181528351602484015283519092839260449091019190850190808383600083156102bb5781810151838201526020016102a3565b5060ce546040805180820190915260128152600080516020614f43833981519152602082015290610100900460ff16156131de5760405160e560020a62461bcd0281526020600482018181528351602484015283519092839260449091019190850190808383600083156102bb5781810151838201526020016102a3565b5060ce805461ff0019166101001790556040805133815290517f62e78cea01bee320cd4e420270b5ea74000d11b0c9f74754ebdbfc544b05a2589181900360200190a1565b60008061010460009054906101000a9004600160a060020a0316600160a060020a031663c19d93fb6040518163ffffffff1660e060020a02815260040160206040518083038186803b15801561327857600080fd5b505afa15801561328c573d6000803e3d6000fd5b505050506040513d60208110156132a257600080fd5b505160038111156132af57fe5b146132ee5760405160e560020a62461bcd028152600401808060200182810382526028815260200180614fb86028913960400191505060405180910390fd5b610107546040805160e160020a6322f162d3028152336004820181905260248201529051600160a060020a03909216916345e2c5a6916044808201926020929091908290030181600087803b15801561334657600080fd5b505af115801561335a573d6000803e3d6000fd5b505050506040513d60208110156118bb57600080fd5b610103546040805160e160020a634bfbb9f302815260048101859052600160a060020a038481166024830152915160009392909216916397f773e691604480820192602092909190829003018186803b1580156133cc57600080fd5b505afa1580156133e0573d6000803e3d6000fd5b505050506040513d60208110156133f657600080fd5b50519392505050565b610106546040805160e160020a634cae60b9028152600160a060020a0384811660048301529151600093929092169163995cc17291602480820192602092909190829003018186803b15801561345457600080fd5b505afa158015613468573d6000803e3d6000fd5b505050506040513d602081101561347e57600080fd5b505192915050565b610109546040805160e060020a6346bcdf690281523360048201529051600092600160a060020a0316916346bcdf69916024808301926020929190829003018186803b158015610f5257600080fd5b610106546040805160e360020a6313ab47750281529051600092600160a060020a031691639d5a3ba8916004808301926020929190829003018186803b158015610f5257600080fd5b60ce546040805180820190915260128152600080516020614f43833981519152602082015290610100900460ff161561359b5760405160e560020a62461bcd0281526020600482018181528351602484015283519092839260449091019190850190808383600083156102bb5781810151838201526020016102a3565b50610108546040805160e260020a6327a576cb0281529051600092600160a060020a031691639e95db2c91600480830192602092919082900301818787803b1580156135e657600080fd5b505af11580156135fa573d6000803e3d6000fd5b505050506040513d602081101561361057600080fd5b5051610108546040805160e660020a63010220dd028152905192935061369492600160a060020a0390921691634088374091600480820192602092909190829003018186803b15801561366257600080fd5b505afa158015613676573d6000803e3d6000fd5b505050506040513d602081101561368c57600080fd5b505182614891565b156120a857610103546040805160e160020a6308cf156b02815260f460020a61043302600482015260248101849052600060448201819052606482018190529151600160a060020a039093169263119e2ad69260848084019391929182900301818387803b158015610dc357600080fd5b610108546040805160e360020a63152e31eb0281529051600092600160a060020a03169163a9718f58916004808301926020929190829003018186803b158015610f5257600080fd5b609b546040805160e060020a63d994d6d50281523360048201529051600160a060020a039092169163d994d6d591602480820192602092909190829003018186803b15801561379c57600080fd5b505afa1580156137b0573d6000803e3d6000fd5b505050506040513d60208110156137c657600080fd5b505160408051808201909152601681526000805160206150348339815191526020820152906138395760405160e560020a62461bcd0281526020600482018181528351602484015283519092839260449091019190850190808383600083156102bb5781810151838201526020016102a3565b50609b8054600160a060020a031916600160a060020a0392909216919091179055565b60ce5460ff1681565b60ce546040805180820190915260128152600080516020614f43833981519152602082015290610100900460ff16156138e25760405160e560020a62461bcd0281526020600482018181528351602484015283519092839260449091019190850190808383600083156102bb5781810151838201526020016102a3565b5061010460009054906101000a9004600160a060020a0316600160a060020a03166314007c6d6040518163ffffffff1660e060020a028152600401600060405180830381600087803b15801561393757600080fd5b505af115801561394b573d6000803e3d6000fd5b5060009250613958915050565b61010460009054906101000a9004600160a060020a0316600160a060020a031663c19d93fb6040518163ffffffff1660e060020a02815260040160206040518083038186803b1580156139aa57600080fd5b505afa1580156139be573d6000803e3d6000fd5b505050506040513d60208110156139d457600080fd5b505160038111156139e157fe5b14156139ef57611f8e610bf6565b60038061010460009054906101000a9004600160a060020a0316600160a060020a031663c19d93fb6040518163ffffffff1660e060020a02815260040160206040518083038186803b158015613a4457600080fd5b505afa158015613a58573d6000803e3d6000fd5b505050506040513d6020811015613a6e57600080fd5b50516003811115613a7b57fe5b1015613abb5760405160e560020a62461bcd028152600401808060200182810382526028815260200180614fb86028913960400191505060405180910390fd5b610107546040805160e460020a630bd45d230281523360048201526024810185905281516000938493600160a060020a039091169263bd45d230926044808301939282900301818787803b158015613b1257600080fd5b505af1158015613b26573d6000803e3d6000fd5b505050506040513d6040811015613b3c57600080fd5b5080516020909101519092509050613b5433836147f2565b610108546040805160e260020a6330a5e173028152905161154a92600160a060020a03169163c29785cc916004808301926020929190829003018186803b15801561207657600080fd5b60ce546040805180820190915260128152600080516020614f43833981519152602082015290610100900460ff1615613c1b5760405160e560020a62461bcd0281526020600482018181528351602484015283519092839260449091019190850190808383600083156102bb5781810151838201526020016102a3565b5061010460009054906101000a9004600160a060020a0316600160a060020a03166314007c6d6040518163ffffffff1660e060020a028152600401600060405180830381600087803b158015613c7057600080fd5b505af1158015613c84573d6000803e3d6000fd5b5060009250613c91915050565b61010460009054906101000a9004600160a060020a0316600160a060020a031663c19d93fb6040518163ffffffff1660e060020a02815260040160206040518083038186803b158015613ce357600080fd5b505afa158015613cf7573d6000803e3d6000fd5b505050506040513d6020811015613d0d57600080fd5b50516003811115613d1a57fe5b1415613d2857611f8e610bf6565b610107546040805160e360020a6315df82b50281523360048201526024810184905281516000938493600160a060020a039091169263aefc15a8926044808301939282900301818787803b158015613d7f57600080fd5b505af1158015613d93573d6000803e3d6000fd5b505050506040513d6040811015613da957600080fd5b50805160209091015190925090506000613dc9838363ffffffff61472e16565b905034811115613e11576040805160e560020a62461bcd0281526020600482015260146024820152600080516020615014833981519152604482015290519081900360640190fd5b610104546040805160e060020a63eb4edb850281523460048201529051600160a060020a039092169163eb4edb859160248082019260009290919082900301818387803b158015613e6157600080fd5b505af1158015613e75573d6000803e3d6000fd5b505050506000613e8e823461479290919063ffffffff16565b9050613e9a33826147f2565b610108546040805160e260020a6330a5e1730281529051610dd792600160a060020a03169163c29785cc916004808301926020929190829003018186803b15801561151257600080fd5b603554610100900460ff1680613efd5750613efd614935565b80613f0b575060355460ff16155b613f495760405160e560020a62461bcd02815260040180806020018281038252602e815260200180614f8a602e913960400191505060405180910390fd5b603554610100900460ff16158015613f74576035805460ff1961ff0019909116610100171660011790555b609b8054600160a060020a031916600160a060020a03841617905580156119bc576035805461ff00191690555050565b60ce54620100009004600160a060020a031681565b60ce546040805180820190915260128152600080516020614f43833981519152602082015290610100900460ff16156140365760405160e560020a62461bcd0281526020600482018181528351602484015283519092839260449091019190850190808383600083156102bb5781810151838201526020016102a3565b5061010660009054906101000a9004600160a060020a0316600160a060020a03166318de7ffc6040518163ffffffff1660e060020a02815260040160206040518083038186803b15801561408957600080fd5b505afa15801561409d573d6000803e3d6000fd5b505050506040513d60208110156140b357600080fd5b50516140f35760405160e560020a62461bcd028152600401808060200182810382526034815260200180614fe06034913960400191505060405180910390fd5b610106546040805160e060020a6357c0fac70281528415156004820152602481018490523360448201529051600160a060020a03909216916357c0fac79160648082019260009290919082900301818387803b158015612bd757600080fd5b610108546040805160e060020a63dd7c6c7f02815281516000938493600160a060020a039091169263dd7c6c7f9260048083019392829003018186803b15801561419b57600080fd5b505afa1580156141af573d6000803e3d6000fd5b505050506040513d60408110156141c557600080fd5b50805160209091015190925090509091565b60f460020a6104330281565b60015490565b603554610100900460ff16806142025750614202614935565b80614210575060355460ff16155b61424e5760405160e560020a62461bcd02815260040180806020018281038252602e815260200180614f8a602e913960400191505060405180910390fd5b603554610100900460ff16158015614279576035805460ff1961ff0019909116610100171660011790555b60ce805460ff1916831515176201000060b060020a03191662010000600160a060020a038716021790556142ac83613ee4565b801561154a576035805461ff001916905550505050565b610106546040805160e060020a63eef13ca10281526004810184905281516000938493600160a060020a039091169263eef13ca19260248083019392829003018186803b15801561431357600080fd5b505afa158015614327573d6000803e3d6000fd5b505050506040513d604081101561433d57600080fd5b5080516020909101519092509050915091565b60025490565b603554610100900460ff168061436f575061436f614935565b8061437d575060355460ff16155b6143bb5760405160e560020a62461bcd02815260040180806020018281038252602e815260200180614f8a602e913960400191505060405180910390fd5b603554610100900460ff161580156143e6576035805460ff1961ff0019909116610100171660011790555b6143ee61493b565b6143f78561496d565b6143ff614a2d565b61440a838584614f17565b8015610dd7576035805461ff00191690555050505050565b61010460009054906101000a9004600160a060020a0316600160a060020a03166314007c6d6040518163ffffffff1660e060020a028152600401600060405180830381600087803b15801561447657600080fd5b505af115801561448a573d6000803e3d6000fd5b5060009250614497915050565b61010460009054906101000a9004600160a060020a0316600160a060020a031663c19d93fb6040518163ffffffff1660e060020a02815260040160206040518083038186803b1580156144e957600080fd5b505afa1580156144fd573d6000803e3d6000fd5b505050506040513d602081101561451357600080fd5b5051600381111561452057fe5b14156120a85761452e610bf6565b610109546040805160e060020a639e767c7f028152600481018490529051600160a060020a0390921691639e767c7f9160248082019260009290919082900301818387803b158015610dc357600080fd5b61010260009054906101000a9004600160a060020a0316600160a060020a0316635c975abb6040518163ffffffff1660e060020a02815260040160206040518083038186803b1580156145d157600080fd5b505afa1580156145e5573d6000803e3d6000fd5b505050506040513d60208110156145fb57600080fd5b5051610c305761010260009054906101000a9004600160a060020a0316600160a060020a0316638456cb596040518163ffffffff1660e060020a028152600401600060405180830381600087803b15801561465557600080fd5b505af115801561154a573d6000803e3d6000fd5b610104546040805160e360020a631928ea150281529051600092600160a060020a03169163c94750a8916004808301926020929190829003018186803b1580156146b257600080fd5b505afa1580156146c6573d6000803e3d6000fd5b505050506040513d60208110156146dc57600080fd5b5051610108546040805160e260020a6330a5e17302815290519293506120a892600160a060020a039092169163c29785cc91600480820192602092909190829003018186803b15801561207657600080fd5b60008282018381101561478b576040805160e560020a62461bcd02815260206004820152601b60248201527f536166654d6174683a206164646974696f6e206f766572666c6f770000000000604482015290519081900360640190fd5b9392505050565b6000828211156147ec576040805160e560020a62461bcd02815260206004820152601e60248201527f536166654d6174683a207375627472616374696f6e206f766572666c6f770000604482015290519081900360640190fd5b50900390565b610104546040805160e160020a6364e4a81b028152600481018490529051600160a060020a039092169163c9c950369160248082019260009290919082900301818387803b15801561484357600080fd5b505af1158015614857573d6000803e3d6000fd5b5050604051600160a060020a038516925083156108fc02915083906000818181858888f193505050501580156118bb573d6000803e3d6000fd5b60008083600160a060020a03166108fc849081150290604051600060405180830381858888f193505050509050801561478b57610104546040805160e160020a6364e4a81b028152600481018690529051600160a060020a039092169163c9c950369160248082019260009290919082900301818387803b15801561491557600080fd5b505af1158015614929573d6000803e3d6000fd5b50505050905092915050565b303b1590565b60408051606081018252670de0b6b3a76400008082526001602083018190529190920182905260008290558055600255565b603554610100900460ff16806149865750614986614935565b80614994575060355460ff16155b6149d25760405160e560020a62461bcd02815260040180806020018281038252602e815260200180614f8a602e913960400191505060405180910390fd5b603554610100900460ff161580156149fd576035805460ff1961ff0019909116610100171660011790555b60688054600160a060020a031916600160a060020a03841617905580156119bc576035805461ff00191690555050565b606860009054906101000a9004600160a060020a0316600160a060020a03166399c6fe736040518163ffffffff1660e060020a02815260040160206040518083038186803b158015614a7e57600080fd5b505afa158015614a92573d6000803e3d6000fd5b505050506040513d6020811015614aa857600080fd5b50516101018054600160a060020a031916600160a060020a039283161790556068546040805160e060020a63d31cc8310281529051919092169163d31cc831916004808301926020929190829003018186803b158015614b0757600080fd5b505afa158015614b1b573d6000803e3d6000fd5b505050506040513d6020811015614b3157600080fd5b50516101028054600160a060020a031916600160a060020a039283161790556068546040805160e160020a634aadab850281529051919092169163955b570a916004808301926020929190829003018186803b158015614b9057600080fd5b505afa158015614ba4573d6000803e3d6000fd5b505050506040513d6020811015614bba57600080fd5b50516101038054600160a060020a031916600160a060020a039283161790556068546040805160e060020a6312529f1f028152905191909216916312529f1f916004808301926020929190829003018186803b158015614c1957600080fd5b505afa158015614c2d573d6000803e3d6000fd5b505050506040513d6020811015614c4357600080fd5b50516101048054600160a060020a031916600160a060020a039283161790556068546040805160e260020a632ca7ab5b0281529051919092169163b29ead6c916004808301926020929190829003018186803b158015614ca257600080fd5b505afa158015614cb6573d6000803e3d6000fd5b505050506040513d6020811015614ccc57600080fd5b50516101068054600160a060020a031916600160a060020a039283161790556068546040805160e160020a63679ab6ed0281529051919092169163cf356dda916004808301926020929190829003018186803b158015614d2b57600080fd5b505afa158015614d3f573d6000803e3d6000fd5b505050506040513d6020811015614d5557600080fd5b50516101058054600160a060020a031916600160a060020a039283161790556068546040805160e060020a638557af6f02815290519190921691638557af6f916004808301926020929190829003018186803b158015614db457600080fd5b505afa158015614dc8573d6000803e3d6000fd5b505050506040513d6020811015614dde57600080fd5b50516101078054600160a060020a031916600160a060020a0392831617905560685460408051600160e460020a620496ed02031981529051919092169163ffb69130916004808301926020929190829003018186803b158015614e4057600080fd5b505afa158015614e54573d6000803e3d6000fd5b505050506040513d6020811015614e6a57600080fd5b50516101088054600160a060020a031916600160a060020a039283161790556068546040805160e260020a63186c4881028152905191909216916361b12204916004808301926020929190829003018186803b158015614ec957600080fd5b505afa158015614edd573d6000803e3d6000fd5b505050506040513d6020811015614ef357600080fd5b50516101098054600160a060020a031916600160a060020a03909216919091179055565b6118bb8383836141e956fe4275636b6574206973206e6f7420617661696c61626c65000000000000000000636f6e74726163745f69735f70617573656400000000000000000000000000004275636b65742073686f756c64206e6f74206265206120626173652074797065206275636b6574436f6e747261637420696e7374616e63652068617320616c7265616479206265656e20696e697469616c697a656446756e6374696f6e2063616e6e6f742062652063616c6c656420617420746869732073746174652e46756e6374696f6e2063616e206f6e6c792062652063616c6c6564207768656e20736574746c656d656e74206973207265616479616d6f756e74206973206e6f7420656e6f7567680000000000000000000000006e6f745f617574686f72697a65645f6368616e67657200000000000000000000a165627a7a72305820c57292cddf8dcb938e167de92c16988c2d5c65c1809cd216934c5c56562815230029",
  "source": "pragma solidity 0.5.8;\n\nimport \"openzeppelin-solidity/contracts/math/SafeMath.sol\";\nimport \"./MoCLibConnection.sol\";\nimport \"./token/DocToken.sol\";\nimport \"./token/BProToken.sol\";\nimport \"./MoCBProxManager.sol\";\nimport \"./MoCState.sol\";\nimport \"./MoCConverter.sol\";\nimport \"./MoCSettlement.sol\";\nimport \"./MoCExchange.sol\";\nimport \"./MoCBurnout.sol\";\nimport \"./base/MoCBase.sol\";\nimport \"moc-governance/contracts/Stopper/Stoppable.sol\";\nimport \"moc-governance/contracts/Governance/IGovernor.sol\";\n\ncontract MoCEvents {\n  event BucketLiquidation(bytes32 bucket);\n}\n\ncontract MoC is MoCEvents, MoCLibConnection, MoCBase, Stoppable  {\n  using SafeMath for uint256;\n\n  // Contracts\n  DocToken internal docToken;\n  BProToken internal bproToken;\n  MoCBProxManager internal bproxManager;\n  MoCState internal mocState;\n  MoCConverter internal mocConverter;\n  MoCSettlement internal settlement;\n  MoCExchange internal mocExchange;\n  MoCInrate internal mocInrate;\n  MoCBurnout public mocBurnout;\n\n  // Indicates if Rbtc remainder was sent and\n  // BProToken was paused\n  bool internal liquidationExecuted;\n\n  // Fallback\n  //TODO: We must research if fallback function is really needed.\n  function() external payable whenNotPaused() transitionState() {\n    bproxManager.addValuesToBucket(BUCKET_C0, msg.value, 0, 0);\n    mocState.addToRbtcInSystem(msg.value);\n  }\n\n  function initialize(\n    address connectorAddress,\n    address governorAddress,\n    address stopperAddress,\n    bool startStoppable\n  ) public initializer {\n    initializePrecisions();\n    initializeBase(connectorAddress);\n    initializeContracts();\n    initializeGovernanceContracts(stopperAddress, governorAddress, startStoppable);\n  }\n\n  /****************************INTERFACE*******************************************/\n\n  function bproxBalanceOf(bytes32 bucket, address account) public view returns(uint256) {\n    return bproxManager.bproxBalanceOf(bucket, account);\n  }\n\n  /**\n    @dev Gets the RedeemRequest at the queue index position\n    @param index queue position to get\n    @return redeemer's address and amount he submitted\n  */\n  function getRedeemRequestAt(uint256 index) public view returns(address, uint256) {\n    return settlement.getRedeemRequestAt(index);\n  }\n\n  /**\n    @dev returns current redeem queue size\n   */\n  function redeemQueueSize() public view returns(uint256) {\n    return settlement.redeemQueueSize();\n  }\n\n  /**\n    @dev returns the total amount of Docs in the redeem queue for redeemer\n    @param redeemer address for which ^ is computed\n   */\n  function docAmountToRedeem(address redeemer) public view returns(uint256) {\n    return settlement.docAmountToRedeem(redeemer);\n  }\n\n\n  /**\n  * @dev Creates or updates the amount of a Doc redeem Request from the msg.sender\n  * @param docAmount Amount of Docs to redeem on settlement [using mocPrecision]\n  */\n  function redeemDocRequest(uint256 docAmount) public  whenNotPaused() whenSettlementReady() {\n    settlement.addRedeemRequest(docAmount, msg.sender);\n  }\n\n  /**\n    @dev Alters the redeem amount position for the redeemer\n    @param isAddition true if adding amount to redeem, false to substract.\n    @param delta the amount to add/substract to current position\n  */\n  function alterRedeemRequestAmount(bool isAddition, uint256 delta) public whenNotPaused() whenSettlementReady() {\n    settlement.alterRedeemRequestAmount(isAddition, delta, msg.sender);\n  }\n\n  /**\n    @dev Mints BPRO and pays the comissions of the operation.\n    @param btcToMint Amount un BTC to mint\n   */\n  function mintBPro(uint256 btcToMint) public payable whenNotPaused() transitionState() {\n    (uint256 btcExchangeSpent, uint256 commissionSpent) = mocExchange.mintBPro(msg.sender, btcToMint);\n\n    uint256 totalBtcSpent = btcExchangeSpent.add(commissionSpent);\n    require(totalBtcSpent <= msg.value, \"amount is not enough\");\n\n    // Need to update general State\n    mocState.addToRbtcInSystem(msg.value);\n\n    // Calculate change\n    uint256 change = msg.value.sub(totalBtcSpent);\n    doTransfer(msg.sender, change);\n\n    // Transfer commissions to commissions address\n    doTransfer(mocInrate.commissionsAddress(), commissionSpent);\n  }\n\n  /**\n   * @dev Redeems Bpro Tokens and pays the comissions of the operation in RBTC\n     @param bproAmount Amout in Bpro\n   */\n  function redeemBPro(uint256 bproAmount) public whenNotPaused() transitionState() atLeastState(MoCState.States.AboveCobj) {\n    (uint256 btcAmount, uint256 commissionSpent) = mocExchange.redeemBPro(msg.sender, bproAmount);\n\n    doTransfer(msg.sender, btcAmount);\n\n    // Transfer commissions to commissions address\n    doTransfer(mocInrate.commissionsAddress(), commissionSpent);\n  }\n\n  /**\n   * @dev Mint Doc tokens and pays the commisions of the operation\n   * @param btcToMint Amount in RBTC to mint\n   */\n  function mintDoc(uint256 btcToMint) public payable whenNotPaused() transitionState() atLeastState(MoCState.States.AboveCobj) {\n    (uint256 btcExchangeSpent, uint256 commissionSpent) = mocExchange.mintDoc(msg.sender, btcToMint);\n\n    uint256 totalBtcSpent = btcExchangeSpent.add(commissionSpent);\n    require(totalBtcSpent <= msg.value, \"amount is not enough\");\n\n    // Need to update general State\n    mocState.addToRbtcInSystem(msg.value);\n\n    // Calculate change\n    uint256 change = msg.value.sub(totalBtcSpent);\n    doTransfer(msg.sender, change);\n\n    // Transfer commissions to commissions address\n    doTransfer(mocInrate.commissionsAddress(), commissionSpent);\n  }\n\n  /**\n     @dev Redeems Bprox Tokens and pays the comissions of the operation in RBTC\n     @param bucket Bucket to reedem, for example X2\n     @param bproxAmount Amount in Bprox\n   */\n  function redeemBProx(bytes32 bucket, uint256 bproxAmount) public\n  whenNotPaused() whenSettlementReady() availableBucket(bucket) notBaseBucket(bucket)\n  transitionState() bucketStateTransition(bucket) {\n    (uint256 totalBtcRedeemed, uint256 commissionSpent) = mocExchange.redeemBProx(msg.sender, bucket, bproxAmount);\n\n    doTransfer(msg.sender, totalBtcRedeemed);\n\n    // Transfer commissions to commissions address\n    doTransfer(mocInrate.commissionsAddress(), commissionSpent);\n  }\n\n  /**\n  * @dev BUCKET bprox minting\n  * @param bucket Name of the bucket used\n  * @param btcToMint amount to mint on RBTC\n  **/\n  function mintBProx(bytes32 bucket, uint256 btcToMint) public payable\n  whenNotPaused() whenSettlementReady() availableBucket(bucket) notBaseBucket(bucket)\n  transitionState() bucketStateTransition(bucket) {\n    (uint256 btcExchangeSpent, uint256 commissionSpent) = mocExchange.mintBProx(msg.sender, bucket, btcToMint);\n\n    uint256 totalBtcSpent = btcExchangeSpent.add(commissionSpent);\n    require(totalBtcSpent <= msg.value, \"amount is not enough\");\n\n    // Need to update general State\n    mocState.addToRbtcInSystem(msg.value);\n    // Calculate change\n    uint256 change = msg.value.sub(totalBtcSpent);\n    doTransfer(msg.sender, change);\n\n    // Transfer commissions to commissions address\n    doTransfer(mocInrate.commissionsAddress(), commissionSpent);\n  }\n\n  /**\n  * @dev Redeems the requested amount for the msg.sender, or the max amount of free docs possible.\n  * @param docAmount Amount of Docs to redeem.\n  */\n  function redeemFreeDoc(uint256 docAmount) public whenNotPaused() transitionState() {\n    (uint256 btcAmount, uint256 commissionSpent) = mocExchange.redeemFreeDoc(msg.sender, docAmount);\n\n    doTransfer(msg.sender, btcAmount);\n\n    // Transfer commissions to commissions address\n    doTransfer(mocInrate.commissionsAddress(), commissionSpent);\n  }\n\n  /**\n  * @dev Allow redeem on liquidation state, user DoCs get burned and he receives\n  * the equivalent BTCs if can be covered, or the maximum available\n  **/\n  function redeemAllDoc() public atState(MoCState.States.Liquidated) {\n    mocExchange.redeemAllDoc(msg.sender, msg.sender);\n  }\n\n  /**\n    @dev Moves the daily amount of interest rate to C0 bucket\n  */\n  function dailyInratePayment() public whenNotPaused() {\n    mocInrate.dailyInratePayment();\n  }\n\n  /**\n  * @dev Pays the BitPro interest and transfers it to the address mocInrate.bitProInterestAddress\n  * BitPro interests = Nb (bucket 0) * bitProRate.\n  */\n  function payBitProHoldersInterestPayment() public whenNotPaused() {\n    uint256 toPay = mocInrate.payBitProHoldersInterestPayment();\n    if (doSend(mocInrate.getBitProInterestAddress(), toPay)) {\n      bproxManager.substractValuesFromBucket(BUCKET_C0, toPay, 0, 0);\n    }\n  }\n\n  /**\n  * @dev Calculates BitPro holders holder interest by taking the total amount of RBCs available on Bucket 0.\n  * BitPro interests = Nb (bucket 0) * bitProRate.\n  */\n  function calculateBitProHoldersInterest() public view returns(uint256, uint256) {\n    return mocInrate.calculateBitProHoldersInterest();\n  }\n\n  function getBitProInterestAddress() public view returns(address payable) {\n    return mocInrate.getBitProInterestAddress();\n  }\n\n  function getBitProRate() public view returns(uint256) {\n    return mocInrate.getBitProRate();\n  }\n\n  function getBitProInterestBlockSpan() public view returns(uint256) {\n    return mocInrate.getBitProInterestBlockSpan();\n  }\n\n  function isDailyEnabled() public view returns(bool) {\n    return mocInrate.isDailyEnabled();\n  }\n\n  function isBitProInterestEnabled() public view returns(bool) {\n    return mocInrate.isBitProInterestEnabled();\n  }\n\n  /**\n    @dev Returns true if blockSpan number of blocks has pass since last execution\n  */\n  function isSettlementEnabled() public view returns(bool) {\n    return settlement.isSettlementEnabled();\n  }\n\n  /**\n   * @dev Checks if bucket liquidation is reached.\n   * @return true if bucket liquidation is reached, false otherwise\n   */\n  function isBucketLiquidationReached(bytes32 bucket) public view returns(bool) {\n    if (mocState.coverage(bucket) <= mocState.liq()) {\n      return true;\n    }\n    return false;\n  }\n\n  function evalBucketLiquidation(bytes32 bucket) public availableBucket(bucket) notBaseBucket(bucket) {\n    if (mocState.coverage(bucket) <= mocState.liq()) {\n      bproxManager.liquidateBucket(bucket, BUCKET_C0);\n\n      emit BucketLiquidation(bucket);\n    }\n  }\n\n  /**\n  * @dev Set Burnout address.\n  * @param burnoutAddress Address to which the funds will be sent on liquidation.\n  */\n  function setBurnoutAddress(address payable burnoutAddress) public whenNotPaused() atLeastState(MoCState.States.BProDiscount) {\n    mocBurnout.pushBurnoutAddress(msg.sender, burnoutAddress);\n  }\n\n  /**\n  * @dev Get Burnout address.\n  */\n  function getBurnoutAddress() public view returns(address) {\n    return mocBurnout.getBurnoutAddress(msg.sender);\n  }\n\n  /**\n  * @dev Evaluates if liquidation state has been reached and runs liq if that's the case\n  */\n  function evalLiquidation(uint256 steps) public {\n    mocState.nextState();\n\n    if (mocState.state() == MoCState.States.Liquidated) {\n      liquidate();\n      mocBurnout.executeBurnout(steps);\n    }\n  }\n\n  /**\n  * @dev Runs all settlement process\n  */\n  function runSettlement(uint256 steps) public whenNotPaused() transitionState() {\n    uint256 accumCommissions = settlement.runSettlement(steps);\n\n    // Transfer accums commissions to commissions address\n    doTransfer(mocInrate.commissionsAddress(), accumCommissions);\n  }\n\n  /**\n  * @dev Send RBTC to a user and update RbtcInSystem in MoCState\n  * @return result of the transaction\n  **/\n  function sendToAddress(address payable receiver, uint256 btcAmount) public onlyWhitelisted(msg.sender) returns(bool) {\n    if (btcAmount == 0) {\n      return true;\n    }\n\n    return doSend(receiver, btcAmount);\n  }\n\n  function liquidate() internal {\n    if (!liquidationExecuted) {\n      pauseBProToken();\n      sendRbtcRemainder();\n      liquidationExecuted = true;\n    }\n  }\n\n  /**\n    @dev Transfer the value that not corresponds to\n    Doc Collateral\n  */\n  function sendRbtcRemainder() internal {\n    uint256 bitProRBTCValue = mocState.getRbtcRemainder();\n    doTransfer(mocInrate.commissionsAddress(), bitProRBTCValue);\n  }\n\n  function initializeContracts() internal {\n    docToken = DocToken(connector.docToken());\n    bproToken = BProToken(connector.bproToken());\n    bproxManager = MoCBProxManager(connector.bproxManager());\n    mocState = MoCState(connector.mocState());\n    settlement = MoCSettlement(connector.mocSettlement());\n    mocConverter = MoCConverter(connector.mocConverter());\n    mocExchange = MoCExchange(connector.mocExchange());\n    mocInrate = MoCInrate(connector.mocInrate());\n    mocBurnout = MoCBurnout(connector.mocBurnout());\n  }\n\n  function initializeGovernanceContracts(address stopperAddress, address governorAddress, bool startStoppable) internal {\n    Stoppable.initialize(stopperAddress, IGovernor(governorAddress), startStoppable);\n  }\n\n  function pauseBProToken() internal {\n    if (!bproToken.paused()) {\n      bproToken.pause();\n    }\n  }\n\n  /**\n  * @dev Transfer using transfer function and updates global RBTC register in MoCState\n  **/\n  function doTransfer(address payable receiver, uint256 btcAmount) private {\n    mocState.subtractRbtcFromSystem(btcAmount);\n    receiver.transfer(btcAmount);\n  }\n\n  /**\n  * @dev Transfer using send function and updates global RBTC register in MoCState\n  * @return Execution result\n  **/\n  function doSend(address payable receiver, uint256 btcAmount) private returns(bool) {\n    // solium-disable-next-line security/no-send\n    bool result = receiver.send(btcAmount);\n\n    if (result) {\n      mocState.subtractRbtcFromSystem(btcAmount);\n    }\n\n    return result;\n  }\n\n  /***** STATE MODIFIERS *****/\n  modifier whenSettlementReady() {\n    require(settlement.isSettlementReady(), \"Function can only be called when settlement is ready\");\n    _;\n  }\n\n  modifier atState(MoCState.States _state) {\n    require(mocState.state() == _state, \"Function cannot be called at this state.\");\n    _;\n  }\n\n  modifier atLeastState(MoCState.States _state) {\n    require(mocState.state() >= _state, \"Function cannot be called at this state.\");\n    _;\n  }\n\n  modifier atMostState(MoCState.States _state) {\n    require(mocState.state() <= _state, \"Function cannot be called at this state.\");\n    _;\n  }\n\n  modifier bucketStateTransition(bytes32 bucket) {\n    evalBucketLiquidation(bucket);\n    _;\n  }\n\n  modifier availableBucket(bytes32 bucket) {\n    require (bproxManager.isAvailableBucket(bucket), \"Bucket is not available\");\n    _;\n  }\n\n  modifier notBaseBucket(bytes32 bucket) {\n    require(!bproxManager.isBucketBase(bucket), \"Bucket should not be a base type bucket\");\n    _;\n  }\n\n  modifier transitionState()\n  {\n    mocState.nextState();\n    if (mocState.state() == MoCState.States.Liquidated) {\n      liquidate();\n    }\n    else\n      _;\n  }\n\n  // Leave a gap betweeen inherited contracts variables in order to be\n  // able to add more variables in them later\n  uint256[50] private upgradeGap;\n}\n",
  "sourcePath": "/home/martin/Proyectos/moc_deployments/contracts/repositories/testnet_moc_v118/sc/contracts/MoC.sol",
  "compiler": {
    "name": "solc",
    "version": "0.5.8+commit.23d335f2.Emscripten.clang"
  },
  "schemaVersion": "3.0.11",
  "updatedAt": "2019-09-10T21:02:29.086Z",
  "devdoc": {
    "methods": {
      "alterRedeemRequestAmount(bool,uint256)": {
        "details": "Alters the redeem amount position for the redeemer",
        "params": {
          "delta": "the amount to add/substract to current position",
          "isAddition": "true if adding amount to redeem, false to substract."
        }
      },
      "calculateBitProHoldersInterest()": {
        "details": "Calculates BitPro holders holder interest by taking the total amount of RBCs available on Bucket 0. BitPro interests = Nb (bucket 0) * bitProRate."
      },
      "changeIGovernor(address)": {
        "params": {
          "newIGovernor": "New governor address"
        }
      },
      "dailyInratePayment()": {
        "details": "Moves the daily amount of interest rate to C0 bucket"
      },
      "docAmountToRedeem(address)": {
        "details": "returns the total amount of Docs in the redeem queue for redeemer",
        "params": {
          "redeemer": "address for which ^ is computed"
        }
      },
      "evalLiquidation(uint256)": {
        "details": "Evaluates if liquidation state has been reached and runs liq if that's the case"
      },
      "getBurnoutAddress()": {
        "details": "Get Burnout address."
      },
      "getRedeemRequestAt(uint256)": {
        "details": "Gets the RedeemRequest at the queue index position",
        "params": {
          "index": "queue position to get"
        },
        "return": "redeemer's address and amount he submitted"
      },
      "initialize(address)": {
        "details": "This initialize replaces the constructor but it is not called automatically. It is necessary because of the upgradeability of the contracts",
        "params": {
          "_governor": "Governor address"
        }
      },
      "initialize(address,address)": {
        "details": "This initialize replaces the constructor but it is not called automatically. It is necessary because of the upgradeability of the contracts. Either this function or the next can be used",
        "params": {
          "_governor": "The address that will define when a change contract is authorized to do this unstoppable/stoppable again",
          "_stopper": "The address that is authorized to stop this contract"
        }
      },
      "initialize(address,address,bool)": {
        "details": "This initialize replaces the constructor but it is not called automatically. It is necessary because of the upgradeability of the contracts. Either this function or the previous can be used",
        "params": {
          "_governor": "The address that will define when a change contract is authorized to do this unstoppable/stoppable again",
          "_stoppable": "Define if the contract starts being unstoppable or not",
          "_stopper": "The address that is authorized to stop this contract"
        }
      },
      "isBucketLiquidationReached(bytes32)": {
        "details": "Checks if bucket liquidation is reached.",
        "return": "true if bucket liquidation is reached, false otherwise"
      },
      "isSettlementEnabled()": {
        "details": "Returns true if blockSpan number of blocks has pass since last execution"
      },
      "makeStoppable()": {
        "details": "Should be called through governance"
      },
      "makeUnstoppable()": {
        "details": "Should be called through governance"
      },
      "mintBPro(uint256)": {
        "details": "Mints BPRO and pays the comissions of the operation.",
        "params": {
          "btcToMint": "Amount un BTC to mint"
        }
      },
      "mintBProx(bytes32,uint256)": {
        "details": "BUCKET bprox minting",
        "params": {
          "btcToMint": "amount to mint on RBTC*",
          "bucket": "Name of the bucket used"
        }
      },
      "mintDoc(uint256)": {
        "details": "Mint Doc tokens and pays the commisions of the operation",
        "params": {
          "btcToMint": "Amount in RBTC to mint"
        }
      },
      "pause()": {
        "details": "Should only be called by the pauser and when it is stoppable"
      },
      "payBitProHoldersInterestPayment()": {
        "details": "Pays the BitPro interest and transfers it to the address mocInrate.bitProInterestAddress BitPro interests = Nb (bucket 0) * bitProRate."
      },
      "redeemAllDoc()": {
        "details": "Allow redeem on liquidation state, user DoCs get burned and he receives the equivalent BTCs if can be covered, or the maximum available*"
      },
      "redeemBPro(uint256)": {
        "details": "Redeems Bpro Tokens and pays the comissions of the operation in RBTC",
        "params": {
          "bproAmount": "Amout in Bpro"
        }
      },
      "redeemBProx(bytes32,uint256)": {
        "details": "Redeems Bprox Tokens and pays the comissions of the operation in RBTC",
        "params": {
          "bproxAmount": "Amount in Bprox",
          "bucket": "Bucket to reedem, for example X2"
        }
      },
      "redeemDocRequest(uint256)": {
        "details": "Creates or updates the amount of a Doc redeem Request from the msg.sender",
        "params": {
          "docAmount": "Amount of Docs to redeem on settlement [using mocPrecision]"
        }
      },
      "redeemFreeDoc(uint256)": {
        "details": "Redeems the requested amount for the msg.sender, or the max amount of free docs possible.",
        "params": {
          "docAmount": "Amount of Docs to redeem."
        }
      },
      "redeemQueueSize()": {
        "details": "returns current redeem queue size"
      },
      "runSettlement(uint256)": {
        "details": "Runs all settlement process"
      },
      "sendToAddress(address,uint256)": {
        "details": "Send RBTC to a user and update RbtcInSystem in MoCState",
        "return": "result of the transaction*"
      },
      "setBurnoutAddress(address)": {
        "details": "Set Burnout address.",
        "params": {
          "burnoutAddress": "Address to which the funds will be sent on liquidation."
        }
      },
      "setStopper(address)": {
        "details": "Should be called through governance",
        "params": {
          "newStopper": "Address of the newStopper"
        }
      }
    }
  },
  "userdoc": {
    "methods": {
      "bproxBalanceOf(bytes32,address)": {
        "notice": "**************************INTERFACE******************************************"
      },
      "changeIGovernor(address)": {
        "notice": "Change the contract's governor. Should be called through the old governance system"
      },
      "initialize(address)": {
        "notice": "Initialize the contract with the basic settings"
      },
      "initialize(address,address)": {
        "notice": "Initialize the contract with the basic settings"
      },
      "initialize(address,address,bool)": {
        "notice": "Initialize the contract with the basic settings"
      },
      "makeStoppable()": {
        "notice": "Switches ON the stoppability of the contract; if the contract was paused before making it unstoppable it will be paused again after calling this function"
      },
      "makeUnstoppable()": {
        "notice": "Switches OFF the stoppability of the contract; if the contract was paused it will no longer be so"
      },
      "pause()": {
        "notice": "Called by the owner to pause, triggers stopped state"
      },
      "paused()": {
        "notice": "Returns true if paused"
      },
      "setStopper(address)": {
        "notice": "Changes the address which is enable to stop this contract"
      },
      "unpause()": {
        "notice": "Called by the owner to unpause, returns to normal state"
      }
    }
  }
}