{
  "contractName": "MoCInrate_v017",
  "abi": [
    {
      "constant": true,
      "inputs": [],
      "name": "getReservePrecision",
      "outputs": [
        {
          "name": "",
          "type": "uint256"
        }
      ],
      "payable": false,
      "stateMutability": "view",
      "type": "function"
    },
    {
      "constant": true,
      "inputs": [],
      "name": "governor",
      "outputs": [
        {
          "name": "",
          "type": "address"
        }
      ],
      "payable": false,
      "stateMutability": "view",
      "type": "function"
    },
    {
      "constant": true,
      "inputs": [],
      "name": "docTmax",
      "outputs": [
        {
          "name": "",
          "type": "uint256"
        }
      ],
      "payable": false,
      "stateMutability": "view",
      "type": "function"
    },
    {
      "constant": true,
      "inputs": [],
      "name": "BUCKET_X2",
      "outputs": [
        {
          "name": "",
          "type": "bytes32"
        }
      ],
      "payable": false,
      "stateMutability": "view",
      "type": "function"
    },
    {
      "constant": true,
      "inputs": [],
      "name": "commissionRate",
      "outputs": [
        {
          "name": "",
          "type": "uint256"
        }
      ],
      "payable": false,
      "stateMutability": "view",
      "type": "function"
    },
    {
      "constant": true,
      "inputs": [],
      "name": "bitProInterestBlockSpan",
      "outputs": [
        {
          "name": "",
          "type": "uint256"
        }
      ],
      "payable": false,
      "stateMutability": "view",
      "type": "function"
    },
    {
      "constant": true,
      "inputs": [],
      "name": "bitProRate",
      "outputs": [
        {
          "name": "",
          "type": "uint256"
        }
      ],
      "payable": false,
      "stateMutability": "view",
      "type": "function"
    },
    {
      "constant": true,
      "inputs": [],
      "name": "connector",
      "outputs": [
        {
          "name": "",
          "type": "address"
        }
      ],
      "payable": false,
      "stateMutability": "view",
      "type": "function"
    },
    {
      "constant": true,
      "inputs": [],
      "name": "lastBitProInterestBlock",
      "outputs": [
        {
          "name": "",
          "type": "uint256"
        }
      ],
      "payable": false,
      "stateMutability": "view",
      "type": "function"
    },
    {
      "constant": false,
      "inputs": [
        {
          "name": "newIGovernor",
          "type": "address"
        }
      ],
      "name": "changeIGovernor",
      "outputs": [],
      "payable": false,
      "stateMutability": "nonpayable",
      "type": "function"
    },
    {
      "constant": true,
      "inputs": [],
      "name": "docPower",
      "outputs": [
        {
          "name": "",
          "type": "uint256"
        }
      ],
      "payable": false,
      "stateMutability": "view",
      "type": "function"
    },
    {
      "constant": true,
      "inputs": [],
      "name": "commissionsAddress",
      "outputs": [
        {
          "name": "",
          "type": "address"
        }
      ],
      "payable": false,
      "stateMutability": "view",
      "type": "function"
    },
    {
      "constant": true,
      "inputs": [],
      "name": "docTmin",
      "outputs": [
        {
          "name": "",
          "type": "uint256"
        }
      ],
      "payable": false,
      "stateMutability": "view",
      "type": "function"
    },
    {
      "constant": true,
      "inputs": [],
      "name": "lastDailyPayBlock",
      "outputs": [
        {
          "name": "",
          "type": "uint256"
        }
      ],
      "payable": false,
      "stateMutability": "view",
      "type": "function"
    },
    {
      "constant": true,
      "inputs": [],
      "name": "BUCKET_C0",
      "outputs": [
        {
          "name": "",
          "type": "bytes32"
        }
      ],
      "payable": false,
      "stateMutability": "view",
      "type": "function"
    },
    {
      "constant": true,
      "inputs": [],
      "name": "getDayPrecision",
      "outputs": [
        {
          "name": "",
          "type": "uint256"
        }
      ],
      "payable": false,
      "stateMutability": "view",
      "type": "function"
    },
    {
      "constant": true,
      "inputs": [],
      "name": "bitProInterestAddress",
      "outputs": [
        {
          "name": "",
          "type": "address"
        }
      ],
      "payable": false,
      "stateMutability": "view",
      "type": "function"
    },
    {
      "constant": true,
      "inputs": [],
      "name": "getMocPrecision",
      "outputs": [
        {
          "name": "",
          "type": "uint256"
        }
      ],
      "payable": false,
      "stateMutability": "view",
      "type": "function"
    },
    {
      "anonymous": false,
      "inputs": [
        {
          "indexed": false,
          "name": "amount",
          "type": "uint256"
        },
        {
          "indexed": false,
          "name": "daysToSettlement",
          "type": "uint256"
        },
        {
          "indexed": false,
          "name": "nReserveBucketC0",
          "type": "uint256"
        }
      ],
      "name": "InrateDailyPay",
      "type": "event"
    },
    {
      "anonymous": false,
      "inputs": [
        {
          "indexed": false,
          "name": "amount",
          "type": "uint256"
        },
        {
          "indexed": false,
          "name": "nReserveBucketC0BeforePay",
          "type": "uint256"
        }
      ],
      "name": "RiskProHoldersInterestPay",
      "type": "event"
    },
    {
      "constant": false,
      "inputs": [
        {
          "name": "_docTmin",
          "type": "uint256"
        }
      ],
      "name": "setDoCTmin",
      "outputs": [],
      "payable": false,
      "stateMutability": "nonpayable",
      "type": "function"
    },
    {
      "constant": false,
      "inputs": [
        {
          "name": "_docTmax",
          "type": "uint256"
        }
      ],
      "name": "setDoCTmax",
      "outputs": [],
      "payable": false,
      "stateMutability": "nonpayable",
      "type": "function"
    },
    {
      "constant": false,
      "inputs": [
        {
          "name": "_docPower",
          "type": "uint256"
        }
      ],
      "name": "setDoCPower",
      "outputs": [],
      "payable": false,
      "stateMutability": "nonpayable",
      "type": "function"
    },
    {
      "constant": true,
      "inputs": [],
      "name": "getDoCTmin",
      "outputs": [
        {
          "name": "",
          "type": "uint256"
        }
      ],
      "payable": false,
      "stateMutability": "view",
      "type": "function"
    },
    {
      "constant": true,
      "inputs": [],
      "name": "getDoCTmax",
      "outputs": [
        {
          "name": "",
          "type": "uint256"
        }
      ],
      "payable": false,
      "stateMutability": "view",
      "type": "function"
    },
    {
      "constant": true,
      "inputs": [],
      "name": "getDoCPower",
      "outputs": [
        {
          "name": "",
          "type": "uint256"
        }
      ],
      "payable": false,
      "stateMutability": "view",
      "type": "function"
    },
    {
      "constant": true,
      "inputs": [
        {
          "name": "docRedeem",
          "type": "uint256"
        }
      ],
      "name": "docInrateAvg",
      "outputs": [
        {
          "name": "",
          "type": "uint256"
        }
      ],
      "payable": false,
      "stateMutability": "view",
      "type": "function"
    },
    {
      "constant": false,
      "inputs": [
        {
          "name": "_docTmin",
          "type": "uint256"
        },
        {
          "name": "_docPower",
          "type": "uint256"
        },
        {
          "name": "_docTmax",
          "type": "uint256"
        }
      ],
      "name": "initialize_v017",
      "outputs": [],
      "payable": false,
      "stateMutability": "nonpayable",
      "type": "function"
    },
    {
      "constant": false,
      "inputs": [
        {
          "name": "_governor",
          "type": "address"
        }
      ],
      "name": "initialize",
      "outputs": [],
      "payable": false,
      "stateMutability": "nonpayable",
      "type": "function"
    },
    {
      "constant": false,
      "inputs": [
        {
          "name": "connectorAddress",
          "type": "address"
        },
        {
          "name": "_governor",
          "type": "address"
        },
        {
          "name": "btcxTmin",
          "type": "uint256"
        },
        {
          "name": "btcxPower",
          "type": "uint256"
        },
        {
          "name": "btcxTmax",
          "type": "uint256"
        },
        {
          "name": "_bitProRate",
          "type": "uint256"
        },
        {
          "name": "blockSpanBitPro",
          "type": "uint256"
        },
        {
          "name": "bitProInterestTargetAddress",
          "type": "address"
        },
        {
          "name": "commissionsAddressTarget",
          "type": "address"
        },
        {
          "name": "commissionRateParam",
          "type": "uint256"
        }
      ],
      "name": "initialize",
      "outputs": [],
      "payable": false,
      "stateMutability": "nonpayable",
      "type": "function"
    },
    {
      "constant": true,
      "inputs": [],
      "name": "getBtcxTmin",
      "outputs": [
        {
          "name": "",
          "type": "uint256"
        }
      ],
      "payable": false,
      "stateMutability": "view",
      "type": "function"
    },
    {
      "constant": true,
      "inputs": [],
      "name": "getBtcxTmax",
      "outputs": [
        {
          "name": "",
          "type": "uint256"
        }
      ],
      "payable": false,
      "stateMutability": "view",
      "type": "function"
    },
    {
      "constant": true,
      "inputs": [],
      "name": "getBtcxPower",
      "outputs": [
        {
          "name": "",
          "type": "uint256"
        }
      ],
      "payable": false,
      "stateMutability": "view",
      "type": "function"
    },
    {
      "constant": true,
      "inputs": [],
      "name": "getBitProInterestBlockSpan",
      "outputs": [
        {
          "name": "",
          "type": "uint256"
        }
      ],
      "payable": false,
      "stateMutability": "view",
      "type": "function"
    },
    {
      "constant": false,
      "inputs": [
        {
          "name": "_btxcTmin",
          "type": "uint256"
        }
      ],
      "name": "setBtcxTmin",
      "outputs": [],
      "payable": false,
      "stateMutability": "nonpayable",
      "type": "function"
    },
    {
      "constant": false,
      "inputs": [
        {
          "name": "_btxcTax",
          "type": "uint256"
        }
      ],
      "name": "setBtcxTmax",
      "outputs": [],
      "payable": false,
      "stateMutability": "nonpayable",
      "type": "function"
    },
    {
      "constant": false,
      "inputs": [
        {
          "name": "_btxcPower",
          "type": "uint256"
        }
      ],
      "name": "setBtcxPower",
      "outputs": [],
      "payable": false,
      "stateMutability": "nonpayable",
      "type": "function"
    },
    {
      "constant": true,
      "inputs": [],
      "name": "getBitProRate",
      "outputs": [
        {
          "name": "",
          "type": "uint256"
        }
      ],
      "payable": false,
      "stateMutability": "view",
      "type": "function"
    },
    {
      "constant": true,
      "inputs": [],
      "name": "getCommissionRate",
      "outputs": [
        {
          "name": "",
          "type": "uint256"
        }
      ],
      "payable": false,
      "stateMutability": "view",
      "type": "function"
    },
    {
      "constant": false,
      "inputs": [
        {
          "name": "newBitProRate",
          "type": "uint256"
        }
      ],
      "name": "setBitProRate",
      "outputs": [],
      "payable": false,
      "stateMutability": "nonpayable",
      "type": "function"
    },
    {
      "constant": false,
      "inputs": [
        {
          "name": "newBitProBlockSpan",
          "type": "uint256"
        }
      ],
      "name": "setBitProInterestBlockSpan",
      "outputs": [],
      "payable": false,
      "stateMutability": "nonpayable",
      "type": "function"
    },
    {
      "constant": true,
      "inputs": [],
      "name": "getBitProInterestAddress",
      "outputs": [
        {
          "name": "",
          "type": "address"
        }
      ],
      "payable": false,
      "stateMutability": "view",
      "type": "function"
    },
    {
      "constant": false,
      "inputs": [
        {
          "name": "newBitProInterestAddress",
          "type": "address"
        }
      ],
      "name": "setBitProInterestAddress",
      "outputs": [],
      "payable": false,
      "stateMutability": "nonpayable",
      "type": "function"
    },
    {
      "constant": false,
      "inputs": [
        {
          "name": "newCommissionsAddress",
          "type": "address"
        }
      ],
      "name": "setCommissionsAddress",
      "outputs": [],
      "payable": false,
      "stateMutability": "nonpayable",
      "type": "function"
    },
    {
      "constant": false,
      "inputs": [
        {
          "name": "newCommissionRate",
          "type": "uint256"
        }
      ],
      "name": "setCommissionRate",
      "outputs": [],
      "payable": false,
      "stateMutability": "nonpayable",
      "type": "function"
    },
    {
      "constant": true,
      "inputs": [],
      "name": "spotInrate",
      "outputs": [
        {
          "name": "",
          "type": "uint256"
        }
      ],
      "payable": false,
      "stateMutability": "view",
      "type": "function"
    },
    {
      "constant": true,
      "inputs": [
        {
          "name": "bucket",
          "type": "bytes32"
        },
        {
          "name": "btcAmount",
          "type": "uint256"
        },
        {
          "name": "onMinting",
          "type": "bool"
        }
      ],
      "name": "btcxInrateAvg",
      "outputs": [
        {
          "name": "",
          "type": "uint256"
        }
      ],
      "payable": false,
      "stateMutability": "view",
      "type": "function"
    },
    {
      "constant": true,
      "inputs": [],
      "name": "dailyInrate",
      "outputs": [
        {
          "name": "",
          "type": "uint256"
        }
      ],
      "payable": false,
      "stateMutability": "view",
      "type": "function"
    },
    {
      "constant": true,
      "inputs": [
        {
          "name": "bucket",
          "type": "bytes32"
        },
        {
          "name": "rbtcAmount",
          "type": "uint256"
        }
      ],
      "name": "calcMintInterestValues",
      "outputs": [
        {
          "name": "",
          "type": "uint256"
        }
      ],
      "payable": false,
      "stateMutability": "view",
      "type": "function"
    },
    {
      "constant": true,
      "inputs": [
        {
          "name": "docAmount",
          "type": "uint256"
        },
        {
          "name": "rbtcAmount",
          "type": "uint256"
        }
      ],
      "name": "calcDocRedInterestValues",
      "outputs": [
        {
          "name": "",
          "type": "uint256"
        }
      ],
      "payable": false,
      "stateMutability": "view",
      "type": "function"
    },
    {
      "constant": true,
      "inputs": [
        {
          "name": "bucket",
          "type": "bytes32"
        },
        {
          "name": "rbtcToRedeem",
          "type": "uint256"
        }
      ],
      "name": "calcFinalRedeemInterestValue",
      "outputs": [
        {
          "name": "",
          "type": "uint256"
        }
      ],
      "payable": false,
      "stateMutability": "view",
      "type": "function"
    },
    {
      "constant": true,
      "inputs": [
        {
          "name": "rbtcAmount",
          "type": "uint256"
        }
      ],
      "name": "calcCommissionValue",
      "outputs": [
        {
          "name": "",
          "type": "uint256"
        }
      ],
      "payable": false,
      "stateMutability": "view",
      "type": "function"
    },
    {
      "constant": true,
      "inputs": [
        {
          "name": "bucket",
          "type": "bytes32"
        },
        {
          "name": "rbtcToRedeem",
          "type": "uint256"
        }
      ],
      "name": "calcRedeemInterestValue",
      "outputs": [
        {
          "name": "",
          "type": "uint256"
        }
      ],
      "payable": false,
      "stateMutability": "view",
      "type": "function"
    },
    {
      "constant": false,
      "inputs": [],
      "name": "dailyInratePayment",
      "outputs": [
        {
          "name": "",
          "type": "uint256"
        }
      ],
      "payable": false,
      "stateMutability": "nonpayable",
      "type": "function"
    },
    {
      "constant": true,
      "inputs": [],
      "name": "isDailyEnabled",
      "outputs": [
        {
          "name": "",
          "type": "bool"
        }
      ],
      "payable": false,
      "stateMutability": "view",
      "type": "function"
    },
    {
      "constant": true,
      "inputs": [],
      "name": "isBitProInterestEnabled",
      "outputs": [
        {
          "name": "",
          "type": "bool"
        }
      ],
      "payable": false,
      "stateMutability": "view",
      "type": "function"
    },
    {
      "constant": true,
      "inputs": [],
      "name": "calculateBitProHoldersInterest",
      "outputs": [
        {
          "name": "",
          "type": "uint256"
        },
        {
          "name": "",
          "type": "uint256"
        }
      ],
      "payable": false,
      "stateMutability": "view",
      "type": "function"
    },
    {
      "constant": false,
      "inputs": [],
      "name": "payBitProHoldersInterestPayment",
      "outputs": [
        {
          "name": "",
          "type": "uint256"
        }
      ],
      "payable": false,
      "stateMutability": "nonpayable",
      "type": "function"
    }
  ],
  "bytecode": "0x60e060405265ed858e6eedd86080819052600060a0819052600160c0819052918155815560025534801561003257600080fd5b50613208806100426000396000f3fe608060405234801561001057600080fd5b506004361061028b5760e060020a600035046301733c2a81146102905780630240a8b8146102aa57806306bdce8c146102d25780630982658c146102da5780630c340a24146102e25780630c97fb8a1461030657806319fac8fd1461030e5780631d28b1991461032b57806328286e2a1461033357806329b86cec1461035057806334a7787c146103585780633acb38d11461037b5780633c43acdd146103835780633e4eb36c1461038b57806340883740146103935780634b45752b1461039b578063512c49dc146103be57806357a13a16146103c65780635afccf72146103ce5780635ea1d6f8146103ea57806366316cfa146103f25780636c2b7b7e146103fa57806373ff3da51461040257806374feb88a1461042557806379f8a7a51461044e5780637caca79c1461046b57806383f3084f14610473578063891224ce1461047b5780638c3bed9e1461049e57806396d2fd43146104bb5780639e703418146104d85780639e95db2c146104e0578063a3daf001146104e8578063a52b75a1146104f0578063a9718f581461050d578063b5adca4614610515578063b625a3a414610532578063b6cd341c1461053a578063b6e0833014610557578063bd30f4241461057d578063be7432df14610585578063c29785cc1461058d578063c4d66de814610595578063cb8a9c95146105bb578063d066aca6146105d8578063d380c38c146105e0578063d7388419146105fd578063dbff01b61461061a578063dd7c6c7f14610622578063e22155f614610643578063e2414a731461064b578063eaaf4ae314610653578063f1ccc83a1461067e578063f48d1d0f14610686578063f5aae159146106eb578063f715e29314610711575b600080fd5b610298610719565b60408051918252519081900360200190f35b6102d0600480360360208110156102c057600080fd5b5035600160a060020a0316610720565b005b61029861086b565b610298610871565b6102ea6109a0565b60408051600160a060020a039092168252519081900360200190f35b6102986109af565b6102d06004803603602081101561032457600080fd5b50356109b5565b610298610aa6565b6102d06004803603602081101561034957600080fd5b5035610aac565b610298610b9d565b6102986004803603604081101561036e57600080fd5b5080359060200135610ba3565b610298610d7e565b610298611052565b610298611058565b6102ea61105e565b610298600480360360408110156103b157600080fd5b508035906020013561106d565b6102986111aa565b6102986111b0565b6103d66111bc565b604080519115158252519081900360200190f35b6102986111d9565b6102986111df565b6102986111e5565b6102986004803603604081101561041857600080fd5b50803590602001356111eb565b6102d06004803603606081101561043b57600080fd5b508035906020810135906040013561126f565b6102d06004803603602081101561046457600080fd5b50356112de565b6103d66113cf565b6102ea611465565b6102986004803603604081101561049157600080fd5b5080359060200135611474565b6102d0600480360360208110156104b457600080fd5b50356114a4565b6102d0600480360360208110156104d157600080fd5b5035611595565b610298611686565b6102986117e7565b610298611940565b6102d06004803603602081101561050657600080fd5b5035611946565b610298611a37565b6102d06004803603602081101561052b57600080fd5b5035611a3d565b610298611b2e565b6102986004803603602081101561055057600080fd5b5035611b34565b6102d06004803603602081101561056d57600080fd5b5035600160a060020a0316611d78565b610298611e86565b610298611e8c565b6102ea611e92565b6102d0600480360360208110156105ab57600080fd5b5035600160a060020a0316611ea1565b610298600480360360208110156105d157600080fd5b5035611f62565b610298611f8a565b6102d0600480360360208110156105f657600080fd5b5035611f90565b6102d06004803603602081101561061357600080fd5b5035612081565b610298612172565b61062a612178565b6040805192835260208301919091528051918290030190f35b61029861222d565b610298612239565b6102986004803603606081101561066957600080fd5b5080359060208101359060400135151561223f565b6102ea6123fe565b6102d0600480360361014081101561069d57600080fd5b50600160a060020a038135811691602081013582169160408201359160608101359160808201359160a08101359160c08201359160e08101358216916101008201351690610120013561240d565b6102d06004803603602081101561070157600080fd5b5035600160a060020a03166124e6565b6102986125f4565b60dd545b90565b609e546040805160e060020a63d994d6d50281523360048201529051600160a060020a039092169163d994d6d591602480820192602092909190829003018186803b15801561076e57600080fd5b505afa158015610782573d6000803e3d6000fd5b505050506040513d602081101561079857600080fd5b505160408051808201909152601681526000805160206131bd8339815191526020820152906108485760405160e560020a62461bcd0281526004018080602001828103825283818151815260200191508051906020019080838360005b8381101561080d5781810151838201526020016107f5565b50505050905090810190601f16801561083a5780820380516001836020036101000a031916815260200191505b509250505060405180910390fd5b5060d38054600160a060020a031916600160a060020a0392909216919091179055565b60695490565b60008060d860009054906101000a9004600160a060020a0316600160a060020a031663b81047736040518163ffffffff1660e060020a02815260040160206040518083038186803b1580156108c557600080fd5b505afa1580156108d9573d6000803e3d6000fd5b505050506040513d60208110156108ef57600080fd5b50516000546002546001546040805160e060020a6310c3a94b02815260696004820152602481019490945260448401929092526064830152608482018390525191925073__MoCHelperLib__________________________916310c3a94b9160a480820192602092909190829003018186803b15801561096e57600080fd5b505af4158015610982573d6000803e3d6000fd5b505050506040513d602081101561099857600080fd5b505191505090565b609e54600160a060020a031681565b60005490565b609e546040805160e060020a63d994d6d50281523360048201529051600160a060020a039092169163d994d6d591602480820192602092909190829003018186803b158015610a0357600080fd5b505afa158015610a17573d6000803e3d6000fd5b505050506040513d6020811015610a2d57600080fd5b505160408051808201909152601681526000805160206131bd833981519152602082015290610aa05760405160e560020a62461bcd02815260206004820181815283516024840152835190928392604490910191908501908083836000831561080d5781810151838201526020016107f5565b5060d755565b60d25490565b609e546040805160e060020a63d994d6d50281523360048201529051600160a060020a039092169163d994d6d591602480820192602092909190829003018186803b158015610afa57600080fd5b505afa158015610b0e573d6000803e3d6000fd5b505050506040513d6020811015610b2457600080fd5b505160408051808201909152601681526000805160206131bd833981519152602082015290610b975760405160e560020a62461bcd02815260206004820181815283516024840152835190928392604490910191908501908083836000831561080d5781810151838201526020016107f5565b5060db55565b60015490565b600080606973__MoCHelperLib__________________________636d89c85e90918560d860009054906101000a9004600160a060020a0316600160a060020a031663eb892a62896040518263ffffffff1660e060020a0281526004018082815260200191505060206040518083038186803b158015610c2157600080fd5b505afa158015610c35573d6000803e3d6000fd5b505050506040513d6020811015610c4b57600080fd5b50516040805160e060020a63ffffffff8716028152600481019490945260248401929092526044830152516064808301926020929190829003018186803b158015610c9557600080fd5b505af4158015610ca9573d6000803e3d6000fd5b505050506040513d6020811015610cbf57600080fd5b505190506000610cd085858361223f565b90506000610cdf8260006125fa565b6040805160e060020a636f598155028152606960048201526024810186905260448101839052905191925073__MoCHelperLib__________________________91636f59815591606480820192602092909190829003018186803b158015610d4657600080fd5b505af4158015610d5a573d6000803e3d6000fd5b505050506040513d6020811015610d7057600080fd5b505193505050505b92915050565b6036546040805160e060020a633af32abf02815233600482018190529151600093600160a060020a031691633af32abf916024808301926020929190829003018186803b158015610dce57600080fd5b505afa158015610de2573d6000803e3d6000fd5b505050506040513d6020811015610df857600080fd5b5051610e3c576040805160e560020a62461bcd02815260206004820152601a6024820152600080516020613138833981519152604482015290519081900360640190fd5b610e446113cf565b610e825760405160e560020a62461bcd0281526004018080602001828103825260218152602001806130f66021913960400191505060405180910390fd5b6000610e8c611686565b4360d15590508015610f0f5760da546040805160e160020a631db6d78302815260f460020a610433026004820152602481018490529051600160a060020a0390921691633b6daf069160448082019260009290919082900301818387803b158015610ef657600080fd5b505af1158015610f0a573d6000803e3d6000fd5b505050505b7f5ecdabf873ced8a4bb0ca113ecbf92bf880cc423d5a45ab60b8cb65479bbc1ff8160d860009054906101000a9004600160a060020a0316600160a060020a03166311a2e50b6040518163ffffffff1660e060020a02815260040160206040518083038186803b158015610f8257600080fd5b505afa158015610f96573d6000803e3d6000fd5b505050506040513d6020811015610fac57600080fd5b505160d8546040805160e060020a63cdb5077102815260f460020a6104330260048201529051600160a060020a039092169163cdb5077191602480820192602092909190829003018186803b15801561100457600080fd5b505afa158015611018573d6000803e3d6000fd5b505050506040513d602081101561102e57600080fd5b505160408051938452602084019290925282820152519081900360600190a1505090565b60dc5490565b60d75490565b60d354600160a060020a031690565b600080606973__MoCHelperLib__________________________636d89c85e90918560d860009054906101000a9004600160a060020a0316600160a060020a031663eb892a62896040518263ffffffff1660e060020a0281526004018082815260200191505060206040518083038186803b1580156110eb57600080fd5b505afa1580156110ff573d6000803e3d6000fd5b505050506040513d602081101561111557600080fd5b50516040805160e060020a63ffffffff8716028152600481019490945260248401929092526044830152516064808301926020929190829003018186803b15801561115f57600080fd5b505af4158015611173573d6000803e3d6000fd5b505050506040513d602081101561118957600080fd5b50519050600061119b8585600161223f565b90506000610cdf8260016125fa565b60dd5481565b60f160020a612c190281565b600060d454600014806111d4575060d55460d4540143115b905090565b60d75481565b60d55481565b60d25481565b6000806111f784611b34565b905060006112068260016125fa565b6040805160e060020a636f598155028152606960048201526024810187905260448101839052905191925060009173__MoCHelperLib__________________________91636f598155916064808301926020929190829003018186803b158015610d4657600080fd5b60de5460ff16156112c3576040805160e560020a62461bcd0281526020600482015260136024820152606a60020a72105b1c9958591e48125b9a5d1a585b1a5e995902604482015290519081900360640190fd5b60db9290925560dc5560dd5560de805460ff19166001179055565b609e546040805160e060020a63d994d6d50281523360048201529051600160a060020a039092169163d994d6d591602480820192602092909190829003018186803b15801561132c57600080fd5b505afa158015611340573d6000803e3d6000fd5b505050506040513d602081101561135657600080fd5b505160408051808201909152601681526000805160206131bd8339815191526020820152906113c95760405160e560020a62461bcd02815260206004820181815283516024840152835190928392604490910191908501908083836000831561080d5781810151838201526020016107f5565b5060d255565b600060d154600014806111d4575060d860009054906101000a9004600160a060020a0316600160a060020a031663717c01c06040518163ffffffff1660e060020a02815260040160206040518083038186803b15801561142e57600080fd5b505afa158015611442573d6000803e3d6000fd5b505050506040513d602081101561145857600080fd5b505160d154014311905090565b603654600160a060020a031681565b6000806114818484610ba3565b9050600061148f8583612628565b905061149b81836126e2565b95945050505050565b609e546040805160e060020a63d994d6d50281523360048201529051600160a060020a039092169163d994d6d591602480820192602092909190829003018186803b1580156114f257600080fd5b505afa158015611506573d6000803e3d6000fd5b505050506040513d602081101561151c57600080fd5b505160408051808201909152601681526000805160206131bd83398151915260208201529061158f5760405160e560020a62461bcd02815260206004820181815283516024840152835190928392604490910191908501908083836000831561080d5781810151838201526020016107f5565b5060d555565b609e546040805160e060020a63d994d6d50281523360048201529051600160a060020a039092169163d994d6d591602480820192602092909190829003018186803b1580156115e357600080fd5b505afa1580156115f7573d6000803e3d6000fd5b505050506040513d602081101561160d57600080fd5b505160408051808201909152601681526000805160206131bd8339815191526020820152906116805760405160e560020a62461bcd02815260206004820181815283516024840152835190928392604490910191908501908083836000831561080d5781810151838201526020016107f5565b50600155565b60008060d860009054906101000a9004600160a060020a0316600160a060020a03166311a2e50b6040518163ffffffff1660e060020a02815260040160206040518083038186803b1580156116da57600080fd5b505afa1580156116ee573d6000803e3d6000fd5b505050506040513d602081101561170457600080fd5b505160da546040805160e260020a63222766d902815260f460020a6104330260048201529051929350600092600160a060020a039092169163889d9b6491602480820192602092909190829003018186803b15801561176257600080fd5b505afa158015611776573d6000803e3d6000fd5b505050506040513d602081101561178c57600080fd5b5051606a549091508210156117a457915061071d9050565b606a546000906117df906117bf90859063ffffffff6126f816565b606a546117d390859063ffffffff61275516565b9063ffffffff6127b116565b935050505090565b6036546040805160e060020a633af32abf02815233600482018190529151600093600160a060020a031691633af32abf916024808301926020929190829003018186803b15801561183757600080fd5b505afa15801561184b573d6000803e3d6000fd5b505050506040513d602081101561186157600080fd5b50516118a5576040805160e560020a62461bcd02815260206004820152601a6024820152600080516020613138833981519152604482015290519081900360640190fd5b6118ad6111bc565b6118eb5760405160e560020a62461bcd0281526004018080602001828103825260378152602001806131586037913960400191505060405180910390fd5b6000806118f6612178565b4360d455604080518381526020810183905281519395509193507f1abf94cc69cdea86e6aa6eabfe4d0c6931b808d45cb1a2b0830a05604cffb38992918290030190a15091505090565b60d45481565b609e546040805160e060020a63d994d6d50281523360048201529051600160a060020a039092169163d994d6d591602480820192602092909190829003018186803b15801561199457600080fd5b505afa1580156119a8573d6000803e3d6000fd5b505050506040513d60208110156119be57600080fd5b505160408051808201909152601681526000805160206131bd833981519152602082015290611a315760405160e560020a62461bcd02815260206004820181815283516024840152835190928392604490910191908501908083836000831561080d5781810151838201526020016107f5565b5060dc55565b60d55490565b609e546040805160e060020a63d994d6d50281523360048201529051600160a060020a039092169163d994d6d591602480820192602092909190829003018186803b158015611a8b57600080fd5b505afa158015611a9f573d6000803e3d6000fd5b505050506040513d6020811015611ab557600080fd5b505160408051808201909152601681526000805160206131bd833981519152602082015290611b285760405160e560020a62461bcd02815260206004820181815283516024840152835190928392604490910191908501908083836000831561080d5781810151838201526020016107f5565b50600055565b60db5490565b60008060d860009054906101000a9004600160a060020a0316600160a060020a031663b81047736040518163ffffffff1660e060020a02815260040160206040518083038186803b158015611b8857600080fd5b505afa158015611b9c573d6000803e3d6000fd5b505050506040513d6020811015611bb257600080fd5b505160d85460da546040805160e060020a6367c8bcf902815260f460020a6104330260048201529051939450600093600160a060020a039384169363f74326f993611c5b938a9391909216916367c8bcf9916024808301926020929190829003018186803b158015611c2357600080fd5b505afa158015611c37573d6000803e3d6000fd5b505050506040513d6020811015611c4d57600080fd5b50519063ffffffff61281e16565b6040518263ffffffff1660e060020a0281526004018082815260200191505060206040518083038186803b158015611c9257600080fd5b505afa158015611ca6573d6000803e3d6000fd5b505050506040513d6020811015611cbc57600080fd5b505160dd5460dc5460db546040805160e060020a63537e0ff5028152606960048201526024810194909452604484019290925260648301526084820185905260a482018390525191925073__MoCHelperLib__________________________9163537e0ff59160c480820192602092909190829003018186803b158015611d4257600080fd5b505af4158015611d56573d6000803e3d6000fd5b505050506040513d6020811015611d6c57600080fd5b5051925050505b919050565b609e546040805160e060020a63d994d6d50281523360048201529051600160a060020a039092169163d994d6d591602480820192602092909190829003018186803b158015611dc657600080fd5b505afa158015611dda573d6000803e3d6000fd5b505050506040513d6020811015611df057600080fd5b505160408051808201909152601681526000805160206131bd833981519152602082015290611e635760405160e560020a62461bcd02815260206004820181815283516024840152835190928392604490910191908501908083836000831561080d5781810151838201526020016107f5565b50609e8054600160a060020a031916600160a060020a0392909216919091179055565b60dc5481565b60025490565b60d654600160a060020a031681565b600354610100900460ff1680611eba5750611eba61287e565b80611ec8575060035460ff16155b611f065760405160e560020a62461bcd02815260040180806020018281038252602e81526020018061318f602e913960400191505060405180910390fd5b600354610100900460ff16158015611f31576003805460ff1961ff0019909116610100171660011790555b609e8054600160a060020a031916600160a060020a0384161790558015611f5e576003805461ff00191690555b5050565b600080611f836069600201546117d360d7548661275590919063ffffffff16565b9392505050565b60db5481565b609e546040805160e060020a63d994d6d50281523360048201529051600160a060020a039092169163d994d6d591602480820192602092909190829003018186803b158015611fde57600080fd5b505afa158015611ff2573d6000803e3d6000fd5b505050506040513d602081101561200857600080fd5b505160408051808201909152601681526000805160206131bd83398151915260208201529061207b5760405160e560020a62461bcd02815260206004820181815283516024840152835190928392604490910191908501908083836000831561080d5781810151838201526020016107f5565b50600255565b609e546040805160e060020a63d994d6d50281523360048201529051600160a060020a039092169163d994d6d591602480820192602092909190829003018186803b1580156120cf57600080fd5b505afa1580156120e3573d6000803e3d6000fd5b505050506040513d60208110156120f957600080fd5b505160408051808201909152601681526000805160206131bd83398151915260208201529061216c5760405160e560020a62461bcd02815260206004820181815283516024840152835190928392604490910191908501908083836000831561080d5781810151838201526020016107f5565b5060dd55565b60d15481565b60da546040805160e060020a63cdb5077102815260f460020a610433026004820152905160009283928392600160a060020a039092169163cdb5077191602480820192602092909190829003018186803b1580156121d557600080fd5b505afa1580156121e9573d6000803e3d6000fd5b505050506040513d60208110156121ff57600080fd5b5051606b5460d25491925060009161222391906117d390859063ffffffff61275516565b9350909150509091565b60f460020a6104330281565b606a5490565b60008060d860009054906101000a9004600160a060020a0316600160a060020a031663b81047736040518163ffffffff1660e060020a02815260040160206040518083038186803b15801561229357600080fd5b505afa1580156122a7573d6000803e3d6000fd5b505050506040513d60208110156122bd57600080fd5b505160d854909150600090600160a060020a031663f74326f96122e1888888612884565b6040518263ffffffff1660e060020a0281526004018082815260200191505060206040518083038186803b15801561231857600080fd5b505afa15801561232c573d6000803e3d6000fd5b505050506040513d602081101561234257600080fd5b50516000546002546001546040805160e060020a63537e0ff5028152606960048201526024810194909452604484019290925260648301526084820185905260a482018390525191925073__MoCHelperLib__________________________9163537e0ff59160c480820192602092909190829003018186803b1580156123c857600080fd5b505af41580156123dc573d6000803e3d6000fd5b505050506040513d60208110156123f257600080fd5b50519695505050505050565b60d354600160a060020a031681565b600354610100900460ff1680612426575061242661287e565b80612434575060035460ff16155b6124725760405160e560020a62461bcd02815260040180806020018281038252602e81526020018061318f602e913960400191505060405180910390fd5b600354610100900460ff1615801561249d576003805460ff1961ff0019909116610100171660011790555b6124a5612c35565b6124ae8b612c68565b6124b6612d28565b6124c78a8a8a8a8a88888c8c612ed6565b80156124d9576003805461ff00191690555b5050505050505050505050565b609e546040805160e060020a63d994d6d50281523360048201529051600160a060020a039092169163d994d6d591602480820192602092909190829003018186803b15801561253457600080fd5b505afa158015612548573d6000803e3d6000fd5b505050506040513d602081101561255e57600080fd5b505160408051808201909152601681526000805160206131bd8339815191526020820152906125d15760405160e560020a62461bcd02815260206004820181815283516024840152835190928392604490910191908501908083836000831561080d5781810151838201526020016107f5565b5060d68054600160a060020a031916600160a060020a0392909216919091179055565b606b5490565b60008061260683612f36565b606a54909150612620906117d3868463ffffffff61275516565b949350505050565b60008061263484612fee565b60da546040805160e260020a63222766d902815260f460020a6104330260048201529051929350600092600160a060020a039092169163889d9b6491602480820192602092909190829003018186803b15801561269057600080fd5b505afa1580156126a4573d6000803e3d6000fd5b505050506040513d60208110156126ba57600080fd5b50519050816126ce57600092505050610d78565b61149b826117d3868463ffffffff61275516565b60008183106126f15781611f83565b5090919050565b600082820183811015611f83576040805160e560020a62461bcd02815260206004820152601b60248201527f536166654d6174683a206164646974696f6e206f766572666c6f770000000000604482015290519081900360640190fd5b60008261276457506000610d78565b8282028284828161277157fe5b0414611f835760405160e560020a62461bcd0281526004018080602001828103825260218152602001806131176021913960400191505060405180910390fd5b600080821161280a576040805160e560020a62461bcd02815260206004820152601a60248201527f536166654d6174683a206469766973696f6e206279207a65726f000000000000604482015290519081900360640190fd5b600082848161281557fe5b04949350505050565b600082821115612878576040805160e560020a62461bcd02815260206004820152601e60248201527f536166654d6174683a207375627472616374696f6e206f766572666c6f770000604482015290519081900360640190fd5b50900390565b303b1590565b600080606973__MoCHelperLib__________________________636d89c85e90918660d860009054906101000a9004600160a060020a0316600160a060020a031663eb892a628a6040518263ffffffff1660e060020a0281526004018082815260200191505060206040518083038186803b15801561290257600080fd5b505afa158015612916573d6000803e3d6000fd5b505050506040513d602081101561292c57600080fd5b50516040805160e060020a63ffffffff8716028152600481019490945260248401929092526044830152516064808301926020929190829003018186803b15801561297657600080fd5b505af415801561298a573d6000803e3d6000fd5b505050506040513d60208110156129a057600080fd5b505160d9546040805160e060020a63176578b1028152600481018490529051929350600092600160a060020a039092169163176578b191602480820192602092909190829003018186803b1580156129f757600080fd5b505afa158015612a0b573d6000803e3d6000fd5b505050506040513d6020811015612a2157600080fd5b505190508315612b1d5760da546040805160e060020a6367c8bcf902815260f460020a61043302600482015290518392600160a060020a0316916367c8bcf9916024808301926020929190829003018186803b158015612a8057600080fd5b505afa158015612a94573d6000803e3d6000fd5b505050506040513d6020811015612aaa57600080fd5b505111612ab8576000612b14565b60da546040805160e060020a6367c8bcf902815260f460020a6104330260048201529051612b14928492600160a060020a03909116916367c8bcf991602480820192602092909190829003018186803b158015611c2357600080fd5b92505050611f83565b60da546040805160e060020a6367c8bcf9028152600481018990529051612b1492612ba7928592600160a060020a03909216916367c8bcf991602480820192602092909190829003018186803b158015612b7657600080fd5b505afa158015612b8a573d6000803e3d6000fd5b505050506040513d6020811015612ba057600080fd5b50516126e2565b60da546040805160e060020a6367c8bcf902815260f460020a6104330260048201529051600160a060020a03909216916367c8bcf991602480820192602092909190829003018186803b158015612bfd57600080fd5b505afa158015612c11573d6000803e3d6000fd5b505050506040513d6020811015612c2757600080fd5b50519063ffffffff6126f816565b60408051606081018252670de0b6b3a7640000808252600160208301819052919092018290526069829055606a55606b55565b600354610100900460ff1680612c815750612c8161287e565b80612c8f575060035460ff16155b612ccd5760405160e560020a62461bcd02815260040180806020018281038252602e81526020018061318f602e913960400191505060405180910390fd5b600354610100900460ff16158015612cf8576003805460ff1961ff0019909116610100171660011790555b60368054600160a060020a031916600160a060020a0384161790558015611f5e576003805461ff00191690555050565b603660009054906101000a9004600160a060020a0316600160a060020a031663955b570a6040518163ffffffff1660e060020a02815260040160206040518083038186803b158015612d7957600080fd5b505afa158015612d8d573d6000803e3d6000fd5b505050506040513d6020811015612da357600080fd5b505160da8054600160a060020a031916600160a060020a039283161790556036546040805160e060020a6312529f1f028152905191909216916312529f1f916004808301926020929190829003018186803b158015612e0157600080fd5b505afa158015612e15573d6000803e3d6000fd5b505050506040513d6020811015612e2b57600080fd5b505160d88054600160a060020a031916600160a060020a039283161790556036546040805160e160020a63679ab6ed0281529051919092169163cf356dda916004808301926020929190829003018186803b158015612e8957600080fd5b505afa158015612e9d573d6000803e3d6000fd5b505050506040513d6020811015612eb357600080fd5b505160d98054600160a060020a031916600160a060020a03909216919091179055565b609e8054600160a060020a039a8b16600160a060020a03199182161790915560019890985560029690965560009490945560d29290925560d380549487169486169490941790935560d59190915560d75560d68054919093169116179055565b60008060d860009054906101000a9004600160a060020a0316600160a060020a03166311a2e50b6040518163ffffffff1660e060020a02815260040160206040518083038186803b158015612f8a57600080fd5b505afa158015612f9e573d6000803e3d6000fd5b505050506040513d6020811015612fb457600080fd5b5051606a54909150811015612fcd576000915050611d73565b8215612fda579050611d73565b606a54611f8390829063ffffffff61281e16565b60d95460da546040805160e060020a6304bda17f0281526004810185905290516000938493600160a060020a039182169363dcbfd36c9391909216916304bda17f916024808301926020929190829003018186803b15801561304f57600080fd5b505afa158015613063573d6000803e3d6000fd5b505050506040513d602081101561307957600080fd5b50516040805160e060020a63ffffffff8516028152600481019290925260248201879052516044808301926020929190829003018186803b1580156130bd57600080fd5b505afa1580156130d1573d6000803e3d6000fd5b505050506040513d60208110156130e757600080fd5b50519050611f838382610ba356fe496e746572657374207261746520616c726561647920706179656420746f646179536166654d6174683a206d756c7469706c69636174696f6e206f766572666c6f7741646472657373206973206e6f742077686974656c6973746564000000000000496e7465726573742072617465206f662042697450726f20686f6c6465727320616c72656164792070617965642074686973207765656b436f6e747261637420696e7374616e63652068617320616c7265616479206265656e20696e697469616c697a65646e6f745f617574686f72697a65645f6368616e67657200000000000000000000a165627a7a723058206f87c9669b7414bb0798da1d1f7a9b8534bc4cca796b177bd73e6367cbb808690029",
  "source": "pragma solidity 0.5.8;\n\nimport \"moc-governance/contracts/Governance/Governed.sol\";\nimport \"./MoCLibConnection.sol\";\nimport \"./MoCState_v017.sol\";\nimport \"./MoCBProxManager.sol\";\nimport \"./MoCConverter.sol\";\nimport \"./base/MoCBase.sol\";\n\ncontract MoCInrateEvents_v017 {\n  event InrateDailyPay(uint256 amount, uint256 daysToSettlement, uint256 nReserveBucketC0);\n  event RiskProHoldersInterestPay(uint256 amount, uint256 nReserveBucketC0BeforePay);\n}\n\ncontract MoCInrateStructs_017 {\n  struct InrateParams {\n    uint256 tMax;\n    uint256 tMin;\n    uint256 power;\n  }\n\n  InrateParams btcxParams = InrateParams({\n    tMax: 261157876067800,\n    tMin: 0,\n    power: 1\n  });\n}\n\n\ncontract MoCInrate_v017 is MoCInrateEvents_v017, MoCInrateStructs_017, MoCBase, MoCLibConnection, Governed {\n  using SafeMath for uint256;\n\n  // Last block when a payment was executed\n  uint256 public lastDailyPayBlock;\n  // Absolute  BitPro holders rate for the given bitProInterestBlockSpan time span. [using mocPrecision]\n  uint256 public bitProRate;\n  // Target address to transfer BitPro holders interests\n  address payable public bitProInterestAddress;\n  // Last block when an BitPro holders instereste was calculated\n  uint256 public lastBitProInterestBlock;\n  // BitPro interest Blockspan to configure blocks between payments\n  uint256 public bitProInterestBlockSpan;\n\n  // Target addres to transfer commissions of mint/redeem\n  address payable public commissionsAddress;\n  // commissionRate [using mocPrecision]\n  uint256 public commissionRate;\n\n  /**CONTRACTS**/\n  MoCState_v017 internal mocState;\n  MoCConverter internal mocConverter;\n  MoCBProxManager internal bproxManager;\n\n  /************************************/\n  /***** UPGRADE v017       ***********/\n  /************************************/\n\n  /** START UPDATE V017: 01/11/2019 **/\n\n  // Upgrade to support red doc inrate parameter\n  uint256 public docTmin;\n  uint256 public docPower;\n  uint256 public docTmax;\n\n  // to check is already initialized upgrade v017\n  bool internal upgrade_v017;\n\n  function setDoCTmin(uint256 _docTmin) public onlyAuthorizedChanger() {\n    docTmin = _docTmin;\n  }\n\n  function setDoCTmax(uint256 _docTmax) public onlyAuthorizedChanger() {\n    docTmax = _docTmax;\n  }\n\n  function setDoCPower(uint256 _docPower) public onlyAuthorizedChanger(){\n    docPower = _docPower;\n  }\n\n  function getDoCTmin() public view returns(uint256) {\n    return docTmin;\n  }\n\n  function getDoCTmax() public view returns(uint256) {\n    return docTmax;\n  }\n\n  function getDoCPower() public view returns(uint256) {\n    return docPower;\n  }\n\n  /**\n    @dev Calculates an average interest rate between after and before free doc Redemption\n\n    @param docRedeem Docs to redeem [using mocPrecision]\n    @return Interest rate value [using mocPrecision]\n   */\n  function docInrateAvg(uint256 docRedeem) public view returns(uint256) {\n    uint256 preAbRatio = mocState.currentAbundanceRatio();\n    uint256 posAbRatio = mocState.abundanceRatio(bproxManager.getBucketNDoc(BUCKET_C0).sub(docRedeem));\n\n    return mocLibConfig.inrateAvg(docTmax, docPower, docTmin, preAbRatio, posAbRatio);\n  }\n\n  function initialize_v017(\n    uint256 _docTmin,\n    uint256 _docPower,\n    uint256 _docTmax\n  ) public {\n\n    require(upgrade_v017 == false, \"Already Initialized\");\n\n    docTmin = _docTmin;\n    docPower = _docPower;\n    docTmax = _docTmax;\n\n    upgrade_v017 = true;\n\n  }\n\n  /** END UPDATE V017: 01/11/2019 **/\n\n  function initialize(\n    address connectorAddress,\n    address _governor,\n    uint256 btcxTmin,\n    uint256 btcxPower,\n    uint256 btcxTmax,\n    uint256 _bitProRate,\n    uint256 blockSpanBitPro,\n    address payable bitProInterestTargetAddress,\n    address payable commissionsAddressTarget,\n    uint256 commissionRateParam\n  ) public initializer {\n    initializePrecisions();\n    initializeBase(connectorAddress);\n    initializeContracts();\n    initializeValues(\n      _governor,\n      btcxTmin,\n      btcxPower,\n      btcxTmax,\n      _bitProRate,\n      commissionsAddressTarget,\n      commissionRateParam,\n      blockSpanBitPro,\n      bitProInterestTargetAddress\n    );\n  }\n\n  /**\n   * @dev gets tMin param of BTCX tokens\n   * @return returns tMin of BTCX\n   */\n  function getBtcxTmin() public view returns(uint256) {\n    return btcxParams.tMin;\n  }\n\n  /**\n   * @dev gets tMax param of BTCX tokens\n   * @return returns tMax of BTCX\n   */\n  function getBtcxTmax() public view returns(uint256) {\n    return btcxParams.tMax;\n  }\n\n  /**\n   * @dev gets power param of BTCX tokens\n   * @return returns power of BTCX\n   */\n  function getBtcxPower() public view returns(uint256) {\n    return btcxParams.power;\n  }\n\n  /**\n   * @dev Gets the blockspan of BPRO that represents the frecuency of BitPro holders intereset payment\n   * @return returns power of bitProInterestBlockSpan\n   */\n  function getBitProInterestBlockSpan() public view returns(uint256) {\n    return bitProInterestBlockSpan;\n  }\n\n  /**\n   * @dev sets tMin param of BTCX tokens\n   * @param _btxcTmin tMin of BTCX\n   */\n  function setBtcxTmin(uint256 _btxcTmin) public onlyAuthorizedChanger() {\n    btcxParams.tMin = _btxcTmin;\n  }\n\n  /**\n   * @dev sets tMax param of BTCX tokens\n   * @param _btxcTax tMax of BTCX\n   */\n  function setBtcxTmax(uint256 _btxcTax) public onlyAuthorizedChanger() {\n    btcxParams.tMax = _btxcTax;\n  }\n\n  /**\n   * @dev sets power param of BTCX tokens\n   * @param _btxcPower power of BTCX\n   */\n  function setBtcxPower(uint256 _btxcPower) public onlyAuthorizedChanger(){\n    btcxParams.power = _btxcPower;\n  }\n\n  /**\n   @dev Gets the rate for BitPro Holders\n   @return BitPro Rate\n  */\n  function getBitProRate() public view returns(uint256){\n    return bitProRate;\n  }\n\n  function getCommissionRate() public view returns(uint256) {\n    return commissionRate;\n  }\n\n   /**\n    @dev Sets BitPro Holders rate\n    @param newBitProRate New BitPro rate\n   */\n  function setBitProRate(uint256 newBitProRate) public onlyAuthorizedChanger() {\n    bitProRate = newBitProRate;\n  }\n\n   /**\n    @dev Sets the blockspan BitPro Intereset rate payment is enable to be executed\n    @param newBitProBlockSpan New BitPro Block span\n   */\n  function setBitProInterestBlockSpan(uint256 newBitProBlockSpan) public onlyAuthorizedChanger() {\n    bitProInterestBlockSpan = newBitProBlockSpan;\n  }\n\n  /**\n   @dev Gets the target address to transfer BitPro Holders rate\n   @return Target address to transfer BitPro Holders interest\n  */\n  function getBitProInterestAddress() public view returns(address payable){\n    return bitProInterestAddress;\n  }\n\n   /**\n    @dev Sets the target address to transfer BitPro Holders rate\n    @param newBitProInterestAddress New BitPro rate\n   */\n  function setBitProInterestAddress(address payable newBitProInterestAddress ) public onlyAuthorizedChanger() {\n    bitProInterestAddress = newBitProInterestAddress;\n  }\n\n   /**\n    @dev Sets the target address to transfer commissions of Mint/Redeem transactions\n    @param newCommissionsAddress New commisions address\n   */\n  function setCommissionsAddress(address payable newCommissionsAddress) public onlyAuthorizedChanger() {\n    commissionsAddress = newCommissionsAddress;\n  }\n\n   /**\n    @dev Sets the commission rate for Mint/Redeem transactions\n    @param newCommissionRate New commission rate\n   */\n  function setCommissionRate(uint256 newCommissionRate) public onlyAuthorizedChanger() {\n    commissionRate = newCommissionRate;\n  }\n\n  /**\n    @dev Calculates interest rate for BProx Minting, redeem and Free Doc Redeem\n    @return Interest rate value [using RatePrecsion]\n   */\n  function spotInrate() public view returns(uint256) {\n    uint256 abRatio = mocState.currentAbundanceRatio();\n\n    return mocLibConfig.spotInrate(btcxParams.tMax, btcxParams.power, btcxParams.tMin, abRatio);\n  }\n\n  /**\n    @dev Calculates an average interest rate between after and before mint/redeem\n\n    @param bucket Name of the bucket involved in the operation\n    @param btcAmount Value of the operation from which calculates the inrate [using reservePrecision]\n    @param onMinting Value that represents if the calculation is based on mint or on redeem\n    @return Interest rate value [using mocPrecision]\n   */\n  function btcxInrateAvg(bytes32 bucket, uint256 btcAmount, bool onMinting) public view returns(uint256) {\n    uint256 preAbRatio = mocState.currentAbundanceRatio();\n    uint256 posAbRatio = mocState.abundanceRatio(simulateDocMovement(bucket, btcAmount, onMinting));\n\n    return mocLibConfig.inrateAvg(btcxParams.tMax, btcxParams.power, btcxParams.tMin, preAbRatio, posAbRatio);\n  }\n\n  /**\n    @dev returns the amount of BTC to pay in concept of interest\n    to bucket C0\n   */\n  function dailyInrate() public view returns(uint256) {\n    uint256 daysToSettl = mocState.daysToSettlement();\n    uint256 totalInrateInBag = bproxManager.getInrateBag(BUCKET_C0);\n\n    if (daysToSettl < mocLibConfig.dayPrecision) {\n      return totalInrateInBag;\n    }\n\n    // ([RES] * [DAY] / ([DAY] + [DAY])) = [RES]\n    // inrateBag / (daysToSettlement + 1)\n    uint256 toPay = totalInrateInBag\n      .mul(mocLibConfig.dayPrecision)\n      .div(daysToSettl.add(mocLibConfig.dayPrecision));\n\n    return toPay;\n  }\n\n  /**\n    @dev Extract the inrate from the passed RBTC value for Bprox minting operation\n    @param bucket Bucket to use to calculate inters\n    @param rbtcAmount Total value from which extract the interest rate [using reservePrecision]\n    @return RBTC to pay in concept of interests [using reservePrecision]\n  */\n  function calcMintInterestValues(bytes32 bucket, uint256 rbtcAmount) public view returns(uint256) {\n    // Calculate Reserves to move in the operation\n    uint256 rbtcToMove = mocLibConfig.bucketTransferAmount(rbtcAmount, mocState.leverage(bucket));\n    // Calculate interest rate\n    uint256 inrateValue = btcxInrateAvg(bucket, rbtcAmount, true); // Minting\n    uint256 finalInrate = inrateToSettlement(inrateValue, true); // Minting\n\n    // Final interest\n    return mocLibConfig.getInterestCost(rbtcToMove, finalInrate);\n  }\n\n  /**\n    @dev Extract the inrate from the passed RBTC value for the Doc Redeem operation\n    @param docAmount Doc amount of the redemption [using mocPrecision]\n    @param rbtcAmount Total value from which extract the interest rate [using reservePrecision]\n    @return RBTC to pay in concept of interests [using reservePrecision]\n  */\n  function calcDocRedInterestValues(uint256 docAmount, uint256 rbtcAmount) public view returns(uint256) {\n    uint256 rate = docInrateAvg(docAmount);\n    uint256 finalInrate = inrateToSettlement(rate, true);\n    uint256 interests = mocLibConfig.getInterestCost(rbtcAmount, finalInrate);\n\n    return interests;\n  }\n\n  /**\n    @dev This function calculates the interest to return to the user\n    in a BPRox redemption. It uses a mechanism to counteract the effect\n    of free docs redemption. It will be replaced with FreeDoC redemption\n    interests in the future\n    @param bucket Bucket to use to calculate interest\n    @param rbtcToRedeem Total value from which calculate interest [using reservePrecision]\n    @return RBTC to recover in concept of interests [using reservePrecision]\n  */\n  function calcFinalRedeemInterestValue(bytes32 bucket, uint256 rbtcToRedeem) public view returns(uint256) {\n    // Get interests to return for redemption\n    uint256 redeemInterest = calcRedeemInterestValue(bucket, rbtcToRedeem); // Redeem\n    uint256 proportionalInterest = calcProportionalInterestValue(bucket, redeemInterest);\n\n    return Math.min(proportionalInterest, redeemInterest);\n  }\n\n  /**\n    @dev calculates the Commission rate from the passed RBTC amount for mint/redeem operations\n    @param rbtcAmount Total value from which apply the Commission rate [using reservePrecision]\n    @return finalCommissionAmount [using reservePrecision]\n  */\n  function calcCommissionValue(uint256 rbtcAmount)\n  public view returns(uint256) {\n    uint256 finalCommissionAmount = rbtcAmount.mul(commissionRate).div(mocLibConfig.mocPrecision);\n    return finalCommissionAmount;\n  }\n\n  /**\n    @dev Calculates RBTC value to return to the user in concept of interests\n    @param bucket Bucket to use to calculate interest\n    @param rbtcToRedeem Total value from which calculate interest [using reservePrecision]\n    @return RBTC to recover in concept of interests [using reservePrecision]\n  */\n  function calcRedeemInterestValue(bytes32 bucket, uint256 rbtcToRedeem) public view returns(uint256) {\n    // Calculate Reserves to move in the operation\n    uint256 rbtcToMove = mocLibConfig.bucketTransferAmount(rbtcToRedeem, mocState.leverage(bucket));\n    // Calculate interest rate\n    uint256 inrate = btcxInrateAvg(bucket, rbtcToRedeem, false); // Redeem\n    uint256 finalInrate = inrateToSettlement(inrate, false); // Redeem\n\n    // Calculate interest for the redemption\n    return mocLibConfig.getInterestCost(rbtcToMove, finalInrate);\n  }\n\n  /**\n    @dev Moves the daily amount of interest rate to C0 bucket\n  */\n  function dailyInratePayment() public\n  onlyWhitelisted(msg.sender) onlyOnceADay() returns(uint256) {\n    uint256 toPay = dailyInrate();\n    lastDailyPayBlock = block.number;\n\n    if (toPay != 0) {\n      bproxManager.deliverInrate(BUCKET_C0, toPay);\n    }\n\n    emit InrateDailyPay(toPay, mocState.daysToSettlement(), mocState.getBucketNBTC(BUCKET_C0));\n  }\n\n  function isDailyEnabled() public view returns(bool) {\n    return lastDailyPayBlock == 0 || block.number > lastDailyPayBlock + mocState.dayBlockSpan();\n  }\n\n  function isBitProInterestEnabled() public view returns(bool) {\n    return lastBitProInterestBlock == 0 || block.number > (lastBitProInterestBlock + bitProInterestBlockSpan);\n  }\n\n  /**\n   * @dev Calculates BitPro Holders interest rates\n   * @return toPay interest in RBTC [using RBTCPrecsion]\n   * @return bucketBtnc0 RTBC on bucket0 used to calculate de interest [using RBTCPrecsion]\n   */\n  function calculateBitProHoldersInterest() public view returns(uint256, uint256) {\n    uint256 bucketBtnc0 = bproxManager.getBucketNBTC(BUCKET_C0);\n    uint256 toPay = (bucketBtnc0.mul(bitProRate).div(mocLibConfig.mocPrecision));\n    return (toPay, bucketBtnc0);\n  }\n\n  /**\n   * @dev Pays the BitPro Holders interest rates\n   * @return interest payed in RBTC [using RBTCPrecsion]\n   */\n  function payBitProHoldersInterestPayment() public\n  onlyWhitelisted(msg.sender)\n  onlyWhenBitProInterestsIsEnabled() returns(uint256) {\n    (uint256 bitProInterest, uint256 bucketBtnc0) = calculateBitProHoldersInterest();\n    lastBitProInterestBlock = block.number;\n    emit RiskProHoldersInterestPay(bitProInterest, bucketBtnc0);\n    return bitProInterest;\n  }\n\n  /**\n    @dev Calculates the interest rate to pay until the settlement day\n    @param inrate Spot interest rate\n    @param countAllDays Value that represents if the calculation will use all days or one day less\n    @return Interest rate value [using RatePrecsion]\n   */\n  function inrateToSettlement(uint256 inrate, bool countAllDays) internal view returns(uint256) {\n    uint256 dayCount = inrateDayCount(countAllDays);\n\n    return inrate.mul(dayCount).div(mocLibConfig.dayPrecision);\n  }\n\n  /**\n    @dev This function calculates the interest to return to a user redeeming\n    BTCx as a proportion of the amount in the interestBag.\n    @param bucket Bucket to use to calculate interest\n    @param redeemInterest Total value from which calculate interest [using reservePrecision]\n    @return InterestsInBag * (RedeemInterests / FullRedeemInterest) [using reservePrecision]\n\n  */\n  function calcProportionalInterestValue(bytes32 bucket, uint256 redeemInterest) internal view returns(uint256) {\n    uint256 fullRedeemInterest = calcFullRedeemInterestValue(bucket);\n    uint256 interestsInBag = bproxManager.getInrateBag(BUCKET_C0);\n\n    if (fullRedeemInterest == 0) {\n      return 0;\n    }\n\n    // Proportional interests amount\n    return redeemInterest.mul(interestsInBag).div(fullRedeemInterest); // [RES] * [RES] / [RES]\n  }\n\n  /**\n    @dev This function calculates the interest to return\n    if a user redeem all Btcx in existance\n    @param bucket Bucket to use to calculate interest\n    @return Interests [using reservePrecision]\n  */\n  function calcFullRedeemInterestValue(bytes32 bucket) internal view returns(uint256) {\n    // Value in RBTC of all BProxs in the bucket\n    uint256 fullBProxRbtcValue = mocConverter.bproxToBtc(bproxManager.getBucketNBPro(bucket), bucket);\n    // Interests to return if a redemption of all Bprox is done\n    return calcRedeemInterestValue(bucket, fullBProxRbtcValue); // Redeem\n  }\n\n  /**\n    @dev Calculates the final amount of Bucket 0 DoCs on BProx mint/redeem\n\n    @param bucket Name of the bucket involved in the operation\n    @param btcAmount Value of the operation from which calculates the inrate [using reservePrecision]\n    @return Final bucket 0 Doc amount\n   */\n  function simulateDocMovement(bytes32 bucket, uint256 btcAmount, bool onMinting) internal view returns(uint256) {\n    // Calculates docs to move\n    uint256 btcToMove = mocLibConfig.bucketTransferAmount(btcAmount, mocState.leverage(bucket));\n    uint256 docsToMove = mocConverter.btcToDoc(btcToMove);\n\n    if (onMinting) {\n      /* Should not happen when minting bpro because it's\n      not possible to mint more than max bprox but is\n      useful when trying to calculate inrate before minting */\n      return bproxManager.getBucketNDoc(BUCKET_C0) > docsToMove ? bproxManager.getBucketNDoc(BUCKET_C0).sub(docsToMove) : 0;\n    } else {\n      return bproxManager.getBucketNDoc(BUCKET_C0).add(Math.min(docsToMove, bproxManager.getBucketNDoc(bucket)));\n    }\n  }\n\n  /**\n    @dev Returns the days to use for interests calculation\n\n    @param countAllDays Value that represents if the calculation is based on mint or on redeem\n    @return days [using dayPrecision]\n   */\n  function inrateDayCount(bool countAllDays) internal view returns(uint256) {\n    uint256 daysToSettl = mocState.daysToSettlement();\n\n    if (daysToSettl < mocLibConfig.dayPrecision){\n      return 0;\n    }\n\n    if (countAllDays) {\n      return daysToSettl;\n    }\n\n    return daysToSettl.sub(mocLibConfig.dayPrecision);\n  }\n\n  modifier onlyOnceADay() {\n    require(isDailyEnabled(), \"Interest rate already payed today\");\n    _;\n  }\n\n  modifier onlyWhenBitProInterestsIsEnabled() {\n    require(isBitProInterestEnabled(), \"Interest rate of BitPro holders already payed this week\");\n    _;\n  }\n\n  /**\n   * @dev Initialize the contracts with which it interacts\n   */\n  function initializeContracts() internal {\n    bproxManager = MoCBProxManager(connector.bproxManager());\n    mocState = MoCState_v017(connector.mocState());\n    mocConverter = MoCConverter(connector.mocConverter());\n  }\n\n  /**\n   * @dev Initialize the parameters of the contract\n   * @param _governor the address of the IGovernor contract\n   * @param btcxMin Minimum interest rate [using mocPrecision]\n   * @param btcxPower Power is a parameter for interest rate calculation [using noPrecision]\n   * @param btcxMax Maximun interest rate [using mocPrecision]\n   * @param _bitProRate BitPro holder interest rate [using mocPrecision]\n   * @param blockSpanBitPro BitPro blockspan to configure payments periods[using mocPrecision]\n\n   * @param bitProInterestsTarget Target address to transfer the weekly BitPro holders interest\n   */\n  function initializeValues(\n    address _governor,\n    uint256 btcxMin,\n    uint256 btcxPower,\n    uint256 btcxMax,\n    uint256 _bitProRate,\n    address payable commissionsAddressTarget,\n    uint256 commissionRateParam,\n    uint256 blockSpanBitPro,\n    address payable bitProInterestsTarget\n  ) internal {\n    governor = IGovernor(_governor);\n    btcxParams.tMin = btcxMin;\n    btcxParams.power = btcxPower;\n    btcxParams.tMax = btcxMax;\n    bitProRate = _bitProRate;\n    bitProInterestAddress = bitProInterestsTarget;\n    bitProInterestBlockSpan = blockSpanBitPro;\n    commissionRate = commissionRateParam;\n    commissionsAddress = commissionsAddressTarget;\n  }\n\n  // Leave a gap betweeen inherited contracts variables in order to be\n  // able to add more variables in them later\n  uint256[46] private upgradeGap;\n}\n",
  "sourcePath": "/home/martin/Proyectos/moc_deployments/contracts/repositories/dev_moc_internal/moc/contracts/MoCInrate_v017.sol",
  "compiler": {
    "name": "solc",
    "version": "0.5.8+commit.23d335f2.Emscripten.clang"
  },
  "schemaVersion": "3.0.11",
  "updatedAt": "2019-11-19T13:45:32.832Z",
  "devdoc": {
    "methods": {
      "btcxInrateAvg(bytes32,uint256,bool)": {
        "details": "Calculates an average interest rate between after and before mint/redeem",
        "params": {
          "btcAmount": "Value of the operation from which calculates the inrate [using reservePrecision]",
          "bucket": "Name of the bucket involved in the operation",
          "onMinting": "Value that represents if the calculation is based on mint or on redeem"
        },
        "return": "Interest rate value [using mocPrecision]"
      },
      "calcCommissionValue(uint256)": {
        "details": "calculates the Commission rate from the passed RBTC amount for mint/redeem operations",
        "params": {
          "rbtcAmount": "Total value from which apply the Commission rate [using reservePrecision]"
        },
        "return": "finalCommissionAmount [using reservePrecision]"
      },
      "calcDocRedInterestValues(uint256,uint256)": {
        "details": "Extract the inrate from the passed RBTC value for the Doc Redeem operation",
        "params": {
          "docAmount": "Doc amount of the redemption [using mocPrecision]",
          "rbtcAmount": "Total value from which extract the interest rate [using reservePrecision]"
        },
        "return": "RBTC to pay in concept of interests [using reservePrecision]"
      },
      "calcFinalRedeemInterestValue(bytes32,uint256)": {
        "details": "This function calculates the interest to return to the user in a BPRox redemption. It uses a mechanism to counteract the effect of free docs redemption. It will be replaced with FreeDoC redemption interests in the future",
        "params": {
          "bucket": "Bucket to use to calculate interest",
          "rbtcToRedeem": "Total value from which calculate interest [using reservePrecision]"
        },
        "return": "RBTC to recover in concept of interests [using reservePrecision]"
      },
      "calcMintInterestValues(bytes32,uint256)": {
        "details": "Extract the inrate from the passed RBTC value for Bprox minting operation",
        "params": {
          "bucket": "Bucket to use to calculate inters",
          "rbtcAmount": "Total value from which extract the interest rate [using reservePrecision]"
        },
        "return": "RBTC to pay in concept of interests [using reservePrecision]"
      },
      "calcRedeemInterestValue(bytes32,uint256)": {
        "details": "Calculates RBTC value to return to the user in concept of interests",
        "params": {
          "bucket": "Bucket to use to calculate interest",
          "rbtcToRedeem": "Total value from which calculate interest [using reservePrecision]"
        },
        "return": "RBTC to recover in concept of interests [using reservePrecision]"
      },
      "calculateBitProHoldersInterest()": {
        "details": "Calculates BitPro Holders interest rates",
        "return": "toPay interest in RBTC [using RBTCPrecsion]bucketBtnc0 RTBC on bucket0 used to calculate de interest [using RBTCPrecsion]"
      },
      "changeIGovernor(address)": {
        "params": {
          "newIGovernor": "New governor address"
        }
      },
      "dailyInrate()": {
        "details": "returns the amount of BTC to pay in concept of interest to bucket C0"
      },
      "dailyInratePayment()": {
        "details": "Moves the daily amount of interest rate to C0 bucket"
      },
      "docInrateAvg(uint256)": {
        "details": "Calculates an average interest rate between after and before free doc Redemption",
        "params": {
          "docRedeem": "Docs to redeem [using mocPrecision]"
        },
        "return": "Interest rate value [using mocPrecision]"
      },
      "getBitProInterestAddress()": {
        "details": "Gets the target address to transfer BitPro Holders rate",
        "return": "Target address to transfer BitPro Holders interest"
      },
      "getBitProInterestBlockSpan()": {
        "details": "Gets the blockspan of BPRO that represents the frecuency of BitPro holders intereset payment",
        "return": "returns power of bitProInterestBlockSpan"
      },
      "getBitProRate()": {
        "details": "Gets the rate for BitPro Holders",
        "return": "BitPro Rate"
      },
      "getBtcxPower()": {
        "details": "gets power param of BTCX tokens",
        "return": "returns power of BTCX"
      },
      "getBtcxTmax()": {
        "details": "gets tMax param of BTCX tokens",
        "return": "returns tMax of BTCX"
      },
      "getBtcxTmin()": {
        "details": "gets tMin param of BTCX tokens",
        "return": "returns tMin of BTCX"
      },
      "initialize(address)": {
        "details": "This initialize replaces the constructor but it is not called automatically. It is necessary because of the upgradeability of the contracts",
        "params": {
          "_governor": "Governor address"
        }
      },
      "payBitProHoldersInterestPayment()": {
        "details": "Pays the BitPro Holders interest rates",
        "return": "interest payed in RBTC [using RBTCPrecsion]"
      },
      "setBitProInterestAddress(address)": {
        "details": "Sets the target address to transfer BitPro Holders rate",
        "params": {
          "newBitProInterestAddress": "New BitPro rate"
        }
      },
      "setBitProInterestBlockSpan(uint256)": {
        "details": "Sets the blockspan BitPro Intereset rate payment is enable to be executed",
        "params": {
          "newBitProBlockSpan": "New BitPro Block span"
        }
      },
      "setBitProRate(uint256)": {
        "details": "Sets BitPro Holders rate",
        "params": {
          "newBitProRate": "New BitPro rate"
        }
      },
      "setBtcxPower(uint256)": {
        "details": "sets power param of BTCX tokens",
        "params": {
          "_btxcPower": "power of BTCX"
        }
      },
      "setBtcxTmax(uint256)": {
        "details": "sets tMax param of BTCX tokens",
        "params": {
          "_btxcTax": "tMax of BTCX"
        }
      },
      "setBtcxTmin(uint256)": {
        "details": "sets tMin param of BTCX tokens",
        "params": {
          "_btxcTmin": "tMin of BTCX"
        }
      },
      "setCommissionRate(uint256)": {
        "details": "Sets the commission rate for Mint/Redeem transactions",
        "params": {
          "newCommissionRate": "New commission rate"
        }
      },
      "setCommissionsAddress(address)": {
        "details": "Sets the target address to transfer commissions of Mint/Redeem transactions",
        "params": {
          "newCommissionsAddress": "New commisions address"
        }
      },
      "spotInrate()": {
        "details": "Calculates interest rate for BProx Minting, redeem and Free Doc Redeem",
        "return": "Interest rate value [using RatePrecsion]"
      }
    }
  },
  "userdoc": {
    "methods": {
      "changeIGovernor(address)": {
        "notice": "Change the contract's governor. Should be called through the old governance system"
      },
      "initialize(address)": {
        "notice": "Initialize the contract with the basic settings"
      },
      "initialize(address,address,uint256,uint256,uint256,uint256,uint256,address,address,uint256)": {
        "notice": "END UPDATE V017: 01/11/2019 *"
      }
    }
  }
}