{
  "contractName": "MoCState_v017",
  "abi": [
    {
      "constant": true,
      "inputs": [],
      "name": "getReservePrecision",
      "outputs": [
        {
          "name": "",
          "type": "uint256"
        }
      ],
      "payable": false,
      "stateMutability": "view",
      "type": "function"
    },
    {
      "constant": true,
      "inputs": [],
      "name": "governor",
      "outputs": [
        {
          "name": "",
          "type": "address"
        }
      ],
      "payable": false,
      "stateMutability": "view",
      "type": "function"
    },
    {
      "constant": true,
      "inputs": [],
      "name": "smoothingFactor",
      "outputs": [
        {
          "name": "",
          "type": "uint256"
        }
      ],
      "payable": false,
      "stateMutability": "view",
      "type": "function"
    },
    {
      "constant": true,
      "inputs": [],
      "name": "getGovernorAddress",
      "outputs": [
        {
          "name": "",
          "type": "address"
        }
      ],
      "payable": false,
      "stateMutability": "view",
      "type": "function"
    },
    {
      "constant": true,
      "inputs": [],
      "name": "peg",
      "outputs": [
        {
          "name": "",
          "type": "uint256"
        }
      ],
      "payable": false,
      "stateMutability": "view",
      "type": "function"
    },
    {
      "constant": false,
      "inputs": [
        {
          "name": "blockSpan",
          "type": "uint256"
        }
      ],
      "name": "setEmaCalculationBlockSpan",
      "outputs": [],
      "payable": false,
      "stateMutability": "nonpayable",
      "type": "function"
    },
    {
      "constant": true,
      "inputs": [],
      "name": "BUCKET_X2",
      "outputs": [
        {
          "name": "",
          "type": "bytes32"
        }
      ],
      "payable": false,
      "stateMutability": "view",
      "type": "function"
    },
    {
      "constant": true,
      "inputs": [],
      "name": "getEmaCalculationBlockSpan",
      "outputs": [
        {
          "name": "",
          "type": "uint256"
        }
      ],
      "payable": false,
      "stateMutability": "view",
      "type": "function"
    },
    {
      "constant": true,
      "inputs": [],
      "name": "bproMaxDiscountRate",
      "outputs": [
        {
          "name": "",
          "type": "uint256"
        }
      ],
      "payable": false,
      "stateMutability": "view",
      "type": "function"
    },
    {
      "constant": true,
      "inputs": [],
      "name": "dayBlockSpan",
      "outputs": [
        {
          "name": "",
          "type": "uint256"
        }
      ],
      "payable": false,
      "stateMutability": "view",
      "type": "function"
    },
    {
      "constant": true,
      "inputs": [],
      "name": "emaCalculationBlockSpan",
      "outputs": [
        {
          "name": "",
          "type": "uint256"
        }
      ],
      "payable": false,
      "stateMutability": "view",
      "type": "function"
    },
    {
      "constant": true,
      "inputs": [],
      "name": "connector",
      "outputs": [
        {
          "name": "",
          "type": "address"
        }
      ],
      "payable": false,
      "stateMutability": "view",
      "type": "function"
    },
    {
      "constant": true,
      "inputs": [],
      "name": "rbtcInSystem",
      "outputs": [
        {
          "name": "",
          "type": "uint256"
        }
      ],
      "payable": false,
      "stateMutability": "view",
      "type": "function"
    },
    {
      "constant": true,
      "inputs": [],
      "name": "maxMintBPro",
      "outputs": [
        {
          "name": "",
          "type": "uint256"
        }
      ],
      "payable": false,
      "stateMutability": "view",
      "type": "function"
    },
    {
      "constant": true,
      "inputs": [],
      "name": "PRICE_PRECISION",
      "outputs": [
        {
          "name": "",
          "type": "uint256"
        }
      ],
      "payable": false,
      "stateMutability": "view",
      "type": "function"
    },
    {
      "constant": true,
      "inputs": [],
      "name": "getLastEmaCalculation",
      "outputs": [
        {
          "name": "",
          "type": "uint256"
        }
      ],
      "payable": false,
      "stateMutability": "view",
      "type": "function"
    },
    {
      "constant": true,
      "inputs": [],
      "name": "lastEmaCalculation",
      "outputs": [
        {
          "name": "",
          "type": "uint256"
        }
      ],
      "payable": false,
      "stateMutability": "view",
      "type": "function"
    },
    {
      "constant": true,
      "inputs": [],
      "name": "FACTOR_PRECISION",
      "outputs": [
        {
          "name": "",
          "type": "uint256"
        }
      ],
      "payable": false,
      "stateMutability": "view",
      "type": "function"
    },
    {
      "constant": true,
      "inputs": [],
      "name": "shouldCalculateEma",
      "outputs": [
        {
          "name": "",
          "type": "bool"
        }
      ],
      "payable": false,
      "stateMutability": "view",
      "type": "function"
    },
    {
      "constant": false,
      "inputs": [
        {
          "name": "factor",
          "type": "uint256"
        }
      ],
      "name": "setSmoothingFactor",
      "outputs": [],
      "payable": false,
      "stateMutability": "nonpayable",
      "type": "function"
    },
    {
      "constant": false,
      "inputs": [
        {
          "name": "newIGovernor",
          "type": "address"
        }
      ],
      "name": "changeIGovernor",
      "outputs": [],
      "payable": false,
      "stateMutability": "nonpayable",
      "type": "function"
    },
    {
      "constant": true,
      "inputs": [],
      "name": "liquidationPrice",
      "outputs": [
        {
          "name": "",
          "type": "uint256"
        }
      ],
      "payable": false,
      "stateMutability": "view",
      "type": "function"
    },
    {
      "constant": true,
      "inputs": [],
      "name": "state",
      "outputs": [
        {
          "name": "",
          "type": "uint8"
        }
      ],
      "payable": false,
      "stateMutability": "view",
      "type": "function"
    },
    {
      "constant": true,
      "inputs": [],
      "name": "getSmoothingFactor",
      "outputs": [
        {
          "name": "",
          "type": "uint256"
        }
      ],
      "payable": false,
      "stateMutability": "view",
      "type": "function"
    },
    {
      "constant": true,
      "inputs": [],
      "name": "BUCKET_C0",
      "outputs": [
        {
          "name": "",
          "type": "bytes32"
        }
      ],
      "payable": false,
      "stateMutability": "view",
      "type": "function"
    },
    {
      "constant": true,
      "inputs": [],
      "name": "getDayPrecision",
      "outputs": [
        {
          "name": "",
          "type": "uint256"
        }
      ],
      "payable": false,
      "stateMutability": "view",
      "type": "function"
    },
    {
      "constant": true,
      "inputs": [],
      "name": "utpdu",
      "outputs": [
        {
          "name": "",
          "type": "uint256"
        }
      ],
      "payable": false,
      "stateMutability": "view",
      "type": "function"
    },
    {
      "constant": true,
      "inputs": [],
      "name": "getMocPrecision",
      "outputs": [
        {
          "name": "",
          "type": "uint256"
        }
      ],
      "payable": false,
      "stateMutability": "view",
      "type": "function"
    },
    {
      "constant": true,
      "inputs": [],
      "name": "liq",
      "outputs": [
        {
          "name": "",
          "type": "uint256"
        }
      ],
      "payable": false,
      "stateMutability": "view",
      "type": "function"
    },
    {
      "constant": true,
      "inputs": [],
      "name": "getBitcoinMovingAverage",
      "outputs": [
        {
          "name": "",
          "type": "uint256"
        }
      ],
      "payable": false,
      "stateMutability": "view",
      "type": "function"
    },
    {
      "anonymous": false,
      "inputs": [
        {
          "indexed": false,
          "name": "newState",
          "type": "uint8"
        }
      ],
      "name": "StateTransition",
      "type": "event"
    },
    {
      "anonymous": false,
      "inputs": [
        {
          "indexed": false,
          "name": "oldAddress",
          "type": "address"
        },
        {
          "indexed": false,
          "name": "newAddress",
          "type": "address"
        }
      ],
      "name": "PriceProviderUpdated",
      "type": "event"
    },
    {
      "anonymous": false,
      "inputs": [
        {
          "indexed": false,
          "name": "price",
          "type": "uint256"
        },
        {
          "indexed": false,
          "name": "movingAverage",
          "type": "uint256"
        }
      ],
      "name": "MovingAverageCalculation",
      "type": "event"
    },
    {
      "constant": false,
      "inputs": [
        {
          "name": "_governor",
          "type": "address"
        }
      ],
      "name": "initialize",
      "outputs": [],
      "payable": false,
      "stateMutability": "nonpayable",
      "type": "function"
    },
    {
      "constant": false,
      "inputs": [
        {
          "name": "connectorAddress",
          "type": "address"
        },
        {
          "name": "_governor",
          "type": "address"
        },
        {
          "name": "_btcPriceProvider",
          "type": "address"
        },
        {
          "name": "_liq",
          "type": "uint256"
        },
        {
          "name": "_utpdu",
          "type": "uint256"
        },
        {
          "name": "_maxDiscRate",
          "type": "uint256"
        },
        {
          "name": "_dayBlockSpan",
          "type": "uint256"
        },
        {
          "name": "_ema",
          "type": "uint256"
        },
        {
          "name": "_smoothFactor",
          "type": "uint256"
        },
        {
          "name": "_emaBlockSpan",
          "type": "uint256"
        }
      ],
      "name": "initialize",
      "outputs": [],
      "payable": false,
      "stateMutability": "nonpayable",
      "type": "function"
    },
    {
      "constant": false,
      "inputs": [
        {
          "name": "rate",
          "type": "uint256"
        }
      ],
      "name": "setMaxDiscountRate",
      "outputs": [],
      "payable": false,
      "stateMutability": "nonpayable",
      "type": "function"
    },
    {
      "constant": true,
      "inputs": [],
      "name": "getMaxDiscountRate",
      "outputs": [
        {
          "name": "",
          "type": "uint256"
        }
      ],
      "payable": false,
      "stateMutability": "view",
      "type": "function"
    },
    {
      "constant": false,
      "inputs": [
        {
          "name": "blockSpan",
          "type": "uint256"
        }
      ],
      "name": "setDayBlockSpan",
      "outputs": [],
      "payable": false,
      "stateMutability": "nonpayable",
      "type": "function"
    },
    {
      "constant": false,
      "inputs": [
        {
          "name": "btcProviderAddress",
          "type": "address"
        }
      ],
      "name": "setBtcPriceProvider",
      "outputs": [],
      "payable": false,
      "stateMutability": "nonpayable",
      "type": "function"
    },
    {
      "constant": true,
      "inputs": [],
      "name": "getBtcPriceProvider",
      "outputs": [
        {
          "name": "",
          "type": "address"
        }
      ],
      "payable": false,
      "stateMutability": "view",
      "type": "function"
    },
    {
      "constant": true,
      "inputs": [],
      "name": "getDayBlockSpan",
      "outputs": [
        {
          "name": "",
          "type": "uint256"
        }
      ],
      "payable": false,
      "stateMutability": "view",
      "type": "function"
    },
    {
      "constant": false,
      "inputs": [
        {
          "name": "btcAmount",
          "type": "uint256"
        }
      ],
      "name": "subtractRbtcFromSystem",
      "outputs": [],
      "payable": false,
      "stateMutability": "nonpayable",
      "type": "function"
    },
    {
      "constant": false,
      "inputs": [
        {
          "name": "btcAmount",
          "type": "uint256"
        }
      ],
      "name": "addToRbtcInSystem",
      "outputs": [],
      "payable": false,
      "stateMutability": "nonpayable",
      "type": "function"
    },
    {
      "constant": true,
      "inputs": [],
      "name": "bproTotalSupply",
      "outputs": [
        {
          "name": "",
          "type": "uint256"
        }
      ],
      "payable": false,
      "stateMutability": "view",
      "type": "function"
    },
    {
      "constant": true,
      "inputs": [],
      "name": "docTotalSupply",
      "outputs": [
        {
          "name": "",
          "type": "uint256"
        }
      ],
      "payable": false,
      "stateMutability": "view",
      "type": "function"
    },
    {
      "constant": true,
      "inputs": [],
      "name": "cobj",
      "outputs": [
        {
          "name": "",
          "type": "uint256"
        }
      ],
      "payable": false,
      "stateMutability": "view",
      "type": "function"
    },
    {
      "constant": true,
      "inputs": [],
      "name": "collateralRbtcInSystem",
      "outputs": [
        {
          "name": "",
          "type": "uint256"
        }
      ],
      "payable": false,
      "stateMutability": "view",
      "type": "function"
    },
    {
      "constant": true,
      "inputs": [],
      "name": "globalCoverage",
      "outputs": [
        {
          "name": "",
          "type": "uint256"
        }
      ],
      "payable": false,
      "stateMutability": "view",
      "type": "function"
    },
    {
      "constant": true,
      "inputs": [
        {
          "name": "bucket",
          "type": "bytes32"
        }
      ],
      "name": "lockedBitcoin",
      "outputs": [
        {
          "name": "",
          "type": "uint256"
        }
      ],
      "payable": false,
      "stateMutability": "view",
      "type": "function"
    },
    {
      "constant": true,
      "inputs": [
        {
          "name": "bucket",
          "type": "bytes32"
        }
      ],
      "name": "getRbtcInBitPro",
      "outputs": [
        {
          "name": "",
          "type": "uint256"
        }
      ],
      "payable": false,
      "stateMutability": "view",
      "type": "function"
    },
    {
      "constant": true,
      "inputs": [],
      "name": "getRbtcRemainder",
      "outputs": [
        {
          "name": "",
          "type": "uint256"
        }
      ],
      "payable": false,
      "stateMutability": "view",
      "type": "function"
    },
    {
      "constant": true,
      "inputs": [
        {
          "name": "bucket",
          "type": "bytes32"
        }
      ],
      "name": "coverage",
      "outputs": [
        {
          "name": "",
          "type": "uint256"
        }
      ],
      "payable": false,
      "stateMutability": "view",
      "type": "function"
    },
    {
      "constant": true,
      "inputs": [
        {
          "name": "doc0",
          "type": "uint256"
        }
      ],
      "name": "abundanceRatio",
      "outputs": [
        {
          "name": "",
          "type": "uint256"
        }
      ],
      "payable": false,
      "stateMutability": "view",
      "type": "function"
    },
    {
      "constant": true,
      "inputs": [],
      "name": "currentAbundanceRatio",
      "outputs": [
        {
          "name": "",
          "type": "uint256"
        }
      ],
      "payable": false,
      "stateMutability": "view",
      "type": "function"
    },
    {
      "constant": true,
      "inputs": [
        {
          "name": "bucket",
          "type": "bytes32"
        }
      ],
      "name": "leverage",
      "outputs": [
        {
          "name": "",
          "type": "uint256"
        }
      ],
      "payable": false,
      "stateMutability": "view",
      "type": "function"
    },
    {
      "constant": true,
      "inputs": [],
      "name": "globalMaxDoc",
      "outputs": [
        {
          "name": "",
          "type": "uint256"
        }
      ],
      "payable": false,
      "stateMutability": "view",
      "type": "function"
    },
    {
      "constant": true,
      "inputs": [],
      "name": "freeDoc",
      "outputs": [
        {
          "name": "",
          "type": "uint256"
        }
      ],
      "payable": false,
      "stateMutability": "view",
      "type": "function"
    },
    {
      "constant": true,
      "inputs": [
        {
          "name": "bucket",
          "type": "bytes32"
        }
      ],
      "name": "maxDoc",
      "outputs": [
        {
          "name": "",
          "type": "uint256"
        }
      ],
      "payable": false,
      "stateMutability": "view",
      "type": "function"
    },
    {
      "constant": true,
      "inputs": [],
      "name": "globalMaxBPro",
      "outputs": [
        {
          "name": "",
          "type": "uint256"
        }
      ],
      "payable": false,
      "stateMutability": "view",
      "type": "function"
    },
    {
      "constant": true,
      "inputs": [],
      "name": "absoluteMaxDoc",
      "outputs": [
        {
          "name": "",
          "type": "uint256"
        }
      ],
      "payable": false,
      "stateMutability": "view",
      "type": "function"
    },
    {
      "constant": true,
      "inputs": [
        {
          "name": "bucket",
          "type": "bytes32"
        }
      ],
      "name": "maxBPro",
      "outputs": [
        {
          "name": "",
          "type": "uint256"
        }
      ],
      "payable": false,
      "stateMutability": "view",
      "type": "function"
    },
    {
      "constant": true,
      "inputs": [
        {
          "name": "bucket",
          "type": "bytes32"
        }
      ],
      "name": "maxBProx",
      "outputs": [
        {
          "name": "",
          "type": "uint256"
        }
      ],
      "payable": false,
      "stateMutability": "view",
      "type": "function"
    },
    {
      "constant": true,
      "inputs": [
        {
          "name": "bucket",
          "type": "bytes32"
        }
      ],
      "name": "maxBProxBtcValue",
      "outputs": [
        {
          "name": "",
          "type": "uint256"
        }
      ],
      "payable": false,
      "stateMutability": "view",
      "type": "function"
    },
    {
      "constant": true,
      "inputs": [],
      "name": "absoluteMaxBPro",
      "outputs": [
        {
          "name": "",
          "type": "uint256"
        }
      ],
      "payable": false,
      "stateMutability": "view",
      "type": "function"
    },
    {
      "constant": true,
      "inputs": [],
      "name": "maxBProWithDiscount",
      "outputs": [
        {
          "name": "",
          "type": "uint256"
        }
      ],
      "payable": false,
      "stateMutability": "view",
      "type": "function"
    },
    {
      "constant": true,
      "inputs": [],
      "name": "globalLockedBitcoin",
      "outputs": [
        {
          "name": "",
          "type": "uint256"
        }
      ],
      "payable": false,
      "stateMutability": "view",
      "type": "function"
    },
    {
      "constant": true,
      "inputs": [],
      "name": "bproTecPrice",
      "outputs": [
        {
          "name": "",
          "type": "uint256"
        }
      ],
      "payable": false,
      "stateMutability": "view",
      "type": "function"
    },
    {
      "constant": true,
      "inputs": [
        {
          "name": "bucket",
          "type": "bytes32"
        }
      ],
      "name": "bucketBProTecPrice",
      "outputs": [
        {
          "name": "",
          "type": "uint256"
        }
      ],
      "payable": false,
      "stateMutability": "view",
      "type": "function"
    },
    {
      "constant": true,
      "inputs": [],
      "name": "bproDiscountPrice",
      "outputs": [
        {
          "name": "",
          "type": "uint256"
        }
      ],
      "payable": false,
      "stateMutability": "view",
      "type": "function"
    },
    {
      "constant": true,
      "inputs": [],
      "name": "bproUsdPrice",
      "outputs": [
        {
          "name": "",
          "type": "uint256"
        }
      ],
      "payable": false,
      "stateMutability": "view",
      "type": "function"
    },
    {
      "constant": true,
      "inputs": [
        {
          "name": "bucket",
          "type": "bytes32"
        }
      ],
      "name": "maxBProxBProValue",
      "outputs": [
        {
          "name": "",
          "type": "uint256"
        }
      ],
      "payable": false,
      "stateMutability": "view",
      "type": "function"
    },
    {
      "constant": true,
      "inputs": [
        {
          "name": "bucket",
          "type": "bytes32"
        }
      ],
      "name": "bproxBProPrice",
      "outputs": [
        {
          "name": "",
          "type": "uint256"
        }
      ],
      "payable": false,
      "stateMutability": "view",
      "type": "function"
    },
    {
      "constant": true,
      "inputs": [],
      "name": "bproSpotDiscountRate",
      "outputs": [
        {
          "name": "",
          "type": "uint256"
        }
      ],
      "payable": false,
      "stateMutability": "view",
      "type": "function"
    },
    {
      "constant": true,
      "inputs": [],
      "name": "daysToSettlement",
      "outputs": [
        {
          "name": "",
          "type": "uint256"
        }
      ],
      "payable": false,
      "stateMutability": "view",
      "type": "function"
    },
    {
      "constant": true,
      "inputs": [],
      "name": "blocksToSettlement",
      "outputs": [
        {
          "name": "",
          "type": "uint256"
        }
      ],
      "payable": false,
      "stateMutability": "view",
      "type": "function"
    },
    {
      "constant": true,
      "inputs": [],
      "name": "isLiquidationReached",
      "outputs": [
        {
          "name": "",
          "type": "bool"
        }
      ],
      "payable": false,
      "stateMutability": "view",
      "type": "function"
    },
    {
      "constant": true,
      "inputs": [],
      "name": "getLiquidationPrice",
      "outputs": [
        {
          "name": "",
          "type": "uint256"
        }
      ],
      "payable": false,
      "stateMutability": "view",
      "type": "function"
    },
    {
      "constant": true,
      "inputs": [
        {
          "name": "bucket",
          "type": "bytes32"
        }
      ],
      "name": "getBucketNBTC",
      "outputs": [
        {
          "name": "",
          "type": "uint256"
        }
      ],
      "payable": false,
      "stateMutability": "view",
      "type": "function"
    },
    {
      "constant": true,
      "inputs": [
        {
          "name": "bucket",
          "type": "bytes32"
        }
      ],
      "name": "getBucketNBPro",
      "outputs": [
        {
          "name": "",
          "type": "uint256"
        }
      ],
      "payable": false,
      "stateMutability": "view",
      "type": "function"
    },
    {
      "constant": true,
      "inputs": [
        {
          "name": "bucket",
          "type": "bytes32"
        }
      ],
      "name": "getBucketNDoc",
      "outputs": [
        {
          "name": "",
          "type": "uint256"
        }
      ],
      "payable": false,
      "stateMutability": "view",
      "type": "function"
    },
    {
      "constant": true,
      "inputs": [
        {
          "name": "bucket",
          "type": "bytes32"
        }
      ],
      "name": "getBucketCobj",
      "outputs": [
        {
          "name": "",
          "type": "uint256"
        }
      ],
      "payable": false,
      "stateMutability": "view",
      "type": "function"
    },
    {
      "constant": true,
      "inputs": [
        {
          "name": "bucket",
          "type": "bytes32"
        }
      ],
      "name": "getInrateBag",
      "outputs": [
        {
          "name": "",
          "type": "uint256"
        }
      ],
      "payable": false,
      "stateMutability": "view",
      "type": "function"
    },
    {
      "constant": true,
      "inputs": [],
      "name": "getBcons",
      "outputs": [
        {
          "name": "",
          "type": "uint256"
        }
      ],
      "payable": false,
      "stateMutability": "view",
      "type": "function"
    },
    {
      "constant": true,
      "inputs": [],
      "name": "getBitcoinPrice",
      "outputs": [
        {
          "name": "",
          "type": "uint256"
        }
      ],
      "payable": false,
      "stateMutability": "view",
      "type": "function"
    },
    {
      "constant": false,
      "inputs": [],
      "name": "calculateBitcoinMovingAverage",
      "outputs": [],
      "payable": false,
      "stateMutability": "nonpayable",
      "type": "function"
    },
    {
      "constant": true,
      "inputs": [],
      "name": "getLiq",
      "outputs": [
        {
          "name": "",
          "type": "uint256"
        }
      ],
      "payable": false,
      "stateMutability": "view",
      "type": "function"
    },
    {
      "constant": false,
      "inputs": [
        {
          "name": "_liq",
          "type": "uint256"
        }
      ],
      "name": "setLiq",
      "outputs": [],
      "payable": false,
      "stateMutability": "nonpayable",
      "type": "function"
    },
    {
      "constant": true,
      "inputs": [],
      "name": "getUtpdu",
      "outputs": [
        {
          "name": "",
          "type": "uint256"
        }
      ],
      "payable": false,
      "stateMutability": "view",
      "type": "function"
    },
    {
      "constant": false,
      "inputs": [
        {
          "name": "_utpdu",
          "type": "uint256"
        }
      ],
      "name": "setUtpdu",
      "outputs": [],
      "payable": false,
      "stateMutability": "nonpayable",
      "type": "function"
    },
    {
      "constant": true,
      "inputs": [],
      "name": "getPeg",
      "outputs": [
        {
          "name": "",
          "type": "uint256"
        }
      ],
      "payable": false,
      "stateMutability": "view",
      "type": "function"
    },
    {
      "constant": false,
      "inputs": [
        {
          "name": "_peg",
          "type": "uint256"
        }
      ],
      "name": "setPeg",
      "outputs": [],
      "payable": false,
      "stateMutability": "nonpayable",
      "type": "function"
    },
    {
      "constant": false,
      "inputs": [],
      "name": "nextState",
      "outputs": [],
      "payable": false,
      "stateMutability": "nonpayable",
      "type": "function"
    },
    {
      "constant": false,
      "inputs": [
        {
          "name": "_maxMintBPro",
          "type": "uint256"
        }
      ],
      "name": "initialize_v017",
      "outputs": [],
      "payable": false,
      "stateMutability": "nonpayable",
      "type": "function"
    },
    {
      "constant": false,
      "inputs": [
        {
          "name": "_maxMintBPro",
          "type": "uint256"
        }
      ],
      "name": "setMaxMintBPro",
      "outputs": [],
      "payable": false,
      "stateMutability": "nonpayable",
      "type": "function"
    },
    {
      "constant": true,
      "inputs": [],
      "name": "getMaxMintBPro",
      "outputs": [
        {
          "name": "",
          "type": "uint256"
        }
      ],
      "payable": false,
      "stateMutability": "view",
      "type": "function"
    },
    {
      "constant": true,
      "inputs": [],
      "name": "maxMintBProAvalaible",
      "outputs": [
        {
          "name": "",
          "type": "uint256"
        }
      ],
      "payable": false,
      "stateMutability": "view",
      "type": "function"
    }
  ],
  "bytecode": "0x608060405234801561001057600080fd5b50613f86806100206000396000f3fe608060405234801561001057600080fd5b50600436106104225760e060020a600035046304bda17f811461042757806306bdce8c146104565780630891f6ea1461045e57806308c36d9e1461047b5780630c340a24146104835780630d9c71aa146104a7578063118fe752146104af57806311a2e50b146104b7578063133374bd146104bf57806314007c6d146104c7578063157d5cfb146104d15780631cd2b37c146104d95780631f1cb62b146104e15780632439725a146104e957806336eef862146105065780633a8115a6146105235780633bc4ac0a1461052b578063405dac7814610548578063445a06e41461055057806346558d1b14610558578063484ec046146105605780634aa50e401461056857806351ffe1931461057057806352bfb6311461057857806357a13a16146105805780635a0763b8146105885780635e73f484146105a55780636325f968146105ad578063640f0fea146105b55780636663a85e146105bd57806367c8bcf9146105c55780637119a490146105e25780637144e9a214610608578063717c01c014610610578063747a5663146106185780637a727fe8146106205780637c536216146106285780637f19c56f1461064557806380c14b8d1461064d5780638300df491461066a57806383f3084f146106725780638781f68b1461067a5780638847256214610697578063889d9b641461069f5780638bd11355146106bc5780638c3e0502146106c45780638ec66853146106e157806391f7e09e146106fe5780639214fa4d1461070657806395082d251461070e57806396e4a0371461071657806398b762a11461071e5780639aa59d441461073b5780639ad6659d14610743578063a181c3971461075f578063a42c69a91461070e578063a6e9b15914610767578063a84ab5f214610784578063a8ba1d18146107a1578063a8e9ac30146107a9578063a9a242f5146107b1578063b398eb21146107ce578063b488ea41146107eb578063b6e0833014610808578063b6fc2d5f1461082e578063b810477314610836578063bc2ae9721461083e578063c19d93fb1461085b578063c4a7c94b14610887578063c4d66de8146108a4578063c4ee19ea146108ca578063c94750a8146108d2578063c9c95036146108da578063cb93e65d146108f7578063cdb50771146108ff578063d298d9c91461091c578063d337b9fe14610924578063d45fc1a91461092c578063d81bc97c1461098f578063df3d90b3146109ac578063e22155f6146109b4578063e2414a73146109bc578063e2ea7e7f146109c4578063e6d4a0ee146109cc578063e8906757146109d4578063eb4edb85146109dc578063eb892a62146109f9578063f715e29314610a16578063f74326f914610a1e578063fa8ba49014610a3b578063faba8c3b14610a43578063fb8a8b2714610a4b578063fd80476714610a53575b600080fd5b6104446004803603602081101561043d57600080fd5b5035610a70565b60408051918252519081900360200190f35b610444610af4565b6104446004803603602081101561047457600080fd5b5035610afb565b610444610d52565b61048b610d6a565b60408051600160a060020a039092168252519081900360200190f35b610444610d79565b610444610d7f565b610444610e2d565b610444610e5f565b6104cf610e82565b005b61048b610fcf565b610444610fde565b610444610fe5565b6104cf600480360360208110156104ff57600080fd5b5035610fec565b6104446004803603602081101561051c57600080fd5b503561111b565b6104446111c6565b6104cf6004803603602081101561054157600080fd5b50356112c4565b6104446113b5565b6104446113bc565b610444611419565b610444611420565b610444611427565b61044461143c565b610444611443565b610444611533565b6104446004803603602081101561059e57600080fd5b503561153f565b610444611614565b610444611730565b610444611736565b6104446117c1565b610444600480360360208110156105db57600080fd5b50356117c8565b6104cf600480360360208110156105f857600080fd5b5035600160a060020a0316611818565b610444611974565b6104446119df565b6104446119e6565b610444611a17565b6104cf6004803603602081101561063e57600080fd5b5035611a1d565b610444611b0f565b6104cf6004803603602081101561066357600080fd5b5035611b16565b610444611c08565b61048b611cf1565b6104446004803603602081101561069057600080fd5b5035611d00565b610444611dba565b610444600480360360208110156106b557600080fd5b5035611e64565b610444611eb4565b610444600480360360208110156106da57600080fd5b5035611ebb565b610444600480360360208110156106f757600080fd5b5035612134565b61044461222c565b610444612233565b61044461223a565b610444612246565b6104cf6004803603602081101561073457600080fd5b5035612403565b61044461254e565b61074b612554565b604080519115158252519081900360200190f35b61044461259d565b6104446004803603602081101561077d57600080fd5b50356125a3565b6104446004803603602081101561079a57600080fd5b50356126b9565b6104446126ed565b61074b612744565b6104cf600480360360208110156107c757600080fd5b5035612765565b610444600480360360208110156107e457600080fd5b50356127ce565b6104cf6004803603602081101561080157600080fd5b503561281e565b6104cf6004803603602081101561081e57600080fd5b5035600160a060020a0316612916565b610444612a24565b610444612a2b565b6104cf6004803603602081101561085457600080fd5b5035612a46565b610863612b38565b6040518082600381111561087357fe5b60ff16815260200191505060405180910390f35b6104446004803603602081101561089d57600080fd5b5035612b42565b6104cf600480360360208110156108ba57600080fd5b5035600160a060020a0316612dae565b610444612e6e565b610444612ee5565b6104cf600480360360208110156108f057600080fd5b5035612f20565b610444612ffa565b6104446004803603602081101561091557600080fd5b5035613000565b61048b613050565b610444613065565b6104cf600480360361014081101561094357600080fd5b50600160a060020a03813581169160208101358216916040820135169060608101359060808101359060a08101359060c08101359060e0810135906101008101359061012001356130ae565b610444600480360360208110156109a557600080fd5b503561318f565b61044461330d565b610444613356565b610444613362565b610444613368565b6104cf613419565b610444613429565b6104cf600480360360208110156109f257600080fd5b5035613430565b61044460048036036020811015610a0f57600080fd5b5035613502565b61044461356d565b61044460048036036020811015610a3457600080fd5b5035613573565b6104446135f2565b610444613610565b610444613617565b6104cf60048036036020811015610a6957600080fd5b503561361d565b610109546040805160e060020a6304bda17f028152600481018490529051600092600160a060020a0316916304bda17f916024808301926020929190829003018186803b158015610ac057600080fd5b505afa158015610ad4573d6000803e3d6000fd5b505050506040513d6020811015610aea57600080fd5b505190505b919050565b6000545b90565b610109546040805160e060020a63cdb507710281526004810184905290516000928392600160a060020a039091169163cdb5077191602480820192602092909190829003018186803b158015610b5057600080fd5b505afa158015610b64573d6000803e3d6000fd5b505050506040513d6020811015610b7a57600080fd5b5051610109546040805160e060020a6367c8bcf9028152600481018790529051929350600092600160a060020a03909216916367c8bcf991602480820192602092909190829003018186803b158015610bd257600080fd5b505afa158015610be6573d6000803e3d6000fd5b505050506040513d6020811015610bfc57600080fd5b5051610109546040805160e060020a63b398eb21028152600481018890529051929350600092600160a060020a039092169163b398eb2191602480820192602092909190829003018186803b158015610c5457600080fd5b505afa158015610c68573d6000803e3d6000fd5b505050506040513d6020811015610c7e57600080fd5b505161010b5490915073__MoCHelperLib__________________________9063bc85889e90600090869085908790610cb4611c08565b610cbc611427565b6040518863ffffffff1660e060020a0281526004018088815260200187815260200186815260200185815260200184815260200183815260200182815260200197505050505050505060206040518083038186803b158015610d1d57600080fd5b505af4158015610d31573d6000803e3d6000fd5b505050506040513d6020811015610d4757600080fd5b505195945050505050565b6000610d6560f460020a6104330261318f565b905090565b609b54600160a060020a031681565b60cf5481565b600073__MoCHelperLib__________________________6350b0c2b082610da4611c08565b610dac61330d565b61010b546040518563ffffffff1660e060020a0281526004018085815260200184815260200183815260200182815260200194505050505060206040518083038186803b158015610dfc57600080fd5b505af4158015610e10573d6000803e3d6000fd5b505050506040513d6020811015610e2657600080fd5b5051905090565b6000610d6561010a54610e53600060010154610e47611614565b9063ffffffff61370f16565b9063ffffffff61377416565b6000610d65610e6c611dba565b610e7d60f460020a61043302610afb565b6137e1565b60006101045460ff166003811115610e9657fe5b1415610ea157610fcd565b6101045460ff16610eb0613419565b6000610eba612e6e565b905061010d548111610ee957610ece6137f7565b61010480546000919060ff19166001835b0217905550610f59565b61010d5481118015610efe575061010e548111155b15610f175761010480546001919060ff19168280610edf565b61010e5481118015610f305750610f2c611974565b8111155b15610f4a5761010480546002919060ff1916600183610edf565b610104805460ff191660031790555b6101045460ff166003811115610f6b57fe5b826003811115610f7757fe5b14610fca57610104546040517fb9eb8a309bf89f3159b39681f485b6430fec1035b2b457edbcdadcdece888c0b9160ff169080826003811115610fb657fe5b60ff16815260200191505060405180910390a15b50505b565b609b54600160a060020a031690565b61010e5490565b61010b5481565b609b546040805160e060020a63d994d6d50281523360048201529051600160a060020a039092169163d994d6d591602480820192602092909190829003018186803b15801561103a57600080fd5b505afa15801561104e573d6000803e3d6000fd5b505050506040513d602081101561106457600080fd5b50516040805180820190915260168152600080516020613f3b8339815191526020820152906111145760405160e560020a62461bcd0281526004018080602001828103825283818151815260200191508051906020019080838360005b838110156110d95781810151838201526020016110c1565b50505050905090810190601f1680156111065780820380516001836020036101000a031916815260200191505b509250505060405180910390fd5b5061010b55565b600080611127836125a3565b905073__MoCHelperLib__________________________6366a4c71860008361114e610d52565b6040518463ffffffff1660e060020a02815260040180848152602001838152602001828152602001935050505060206040518083038186803b15801561119357600080fd5b505af41580156111a7573d6000803e3d6000fd5b505050506040513d60208110156111bd57600080fd5b50519392505050565b6000806111d161330d565b905060006111dd611736565b905060006111e96119e6565b905060006111f5611c08565b905073__MoCHelperLib__________________________6393d1df9b600061121b612246565b8761010e5461010b5487898b6040518963ffffffff1660e060020a028152600401808981526020018881526020018781526020018681526020018581526020018481526020018381526020018281526020019850505050505050505060206040518083038186803b15801561128f57600080fd5b505af41580156112a3573d6000803e3d6000fd5b505050506040513d60208110156112b957600080fd5b505194505050505090565b609b546040805160e060020a63d994d6d50281523360048201529051600160a060020a039092169163d994d6d591602480820192602092909190829003018186803b15801561131257600080fd5b505afa158015611326573d6000803e3d6000fd5b505050506040513d602081101561133c57600080fd5b50516040805180820190915260168152600080516020613f3b8339815191526020820152906113af5760405160e560020a62461bcd0281526020600482018181528351602484015283519092839260449091019190850190808383600083156110d95781810151838201526020016110c1565b5060d155565b6101115490565b6000806113c7613065565b905060006113d36113b5565b90508082106113e757600092505050610af8565b60006113f9828463ffffffff6138ac16565b6002549091508110156114125760009350505050610af8565b9250505090565b6101105490565b61010a5490565b6000610d65611434611c08565b610e7d613617565b61010c5490565b60008061144e6119e6565b905073__MoCHelperLib__________________________63a2f275716000611474612246565b61147c611974565b61148461330d565b61010b54611490611c08565b611498611427565b896040518963ffffffff1660e060020a028152600401808981526020018881526020018781526020018681526020018581526020018481526020018381526020018281526020019850505050505050505060206040518083038186803b15801561150157600080fd5b505af4158015611515573d6000803e3d6000fd5b505050506040513d602081101561152b57600080fd5b505191505090565b60f160020a612c190281565b6000806101045460ff16600381111561155457fe5b141561156257506000610aef565b600061156d8361318f565b90506000611579610d52565b6040805160e060020a6305721b51028152600060048201526024810185905260448101839052905191925073__MoCHelperLib__________________________916305721b5191606480820192602092909190829003018186803b1580156115e057600080fd5b505af41580156115f4573d6000803e3d6000fd5b505050506040513d602081101561160a57600080fd5b5051949350505050565b60004361010560009054906101000a9004600160a060020a0316600160a060020a0316637bac9c7c6040518163ffffffff1660e060020a02815260040160206040518083038186803b15801561166957600080fd5b505afa15801561167d573d6000803e3d6000fd5b505050506040513d602081101561169357600080fd5b5051116116a257506000610af8565b610d654361010560009054906101000a9004600160a060020a0316600160a060020a0316637bac9c7c6040518163ffffffff1660e060020a02815260040160206040518083038186803b1580156116f857600080fd5b505afa15801561170c573d6000803e3d6000fd5b505050506040513d602081101561172257600080fd5b50519063ffffffff6138ac16565b60d15490565b600080611741612e6e565b61010c5461010d5461010e546040805160e060020a637ed1d54102815260006004820152602481019490945260448401929092526064830152608482018390525191925073__MoCHelperLib__________________________91637ed1d5419160a480820192602092909190829003018186803b15801561150157600080fd5b61010c5481565b610109546040805160e060020a6367c8bcf9028152600481018490529051600092600160a060020a0316916367c8bcf9916024808301926020929190829003018186803b158015610ac057600080fd5b609b546040805160e060020a63d994d6d50281523360048201529051600160a060020a039092169163d994d6d591602480820192602092909190829003018186803b15801561186657600080fd5b505afa15801561187a573d6000803e3d6000fd5b505050506040513d602081101561189057600080fd5b50516040805180820190915260168152600080516020613f3b8339815191526020820152906119035760405160e560020a62461bcd0281526020600482018181528351602484015283519092839260449091019190850190808383600083156110d95781810151838201526020016110c1565b506101048054600160a060020a0383811661010090810261010060a860020a03198416179384905560408051938290048316808552919094049091166020830152825190927ff01c4ba47ffa16ddc86be088e27d891895d6944b4f1b88a7d30fedb0296de55c928290030190a15050565b610109546040805160e060020a63b398eb2102815260f460020a6104330260048201529051600092600160a060020a03169163b398eb21916024808301926020929190829003018186803b1580156119cb57600080fd5b505afa158015610e10573d6000803e3d6000fd5b61010a5481565b6000806119f1610d52565b905060006119fd611c08565b60005490915061141290610e53838563ffffffff61370f16565b60d15481565b609b546040805160e060020a63d994d6d50281523360048201529051600160a060020a039092169163d994d6d591602480820192602092909190829003018186803b158015611a6b57600080fd5b505afa158015611a7f573d6000803e3d6000fd5b505050506040513d6020811015611a9557600080fd5b50516040805180820190915260168152600080516020613f3b833981519152602082015290611b085760405160e560020a62461bcd0281526020600482018181528351602484015283519092839260449091019190850190808383600083156110d95781810151838201526020016110c1565b5061010e55565b61010d5490565b609b546040805160e060020a63d994d6d50281523360048201529051600160a060020a039092169163d994d6d591602480820192602092909190829003018186803b158015611b6457600080fd5b505afa158015611b78573d6000803e3d6000fd5b505050506040513d6020811015611b8e57600080fd5b50516040805180820190915260168152600080516020613f3b833981519152602082015290611c015760405160e560020a62461bcd0281526020600482018181528351602484015283519092839260449091019190850190808383600083156110d95781810151838201526020016110c1565b5061010d55565b600080600061010460019054906101000a9004600160a060020a0316600160a060020a03166359e02dd76040518163ffffffff1660e060020a028152600401604080518083038186803b158015611c5e57600080fd5b505afa158015611c72573d6000803e3d6000fd5b505050506040513d6040811015611c8857600080fd5b508051602090910151909250905080611ceb576040805160e560020a62461bcd02815260206004820152601c60248201527f4f7261636c652068617665206e6f20426974636f696e20507269636500000000604482015290519081900360640190fd5b50905090565b606854600160a060020a031681565b610109546040805160e060020a63cdb507710281526004810184905290516000928392600160a060020a039091169163cdb5077191602480820192602092909190829003018186803b158015611d5557600080fd5b505afa158015611d69573d6000803e3d6000fd5b505050506040513d6020811015611d7f57600080fd5b505190506000611d8e84612134565b9050818110611da257600092505050610aef565b611db2828263ffffffff6138ac16565b949350505050565b600073__MoCHelperLib__________________________63bc85889e82611ddf612246565b611de7611974565b611def61330d565b61010b54611dfb611c08565b611e03611427565b6040518863ffffffff1660e060020a0281526004018088815260200187815260200186815260200185815260200184815260200183815260200182815260200197505050505050505060206040518083038186803b158015610dfc57600080fd5b610109546040805160e260020a63222766d9028152600481018490529051600092600160a060020a03169163889d9b64916024808301926020929190829003018186803b158015610ac057600080fd5b61010f5481565b610109546040805160e360020a630c677451028152600481018490529051600092600160a060020a03169163633ba288916024808301926020929190829003018186803b158015611f0b57600080fd5b505afa158015611f1f573d6000803e3d6000fd5b505050506040513d6020811015611f3557600080fd5b5051158015611fbc5750610109546040805160e060020a63a9e61b4f028152600481018590529051600160a060020a039092169163a9e61b4f91602480820192602092909190829003018186803b158015611f8f57600080fd5b505afa158015611fa3573d6000803e3d6000fd5b505050506040513d6020811015611fb957600080fd5b50515b1561204457610109546040805160e060020a63b398eb21028152600481018590529051600160a060020a039092169163b398eb2191602480820192602092909190829003018186803b15801561201157600080fd5b505afa158015612025573d6000803e3d6000fd5b505050506040513d602081101561203b57600080fd5b50519050610aef565b610109546040805160e060020a63cdb50771028152600481018590529051600092600160a060020a03169163cdb50771916024808301926020929190829003018186803b15801561209457600080fd5b505afa1580156120a8573d6000803e3d6000fd5b505050506040513d60208110156120be57600080fd5b5051905060006120cd84612134565b6040805160e260020a63386c0d21028152600060048201526024810185905260448101839052905191925073__MoCHelperLib__________________________9163e1b0348491606480820192602092909190829003018186803b1580156115e057600080fd5b610109546040805160e060020a6367c8bcf90281526004810184905290516000928392600160a060020a03909116916367c8bcf991602480820192602092909190829003018186803b15801561218957600080fd5b505afa15801561219d573d6000803e3d6000fd5b505050506040513d60208110156121b357600080fd5b5051905073__MoCHelperLib__________________________6350b0c2b060006121db611c08565b8461010b546040518563ffffffff1660e060020a0281526004018085815260200184815260200183815260200182815260200194505050505060206040518083038186803b15801561119357600080fd5b6101115481565b61010b5490565b670de0b6b3a764000081565b61010654610109546040805160e060020a6304bda17f02815260f160020a612c1902600482015290516000938493600160a060020a039182169363dcbfd36c9391909216916304bda17f916024808301926020929190829003018186803b1580156122b057600080fd5b505afa1580156122c4573d6000803e3d6000fd5b505050506040513d60208110156122da57600080fd5b50516040805160e060020a63ffffffff8516028152600481019290925260f160020a612c19026024830152516044808301926020929190829003018186803b15801561232557600080fd5b505afa158015612339573d6000803e3d6000fd5b505050506040513d602081101561234f57600080fd5b5051610109546040805160e260020a63222766d902815260f460020a6104330260048201529051929350600092600160a060020a039092169163889d9b6491602480820192602092909190829003018186803b1580156123ae57600080fd5b505afa1580156123c2573d6000803e3d6000fd5b505050506040513d60208110156123d857600080fd5b505161010f549091506114129082906123f7908563ffffffff6138ac16565b9063ffffffff6138ac16565b609b546040805160e060020a63d994d6d50281523360048201529051600160a060020a039092169163d994d6d591602480820192602092909190829003018186803b15801561245157600080fd5b505afa158015612465573d6000803e3d6000fd5b505050506040513d602081101561247b57600080fd5b50516040805180820190915260168152600080516020613f3b8339815191526020820152906124ee5760405160e560020a62461bcd0281526020600482018181528351602484015283519092839260449091019190850190808383600083156110d95781810151838201526020016110c1565b506002548110612548576040805160e560020a62461bcd02815260206004820152601f60248201527f72617465206973206c6f776572207468616e206d6f63507265636973696f6e00604482015290519081900360640190fd5b61010c55565b60d05490565b60008061255f612e6e565b905060006101045460ff16600381111561257557fe5b14158015612586575061010d548111155b15612595576001915050610af8565b600091505090565b60d05481565b610109546040805160e060020a6367c8bcf902815260f460020a61043302600482015290516000928392600160a060020a03909116916367c8bcf991602480820192602092909190829003018186803b1580156125ff57600080fd5b505afa158015612613573d6000803e3d6000fd5b505050506040513d602081101561262957600080fd5b50519050600061263884613502565b9050600073__MoCHelperLib__________________________631cd89f6190918461010b54612665611c08565b866040518663ffffffff1660e060020a028152600401808681526020018581526020018481526020018381526020018281526020019550505050505060206040518083038186803b1580156115e057600080fd5b6000806126c5836125a3565b905073__MoCHelperLib__________________________6366a4c71860008361114e8761318f565b610109546040805160e060020a6367c8bcf902815260f460020a6104330260048201529051600092600160a060020a0316916367c8bcf9916024808301926020929190829003018186803b1580156119cb57600080fd5b600061275d60d15460d05461390c90919063ffffffff16565b431015905090565b6101125460ff16156127ba576040805160e560020a62461bcd0281526020600482015260136024820152606a60020a72105b1c9958591e48125b9a5d1a585b1a5e995902604482015290519081900360640190fd5b61011155610112805460ff19166001179055565b610109546040805160e060020a63b398eb21028152600481018490529051600092600160a060020a03169163b398eb21916024808301926020929190829003018186803b158015610ac057600080fd5b609b546040805160e060020a63d994d6d50281523360048201529051600160a060020a039092169163d994d6d591602480820192602092909190829003018186803b15801561286c57600080fd5b505afa158015612880573d6000803e3d6000fd5b505050506040513d602081101561289657600080fd5b50516040805180820190915260168152600080516020613f3b8339815191526020820152906129095760405160e560020a62461bcd0281526020600482018181528351602484015283519092839260449091019190850190808383600083156110d95781810151838201526020016110c1565b5061291381613969565b50565b609b546040805160e060020a63d994d6d50281523360048201529051600160a060020a039092169163d994d6d591602480820192602092909190829003018186803b15801561296457600080fd5b505afa158015612978573d6000803e3d6000fd5b505050506040513d602081101561298e57600080fd5b50516040805180820190915260168152600080516020613f3b833981519152602082015290612a015760405160e560020a62461bcd0281526020600482018181528351602484015283519092839260449091019190850190808383600083156110d95781810151838201526020016110c1565b50609b8054600160a060020a031916600160a060020a0392909216919091179055565b6101105481565b6000610d65612a4160f460020a610433026117c8565b613573565b609b546040805160e060020a63d994d6d50281523360048201529051600160a060020a039092169163d994d6d591602480820192602092909190829003018186803b158015612a9457600080fd5b505afa158015612aa8573d6000803e3d6000fd5b505050506040513d6020811015612abe57600080fd5b50516040805180820190915260168152600080516020613f3b833981519152602082015290612b315760405160e560020a62461bcd0281526020600482018181528351602484015283519092839260449091019190850190808383600083156110d95781810151838201526020016110c1565b5061010a55565b6101045460ff1681565b610109546040805160e060020a63cdb507710281526004810184905290516000928392600160a060020a039091169163cdb5077191602480820192602092909190829003018186803b158015612b9757600080fd5b505afa158015612bab573d6000803e3d6000fd5b505050506040513d6020811015612bc157600080fd5b5051610109546040805160e060020a6367c8bcf9028152600481018790529051929350600092600160a060020a03909216916367c8bcf991602480820192602092909190829003018186803b158015612c1957600080fd5b505afa158015612c2d573d6000803e3d6000fd5b505050506040513d6020811015612c4357600080fd5b505190506000612c516119e6565b610109546040805160e060020a63b398eb21028152600481018990529051929350600092600160a060020a039092169163b398eb2191602480820192602092909190829003018186803b158015612ca757600080fd5b505afa158015612cbb573d6000803e3d6000fd5b505050506040513d6020811015612cd157600080fd5b505161010b5490915073__MoCHelperLib__________________________9063a2f2757190600090879085908890612d07611c08565b612d0f611427565b8a6040518963ffffffff1660e060020a028152600401808981526020018881526020018781526020018681526020018581526020018481526020018381526020018281526020019850505050505050505060206040518083038186803b158015612d7857600080fd5b505af4158015612d8c573d6000803e3d6000fd5b505050506040513d6020811015612da257600080fd5b50519695505050505050565b603554610100900460ff1680612dc75750612dc76139cc565b80612dd5575060355460ff16155b612e135760405160e560020a62461bcd02815260040180806020018281038252602e815260200180613f0d602e913960400191505060405180910390fd5b603554610100900460ff16158015612e3e576035805460ff1961ff0019909116610100171660011790555b609b8054600160a060020a031916600160a060020a0384161790558015610fca576035805461ff00191690555050565b600080612e79610d7f565b905073__MoCHelperLib__________________________63e1b034846000612e9f612246565b846040518463ffffffff1660e060020a02815260040180848152602001838152602001828152602001935050505060206040518083038186803b15801561150157600080fd5b600080612ef0610d7f565b905061010f548110612f06576000915050610af8565b61010f54612f1a908263ffffffff6138ac16565b91505090565b6068546040805160e060020a633af32abf028152336004820181905291519192600160a060020a031691633af32abf91602480820192602092909190829003018186803b158015612f7057600080fd5b505afa158015612f84573d6000803e3d6000fd5b505050506040513d6020811015612f9a57600080fd5b5051612fde576040805160e560020a62461bcd02815260206004820152601a6024820152600080516020613eed833981519152604482015290519081900360640190fd5b61010f54612ff2908363ffffffff6138ac16565b61010f555050565b60cf5490565b610109546040805160e060020a63cdb50771028152600481018490529051600092600160a060020a03169163cdb50771916024808301926020929190829003018186803b158015610ac057600080fd5b610104546101009004600160a060020a031690565b610108546040805160e060020a6318160ddd0281529051600092600160a060020a0316916318160ddd916004808301926020929190829003018186803b1580156119cb57600080fd5b603554610100900460ff16806130c757506130c76139cc565b806130d5575060355460ff16155b6131135760405160e560020a62461bcd02815260040180806020018281038252602e815260200180613f0d602e913960400191505060405180910390fd5b603554610100900460ff1615801561313e576035805460ff1961ff0019909116610100171660011790555b6131466139d2565b61314f8b613a04565b613157613ac4565b6131658a8a8a8a8a8a613d87565b613170848484613de9565b8015613182576035805461ff00191690555b5050505050505050505050565b610109546040805160e060020a6304bda17f0281526004810184905290516000928392600160a060020a03909116916304bda17f91602480820192602092909190829003018186803b1580156131e457600080fd5b505afa1580156131f8573d6000803e3d6000fd5b505050506040513d602081101561320e57600080fd5b50519050600061321d84612134565b610109546040805160e060020a63cdb50771028152600481018890529051929350600092600160a060020a039092169163cdb5077191602480820192602092909190829003018186803b15801561327357600080fd5b505afa158015613287573d6000803e3d6000fd5b505050506040513d602081101561329d57600080fd5b50516040805160e060020a63027c48a102815260006004820152602481018390526044810185905260648101869052905191925073__MoCHelperLib__________________________9163027c48a191608480820192602092909190829003018186803b158015610d1d57600080fd5b610107546040805160e060020a6318160ddd0281529051600092600160a060020a0316916318160ddd916004808301926020929190829003018186803b1580156119cb57600080fd5b60f460020a6104330281565b60015490565b600080613373610d52565b9050600061337f611736565b6040805160e260020a632d4f109b028152600060048201526024810185905260448101839052905191925073__MoCHelperLib__________________________9163b53c426c91606480820192602092909190829003018186803b1580156133e657600080fd5b505af41580156133fa573d6000803e3d6000fd5b505050506040513d602081101561341057600080fd5b50519250505090565b610fcd613424611c08565b613e02565b61010e5481565b6068546040805160e060020a633af32abf028152336004820181905291519192600160a060020a031691633af32abf91602480820192602092909190829003018186803b15801561348057600080fd5b505afa158015613494573d6000803e3d6000fd5b505050506040513d60208110156134aa57600080fd5b50516134ee576040805160e560020a62461bcd02815260206004820152601a6024820152600080516020613eed833981519152604482015290519081900360640190fd5b61010f54612ff2908363ffffffff61390c16565b60008061350e83611ebb565b9050600073__MoCHelperLib__________________________63df3992079091836040518363ffffffff1660e060020a028152600401808381526020018281526020019250505060206040518083038186803b15801561119357600080fd5b60025490565b600073__MoCHelperLib__________________________637b5c24eb828461359961330d565b6040518463ffffffff1660e060020a02815260040180848152602001838152602001828152602001935050505060206040518083038186803b1580156135de57600080fd5b505af4158015610ad4573d6000803e3d6000fd5b6000610d656135ff611443565b610e7d60f460020a61043302612b42565b61010d5481565b60ce5490565b609b546040805160e060020a63d994d6d50281523360048201529051600160a060020a039092169163d994d6d591602480820192602092909190829003018186803b15801561366b57600080fd5b505afa15801561367f573d6000803e3d6000fd5b505050506040513d602081101561369557600080fd5b50516040805180820190915260168152600080516020613f3b8339815191526020820152906137085760405160e560020a62461bcd0281526020600482018181528351602484015283519092839260449091019190850190808383600083156110d95781810151838201526020016110c1565b5061011155565b60008261371e5750600061376e565b8282028284828161372b57fe5b041461376b5760405160e560020a62461bcd028152600401808060200182810382526021815260200180613ecc6021913960400191505060405180910390fd5b90505b92915050565b60008082116137cd576040805160e560020a62461bcd02815260206004820152601a60248201527f536166654d6174683a206469766973696f6e206279207a65726f000000000000604482015290519081900360640190fd5b60008284816137d857fe5b04949350505050565b60008183106137f0578161376b565b5090919050565b600061380d613804610d7f565b61010f546137e1565b905073__MoCHelperLib__________________________630a4be82360008361383461330d565b6040518463ffffffff1660e060020a02815260040180848152602001838152602001828152602001935050505060206040518083038186803b15801561387957600080fd5b505af415801561388d573d6000803e3d6000fd5b505050506040513d60208110156138a357600080fd5b50516101105550565b600082821115613906576040805160e560020a62461bcd02815260206004820152601e60248201527f536166654d6174683a207375627472616374696f6e206f766572666c6f770000604482015290519081900360640190fd5b50900390565b60008282018381101561376b576040805160e560020a62461bcd02815260206004820152601b60248201527f536166654d6174683a206164646974696f6e206f766572666c6f770000000000604482015290519081900360640190fd5b670de0b6b3a76400008111156139c7576040805160e560020a62461bcd0281526020600482015260186024820152604160020a7724b73b30b634b21039b6b7b7ba3434b733903330b1ba37b902604482015290519081900360640190fd5b60cf55565b303b1590565b60408051606081018252670de0b6b3a76400008082526001602083018190529190920182905260008290558055600255565b603554610100900460ff1680613a1d5750613a1d6139cc565b80613a2b575060355460ff16155b613a695760405160e560020a62461bcd02815260040180806020018281038252602e815260200180613f0d602e913960400191505060405180910390fd5b603554610100900460ff16158015613a94576035805460ff1961ff0019909116610100171660011790555b60688054600160a060020a031916600160a060020a0384161790558015610fca576035805461ff00191690555050565b606860009054906101000a9004600160a060020a0316600160a060020a031663b29ead6c6040518163ffffffff1660e060020a02815260040160206040518083038186803b158015613b1557600080fd5b505afa158015613b29573d6000803e3d6000fd5b505050506040513d6020811015613b3f57600080fd5b50516101058054600160a060020a031916600160a060020a039283161790556068546040805160e060020a6399c6fe73028152905191909216916399c6fe73916004808301926020929190829003018186803b158015613b9e57600080fd5b505afa158015613bb2573d6000803e3d6000fd5b505050506040513d6020811015613bc857600080fd5b50516101078054600160a060020a031916600160a060020a039283161790556068546040805160e060020a63d31cc8310281529051919092169163d31cc831916004808301926020929190829003018186803b158015613c2757600080fd5b505afa158015613c3b573d6000803e3d6000fd5b505050506040513d6020811015613c5157600080fd5b50516101088054600160a060020a031916600160a060020a039283161790556068546040805160e160020a634aadab850281529051919092169163955b570a916004808301926020929190829003018186803b158015613cb057600080fd5b505afa158015613cc4573d6000803e3d6000fd5b505050506040513d6020811015613cda57600080fd5b50516101098054600160a060020a031916600160a060020a039283161790556068546040805160e160020a63679ab6ed0281529051919092169163cf356dda916004808301926020929190829003018186803b158015613d3957600080fd5b505afa158015613d4d573d6000803e3d6000fd5b505050506040513d6020811015613d6357600080fd5b50516101068054600160a060020a031916600160a060020a03909216919091179055565b61010d9390935561010e9190915561010c5561010a55609b8054600160a060020a031916600160a060020a03938416179055610104805461010060a860020a03191661010092909316919091029190911760ff19166003179055600161010b55565b613df282613969565b4360d05560ce929092555060d155565b613e0a612744565b15612913576000613e2660cf548361370f90919063ffffffff16565b90506000613e60670de0b6b3a7640000610e5384613e54613e45613eac565b60ce549063ffffffff61370f16565b9063ffffffff61390c16565b4360d05560ce819055604080518581526020810183905281519293507f8cf60c7db6ef7d88fad2695a615a151ecebf27045d4887b69fdf5ce5b46fc619929081900390910190a1505050565b6000610d6560cf54670de0b6b3a76400006138ac90919063ffffffff1656fe536166654d6174683a206d756c7469706c69636174696f6e206f766572666c6f7741646472657373206973206e6f742077686974656c6973746564000000000000436f6e747261637420696e7374616e63652068617320616c7265616479206265656e20696e697469616c697a65646e6f745f617574686f72697a65645f6368616e67657200000000000000000000a165627a7a72305820d5fdd508ed51453e190bee0223e62ca92b57e751eda485af9a32d4b884fb8eb40029",
  "source": "pragma solidity 0.5.8;\n\nimport \"openzeppelin-solidity/contracts/math/Math.sol\";\nimport \"./interface/BtcPriceProvider.sol\";\nimport \"./MoCEMACalculator.sol\";\nimport \"./base/MoCBase.sol\";\nimport \"./MoCLibConnection.sol\";\nimport \"./MoCBProxManager.sol\";\nimport \"./token/DocToken.sol\";\nimport \"./token/BProToken.sol\";\nimport \"./MoCSettlement.sol\";\nimport \"moc-governance/contracts/Governance/Governed.sol\";\nimport \"moc-governance/contracts/Governance/IGovernor.sol\";\n\ncontract MoCState_v017 is MoCLibConnection, MoCBase, MoCEMACalculator {\n  using Math for uint256;\n  using SafeMath for uint256;\n\n  // This is the current state.\n  States public state;\n\n  event StateTransition(States newState);\n  event PriceProviderUpdated(address oldAddress, address newAddress);\n  // Contracts\n  BtcPriceProvider internal btcPriceProvider;\n  MoCSettlement internal mocSettlement;\n  MoCConverter internal mocConverter;\n  DocToken internal docToken;\n  BProToken internal bproToken;\n  MoCBProxManager internal bproxManager;\n\n  // One Day based on 15 seconds blocks\n  uint256 public dayBlockSpan;\n  // Relation between DOC and dollar\n  uint256 public peg;\n  // BPro max discount rate\n  // Reflects the discount spot rate at Liquidation level\n  uint256 public bproMaxDiscountRate;\n  // Liquidation limit\n  // [using mocPrecision]\n  uint256 public liq;\n  // BPro with discount limit\n  // [using mocPrecision]\n  uint256 public utpdu;\n  // Complete amount of Bitcoin in the system\n  // this represents basically MoC Balance\n  uint256 public rbtcInSystem;\n  // Price to use at doc redemption at\n  // liquidation event\n  uint256 public liquidationPrice;\n\n  function initialize(\n    address connectorAddress,\n    address _governor,\n    address _btcPriceProvider,\n    uint256 _liq,\n    uint256 _utpdu,\n    uint256 _maxDiscRate,\n    uint256 _dayBlockSpan,\n    uint256 _ema,\n    uint256 _smoothFactor,\n    uint256 _emaBlockSpan\n  ) public initializer {\n    initializePrecisions();\n    initializeBase(connectorAddress);\n    initializeContracts();\n    initializeValues(_governor, _btcPriceProvider,_liq, _utpdu, _maxDiscRate, _dayBlockSpan);\n    initializeMovingAverage(_ema, _smoothFactor, _emaBlockSpan);\n  }\n\n  /**\n  * @param rate Discount rate at liquidation level [using mocPrecision]\n  **/\n  function setMaxDiscountRate(uint256 rate) public onlyAuthorizedChanger() {\n    require(rate < mocLibConfig.mocPrecision, \"rate is lower than mocPrecision\");\n\n    bproMaxDiscountRate = rate;\n  }\n\n    /**\n   * @dev return the value of the BPro max discount rate configuration param\n   * @return bproMaxDiscountRate BPro max discount rate\n   */\n  function getMaxDiscountRate() public view returns(uint256) {\n    return bproMaxDiscountRate;\n  }\n\n  /**\n  * @dev Defines how many blocks there are in a day\n  * @param blockSpan blocks there are in a day\n  **/\n  function setDayBlockSpan(uint256 blockSpan) public onlyAuthorizedChanger() {\n    dayBlockSpan = blockSpan;\n  }\n\n  /**\n  * @dev Sets a new BTCProvider contract\n  * @param btcProviderAddress blocks there are in a day\n  **/\n  function setBtcPriceProvider(address btcProviderAddress) public onlyAuthorizedChanger() {\n    address oldBtcPriceProviderAddress = address(btcPriceProvider);\n    btcPriceProvider = BtcPriceProvider(btcProviderAddress);\n    emit PriceProviderUpdated(oldBtcPriceProviderAddress, address(btcPriceProvider));\n  }\n\n  /**\n  * @dev Gets the BTCPriceProviderAddress\n  * @return btcPriceProvider blocks there are in a day\n  **/\n  function getBtcPriceProvider() public view returns(address) {\n    return address(btcPriceProvider);\n  }\n  /**\n   * @dev Gets how many blocks there are in a day\n   * @return blocks there are in a day\n   */\n  function getDayBlockSpan() public view returns(uint256) {\n    return dayBlockSpan;\n  }\n  /******STATE MACHINE*********/\n\n  enum States {\n    // State 0\n    Liquidated,\n    // State 1\n    BProDiscount,\n    // State 2\n    BelowCobj,\n    // State 3\n    AboveCobj\n  }\n\n/**\n  * @dev Subtract the btc amount passed by parameter to the total Bitcoin Amount\n  * @param btcAmount Amount that will be subtract to rbtcInSystem\n  */\n  function subtractRbtcFromSystem(uint256 btcAmount) public onlyWhitelisted(msg.sender) {\n    rbtcInSystem = rbtcInSystem.sub(btcAmount);\n  }\n\n  /**\n  * @dev btcAmount Add the btc amount passed by parameter to the total Bitcoin Amount\n  * @param btcAmount Amount that will be added to rbtcInSystem\n  */\n  function addToRbtcInSystem(uint256 btcAmount) public onlyWhitelisted(msg.sender) {\n    rbtcInSystem = rbtcInSystem.add(btcAmount);\n  }\n\n  /**\n    @dev All BPros in circulation\n   */\n  function bproTotalSupply() public view returns(uint256) {\n    return bproToken.totalSupply();\n  }\n\n  /**\n    @dev All docs in circulation\n   */\n  function docTotalSupply() public view returns(uint256) {\n    return docToken.totalSupply();\n  }\n\n  /**\n    @dev Target coverage for complete system\n   */\n  function cobj() public view returns(uint256) {\n    return bproxManager.getBucketCobj(BUCKET_C0);\n  }\n\n  /**\n    * @dev Amount of Bitcoins in the system excluding\n    * BTCx values and interests holdings\n    */\n  function collateralRbtcInSystem() public view returns(uint256) {\n    uint256 rbtcInBtcx = mocConverter.bproxToBtc(bproxManager.getBucketNBPro(BUCKET_X2),BUCKET_X2);\n    uint256 rbtcInBag = bproxManager.getInrateBag(BUCKET_C0);\n\n    return rbtcInSystem.sub(rbtcInBtcx).sub(rbtcInBag);\n  }\n\n  /** @dev GLOBAL Coverage\n    * @return coverage [using mocPrecision]\n    */\n  function globalCoverage() public view returns(uint256) {\n    uint256 lB = globalLockedBitcoin();\n\n    return mocLibConfig.coverage(collateralRbtcInSystem(), lB);\n  }\n\n  /**\n  * @dev BUCKET lockedBitcoin\n  * @param bucket Name of the bucket used\n  * @return lockedBitcoin amount [using reservePrecision]\n  */\n  function lockedBitcoin(bytes32 bucket) public view returns(uint256) {\n    uint256 nDoc = bproxManager.getBucketNDoc(bucket);\n\n    return mocLibConfig.lockedBitcoin(getBitcoinPrice(), nDoc, peg);\n  }\n\n  /**\n  * @dev Gets RBTC in BitPro within specified bucket\n  * @param bucket Name of the bucket used\n  * @return Bitcoin amount of BitPro in Bucket [using reservePrecision]\n  */\n  function getRbtcInBitPro(bytes32 bucket) public view returns(uint256) {\n    uint256 nB = bproxManager.getBucketNBTC(bucket);\n    uint256 lB = lockedBitcoin(bucket);\n\n    if ( lB >= nB ){\n      return 0;\n    }\n\n    return nB.sub(lB);\n  }\n\n  /**\n  * @dev Gets the RBTC in the contract that not corresponds\n    to Doc collateral\n  * @return RBTC remainder [using reservePrecision]\n  */\n  function getRbtcRemainder() public view returns(uint256) {\n    uint256 lB = globalLockedBitcoin();\n\n    if ( lB >= rbtcInSystem ){\n      return 0;\n    }\n\n    return rbtcInSystem.sub(lB);\n  }\n\n  /**\n  * @dev BUCKET Coverage\n  * @param bucket Name of the bucket used\n  * @return coverage [using coveragePrecision]\n  */\n  function coverage(bytes32 bucket) public view returns(uint256) {\n    if (!bproxManager.isBucketBase(bucket) && bproxManager.isBucketEmpty(bucket)) {\n      return bproxManager.getBucketCobj(bucket);\n    }\n\n    uint256 nB = bproxManager.getBucketNBTC(bucket);\n    uint256 lB = lockedBitcoin(bucket);\n\n    return mocLibConfig.coverage(nB, lB);\n  }\n\n    /**\n  * @dev Abundance ratio, receives tha amount of doc to use the value of doc0 and Doc total supply\n  * @return abundance ratio [using mocPrecision]\n  */\n  function abundanceRatio(uint256 doc0) public view returns(uint256) {\n    return mocLibConfig.abundanceRatio(doc0, docTotalSupply());\n  }\n\n  /**\n  * @dev Relation between docs in bucket 0 and Doc total supply\n  * @return abundance ratio [using mocPrecision]\n  */\n  function currentAbundanceRatio() public view returns(uint256) {\n    return abundanceRatio(getBucketNDoc(BUCKET_C0));\n  }\n\n  /**\n  * @dev BUCKET Leverage\n  * @param bucket Name of the bucket used\n  * @return coverage [using mocPrecision]\n  */\n  function leverage(bytes32 bucket) public view returns(uint256) {\n    uint256 cov = coverage(bucket);\n\n    return mocLibConfig.leverageFromCoverage(cov);\n  }\n\n  /**\n  * @dev GLOBAL maxDoc\n  * @return abundance ratio [using mocPrecision]\n  */\n  function globalMaxDoc() public view returns(uint256) {\n    return mocLibConfig.maxDoc(collateralRbtcInSystem(), cobj(), docTotalSupply(), peg, getBitcoinPrice(), getBcons());\n  }\n\n  /**\n  * @return amount of docs in bucket 0, that can be redeemed outside of settlement [using mocPrecision]\n  */\n  function freeDoc() public view returns(uint256) {\n    return bproxManager.getBucketNDoc(BUCKET_C0);\n  }\n\n  /**\n  * @dev BUCKET maxDoc\n  * @return abundance ratio [using mocPrecision]\n  */\n  function maxDoc(bytes32 bucket) public view returns(uint256) {\n    uint256 nB = bproxManager.getBucketNBTC(bucket);\n    uint256 nDoc = bproxManager.getBucketNDoc(bucket);\n    uint256 bktCobj = bproxManager.getBucketCobj(bucket);\n\n    return mocLibConfig.maxDoc(nB, bktCobj, nDoc, peg, getBitcoinPrice(), getBcons());\n  }\n\n  /**\n  * @dev GLOBAL maxBPro\n  * @return maxBPro for redeem [using reservePrecision]\n  */\n  function globalMaxBPro() public view returns(uint256) {\n    uint256 bproPrice = bproUsdPrice();\n\n    return mocLibConfig.maxBPro(\n      collateralRbtcInSystem(), cobj(), docTotalSupply(), peg, getBitcoinPrice(), getBcons(), bproPrice\n    );\n  }\n\n  /**\n  * @dev ABSOLUTE maxDoc\n  * @return maxDoc to issue [using mocPrecision]\n  */\n  function absoluteMaxDoc() public view returns(uint256) {\n    return Math.min(globalMaxDoc(), maxDoc(BUCKET_C0));\n  }\n\n  /** @dev BUCKET maxBPro to redeem / mint\n      @param bucket Name of the bucket used\n    * @return maxBPro for redeem [using mocPrecision]\n    */\n  function maxBPro(bytes32 bucket) public view returns(uint256) {\n    uint256 nB = bproxManager.getBucketNBTC(bucket);\n    uint256 nDoc = bproxManager.getBucketNDoc(bucket);\n    uint256 bproPrice = bproUsdPrice();\n    uint256 bktCobj = bproxManager.getBucketCobj(bucket);\n\n    return mocLibConfig.maxBPro(\n      nB, bktCobj, nDoc, peg, getBitcoinPrice(), getBcons(), bproPrice\n    );\n  }\n\n /**\n  * @dev GLOBAL max bprox to mint\n  * @param bucket Name of the bucket used\n  * @return maxBProx [using reservePrecision]\n  */\n  function maxBProx(bytes32 bucket) public view returns(uint256) {\n    uint256 maxBtc = maxBProxBtcValue(bucket);\n\n    return mocLibConfig.maxBProWithBtc(maxBtc, bucketBProTecPrice(bucket));\n  }\n\n  /**\n  * @dev GLOBAL max bprox to mint\n  * @param bucket Name of the bucket used\n  * @return maxBProx BTC value to mint [using reservePrecision]\n  */\n  function maxBProxBtcValue(bytes32 bucket) public view returns(uint256) {\n    uint256 nDoc0 = bproxManager.getBucketNDoc(BUCKET_C0);\n    uint256 bucketLev = leverage(bucket);\n\n    return mocLibConfig.maxBProxBtcValue(nDoc0, peg, getBitcoinPrice(), bucketLev);\n  }\n\n  /** @dev ABSOLUTE maxBPro\n  * @return maxDoc to issue [using mocPrecision]\n  */\n  function absoluteMaxBPro() public view returns(uint256) {\n    return Math.min(globalMaxBPro(), maxBPro(BUCKET_C0));\n  }\n\n  /**\n  * @dev DISCOUNT maxBPro\n  * @return maxBPro for mint with discount [using mocPrecision]\n  */\n  function maxBProWithDiscount() public view returns(uint256) {\n    uint256 nDoc = docTotalSupply();\n    uint256 bproSpotDiscount = bproSpotDiscountRate();\n    uint256 bproPrice = bproUsdPrice();\n    uint256 btcPrice = getBitcoinPrice();\n\n    return mocLibConfig.maxBProWithDiscount(collateralRbtcInSystem(), nDoc, utpdu, peg, btcPrice, bproPrice,\n      bproSpotDiscount);\n  }\n\n  /**\n  * @dev GLOBAL lockedBitcoin\n  * @return lockedBitcoin amount [using reservePrecision]\n  */\n  function globalLockedBitcoin() public view returns(uint256) {\n    return mocLibConfig.lockedBitcoin(getBitcoinPrice(), docTotalSupply(), peg);\n  }\n\n  /**\n  * @dev BTC price of BPro\n  * @return the BPro Tec Price [using reservePrecision]\n  */\n  function bproTecPrice() public view returns(uint256) {\n    return bucketBProTecPrice(BUCKET_C0);\n  }\n\n  /**\n  * @dev BUCKET BTC price of BPro\n  * @param bucket Name of the bucket used\n  * @return the BPro Tec Price [using reservePrecision]\n  */\n  function bucketBProTecPrice(bytes32 bucket) public view returns(uint256) {\n    uint256 nBPro = bproxManager.getBucketNBPro(bucket);\n    uint256 lb = lockedBitcoin(bucket);\n    uint256 nB = bproxManager.getBucketNBTC(bucket);\n\n    return mocLibConfig.bproTecPrice(nB, lb, nBPro);\n  }\n\n  /**\n  * @dev BTC price of BPro with spot discount applied\n  * @return the BPro Tec Price [using reservePrecision]\n  */\n  function bproDiscountPrice() public view returns(uint256) {\n    uint256 bproTecprice = bproTecPrice();\n    uint256 discountRate = bproSpotDiscountRate();\n\n    return mocLibConfig.applyDiscountRate(bproTecprice, discountRate);\n  }\n\n  /**\n  * @dev BPro USD PRICE\n  * @return the BPro USD Price [using mocPrecision]\n  */\n  function bproUsdPrice() public view returns(uint256) {\n    uint256 bproBtcPrice = bproTecPrice();\n    uint256 btcPrice = getBitcoinPrice();\n\n    return btcPrice.mul(bproBtcPrice).div(mocLibConfig.reservePrecision);\n  }\n\n /**\n  * @dev GLOBAL max bprox to mint\n  * @param bucket Name of the bucket used\n  * @return max BPro allowed to be spent to mint BProx [using reservePrecision]\n  **/\n  function maxBProxBProValue(bytes32 bucket) public view returns(uint256) {\n    uint256 btcValue = maxBProxBtcValue(bucket);\n\n    return mocLibConfig.maxBProWithBtc(btcValue, bproTecPrice());\n  }\n\n  /**\n  * @dev BUCKET BProx price in BPro\n  * @param bucket Name of the bucket used\n  * @return BProx BPro Price [using mocPrecision]\n  */\n  function bproxBProPrice(bytes32 bucket) public view returns(uint256) {\n    // Otherwise, it reverts.\n    if (state == States.Liquidated) {\n      return 0;\n    }\n\n    uint256 bproxBtcPrice = bucketBProTecPrice(bucket);\n    uint256 bproBtcPrice = bproTecPrice();\n\n    return mocLibConfig.bproxBProPrice(bproxBtcPrice, bproBtcPrice);\n  }\n\n  /**\n  * @dev GLOBAL BTC Discount rate to apply to BProPrice.\n  * @return BPro discount rate [using DISCOUNT_PRECISION].\n   */\n  function bproSpotDiscountRate() public view returns(uint256) {\n    uint256 cov = globalCoverage();\n\n    return mocLibConfig.bproSpotDiscountRate(bproMaxDiscountRate, liq, utpdu, cov);\n  }\n\n  /**\n    @dev Calculates the number of days to next settlement based dayBlockSpan\n   */\n  function daysToSettlement() public view returns(uint256) {\n    return blocksToSettlement().mul(mocLibConfig.dayPrecision).div(dayBlockSpan);\n  }\n\n  /**\n    @dev Number of blocks to settlement\n   */\n  function blocksToSettlement() public view returns(uint256) {\n    if (mocSettlement.nextSettlementBlock() <= block.number) {\n      return 0;\n    }\n\n    return mocSettlement.nextSettlementBlock().sub(block.number);\n  }\n\n  /**\n   * @dev Verifies if forced liquidation is reached checking if globalCoverage <= liquidation (currently 1.04)\n   * @return true if liquidation state is reached, false otherwise\n   */\n  function isLiquidationReached() public view returns(bool) {\n    uint256 cov = globalCoverage();\n    if (state != States.Liquidated && cov <= liq)\n      return true;\n    return false;\n  }\n\n  /**\n    @dev Returns the price to use for doc redeem in a liquidation event\n   */\n  function getLiquidationPrice() public view returns(uint256) {\n    return liquidationPrice;\n  }\n\n  function getBucketNBTC(bytes32 bucket) public view returns(uint256) {\n    return bproxManager.getBucketNBTC(bucket);\n  }\n\n  function getBucketNBPro(bytes32 bucket) public view returns(uint256) {\n    return bproxManager.getBucketNBPro(bucket);\n  }\n\n  function getBucketNDoc(bytes32 bucket) public view returns(uint256) {\n    return bproxManager.getBucketNDoc(bucket);\n  }\n\n  function getBucketCobj(bytes32 bucket) public view returns(uint256) {\n    return bproxManager.getBucketCobj(bucket);\n  }\n\n  function getInrateBag(bytes32 bucket) public view returns(uint256) {\n    return bproxManager.getInrateBag(bucket);\n  }\n\n  /**********************\n    BTC PRICE PROVIDER\n   *********************/\n\n  function getBcons() public view returns(uint256) {\n    return Math.min(getBitcoinPrice(), getBitcoinMovingAverage());\n  }\n\n  function getBitcoinPrice() public view returns(uint256) {\n    (bytes32 price, bool has) = btcPriceProvider.peek();\n    require(has, \"Oracle have no Bitcoin Price\");\n\n    return uint256(price);\n  }\n\n\n  function calculateBitcoinMovingAverage() public {\n    setBitcoinMovingAverage(getBitcoinPrice());\n  }\n\n\n\n  /**\n   * @dev return the value of the liq threshold configuration param\n   * @return liq threshold, currently 1.04\n   */\n  function getLiq() public view returns(uint256) {\n    return liq;\n  }\n\n  /**\n   * @dev sets the value of the liq threshold configuration param\n   * @param _liq liquidation threshold\n   */\n  function setLiq(uint _liq) public onlyAuthorizedChanger(){\n    liq = _liq;\n  }\n\n  /**\n   * @dev return the value of the utpdu threshold configuration param\n   * @return utpdu Universal TPro discount sales coverage threshold\n   */\n  function getUtpdu() public view returns(uint256) {\n    return utpdu;\n  }\n\n  /**\n   * @dev sets the value of the utpdu threshold configuration param\n   * @param _utpdu Universal TPro discount sales coverage threshold\n   */\n  function setUtpdu(uint _utpdu) public onlyAuthorizedChanger(){\n    utpdu = _utpdu;\n  }\n\n  /**\n   * @dev returns the relation between DOC and dollar. By default it is 1.\n   * @return peg relation between DOC and dollar\n   */\n  function getPeg() public view returns(uint256) {\n    return peg;\n  }\n\n  /**\n   * @dev sets the relation between DOC and dollar. By default it is 1.\n   * @param _peg relation between DOC and dollar\n   */\n  function setPeg(uint _peg) public onlyAuthorizedChanger(){\n    peg = _peg;\n  }\n\n  function nextState() public {\n    // There is no coming back from Liquidation\n    if (state == States.Liquidated)\n      return;\n\n    States prevState = state;\n    calculateBitcoinMovingAverage();\n    uint256 cov = globalCoverage();\n    if (cov <= liq) {\n      setLiquidationPrice();\n      state = States.Liquidated;\n    } else if (cov > liq && cov <= utpdu) {\n      state = States.BProDiscount;\n    } else if (cov > utpdu && cov <= cobj()) {\n      state = States.BelowCobj;\n    } else {\n      state = States.AboveCobj;\n    }\n\n    if (prevState != state)\n      emit StateTransition(state);\n  }\n\n\n  /**\n    @dev Calculates price at liquidation event as the relation between\n    the doc total supply and the amount of RBTC available to distribute\n   */\n  function setLiquidationPrice() internal {\n    // When coverage is below 1, the amount to\n    // distribute is all the RBTC in the contract\n    uint256 rbtcAvailable = Math.min(globalLockedBitcoin(), rbtcInSystem);\n\n    liquidationPrice = mocLibConfig.liquidationPrice(rbtcAvailable, docTotalSupply());\n  }\n\n  function initializeValues(\n    address _governor,\n    address _btcPriceProvider,\n    uint256 _liq,\n    uint256 _utpdu,\n    uint256 _maxDiscRate,\n    uint256 _dayBlockSpan) internal {\n    liq = _liq;\n    utpdu = _utpdu;\n    bproMaxDiscountRate = _maxDiscRate;\n    dayBlockSpan = _dayBlockSpan;\n    governor = IGovernor(_governor);\n    btcPriceProvider = BtcPriceProvider(_btcPriceProvider);\n    // Default values\n    state = States.AboveCobj;\n    peg = 1;\n  }\n\n  function initializeContracts() internal  {\n    mocSettlement = MoCSettlement(connector.mocSettlement());\n    docToken = DocToken(connector.docToken());\n    bproToken = BProToken(connector.bproToken());\n    bproxManager = MoCBProxManager(connector.bproxManager());\n    mocConverter = MoCConverter(connector.mocConverter());\n  }\n\n  /************************************/\n  /***** UPGRADE v017       ***********/\n  /************************************/\n\n  /** START UPDATE V017: 01/11/2019 **/\n\n  // Max value posible to mint of BPro\n  uint256 public maxMintBPro;\n\n  // to check is already initialized upgrade v017\n  bool internal upgrade_v017;\n\n  function initialize_v017(uint256 _maxMintBPro) public {\n\n    require(upgrade_v017 == false, \"Already Initialized\");\n\n    maxMintBPro = _maxMintBPro;\n\n    upgrade_v017 = true;\n  }\n\n  /**\n  * @param _maxMintBPro [using mocPrecision]\n  **/\n  function setMaxMintBPro(uint256 _maxMintBPro) public onlyAuthorizedChanger() {\n    maxMintBPro = _maxMintBPro;\n  }\n\n   /**\n   * @dev return Max value posible to mint of BPro\n   * @return maxMintBPro\n   */\n  function getMaxMintBPro() public view returns(uint256) {\n    return maxMintBPro;\n  }\n\n  /**\n  * @dev return the bpro available to mint\n  * @return maxMintBProAvalaible  [using mocPrecision]\n  */\n  function maxMintBProAvalaible() public view returns(uint256) {\n\n    uint256 totalBPro = bproTotalSupply();\n    uint256 maxiMintBPro = getMaxMintBPro();\n\n    if (totalBPro >= maxiMintBPro) {\n      return 0;\n    }\n\n    uint256 availableMintBPro = maxiMintBPro.sub(totalBPro);\n\n    if (availableMintBPro < mocLibConfig.mocPrecision) {\n      return 0;\n    }\n\n    return availableMintBPro;\n  }\n\n  /** END UPDATE V017: 01/11/2019 **/\n\n  // Leave a gap betweeen inherited contracts variables in order to be\n  // able to add more variables in them later\n  uint256[48] private upgradeGap;\n}\n",
  "sourcePath": "/home/martin/Proyectos/moc_deployments/contracts/repositories/dev_moc_internal/moc/contracts/MoCState_v017.sol",
  "compiler": {
    "name": "solc",
    "version": "0.5.8+commit.23d335f2.Emscripten.clang"
  },
  "schemaVersion": "3.0.11",
  "updatedAt": "2019-11-05T09:45:03.166Z",
  "devdoc": {
    "methods": {
      "absoluteMaxBPro()": {
        "details": "ABSOLUTE maxBPro",
        "return": "maxDoc to issue [using mocPrecision]"
      },
      "absoluteMaxDoc()": {
        "details": "ABSOLUTE maxDoc",
        "return": "maxDoc to issue [using mocPrecision]"
      },
      "abundanceRatio(uint256)": {
        "details": "Abundance ratio, receives tha amount of doc to use the value of doc0 and Doc total supply",
        "return": "abundance ratio [using mocPrecision]"
      },
      "addToRbtcInSystem(uint256)": {
        "details": "btcAmount Add the btc amount passed by parameter to the total Bitcoin Amount",
        "params": {
          "btcAmount": "Amount that will be added to rbtcInSystem"
        }
      },
      "blocksToSettlement()": {
        "details": "Number of blocks to settlement"
      },
      "bproDiscountPrice()": {
        "details": "BTC price of BPro with spot discount applied",
        "return": "the BPro Tec Price [using reservePrecision]"
      },
      "bproSpotDiscountRate()": {
        "details": "GLOBAL BTC Discount rate to apply to BProPrice.",
        "return": "BPro discount rate [using DISCOUNT_PRECISION]."
      },
      "bproTecPrice()": {
        "details": "BTC price of BPro",
        "return": "the BPro Tec Price [using reservePrecision]"
      },
      "bproTotalSupply()": {
        "details": "All BPros in circulation"
      },
      "bproUsdPrice()": {
        "details": "BPro USD PRICE",
        "return": "the BPro USD Price [using mocPrecision]"
      },
      "bproxBProPrice(bytes32)": {
        "details": "BUCKET BProx price in BPro",
        "params": {
          "bucket": "Name of the bucket used"
        },
        "return": "BProx BPro Price [using mocPrecision]"
      },
      "bucketBProTecPrice(bytes32)": {
        "details": "BUCKET BTC price of BPro",
        "params": {
          "bucket": "Name of the bucket used"
        },
        "return": "the BPro Tec Price [using reservePrecision]"
      },
      "changeIGovernor(address)": {
        "params": {
          "newIGovernor": "New governor address"
        }
      },
      "cobj()": {
        "details": "Target coverage for complete system"
      },
      "collateralRbtcInSystem()": {
        "details": "Amount of Bitcoins in the system excluding BTCx values and interests holdings"
      },
      "coverage(bytes32)": {
        "details": "BUCKET Coverage",
        "params": {
          "bucket": "Name of the bucket used"
        },
        "return": "coverage [using coveragePrecision]"
      },
      "currentAbundanceRatio()": {
        "details": "Relation between docs in bucket 0 and Doc total supply",
        "return": "abundance ratio [using mocPrecision]"
      },
      "daysToSettlement()": {
        "details": "Calculates the number of days to next settlement based dayBlockSpan"
      },
      "docTotalSupply()": {
        "details": "All docs in circulation"
      },
      "freeDoc()": {
        "return": "amount of docs in bucket 0, that can be redeemed outside of settlement [using mocPrecision]"
      },
      "getBtcPriceProvider()": {
        "details": "Gets the BTCPriceProviderAddress",
        "return": "btcPriceProvider blocks there are in a day*"
      },
      "getDayBlockSpan()": {
        "details": "Gets how many blocks there are in a day",
        "return": "blocks there are in a day"
      },
      "getLiq()": {
        "details": "return the value of the liq threshold configuration param",
        "return": "liq threshold, currently 1.04"
      },
      "getLiquidationPrice()": {
        "details": "Returns the price to use for doc redeem in a liquidation event"
      },
      "getMaxDiscountRate()": {
        "details": "return the value of the BPro max discount rate configuration param",
        "return": "bproMaxDiscountRate BPro max discount rate"
      },
      "getMaxMintBPro()": {
        "details": "return Max value posible to mint of BPro",
        "return": "maxMintBPro"
      },
      "getPeg()": {
        "details": "returns the relation between DOC and dollar. By default it is 1.",
        "return": "peg relation between DOC and dollar"
      },
      "getRbtcInBitPro(bytes32)": {
        "details": "Gets RBTC in BitPro within specified bucket",
        "params": {
          "bucket": "Name of the bucket used"
        },
        "return": "Bitcoin amount of BitPro in Bucket [using reservePrecision]"
      },
      "getRbtcRemainder()": {
        "details": "Gets the RBTC in the contract that not corresponds to Doc collateral",
        "return": "RBTC remainder [using reservePrecision]"
      },
      "getUtpdu()": {
        "details": "return the value of the utpdu threshold configuration param",
        "return": "utpdu Universal TPro discount sales coverage threshold"
      },
      "globalCoverage()": {
        "details": "GLOBAL Coverage",
        "return": "coverage [using mocPrecision]"
      },
      "globalLockedBitcoin()": {
        "details": "GLOBAL lockedBitcoin",
        "return": "lockedBitcoin amount [using reservePrecision]"
      },
      "globalMaxBPro()": {
        "details": "GLOBAL maxBPro",
        "return": "maxBPro for redeem [using reservePrecision]"
      },
      "globalMaxDoc()": {
        "details": "GLOBAL maxDoc",
        "return": "abundance ratio [using mocPrecision]"
      },
      "initialize(address)": {
        "details": "This initialize replaces the constructor but it is not called automatically. It is necessary because of the upgradeability of the contracts",
        "params": {
          "_governor": "Governor address"
        }
      },
      "isLiquidationReached()": {
        "details": "Verifies if forced liquidation is reached checking if globalCoverage <= liquidation (currently 1.04)",
        "return": "true if liquidation state is reached, false otherwise"
      },
      "leverage(bytes32)": {
        "details": "BUCKET Leverage",
        "params": {
          "bucket": "Name of the bucket used"
        },
        "return": "coverage [using mocPrecision]"
      },
      "lockedBitcoin(bytes32)": {
        "details": "BUCKET lockedBitcoin",
        "params": {
          "bucket": "Name of the bucket used"
        },
        "return": "lockedBitcoin amount [using reservePrecision]"
      },
      "maxBPro(bytes32)": {
        "details": "BUCKET maxBPro to redeem / mint",
        "params": {
          "bucket": "Name of the bucket used"
        },
        "return": "maxBPro for redeem [using mocPrecision]"
      },
      "maxBProWithDiscount()": {
        "details": "DISCOUNT maxBPro",
        "return": "maxBPro for mint with discount [using mocPrecision]"
      },
      "maxBProx(bytes32)": {
        "details": "GLOBAL max bprox to mint",
        "params": {
          "bucket": "Name of the bucket used"
        },
        "return": "maxBProx [using reservePrecision]"
      },
      "maxBProxBProValue(bytes32)": {
        "details": "GLOBAL max bprox to mint",
        "params": {
          "bucket": "Name of the bucket used"
        },
        "return": "max BPro allowed to be spent to mint BProx [using reservePrecision]*"
      },
      "maxBProxBtcValue(bytes32)": {
        "details": "GLOBAL max bprox to mint",
        "params": {
          "bucket": "Name of the bucket used"
        },
        "return": "maxBProx BTC value to mint [using reservePrecision]"
      },
      "maxDoc(bytes32)": {
        "details": "BUCKET maxDoc",
        "return": "abundance ratio [using mocPrecision]"
      },
      "maxMintBProAvalaible()": {
        "details": "return the bpro available to mint",
        "return": "maxMintBProAvalaible  [using mocPrecision]"
      },
      "setBtcPriceProvider(address)": {
        "details": "Sets a new BTCProvider contract",
        "params": {
          "btcProviderAddress": "blocks there are in a day*"
        }
      },
      "setDayBlockSpan(uint256)": {
        "details": "Defines how many blocks there are in a day",
        "params": {
          "blockSpan": "blocks there are in a day*"
        }
      },
      "setEmaCalculationBlockSpan(uint256)": {
        "params": {
          "blockSpan": "Defines how many blocks should pass between BMA calculations*"
        }
      },
      "setLiq(uint256)": {
        "details": "sets the value of the liq threshold configuration param",
        "params": {
          "_liq": "liquidation threshold"
        }
      },
      "setMaxDiscountRate(uint256)": {
        "params": {
          "rate": "Discount rate at liquidation level [using mocPrecision]*"
        }
      },
      "setMaxMintBPro(uint256)": {
        "params": {
          "_maxMintBPro": "[using mocPrecision]*"
        }
      },
      "setPeg(uint256)": {
        "details": "sets the relation between DOC and dollar. By default it is 1.",
        "params": {
          "_peg": "relation between DOC and dollar"
        }
      },
      "setUtpdu(uint256)": {
        "details": "sets the value of the utpdu threshold configuration param",
        "params": {
          "_utpdu": "Universal TPro discount sales coverage threshold"
        }
      },
      "subtractRbtcFromSystem(uint256)": {
        "details": "Subtract the btc amount passed by parameter to the total Bitcoin Amount",
        "params": {
          "btcAmount": "Amount that will be subtract to rbtcInSystem"
        }
      }
    }
  },
  "userdoc": {
    "methods": {
      "changeIGovernor(address)": {
        "notice": "Change the contract's governor. Should be called through the old governance system"
      },
      "getBcons()": {
        "notice": "******************** BTC PRICE PROVIDER********************"
      },
      "initialize(address)": {
        "notice": "Initialize the contract with the basic settings"
      }
    }
  }
}